{
	"data": {
		"bytecode": {
			"linkReferences": {},
			"object": "61010060405260405180602001604052806000815250600d90805190602001906200002c9291906200032d565b506000601060006101000a81548160ff02191690831515021790555060006011553480156200005a57600080fd5b5060405162005e1038038062005e10833981810160405281019062000080919062000472565b878781600090805190602001906200009a9291906200032d565b508060019080519060200190620000b39291906200032d565b5050506000620000c8620001b760201b60201c565b905080600b60006101000a81548173ffffffffffffffffffffffffffffffffffffffff021916908373ffffffffffffffffffffffffffffffffffffffff1602179055508073ffffffffffffffffffffffffffffffffffffffff16600073ffffffffffffffffffffffffffffffffffffffff167f8be0079c531659141344cd1fd0a4f28419497f9722a3daafe3b4186f6b6457e060405160405180910390a3508360a081815250508260c081815250508060e0818152505081608081815250506200019886620001bf60201b60201c565b620001a9856200026a60201b60201c565b5050505050505050620007c3565b600033905090565b620001cf620001b760201b60201c565b73ffffffffffffffffffffffffffffffffffffffff16620001f56200030360201b60201c565b73ffffffffffffffffffffffffffffffffffffffff16146200024e576040517f08c379a00000000000000000000000000000000000000000000000000000000081526004016200024590620005bf565b60405180910390fd5b80600d9080519060200190620002669291906200032d565b5050565b6200027a620001b760201b60201c565b73ffffffffffffffffffffffffffffffffffffffff16620002a06200030360201b60201c565b73ffffffffffffffffffffffffffffffffffffffff1614620002f9576040517f08c379a0000000000000000000000000000000000000000000000000000000008152600401620002f090620005bf565b60405180910390fd5b80600f8190555050565b6000600b60009054906101000a900473ffffffffffffffffffffffffffffffffffffffff16905090565b8280546200033b9062000691565b90600052602060002090601f0160209004810192826200035f5760008555620003ab565b82601f106200037a57805160ff1916838001178555620003ab565b82800160010185558215620003ab579182015b82811115620003aa5782518255916020019190600101906200038d565b5b509050620003ba9190620003be565b5090565b5b80821115620003d9576000816000905550600101620003bf565b5090565b6000620003f4620003ee846200060a565b620005e1565b90508281526020810184848401111562000413576200041262000760565b5b620004208482856200065b565b509392505050565b600082601f83011262000440576200043f6200075b565b5b815162000452848260208601620003dd565b91505092915050565b6000815190506200046c81620007a9565b92915050565b600080600080600080600080610100898b0312156200049657620004956200076a565b5b600089015167ffffffffffffffff811115620004b757620004b662000765565b5b620004c58b828c0162000428565b985050602089015167ffffffffffffffff811115620004e957620004e862000765565b5b620004f78b828c0162000428565b975050604089015167ffffffffffffffff8111156200051b576200051a62000765565b5b620005298b828c0162000428565b96505060606200053c8b828c016200045b565b95505060806200054f8b828c016200045b565b94505060a0620005628b828c016200045b565b93505060c0620005758b828c016200045b565b92505060e0620005888b828c016200045b565b9150509295985092959890939650565b6000620005a760208362000640565b9150620005b48262000780565b602082019050919050565b60006020820190508181036000830152620005da8162000598565b9050919050565b6000620005ed62000600565b9050620005fb8282620006c7565b919050565b6000604051905090565b600067ffffffffffffffff8211156200062857620006276200072c565b5b62000633826200076f565b9050602081019050919050565b600082825260208201905092915050565b6000819050919050565b60005b838110156200067b5780820151818401526020810190506200065e565b838111156200068b576000848401525b50505050565b60006002820490506001821680620006aa57607f821691505b60208210811415620006c157620006c0620006fd565b5b50919050565b620006d2826200076f565b810181811067ffffffffffffffff82111715620006f457620006f36200072c565b5b80604052505050565b7f4e487b7100000000000000000000000000000000000000000000000000000000600052602260045260246000fd5b7f4e487b7100000000000000000000000000000000000000000000000000000000600052604160045260246000fd5b600080fd5b600080fd5b600080fd5b600080fd5b6000601f19601f8301169050919050565b7f4f776e61626c653a2063616c6c6572206973206e6f7420746865206f776e6572600082015250565b620007b48162000651565b8114620007c057600080fd5b50565b60805160a05160c05160e0516155f06200082060003960008181610e700152611206015260008181610f1101526121f6015260008181610b1c01528181610dfb01528181611995015261278001526000610f7401526155f06000f3fe6080604052600436106102255760003560e01c806370a0823111610123578063a22cb465116100ab578063da1b9e081161006f578063da1b9e08146107e2578063e985e9c51461080b578063ed64892b14610848578063f2fde38b14610885578063f968adbe146108ae57610225565b8063a22cb46514610713578063b66a0e5d1461073c578063b88d4fde14610753578063c1e4dfda1461077c578063c87b56dd146107a557610225565b8063853828b6116100f2578063853828b61461065257806387ec11b3146106695780638da5cb5b1461069257806395d89b41146106bd578063a035b1fe146106e857610225565b806370a0823114610598578063715018a6146105d55780637d27d66c146105ec5780638462151c1461061557610225565b806323b872dd116101b157806342842e0e1161017557806342842e0e146104b55780634c1a8642146104de5780634f6ccce71461050757806355367ba9146105445780636352211e1461055b57610225565b806323b872dd146103df5780632d69044f146104085780632f745c5914610424578063384242be1461046157806340221e201461048a57610225565b80630b191314116101f85780630b191314146102f857806314a1fc3514610323578063162094c41461036057806318160ddd146103895780631c8b232d146103b457610225565b806301ffc9a71461022a57806306fdde0314610267578063081812fc14610292578063095ea7b3146102cf575b600080fd5b34801561023657600080fd5b50610251600480360381019061024c9190613d21565b6108d9565b60405161025e9190614544565b60405180910390f35b34801561027357600080fd5b5061027c6108eb565b604051610289919061455f565b60405180910390f35b34801561029e57600080fd5b506102b960048036038101906102b49190613dc4565b61097d565b6040516102c69190614489565b60405180910390f35b3480156102db57600080fd5b506102f660048036038101906102f19190613c94565b610a02565b005b34801561030457600080fd5b5061030d610b1a565b60405161031a91906148e1565b60405180910390f35b34801561032f57600080fd5b5061034a60048036038101906103459190613b11565b610b3e565b60405161035791906148e1565b60405180910390f35b34801561036c57600080fd5b5061038760048036038101906103829190613e51565b610bf6565b005b34801561039557600080fd5b5061039e610d16565b6040516103ab91906148e1565b60405180910390f35b3480156103c057600080fd5b506103c9610d23565b6040516103d69190614544565b60405180910390f35b3480156103eb57600080fd5b5061040660048036038101906104019190613b7e565b610d36565b005b610422600480360381019061041d9190613df1565b610d96565b005b34801561043057600080fd5b5061044b60048036038101906104469190613c94565b61109f565b60405161045891906148e1565b60405180910390f35b34801561046d57600080fd5b5061048860048036038101906104839190613b11565b611144565b005b34801561049657600080fd5b5061049f611204565b6040516104ac91906148e1565b60405180910390f35b3480156104c157600080fd5b506104dc60048036038101906104d79190613b7e565b611228565b005b3480156104ea57600080fd5b5061050560048036038101906105009190613dc4565b611248565b005b34801561051357600080fd5b5061052e60048036038101906105299190613dc4565b6112e7565b60405161053b91906148e1565b60405180910390f35b34801561055057600080fd5b50610559611358565b005b34801561056757600080fd5b50610582600480360381019061057d9190613dc4565b6113f1565b60405161058f9190614489565b60405180910390f35b3480156105a457600080fd5b506105bf60048036038101906105ba9190613b11565b6114a3565b6040516105cc91906148e1565b60405180910390f35b3480156105e157600080fd5b506105ea61155b565b005b3480156105f857600080fd5b50610613600480360381019061060e9190613c94565b611698565b005b34801561062157600080fd5b5061063c60048036038101906106379190613b11565b61176e565b6040516106499190614522565b60405180910390f35b34801561065e57600080fd5b50610667611878565b005b34801561067557600080fd5b50610690600480360381019061068b9190613cd4565b61193d565b005b34801561069e57600080fd5b506106a7611b5b565b6040516106b49190614489565b60405180910390f35b3480156106c957600080fd5b506106d2611b85565b6040516106df919061455f565b60405180910390f35b3480156106f457600080fd5b506106fd611c17565b60405161070a91906148e1565b60405180910390f35b34801561071f57600080fd5b5061073a60048036038101906107359190613c54565b611c1d565b005b34801561074857600080fd5b50610751611c33565b005b34801561075f57600080fd5b5061077a60048036038101906107759190613bd1565b611ccc565b005b34801561078857600080fd5b506107a3600480360381019061079e9190613dc4565b611d2e565b005b3480156107b157600080fd5b506107cc60048036038101906107c79190613dc4565b611db4565b6040516107d9919061455f565b60405180910390f35b3480156107ee57600080fd5b5061080960048036038101906108049190613d7b565b611f06565b005b34801561081757600080fd5b50610832600480360381019061082d9190613b3e565b611f9c565b60405161083f9190614544565b60405180910390f35b34801561085457600080fd5b5061086f600480360381019061086a9190613b11565b612030565b60405161087c91906148e1565b60405180910390f35b34801561089157600080fd5b506108ac60048036038101906108a79190613b11565b612048565b005b3480156108ba57600080fd5b506108c36121f4565b6040516108d091906148e1565b60405180910390f35b60006108e482612218565b9050919050565b6060600080546108fa90614c2a565b80601f016020809104026020016040519081016040528092919081815260200182805461092690614c2a565b80156109735780601f1061094857610100808354040283529160200191610973565b820191906000526020600020905b81548152906001019060200180831161095657829003601f168201915b5050505050905090565b600061098882612292565b6109c7576040517f08c379a00000000000000000000000000000000000000000000000000000000081526004016109be90614821565b60405180910390fd5b6004600083815260200190815260200160002060009054906101000a900473ffffffffffffffffffffffffffffffffffffffff169050919050565b6000610a0d826113f1565b90508073ffffffffffffffffffffffffffffffffffffffff168373ffffffffffffffffffffffffffffffffffffffff161415610a7e576040517f08c379a0000000000000000000000000000000000000000000000000000000008152600401610a7590614881565b60405180910390fd5b8073ffffffffffffffffffffffffffffffffffffffff16610a9d6122fe565b73ffffffffffffffffffffffffffffffffffffffff161480610acc5750610acb81610ac66122fe565b611f9c565b5b610b0b576040517f08c379a0000000000000000000000000000000000000000000000000000000008152600401610b0290614701565b60405180910390fd5b610b158383612306565b505050565b7f000000000000000000000000000000000000000000000000000000000000000081565b60008073ffffffffffffffffffffffffffffffffffffffff168273ffffffffffffffffffffffffffffffffffffffff161415610baf576040517f08c379a0000000000000000000000000000000000000000000000000000000008152600401610ba690614721565b60405180910390fd5b601360008373ffffffffffffffffffffffffffffffffffffffff1673ffffffffffffffffffffffffffffffffffffffff168152602001908152602001600020549050919050565b600c60009054906101000a900473ffffffffffffffffffffffffffffffffffffffff1673ffffffffffffffffffffffffffffffffffffffff163373ffffffffffffffffffffffffffffffffffffffff161480610c845750610c55611b5b565b73ffffffffffffffffffffffffffffffffffffffff163373ffffffffffffffffffffffffffffffffffffffff16145b610cc3576040517f08c379a0000000000000000000000000000000000000000000000000000000008152600401610cba90614581565b60405180910390fd5b610d118383838080601f016020809104026020016040519081016040528093929190818152602001838380828437600081840152601f19601f820116905080830192505050505050506123bf565b505050565b6000600880549050905090565b601060009054906101000a900460ff1681565b610d47610d416122fe565b82612433565b610d86576040517f08c379a0000000000000000000000000000000000000000000000000000000008152600401610d7d906148a1565b60405180910390fd5b610d91838383612511565b505050565b60008311610da357600080fd5b60011515601060009054906101000a900460ff16151514610df9576040517f08c379a0000000000000000000000000000000000000000000000000000000008152600401610df0906147c1565b60405180910390fd5b7f000000000000000000000000000000000000000000000000000000000000000083610e23610d16565b610e2d91906149ff565b1115610e6e576040517f08c379a0000000000000000000000000000000000000000000000000000000008152600401610e65906146e1565b60405180910390fd5b7f0000000000000000000000000000000000000000000000000000000000000000601460003373ffffffffffffffffffffffffffffffffffffffff1673ffffffffffffffffffffffffffffffffffffffff1681526020019081526020016000205410610f0f576040517f08c379a0000000000000000000000000000000000000000000000000000000008152600401610f06906147e1565b60405180910390fd5b7f0000000000000000000000000000000000000000000000000000000000000000831115610f72576040517f08c379a0000000000000000000000000000000000000000000000000000000008152600401610f69906146a1565b60405180910390fd5b7f00000000000000000000000000000000000000000000000000000000000000008282905014610fd7576040517f08c379a0000000000000000000000000000000000000000000000000000000008152600401610fce90614681565b60405180910390fd5b60005b83811015611099576000610fec612778565b9050610ff833826128a5565b838360156000848152602001908152602001600020919061101a92919061382c565b506011600081548092919061102e90614c8d565b91905055503373ffffffffffffffffffffffffffffffffffffffff167f06ed0e5921c2b0f37ed5915265df534d42bd7ad62c6c44687e004658c5e331aa85858460405161107d939291906144f0565b60405180910390a250808061109190614c8d565b915050610fda565b50505050565b60006110aa836114a3565b82106110eb576040517f08c379a00000000000000000000000000000000000000000000000000000000081526004016110e2906145a1565b60405180910390fd5b600660008473ffffffffffffffffffffffffffffffffffffffff1673ffffffffffffffffffffffffffffffffffffffff168152602001908152602001600020600083815260200190815260200160002054905092915050565b61114c6122fe565b73ffffffffffffffffffffffffffffffffffffffff1661116a611b5b565b73ffffffffffffffffffffffffffffffffffffffff16146111c0576040517f08c379a00000000000000000000000000000000000000000000000000000000081526004016111b790614841565b60405180910390fd5b80600c60006101000a81548173ffffffffffffffffffffffffffffffffffffffff021916908373ffffffffffffffffffffffffffffffffffffffff16021790555050565b7f000000000000000000000000000000000000000000000000000000000000000081565b61124383838360405180602001604052806000815250611ccc565b505050565b6112506122fe565b73ffffffffffffffffffffffffffffffffffffffff1661126e611b5b565b73ffffffffffffffffffffffffffffffffffffffff16146112c4576040517f08c379a00000000000000000000000000000000000000000000000000000000081526004016112bb90614841565b60405180910390fd5b6000670de0b6b3a7640000905080826112dd9190614a86565b600f819055505050565b60006112f1610d16565b8210611332576040517f08c379a0000000000000000000000000000000000000000000000000000000008152600401611329906148c1565b60405180910390fd5b6008828154811061134657611345614dcd565b5b90600052602060002001549050919050565b6113606122fe565b73ffffffffffffffffffffffffffffffffffffffff1661137e611b5b565b73ffffffffffffffffffffffffffffffffffffffff16146113d4576040517f08c379a00000000000000000000000000000000000000000000000000000000081526004016113cb90614841565b60405180910390fd5b6000601060006101000a81548160ff021916908315150217905550565b6000806002600084815260200190815260200160002060009054906101000a900473ffffffffffffffffffffffffffffffffffffffff169050600073ffffffffffffffffffffffffffffffffffffffff168173ffffffffffffffffffffffffffffffffffffffff16141561149a576040517f08c379a000000000000000000000000000000000000000000000000000000000815260040161149190614761565b60405180910390fd5b80915050919050565b60008073ffffffffffffffffffffffffffffffffffffffff168273ffffffffffffffffffffffffffffffffffffffff161415611514576040517f08c379a000000000000000000000000000000000000000000000000000000000815260040161150b90614721565b60405180910390fd5b600360008373ffffffffffffffffffffffffffffffffffffffff1673ffffffffffffffffffffffffffffffffffffffff168152602001908152602001600020549050919050565b6115636122fe565b73ffffffffffffffffffffffffffffffffffffffff16611581611b5b565b73ffffffffffffffffffffffffffffffffffffffff16146115d7576040517f08c379a00000000000000000000000000000000000000000000000000000000081526004016115ce90614841565b60405180910390fd5b600073ffffffffffffffffffffffffffffffffffffffff16600b60009054906101000a900473ffffffffffffffffffffffffffffffffffffffff1673ffffffffffffffffffffffffffffffffffffffff167f8be0079c531659141344cd1fd0a4f28419497f9722a3daafe3b4186f6b6457e060405160405180910390a36000600b60006101000a81548173ffffffffffffffffffffffffffffffffffffffff021916908373ffffffffffffffffffffffffffffffffffffffff160217905550565b6116a06122fe565b73ffffffffffffffffffffffffffffffffffffffff166116be611b5b565b73ffffffffffffffffffffffffffffffffffffffff1614611714576040517f08c379a000000000000000000000000000000000000000000000000000000000815260040161170b90614841565b60405180910390fd5b80601360008473ffffffffffffffffffffffffffffffffffffffff1673ffffffffffffffffffffffffffffffffffffffff168152602001908152602001600020600082825461176391906149ff565b925050819055505050565b6060600061177b836114a3565b905060008114156117d857600067ffffffffffffffff8111156117a1576117a0614dfc565b5b6040519080825280602002602001820160405280156117cf5781602001602082028036833780820191505090505b50915050611873565b60008167ffffffffffffffff8111156117f4576117f3614dfc565b5b6040519080825280602002602001820160405280156118225781602001602082028036833780820191505090505b50905060005b8281101561186c5761183a858261109f565b82828151811061184d5761184c614dcd565b5b602002602001018181525050808061186490614c8d565b915050611828565b8193505050505b919050565b6118806122fe565b73ffffffffffffffffffffffffffffffffffffffff1661189e611b5b565b73ffffffffffffffffffffffffffffffffffffffff16146118f4576040517f08c379a00000000000000000000000000000000000000000000000000000000081526004016118eb90614841565b60405180910390fd5b3373ffffffffffffffffffffffffffffffffffffffff166108fc479081150290604051600060405180830381858888f1935050505015801561193a573d6000803e3d6000fd5b50565b60011515601060009054906101000a900460ff16151514611993576040517f08c379a000000000000000000000000000000000000000000000000000000000815260040161198a906147c1565b60405180910390fd5b7f00000000000000000000000000000000000000000000000000000000000000006119bc610d16565b106119fc576040517f08c379a00000000000000000000000000000000000000000000000000000000081526004016119f3906146e1565b60405180910390fd5b6001601360003373ffffffffffffffffffffffffffffffffffffffff1673ffffffffffffffffffffffffffffffffffffffff168152602001908152602001600020541015611a7f576040517f08c379a0000000000000000000000000000000000000000000000000000000008152600401611a7690614741565b60405180910390fd5b6000611a89612778565b9050611a9533826128a5565b60116000815480929190611aa890614c8d565b91905055503373ffffffffffffffffffffffffffffffffffffffff167f06ed0e5921c2b0f37ed5915265df534d42bd7ad62c6c44687e004658c5e331aa848484604051611af7939291906144f0565b60405180910390a26001601360003373ffffffffffffffffffffffffffffffffffffffff1673ffffffffffffffffffffffffffffffffffffffff1681526020019081526020016000206000828254611b4f9190614ae0565b92505081905550505050565b6000600b60009054906101000a900473ffffffffffffffffffffffffffffffffffffffff16905090565b606060018054611b9490614c2a565b80601f0160208091040260200160405190810160405280929190818152602001828054611bc090614c2a565b8015611c0d5780601f10611be257610100808354040283529160200191611c0d565b820191906000526020600020905b815481529060010190602001808311611bf057829003601f168201915b5050505050905090565b600f5481565b611c2f611c286122fe565b83836128c3565b5050565b611c3b6122fe565b73ffffffffffffffffffffffffffffffffffffffff16611c59611b5b565b73ffffffffffffffffffffffffffffffffffffffff1614611caf576040517f08c379a0000000000000000000000000000000000000000000000000000000008152600401611ca690614841565b60405180910390fd5b6001601060006101000a81548160ff021916908315150217905550565b611cdd611cd76122fe565b83612433565b611d1c576040517f08c379a0000000000000000000000000000000000000000000000000000000008152600401611d13906148a1565b60405180910390fd5b611d2884848484612a30565b50505050565b611d366122fe565b73ffffffffffffffffffffffffffffffffffffffff16611d54611b5b565b73ffffffffffffffffffffffffffffffffffffffff1614611daa576040517f08c379a0000000000000000000000000000000000000000000000000000000008152600401611da190614841565b60405180910390fd5b80600f8190555050565b6060611dbf82612292565b611dfe576040517f08c379a0000000000000000000000000000000000000000000000000000000008152600401611df590614801565b60405180910390fd5b6000600e60008481526020019081526020016000208054611e1e90614c2a565b80601f0160208091040260200160405190810160405280929190818152602001828054611e4a90614c2a565b8015611e975780601f10611e6c57610100808354040283529160200191611e97565b820191906000526020600020905b815481529060010190602001808311611e7a57829003601f168201915b505050505090506000611ea8612a8c565b9050600081511415611ebe578192505050611f01565b600082511115611ef3578082604051602001611edb929190614439565b60405160208183030381529060405292505050611f01565b611efc84612b1e565b925050505b919050565b611f0e6122fe565b73ffffffffffffffffffffffffffffffffffffffff16611f2c611b5b565b73ffffffffffffffffffffffffffffffffffffffff1614611f82576040517f08c379a0000000000000000000000000000000000000000000000000000000008152600401611f7990614841565b60405180910390fd5b80600d9080519060200190611f98929190613879565b5050565b6000600560008473ffffffffffffffffffffffffffffffffffffffff1673ffffffffffffffffffffffffffffffffffffffff16815260200190815260200160002060008373ffffffffffffffffffffffffffffffffffffffff1673ffffffffffffffffffffffffffffffffffffffff16815260200190815260200160002060009054906101000a900460ff16905092915050565b60146020528060005260406000206000915090505481565b6120506122fe565b73ffffffffffffffffffffffffffffffffffffffff1661206e611b5b565b73ffffffffffffffffffffffffffffffffffffffff16146120c4576040517f08c379a00000000000000000000000000000000000000000000000000000000081526004016120bb90614841565b60405180910390fd5b600073ffffffffffffffffffffffffffffffffffffffff168173ffffffffffffffffffffffffffffffffffffffff161415612134576040517f08c379a000000000000000000000000000000000000000000000000000000000815260040161212b906145e1565b60405180910390fd5b8073ffffffffffffffffffffffffffffffffffffffff16600b60009054906101000a900473ffffffffffffffffffffffffffffffffffffffff1673ffffffffffffffffffffffffffffffffffffffff167f8be0079c531659141344cd1fd0a4f28419497f9722a3daafe3b4186f6b6457e060405160405180910390a380600b60006101000a81548173ffffffffffffffffffffffffffffffffffffffff021916908373ffffffffffffffffffffffffffffffffffffffff16021790555050565b7f000000000000000000000000000000000000000000000000000000000000000081565b60007f780e9d63000000000000000000000000000000000000000000000000000000007bffffffffffffffffffffffffffffffffffffffffffffffffffffffff1916827bffffffffffffffffffffffffffffffffffffffffffffffffffffffff1916148061228b575061228a82612c70565b5b9050919050565b60008073ffffffffffffffffffffffffffffffffffffffff166002600084815260200190815260200160002060009054906101000a900473ffffffffffffffffffffffffffffffffffffffff1673ffffffffffffffffffffffffffffffffffffffff1614159050919050565b600033905090565b816004600083815260200190815260200160002060006101000a81548173ffffffffffffffffffffffffffffffffffffffff021916908373ffffffffffffffffffffffffffffffffffffffff160217905550808273ffffffffffffffffffffffffffffffffffffffff16612379836113f1565b73ffffffffffffffffffffffffffffffffffffffff167f8c5be1e5ebec7d5bd14f71427d1e84f3dd0314c0f7b2291e5b200ac8c7c3b92560405160405180910390a45050565b6123c882612292565b612407576040517f08c379a00000000000000000000000000000000000000000000000000000000081526004016123fe90614781565b60405180910390fd5b80600a6000848152602001908152602001600020908051906020019061242e929190613879565b505050565b600061243e82612292565b61247d576040517f08c379a0000000000000000000000000000000000000000000000000000000008152600401612474906146c1565b60405180910390fd5b6000612488836113f1565b90508073ffffffffffffffffffffffffffffffffffffffff168473ffffffffffffffffffffffffffffffffffffffff1614806124ca57506124c98185611f9c565b5b8061250857508373ffffffffffffffffffffffffffffffffffffffff166124f08461097d565b73ffffffffffffffffffffffffffffffffffffffff16145b91505092915050565b8273ffffffffffffffffffffffffffffffffffffffff16612531826113f1565b73ffffffffffffffffffffffffffffffffffffffff1614612587576040517f08c379a000000000000000000000000000000000000000000000000000000000815260040161257e90614601565b60405180910390fd5b600073ffffffffffffffffffffffffffffffffffffffff168273ffffffffffffffffffffffffffffffffffffffff1614156125f7576040517f08c379a00000000000000000000000000000000000000000000000000000000081526004016125ee90614641565b60405180910390fd5b612602838383612d52565b61260d600082612306565b6001600360008573ffffffffffffffffffffffffffffffffffffffff1673ffffffffffffffffffffffffffffffffffffffff168152602001908152602001600020600082825461265d9190614ae0565b925050819055506001600360008473ffffffffffffffffffffffffffffffffffffffff1673ffffffffffffffffffffffffffffffffffffffff16815260200190815260200160002060008282546126b491906149ff565b92505081905550816002600083815260200190815260200160002060006101000a81548173ffffffffffffffffffffffffffffffffffffffff021916908373ffffffffffffffffffffffffffffffffffffffff160217905550808273ffffffffffffffffffffffffffffffffffffffff168473ffffffffffffffffffffffffffffffffffffffff167fddf252ad1be2c89b69c2b068fc378daa952ba7f163c4a11628f55a4df523b3ef60405160405180910390a4612773838383612d62565b505050565b6000806011547f00000000000000000000000000000000000000000000000000000000000000006127a99190614ae0565b90506000806000836127b9612d67565b6127c39190614ce0565b90506000601260006001876127d89190614ae0565b8152602001908152602001600020541415612801576001846127fa9190614ae0565b9250612824565b601260006001866128129190614ae0565b81526020019081526020016000205492505b6000601260008381526020019081526020016000205414156128605780915082601260008381526020019081526020016000208190555061288f565b601260008281526020019081526020016000205491508260126000838152602001908152602001600020819055505b60018261289c91906149ff565b94505050505090565b6128bf828260405180602001604052806000815250612d9a565b5050565b8173ffffffffffffffffffffffffffffffffffffffff168373ffffffffffffffffffffffffffffffffffffffff161415612932576040517f08c379a000000000000000000000000000000000000000000000000000000000815260040161292990614661565b60405180910390fd5b80600560008573ffffffffffffffffffffffffffffffffffffffff1673ffffffffffffffffffffffffffffffffffffffff16815260200190815260200160002060008473ffffffffffffffffffffffffffffffffffffffff1673ffffffffffffffffffffffffffffffffffffffff16815260200190815260200160002060006101000a81548160ff0219169083151502179055508173ffffffffffffffffffffffffffffffffffffffff168373ffffffffffffffffffffffffffffffffffffffff167f17307eab39ab6107e8899845ad3d59bd9653f200f220920489ca2b5937696c3183604051612a239190614544565b60405180910390a3505050565b612a3b848484612511565b612a4784848484612df5565b612a86576040517f08c379a0000000000000000000000000000000000000000000000000000000008152600401612a7d906145c1565b60405180910390fd5b50505050565b6060600d8054612a9b90614c2a565b80601f0160208091040260200160405190810160405280929190818152602001828054612ac790614c2a565b8015612b145780601f10612ae957610100808354040283529160200191612b14565b820191906000526020600020905b815481529060010190602001808311612af757829003601f168201915b5050505050905090565b6060612b2982612292565b612b68576040517f08c379a0000000000000000000000000000000000000000000000000000000008152600401612b5f90614801565b60405180910390fd5b6000600a60008481526020019081526020016000208054612b8890614c2a565b80601f0160208091040260200160405190810160405280929190818152602001828054612bb490614c2a565b8015612c015780601f10612bd657610100808354040283529160200191612c01565b820191906000526020600020905b815481529060010190602001808311612be457829003601f168201915b505050505090506000612c12612a8c565b9050600081511415612c28578192505050612c6b565b600082511115612c5d578082604051602001612c45929190614439565b60405160208183030381529060405292505050612c6b565b612c6684612f8c565b925050505b919050565b60007f80ac58cd000000000000000000000000000000000000000000000000000000007bffffffffffffffffffffffffffffffffffffffffffffffffffffffff1916827bffffffffffffffffffffffffffffffffffffffffffffffffffffffff19161480612d3b57507f5b5e139f000000000000000000000000000000000000000000000000000000007bffffffffffffffffffffffffffffffffffffffffffffffffffffffff1916827bffffffffffffffffffffffffffffffffffffffffffffffffffffffff1916145b80612d4b5750612d4a82613033565b5b9050919050565b612d5d83838361309d565b505050565b505050565b60004442604051602001612d7c92919061445d565b6040516020818303038152906040528051906020012060001c905090565b612da483836131b1565b612db16000848484612df5565b612df0576040517f08c379a0000000000000000000000000000000000000000000000000000000008152600401612de7906145c1565b60405180910390fd5b505050565b6000612e168473ffffffffffffffffffffffffffffffffffffffff1661338b565b15612f7f578373ffffffffffffffffffffffffffffffffffffffff1663150b7a02612e3f6122fe565b8786866040518563ffffffff1660e01b8152600401612e6194939291906144a4565b602060405180830381600087803b158015612e7b57600080fd5b505af1925050508015612eac57506040513d601f19601f82011682018060405250810190612ea99190613d4e565b60015b612f2f573d8060008114612edc576040519150601f19603f3d011682016040523d82523d6000602084013e612ee1565b606091505b50600081511415612f27576040517f08c379a0000000000000000000000000000000000000000000000000000000008152600401612f1e906145c1565b60405180910390fd5b805181602001fd5b63150b7a0260e01b7bffffffffffffffffffffffffffffffffffffffffffffffffffffffff1916817bffffffffffffffffffffffffffffffffffffffffffffffffffffffff191614915050612f84565b600190505b949350505050565b6060612f9782612292565b612fd6576040517f08c379a0000000000000000000000000000000000000000000000000000000008152600401612fcd90614861565b60405180910390fd5b6000612fe0612a8c565b90506000815111613000576040518060200160405280600081525061302b565b8061300a846133ae565b60405160200161301b929190614439565b6040516020818303038152906040525b915050919050565b60007f01ffc9a7000000000000000000000000000000000000000000000000000000007bffffffffffffffffffffffffffffffffffffffffffffffffffffffff1916827bffffffffffffffffffffffffffffffffffffffffffffffffffffffff1916149050919050565b6130a8838383613521565b600073ffffffffffffffffffffffffffffffffffffffff168373ffffffffffffffffffffffffffffffffffffffff1614156130eb576130e681613526565b61312a565b8173ffffffffffffffffffffffffffffffffffffffff168373ffffffffffffffffffffffffffffffffffffffff161461312957613128838261356f565b5b5b600073ffffffffffffffffffffffffffffffffffffffff168273ffffffffffffffffffffffffffffffffffffffff16141561316d57613168816136dc565b6131ac565b8273ffffffffffffffffffffffffffffffffffffffff168273ffffffffffffffffffffffffffffffffffffffff16146131ab576131aa82826137ad565b5b5b505050565b600073ffffffffffffffffffffffffffffffffffffffff168273ffffffffffffffffffffffffffffffffffffffff161415613221576040517f08c379a0000000000000000000000000000000000000000000000000000000008152600401613218906147a1565b60405180910390fd5b61322a81612292565b1561326a576040517f08c379a000000000000000000000000000000000000000000000000000000000815260040161326190614621565b60405180910390fd5b61327660008383612d52565b6001600360008473ffffffffffffffffffffffffffffffffffffffff1673ffffffffffffffffffffffffffffffffffffffff16815260200190815260200160002060008282546132c691906149ff565b92505081905550816002600083815260200190815260200160002060006101000a81548173ffffffffffffffffffffffffffffffffffffffff021916908373ffffffffffffffffffffffffffffffffffffffff160217905550808273ffffffffffffffffffffffffffffffffffffffff16600073ffffffffffffffffffffffffffffffffffffffff167fddf252ad1be2c89b69c2b068fc378daa952ba7f163c4a11628f55a4df523b3ef60405160405180910390a461338760008383612d62565b5050565b6000808273ffffffffffffffffffffffffffffffffffffffff163b119050919050565b606060008214156133f6576040518060400160405280600181526020017f3000000000000000000000000000000000000000000000000000000000000000815250905061351c565b600082905060005b6000821461342857808061341190614c8d565b915050600a826134219190614a55565b91506133fe565b60008167ffffffffffffffff81111561344457613443614dfc565b5b6040519080825280601f01601f1916602001820160405280156134765781602001600182028036833780820191505090505b50905060006001836134889190614ae0565b90508593505b6000841461351457600a846134a39190614ce0565b60306134af91906149ff565b60f81b8282806134be90614c00565b9350815181106134d1576134d0614dcd565b5b60200101907effffffffffffffffffffffffffffffffffffffffffffffffffffffffffffff1916908160001a905350600a8461350d9190614a55565b935061348e565b819450505050505b919050565b505050565b6008805490506009600083815260200190815260200160002081905550600881908060018154018082558091505060019003906000526020600020016000909190919091505550565b6000600161357c846114a3565b6135869190614ae0565b905060006007600084815260200190815260200160002054905081811461366b576000600660008673ffffffffffffffffffffffffffffffffffffffff1673ffffffffffffffffffffffffffffffffffffffff168152602001908152602001600020600084815260200190815260200160002054905080600660008773ffffffffffffffffffffffffffffffffffffffff1673ffffffffffffffffffffffffffffffffffffffff168152602001908152602001600020600084815260200190815260200160002081905550816007600083815260200190815260200160002081905550505b6007600084815260200190815260200160002060009055600660008573ffffffffffffffffffffffffffffffffffffffff1673ffffffffffffffffffffffffffffffffffffffff16815260200190815260200160002060008381526020019081526020016000206000905550505050565b600060016008805490506136f09190614ae0565b90506000600960008481526020019081526020016000205490506000600883815481106137205761371f614dcd565b5b90600052602060002001549050806008838154811061374257613741614dcd565b5b90600052602060002001819055508160096000838152602001908152602001600020819055506009600085815260200190815260200160002060009055600880548061379157613790614d9e565b5b6001900381819060005260206000200160009055905550505050565b60006137b8836114a3565b905081600660008573ffffffffffffffffffffffffffffffffffffffff1673ffffffffffffffffffffffffffffffffffffffff168152602001908152602001600020600083815260200190815260200160002081905550806007600084815260200190815260200160002081905550505050565b828054828255906000526020600020908101928215613868579160200282015b8281111561386757823582559160200191906001019061384c565b5b50905061387591906138ff565b5090565b82805461388590614c2a565b90600052602060002090601f0160209004810192826138a757600085556138ee565b82601f106138c057805160ff19168380011785556138ee565b828001600101855582156138ee579182015b828111156138ed5782518255916020019190600101906138d2565b5b5090506138fb91906138ff565b5090565b5b80821115613918576000816000905550600101613900565b5090565b600061392f61392a84614921565b6148fc565b90508281526020810184848401111561394b5761394a614e3a565b5b613956848285614bbe565b509392505050565b600061397161396c84614952565b6148fc565b90508281526020810184848401111561398d5761398c614e3a565b5b613998848285614bbe565b509392505050565b6000813590506139af8161555e565b92915050565b60008083601f8401126139cb576139ca614e30565b5b8235905067ffffffffffffffff8111156139e8576139e7614e2b565b5b602083019150836020820283011115613a0457613a03614e35565b5b9250929050565b600081359050613a1a81615575565b92915050565b600081359050613a2f8161558c565b92915050565b600081519050613a448161558c565b92915050565b600082601f830112613a5f57613a5e614e30565b5b8135613a6f84826020860161391c565b91505092915050565b60008083601f840112613a8e57613a8d614e30565b5b8235905067ffffffffffffffff811115613aab57613aaa614e2b565b5b602083019150836001820283011115613ac757613ac6614e35565b5b9250929050565b600082601f830112613ae357613ae2614e30565b5b8135613af384826020860161395e565b91505092915050565b600081359050613b0b816155a3565b92915050565b600060208284031215613b2757613b26614e49565b5b6000613b35848285016139a0565b91505092915050565b60008060408385031215613b5557613b54614e49565b5b6000613b63858286016139a0565b9250506020613b74858286016139a0565b9150509250929050565b600080600060608486031215613b9757613b96614e49565b5b6000613ba5868287016139a0565b9350506020613bb6868287016139a0565b9250506040613bc786828701613afc565b9150509250925092565b60008060008060808587031215613beb57613bea614e49565b5b6000613bf9878288016139a0565b9450506020613c0a878288016139a0565b9350506040613c1b87828801613afc565b925050606085013567ffffffffffffffff811115613c3c57613c3b614e3f565b5b613c4887828801613a4a565b91505092959194509250565b60008060408385031215613c6b57613c6a614e49565b5b6000613c79858286016139a0565b9250506020613c8a85828601613a0b565b9150509250929050565b60008060408385031215613cab57613caa614e49565b5b6000613cb9858286016139a0565b9250506020613cca85828601613afc565b9150509250929050565b60008060208385031215613ceb57613cea614e49565b5b600083013567ffffffffffffffff811115613d0957613d08614e3f565b5b613d15858286016139b5565b92509250509250929050565b600060208284031215613d3757613d36614e49565b5b6000613d4584828501613a20565b91505092915050565b600060208284031215613d6457613d63614e49565b5b6000613d7284828501613a35565b91505092915050565b600060208284031215613d9157613d90614e49565b5b600082013567ffffffffffffffff811115613daf57613dae614e3f565b5b613dbb84828501613ace565b91505092915050565b600060208284031215613dda57613dd9614e49565b5b6000613de884828501613afc565b91505092915050565b600080600060408486031215613e0a57613e09614e49565b5b6000613e1886828701613afc565b935050602084013567ffffffffffffffff811115613e3957613e38614e3f565b5b613e45868287016139b5565b92509250509250925092565b600080600060408486031215613e6a57613e69614e49565b5b6000613e7886828701613afc565b935050602084013567ffffffffffffffff811115613e9957613e98614e3f565b5b613ea586828701613a78565b92509250509250925092565b6000613ebd8383614404565b60208301905092915050565b613ed281614b88565b82525050565b613ee181614b14565b82525050565b6000613ef383856149c1565b93507f07ffffffffffffffffffffffffffffffffffffffffffffffffffffffffffffff831115613f2657613f25614e44565b5b602083029250613f37838584614bbe565b82840190509392505050565b6000613f4e82614993565b613f5881856149c1565b9350613f6383614983565b8060005b83811015613f94578151613f7b8882613eb1565b9750613f86836149b4565b925050600181019050613f67565b5085935050505092915050565b613faa81614b26565b82525050565b6000613fbb8261499e565b613fc581856149d2565b9350613fd5818560208601614bcd565b613fde81614e4e565b840191505092915050565b6000613ff4826149a9565b613ffe81856149e3565b935061400e818560208601614bcd565b61401781614e4e565b840191505092915050565b600061402d826149a9565b61403781856149f4565b9350614047818560208601614bcd565b80840191505092915050565b60006140606039836149e3565b915061406b82614e5f565b604082019050919050565b6000614083602b836149e3565b915061408e82614eae565b604082019050919050565b60006140a66032836149e3565b91506140b182614efd565b604082019050919050565b60006140c96026836149e3565b91506140d482614f4c565b604082019050919050565b60006140ec6025836149e3565b91506140f782614f9b565b604082019050919050565b600061410f601c836149e3565b915061411a82614fea565b602082019050919050565b60006141326024836149e3565b915061413d82615013565b604082019050919050565b60006141556019836149e3565b915061416082615062565b602082019050919050565b60006141786024836149e3565b91506141838261508b565b604082019050919050565b600061419b6011836149e3565b91506141a6826150da565b602082019050919050565b60006141be602c836149e3565b91506141c982615103565b604082019050919050565b60006141e16012836149e3565b91506141ec82615152565b602082019050919050565b60006142046038836149e3565b915061420f8261517b565b604082019050919050565b6000614227602a836149e3565b9150614232826151ca565b604082019050919050565b600061424a6012836149e3565b915061425582615219565b602082019050919050565b600061426d6029836149e3565b915061427882615242565b604082019050919050565b6000614290602e836149e3565b915061429b82615291565b604082019050919050565b60006142b36020836149e3565b91506142be826152e0565b602082019050919050565b60006142d66020836149e3565b91506142e182615309565b602082019050919050565b60006142f96017836149e3565b915061430482615332565b602082019050919050565b600061431c6031836149e3565b91506143278261535b565b604082019050919050565b600061433f602c836149e3565b915061434a826153aa565b604082019050919050565b60006143626020836149e3565b915061436d826153f9565b602082019050919050565b6000614385602f836149e3565b915061439082615422565b604082019050919050565b60006143a86021836149e3565b91506143b382615471565b604082019050919050565b60006143cb6031836149e3565b91506143d6826154c0565b604082019050919050565b60006143ee602c836149e3565b91506143f98261550f565b604082019050919050565b61440d81614b7e565b82525050565b61441c81614b7e565b82525050565b61443361442e82614b7e565b614cd6565b82525050565b60006144458285614022565b91506144518284614022565b91508190509392505050565b60006144698285614422565b6020820191506144798284614422565b6020820191508190509392505050565b600060208201905061449e6000830184613ed8565b92915050565b60006080820190506144b96000830187613ec9565b6144c66020830186613ed8565b6144d36040830185614413565b81810360608301526144e58184613fb0565b905095945050505050565b6000604082019050818103600083015261450b818587613ee7565b905061451a6020830184614413565b949350505050565b6000602082019050818103600083015261453c8184613f43565b905092915050565b60006020820190506145596000830184613fa1565b92915050565b600060208201905081810360008301526145798184613fe9565b905092915050565b6000602082019050818103600083015261459a81614053565b9050919050565b600060208201905081810360008301526145ba81614076565b9050919050565b600060208201905081810360008301526145da81614099565b9050919050565b600060208201905081810360008301526145fa816140bc565b9050919050565b6000602082019050818103600083015261461a816140df565b9050919050565b6000602082019050818103600083015261463a81614102565b9050919050565b6000602082019050818103600083015261465a81614125565b9050919050565b6000602082019050818103600083015261467a81614148565b9050919050565b6000602082019050818103600083015261469a8161416b565b9050919050565b600060208201905081810360008301526146ba8161418e565b9050919050565b600060208201905081810360008301526146da816141b1565b9050919050565b600060208201905081810360008301526146fa816141d4565b9050919050565b6000602082019050818103600083015261471a816141f7565b9050919050565b6000602082019050818103600083015261473a8161421a565b9050919050565b6000602082019050818103600083015261475a8161423d565b9050919050565b6000602082019050818103600083015261477a81614260565b9050919050565b6000602082019050818103600083015261479a81614283565b9050919050565b600060208201905081810360008301526147ba816142a6565b9050919050565b600060208201905081810360008301526147da816142c9565b9050919050565b600060208201905081810360008301526147fa816142ec565b9050919050565b6000602082019050818103600083015261481a8161430f565b9050919050565b6000602082019050818103600083015261483a81614332565b9050919050565b6000602082019050818103600083015261485a81614355565b9050919050565b6000602082019050818103600083015261487a81614378565b9050919050565b6000602082019050818103600083015261489a8161439b565b9050919050565b600060208201905081810360008301526148ba816143be565b9050919050565b600060208201905081810360008301526148da816143e1565b9050919050565b60006020820190506148f66000830184614413565b92915050565b6000614906614917565b90506149128282614c5c565b919050565b6000604051905090565b600067ffffffffffffffff82111561493c5761493b614dfc565b5b61494582614e4e565b9050602081019050919050565b600067ffffffffffffffff82111561496d5761496c614dfc565b5b61497682614e4e565b9050602081019050919050565b6000819050602082019050919050565b600081519050919050565b600081519050919050565b600081519050919050565b6000602082019050919050565b600082825260208201905092915050565b600082825260208201905092915050565b600082825260208201905092915050565b600081905092915050565b6000614a0a82614b7e565b9150614a1583614b7e565b9250827fffffffffffffffffffffffffffffffffffffffffffffffffffffffffffffffff03821115614a4a57614a49614d11565b5b828201905092915050565b6000614a6082614b7e565b9150614a6b83614b7e565b925082614a7b57614a7a614d40565b5b828204905092915050565b6000614a9182614b7e565b9150614a9c83614b7e565b9250817fffffffffffffffffffffffffffffffffffffffffffffffffffffffffffffffff0483118215151615614ad557614ad4614d11565b5b828202905092915050565b6000614aeb82614b7e565b9150614af683614b7e565b925082821015614b0957614b08614d11565b5b828203905092915050565b6000614b1f82614b5e565b9050919050565b60008115159050919050565b60007fffffffff0000000000000000000000000000000000000000000000000000000082169050919050565b600073ffffffffffffffffffffffffffffffffffffffff82169050919050565b6000819050919050565b6000614b9382614b9a565b9050919050565b6000614ba582614bac565b9050919050565b6000614bb782614b5e565b9050919050565b82818337600083830152505050565b60005b83811015614beb578082015181840152602081019050614bd0565b83811115614bfa576000848401525b50505050565b6000614c0b82614b7e565b91506000821415614c1f57614c1e614d11565b5b600182039050919050565b60006002820490506001821680614c4257607f821691505b60208210811415614c5657614c55614d6f565b5b50919050565b614c6582614e4e565b810181811067ffffffffffffffff82111715614c8457614c83614dfc565b5b80604052505050565b6000614c9882614b7e565b91507fffffffffffffffffffffffffffffffffffffffffffffffffffffffffffffffff821415614ccb57614cca614d11565b5b600182019050919050565b6000819050919050565b6000614ceb82614b7e565b9150614cf683614b7e565b925082614d0657614d05614d40565b5b828206905092915050565b7f4e487b7100000000000000000000000000000000000000000000000000000000600052601160045260246000fd5b7f4e487b7100000000000000000000000000000000000000000000000000000000600052601260045260246000fd5b7f4e487b7100000000000000000000000000000000000000000000000000000000600052602260045260246000fd5b7f4e487b7100000000000000000000000000000000000000000000000000000000600052603160045260246000fd5b7f4e487b7100000000000000000000000000000000000000000000000000000000600052603260045260246000fd5b7f4e487b7100000000000000000000000000000000000000000000000000000000600052604160045260246000fd5b600080fd5b600080fd5b600080fd5b600080fd5b600080fd5b600080fd5b600080fd5b6000601f19601f8301169050919050565b7f6f6e6c792074686520617574686f72697a6564206275696c646572206f72206360008201527f6f6e7472616374206f776e6572206d6179207365742055524900000000000000602082015250565b7f455243373231456e756d657261626c653a206f776e657220696e646578206f7560008201527f74206f6620626f756e6473000000000000000000000000000000000000000000602082015250565b7f4552433732313a207472616e7366657220746f206e6f6e20455243373231526560008201527f63656976657220696d706c656d656e7465720000000000000000000000000000602082015250565b7f4f776e61626c653a206e6577206f776e657220697320746865207a65726f206160008201527f6464726573730000000000000000000000000000000000000000000000000000602082015250565b7f4552433732313a207472616e736665722066726f6d20696e636f72726563742060008201527f6f776e6572000000000000000000000000000000000000000000000000000000602082015250565b7f4552433732313a20746f6b656e20616c7265616479206d696e74656400000000600082015250565b7f4552433732313a207472616e7366657220746f20746865207a65726f2061646460008201527f7265737300000000000000000000000000000000000000000000000000000000602082015250565b7f4552433732313a20617070726f766520746f2063616c6c657200000000000000600082015250565b7f496e636f727265637420616d6f756e74206f662074726169747320737065636960008201527f6669656400000000000000000000000000000000000000000000000000000000602082015250565b7f6d61785065725478206578636565646564000000000000000000000000000000600082015250565b7f4552433732313a206f70657261746f7220717565727920666f72206e6f6e657860008201527f697374656e7420746f6b656e0000000000000000000000000000000000000000602082015250565b7f45786365656473204d41585f537570706c790000000000000000000000000000600082015250565b7f4552433732313a20617070726f76652063616c6c6572206973206e6f74206f7760008201527f6e6572206e6f7220617070726f76656420666f7220616c6c0000000000000000602082015250565b7f4552433732313a2062616c616e636520717565727920666f7220746865207a6560008201527f726f206164647265737300000000000000000000000000000000000000000000602082015250565b7f4e6f7420656e6f75676820437265646974730000000000000000000000000000600082015250565b7f4552433732313a206f776e657220717565727920666f72206e6f6e657869737460008201527f656e7420746f6b656e0000000000000000000000000000000000000000000000602082015250565b7f45524337323155524953746f726167653a2055524920736574206f66206e6f6e60008201527f6578697374656e7420746f6b656e000000000000000000000000000000000000602082015250565b7f4552433732313a206d696e7420746f20746865207a65726f2061646472657373600082015250565b7f4d696e74696e67206973206e6f742063757272656e746c7920656e61626c6564600082015250565b7f6d696e747350657257616c6c6574206578636565646564000000000000000000600082015250565b7f45524337323155524953746f726167653a2055524920717565727920666f722060008201527f6e6f6e6578697374656e7420746f6b656e000000000000000000000000000000602082015250565b7f4552433732313a20617070726f76656420717565727920666f72206e6f6e657860008201527f697374656e7420746f6b656e0000000000000000000000000000000000000000602082015250565b7f4f776e61626c653a2063616c6c6572206973206e6f7420746865206f776e6572600082015250565b7f4552433732314d657461646174613a2055524920717565727920666f72206e6f60008201527f6e6578697374656e7420746f6b656e0000000000000000000000000000000000602082015250565b7f4552433732313a20617070726f76616c20746f2063757272656e74206f776e6560008201527f7200000000000000000000000000000000000000000000000000000000000000602082015250565b7f4552433732313a207472616e736665722063616c6c6572206973206e6f74206f60008201527f776e6572206e6f7220617070726f766564000000000000000000000000000000602082015250565b7f455243373231456e756d657261626c653a20676c6f62616c20696e646578206f60008201527f7574206f6620626f756e64730000000000000000000000000000000000000000602082015250565b61556781614b14565b811461557257600080fd5b50565b61557e81614b26565b811461558957600080fd5b50565b61559581614b32565b81146155a057600080fd5b50565b6155ac81614b7e565b81146155b757600080fd5b5056fea2646970667358221220d7f5cb23dadab02a60c42bc9799978b9ef098102b0c8d7880a54e554643fcdda64736f6c63430008070033",
			"opcodes": "PUSH2 0x100 PUSH1 0x40 MSTORE PUSH1 0x40 MLOAD DUP1 PUSH1 0x20 ADD PUSH1 0x40 MSTORE DUP1 PUSH1 0x0 DUP2 MSTORE POP PUSH1 0xD SWAP1 DUP1 MLOAD SWAP1 PUSH1 0x20 ADD SWAP1 PUSH3 0x2C SWAP3 SWAP2 SWAP1 PUSH3 0x32D JUMP JUMPDEST POP PUSH1 0x0 PUSH1 0x10 PUSH1 0x0 PUSH2 0x100 EXP DUP2 SLOAD DUP2 PUSH1 0xFF MUL NOT AND SWAP1 DUP4 ISZERO ISZERO MUL OR SWAP1 SSTORE POP PUSH1 0x0 PUSH1 0x11 SSTORE CALLVALUE DUP1 ISZERO PUSH3 0x5A JUMPI PUSH1 0x0 DUP1 REVERT JUMPDEST POP PUSH1 0x40 MLOAD PUSH3 0x5E10 CODESIZE SUB DUP1 PUSH3 0x5E10 DUP4 CODECOPY DUP2 DUP2 ADD PUSH1 0x40 MSTORE DUP2 ADD SWAP1 PUSH3 0x80 SWAP2 SWAP1 PUSH3 0x472 JUMP JUMPDEST DUP8 DUP8 DUP2 PUSH1 0x0 SWAP1 DUP1 MLOAD SWAP1 PUSH1 0x20 ADD SWAP1 PUSH3 0x9A SWAP3 SWAP2 SWAP1 PUSH3 0x32D JUMP JUMPDEST POP DUP1 PUSH1 0x1 SWAP1 DUP1 MLOAD SWAP1 PUSH1 0x20 ADD SWAP1 PUSH3 0xB3 SWAP3 SWAP2 SWAP1 PUSH3 0x32D JUMP JUMPDEST POP POP POP PUSH1 0x0 PUSH3 0xC8 PUSH3 0x1B7 PUSH1 0x20 SHL PUSH1 0x20 SHR JUMP JUMPDEST SWAP1 POP DUP1 PUSH1 0xB PUSH1 0x0 PUSH2 0x100 EXP DUP2 SLOAD DUP2 PUSH20 0xFFFFFFFFFFFFFFFFFFFFFFFFFFFFFFFFFFFFFFFF MUL NOT AND SWAP1 DUP4 PUSH20 0xFFFFFFFFFFFFFFFFFFFFFFFFFFFFFFFFFFFFFFFF AND MUL OR SWAP1 SSTORE POP DUP1 PUSH20 0xFFFFFFFFFFFFFFFFFFFFFFFFFFFFFFFFFFFFFFFF AND PUSH1 0x0 PUSH20 0xFFFFFFFFFFFFFFFFFFFFFFFFFFFFFFFFFFFFFFFF AND PUSH32 0x8BE0079C531659141344CD1FD0A4F28419497F9722A3DAAFE3B4186F6B6457E0 PUSH1 0x40 MLOAD PUSH1 0x40 MLOAD DUP1 SWAP2 SUB SWAP1 LOG3 POP DUP4 PUSH1 0xA0 DUP2 DUP2 MSTORE POP POP DUP3 PUSH1 0xC0 DUP2 DUP2 MSTORE POP POP DUP1 PUSH1 0xE0 DUP2 DUP2 MSTORE POP POP DUP2 PUSH1 0x80 DUP2 DUP2 MSTORE POP POP PUSH3 0x198 DUP7 PUSH3 0x1BF PUSH1 0x20 SHL PUSH1 0x20 SHR JUMP JUMPDEST PUSH3 0x1A9 DUP6 PUSH3 0x26A PUSH1 0x20 SHL PUSH1 0x20 SHR JUMP JUMPDEST POP POP POP POP POP POP POP POP PUSH3 0x7C3 JUMP JUMPDEST PUSH1 0x0 CALLER SWAP1 POP SWAP1 JUMP JUMPDEST PUSH3 0x1CF PUSH3 0x1B7 PUSH1 0x20 SHL PUSH1 0x20 SHR JUMP JUMPDEST PUSH20 0xFFFFFFFFFFFFFFFFFFFFFFFFFFFFFFFFFFFFFFFF AND PUSH3 0x1F5 PUSH3 0x303 PUSH1 0x20 SHL PUSH1 0x20 SHR JUMP JUMPDEST PUSH20 0xFFFFFFFFFFFFFFFFFFFFFFFFFFFFFFFFFFFFFFFF AND EQ PUSH3 0x24E JUMPI PUSH1 0x40 MLOAD PUSH32 0x8C379A000000000000000000000000000000000000000000000000000000000 DUP2 MSTORE PUSH1 0x4 ADD PUSH3 0x245 SWAP1 PUSH3 0x5BF JUMP JUMPDEST PUSH1 0x40 MLOAD DUP1 SWAP2 SUB SWAP1 REVERT JUMPDEST DUP1 PUSH1 0xD SWAP1 DUP1 MLOAD SWAP1 PUSH1 0x20 ADD SWAP1 PUSH3 0x266 SWAP3 SWAP2 SWAP1 PUSH3 0x32D JUMP JUMPDEST POP POP JUMP JUMPDEST PUSH3 0x27A PUSH3 0x1B7 PUSH1 0x20 SHL PUSH1 0x20 SHR JUMP JUMPDEST PUSH20 0xFFFFFFFFFFFFFFFFFFFFFFFFFFFFFFFFFFFFFFFF AND PUSH3 0x2A0 PUSH3 0x303 PUSH1 0x20 SHL PUSH1 0x20 SHR JUMP JUMPDEST PUSH20 0xFFFFFFFFFFFFFFFFFFFFFFFFFFFFFFFFFFFFFFFF AND EQ PUSH3 0x2F9 JUMPI PUSH1 0x40 MLOAD PUSH32 0x8C379A000000000000000000000000000000000000000000000000000000000 DUP2 MSTORE PUSH1 0x4 ADD PUSH3 0x2F0 SWAP1 PUSH3 0x5BF JUMP JUMPDEST PUSH1 0x40 MLOAD DUP1 SWAP2 SUB SWAP1 REVERT JUMPDEST DUP1 PUSH1 0xF DUP2 SWAP1 SSTORE POP POP JUMP JUMPDEST PUSH1 0x0 PUSH1 0xB PUSH1 0x0 SWAP1 SLOAD SWAP1 PUSH2 0x100 EXP SWAP1 DIV PUSH20 0xFFFFFFFFFFFFFFFFFFFFFFFFFFFFFFFFFFFFFFFF AND SWAP1 POP SWAP1 JUMP JUMPDEST DUP3 DUP1 SLOAD PUSH3 0x33B SWAP1 PUSH3 0x691 JUMP JUMPDEST SWAP1 PUSH1 0x0 MSTORE PUSH1 0x20 PUSH1 0x0 KECCAK256 SWAP1 PUSH1 0x1F ADD PUSH1 0x20 SWAP1 DIV DUP2 ADD SWAP3 DUP3 PUSH3 0x35F JUMPI PUSH1 0x0 DUP6 SSTORE PUSH3 0x3AB JUMP JUMPDEST DUP3 PUSH1 0x1F LT PUSH3 0x37A JUMPI DUP1 MLOAD PUSH1 0xFF NOT AND DUP4 DUP1 ADD OR DUP6 SSTORE PUSH3 0x3AB JUMP JUMPDEST DUP3 DUP1 ADD PUSH1 0x1 ADD DUP6 SSTORE DUP3 ISZERO PUSH3 0x3AB JUMPI SWAP2 DUP3 ADD JUMPDEST DUP3 DUP2 GT ISZERO PUSH3 0x3AA JUMPI DUP3 MLOAD DUP3 SSTORE SWAP2 PUSH1 0x20 ADD SWAP2 SWAP1 PUSH1 0x1 ADD SWAP1 PUSH3 0x38D JUMP JUMPDEST JUMPDEST POP SWAP1 POP PUSH3 0x3BA SWAP2 SWAP1 PUSH3 0x3BE JUMP JUMPDEST POP SWAP1 JUMP JUMPDEST JUMPDEST DUP1 DUP3 GT ISZERO PUSH3 0x3D9 JUMPI PUSH1 0x0 DUP2 PUSH1 0x0 SWAP1 SSTORE POP PUSH1 0x1 ADD PUSH3 0x3BF JUMP JUMPDEST POP SWAP1 JUMP JUMPDEST PUSH1 0x0 PUSH3 0x3F4 PUSH3 0x3EE DUP5 PUSH3 0x60A JUMP JUMPDEST PUSH3 0x5E1 JUMP JUMPDEST SWAP1 POP DUP3 DUP2 MSTORE PUSH1 0x20 DUP2 ADD DUP5 DUP5 DUP5 ADD GT ISZERO PUSH3 0x413 JUMPI PUSH3 0x412 PUSH3 0x760 JUMP JUMPDEST JUMPDEST PUSH3 0x420 DUP5 DUP3 DUP6 PUSH3 0x65B JUMP JUMPDEST POP SWAP4 SWAP3 POP POP POP JUMP JUMPDEST PUSH1 0x0 DUP3 PUSH1 0x1F DUP4 ADD SLT PUSH3 0x440 JUMPI PUSH3 0x43F PUSH3 0x75B JUMP JUMPDEST JUMPDEST DUP2 MLOAD PUSH3 0x452 DUP5 DUP3 PUSH1 0x20 DUP7 ADD PUSH3 0x3DD JUMP JUMPDEST SWAP2 POP POP SWAP3 SWAP2 POP POP JUMP JUMPDEST PUSH1 0x0 DUP2 MLOAD SWAP1 POP PUSH3 0x46C DUP2 PUSH3 0x7A9 JUMP JUMPDEST SWAP3 SWAP2 POP POP JUMP JUMPDEST PUSH1 0x0 DUP1 PUSH1 0x0 DUP1 PUSH1 0x0 DUP1 PUSH1 0x0 DUP1 PUSH2 0x100 DUP10 DUP12 SUB SLT ISZERO PUSH3 0x496 JUMPI PUSH3 0x495 PUSH3 0x76A JUMP JUMPDEST JUMPDEST PUSH1 0x0 DUP10 ADD MLOAD PUSH8 0xFFFFFFFFFFFFFFFF DUP2 GT ISZERO PUSH3 0x4B7 JUMPI PUSH3 0x4B6 PUSH3 0x765 JUMP JUMPDEST JUMPDEST PUSH3 0x4C5 DUP12 DUP3 DUP13 ADD PUSH3 0x428 JUMP JUMPDEST SWAP9 POP POP PUSH1 0x20 DUP10 ADD MLOAD PUSH8 0xFFFFFFFFFFFFFFFF DUP2 GT ISZERO PUSH3 0x4E9 JUMPI PUSH3 0x4E8 PUSH3 0x765 JUMP JUMPDEST JUMPDEST PUSH3 0x4F7 DUP12 DUP3 DUP13 ADD PUSH3 0x428 JUMP JUMPDEST SWAP8 POP POP PUSH1 0x40 DUP10 ADD MLOAD PUSH8 0xFFFFFFFFFFFFFFFF DUP2 GT ISZERO PUSH3 0x51B JUMPI PUSH3 0x51A PUSH3 0x765 JUMP JUMPDEST JUMPDEST PUSH3 0x529 DUP12 DUP3 DUP13 ADD PUSH3 0x428 JUMP JUMPDEST SWAP7 POP POP PUSH1 0x60 PUSH3 0x53C DUP12 DUP3 DUP13 ADD PUSH3 0x45B JUMP JUMPDEST SWAP6 POP POP PUSH1 0x80 PUSH3 0x54F DUP12 DUP3 DUP13 ADD PUSH3 0x45B JUMP JUMPDEST SWAP5 POP POP PUSH1 0xA0 PUSH3 0x562 DUP12 DUP3 DUP13 ADD PUSH3 0x45B JUMP JUMPDEST SWAP4 POP POP PUSH1 0xC0 PUSH3 0x575 DUP12 DUP3 DUP13 ADD PUSH3 0x45B JUMP JUMPDEST SWAP3 POP POP PUSH1 0xE0 PUSH3 0x588 DUP12 DUP3 DUP13 ADD PUSH3 0x45B JUMP JUMPDEST SWAP2 POP POP SWAP3 SWAP6 SWAP9 POP SWAP3 SWAP6 SWAP9 SWAP1 SWAP4 SWAP7 POP JUMP JUMPDEST PUSH1 0x0 PUSH3 0x5A7 PUSH1 0x20 DUP4 PUSH3 0x640 JUMP JUMPDEST SWAP2 POP PUSH3 0x5B4 DUP3 PUSH3 0x780 JUMP JUMPDEST PUSH1 0x20 DUP3 ADD SWAP1 POP SWAP2 SWAP1 POP JUMP JUMPDEST PUSH1 0x0 PUSH1 0x20 DUP3 ADD SWAP1 POP DUP2 DUP2 SUB PUSH1 0x0 DUP4 ADD MSTORE PUSH3 0x5DA DUP2 PUSH3 0x598 JUMP JUMPDEST SWAP1 POP SWAP2 SWAP1 POP JUMP JUMPDEST PUSH1 0x0 PUSH3 0x5ED PUSH3 0x600 JUMP JUMPDEST SWAP1 POP PUSH3 0x5FB DUP3 DUP3 PUSH3 0x6C7 JUMP JUMPDEST SWAP2 SWAP1 POP JUMP JUMPDEST PUSH1 0x0 PUSH1 0x40 MLOAD SWAP1 POP SWAP1 JUMP JUMPDEST PUSH1 0x0 PUSH8 0xFFFFFFFFFFFFFFFF DUP3 GT ISZERO PUSH3 0x628 JUMPI PUSH3 0x627 PUSH3 0x72C JUMP JUMPDEST JUMPDEST PUSH3 0x633 DUP3 PUSH3 0x76F JUMP JUMPDEST SWAP1 POP PUSH1 0x20 DUP2 ADD SWAP1 POP SWAP2 SWAP1 POP JUMP JUMPDEST PUSH1 0x0 DUP3 DUP3 MSTORE PUSH1 0x20 DUP3 ADD SWAP1 POP SWAP3 SWAP2 POP POP JUMP JUMPDEST PUSH1 0x0 DUP2 SWAP1 POP SWAP2 SWAP1 POP JUMP JUMPDEST PUSH1 0x0 JUMPDEST DUP4 DUP2 LT ISZERO PUSH3 0x67B JUMPI DUP1 DUP3 ADD MLOAD DUP2 DUP5 ADD MSTORE PUSH1 0x20 DUP2 ADD SWAP1 POP PUSH3 0x65E JUMP JUMPDEST DUP4 DUP2 GT ISZERO PUSH3 0x68B JUMPI PUSH1 0x0 DUP5 DUP5 ADD MSTORE JUMPDEST POP POP POP POP JUMP JUMPDEST PUSH1 0x0 PUSH1 0x2 DUP3 DIV SWAP1 POP PUSH1 0x1 DUP3 AND DUP1 PUSH3 0x6AA JUMPI PUSH1 0x7F DUP3 AND SWAP2 POP JUMPDEST PUSH1 0x20 DUP3 LT DUP2 EQ ISZERO PUSH3 0x6C1 JUMPI PUSH3 0x6C0 PUSH3 0x6FD JUMP JUMPDEST JUMPDEST POP SWAP2 SWAP1 POP JUMP JUMPDEST PUSH3 0x6D2 DUP3 PUSH3 0x76F JUMP JUMPDEST DUP2 ADD DUP2 DUP2 LT PUSH8 0xFFFFFFFFFFFFFFFF DUP3 GT OR ISZERO PUSH3 0x6F4 JUMPI PUSH3 0x6F3 PUSH3 0x72C JUMP JUMPDEST JUMPDEST DUP1 PUSH1 0x40 MSTORE POP POP POP JUMP JUMPDEST PUSH32 0x4E487B7100000000000000000000000000000000000000000000000000000000 PUSH1 0x0 MSTORE PUSH1 0x22 PUSH1 0x4 MSTORE PUSH1 0x24 PUSH1 0x0 REVERT JUMPDEST PUSH32 0x4E487B7100000000000000000000000000000000000000000000000000000000 PUSH1 0x0 MSTORE PUSH1 0x41 PUSH1 0x4 MSTORE PUSH1 0x24 PUSH1 0x0 REVERT JUMPDEST PUSH1 0x0 DUP1 REVERT JUMPDEST PUSH1 0x0 DUP1 REVERT JUMPDEST PUSH1 0x0 DUP1 REVERT JUMPDEST PUSH1 0x0 DUP1 REVERT JUMPDEST PUSH1 0x0 PUSH1 0x1F NOT PUSH1 0x1F DUP4 ADD AND SWAP1 POP SWAP2 SWAP1 POP JUMP JUMPDEST PUSH32 0x4F776E61626C653A2063616C6C6572206973206E6F7420746865206F776E6572 PUSH1 0x0 DUP3 ADD MSTORE POP JUMP JUMPDEST PUSH3 0x7B4 DUP2 PUSH3 0x651 JUMP JUMPDEST DUP2 EQ PUSH3 0x7C0 JUMPI PUSH1 0x0 DUP1 REVERT JUMPDEST POP JUMP JUMPDEST PUSH1 0x80 MLOAD PUSH1 0xA0 MLOAD PUSH1 0xC0 MLOAD PUSH1 0xE0 MLOAD PUSH2 0x55F0 PUSH3 0x820 PUSH1 0x0 CODECOPY PUSH1 0x0 DUP2 DUP2 PUSH2 0xE70 ADD MSTORE PUSH2 0x1206 ADD MSTORE PUSH1 0x0 DUP2 DUP2 PUSH2 0xF11 ADD MSTORE PUSH2 0x21F6 ADD MSTORE PUSH1 0x0 DUP2 DUP2 PUSH2 0xB1C ADD MSTORE DUP2 DUP2 PUSH2 0xDFB ADD MSTORE DUP2 DUP2 PUSH2 0x1995 ADD MSTORE PUSH2 0x2780 ADD MSTORE PUSH1 0x0 PUSH2 0xF74 ADD MSTORE PUSH2 0x55F0 PUSH1 0x0 RETURN INVALID PUSH1 0x80 PUSH1 0x40 MSTORE PUSH1 0x4 CALLDATASIZE LT PUSH2 0x225 JUMPI PUSH1 0x0 CALLDATALOAD PUSH1 0xE0 SHR DUP1 PUSH4 0x70A08231 GT PUSH2 0x123 JUMPI DUP1 PUSH4 0xA22CB465 GT PUSH2 0xAB JUMPI DUP1 PUSH4 0xDA1B9E08 GT PUSH2 0x6F JUMPI DUP1 PUSH4 0xDA1B9E08 EQ PUSH2 0x7E2 JUMPI DUP1 PUSH4 0xE985E9C5 EQ PUSH2 0x80B JUMPI DUP1 PUSH4 0xED64892B EQ PUSH2 0x848 JUMPI DUP1 PUSH4 0xF2FDE38B EQ PUSH2 0x885 JUMPI DUP1 PUSH4 0xF968ADBE EQ PUSH2 0x8AE JUMPI PUSH2 0x225 JUMP JUMPDEST DUP1 PUSH4 0xA22CB465 EQ PUSH2 0x713 JUMPI DUP1 PUSH4 0xB66A0E5D EQ PUSH2 0x73C JUMPI DUP1 PUSH4 0xB88D4FDE EQ PUSH2 0x753 JUMPI DUP1 PUSH4 0xC1E4DFDA EQ PUSH2 0x77C JUMPI DUP1 PUSH4 0xC87B56DD EQ PUSH2 0x7A5 JUMPI PUSH2 0x225 JUMP JUMPDEST DUP1 PUSH4 0x853828B6 GT PUSH2 0xF2 JUMPI DUP1 PUSH4 0x853828B6 EQ PUSH2 0x652 JUMPI DUP1 PUSH4 0x87EC11B3 EQ PUSH2 0x669 JUMPI DUP1 PUSH4 0x8DA5CB5B EQ PUSH2 0x692 JUMPI DUP1 PUSH4 0x95D89B41 EQ PUSH2 0x6BD JUMPI DUP1 PUSH4 0xA035B1FE EQ PUSH2 0x6E8 JUMPI PUSH2 0x225 JUMP JUMPDEST DUP1 PUSH4 0x70A08231 EQ PUSH2 0x598 JUMPI DUP1 PUSH4 0x715018A6 EQ PUSH2 0x5D5 JUMPI DUP1 PUSH4 0x7D27D66C EQ PUSH2 0x5EC JUMPI DUP1 PUSH4 0x8462151C EQ PUSH2 0x615 JUMPI PUSH2 0x225 JUMP JUMPDEST DUP1 PUSH4 0x23B872DD GT PUSH2 0x1B1 JUMPI DUP1 PUSH4 0x42842E0E GT PUSH2 0x175 JUMPI DUP1 PUSH4 0x42842E0E EQ PUSH2 0x4B5 JUMPI DUP1 PUSH4 0x4C1A8642 EQ PUSH2 0x4DE JUMPI DUP1 PUSH4 0x4F6CCCE7 EQ PUSH2 0x507 JUMPI DUP1 PUSH4 0x55367BA9 EQ PUSH2 0x544 JUMPI DUP1 PUSH4 0x6352211E EQ PUSH2 0x55B JUMPI PUSH2 0x225 JUMP JUMPDEST DUP1 PUSH4 0x23B872DD EQ PUSH2 0x3DF JUMPI DUP1 PUSH4 0x2D69044F EQ PUSH2 0x408 JUMPI DUP1 PUSH4 0x2F745C59 EQ PUSH2 0x424 JUMPI DUP1 PUSH4 0x384242BE EQ PUSH2 0x461 JUMPI DUP1 PUSH4 0x40221E20 EQ PUSH2 0x48A JUMPI PUSH2 0x225 JUMP JUMPDEST DUP1 PUSH4 0xB191314 GT PUSH2 0x1F8 JUMPI DUP1 PUSH4 0xB191314 EQ PUSH2 0x2F8 JUMPI DUP1 PUSH4 0x14A1FC35 EQ PUSH2 0x323 JUMPI DUP1 PUSH4 0x162094C4 EQ PUSH2 0x360 JUMPI DUP1 PUSH4 0x18160DDD EQ PUSH2 0x389 JUMPI DUP1 PUSH4 0x1C8B232D EQ PUSH2 0x3B4 JUMPI PUSH2 0x225 JUMP JUMPDEST DUP1 PUSH4 0x1FFC9A7 EQ PUSH2 0x22A JUMPI DUP1 PUSH4 0x6FDDE03 EQ PUSH2 0x267 JUMPI DUP1 PUSH4 0x81812FC EQ PUSH2 0x292 JUMPI DUP1 PUSH4 0x95EA7B3 EQ PUSH2 0x2CF JUMPI JUMPDEST PUSH1 0x0 DUP1 REVERT JUMPDEST CALLVALUE DUP1 ISZERO PUSH2 0x236 JUMPI PUSH1 0x0 DUP1 REVERT JUMPDEST POP PUSH2 0x251 PUSH1 0x4 DUP1 CALLDATASIZE SUB DUP2 ADD SWAP1 PUSH2 0x24C SWAP2 SWAP1 PUSH2 0x3D21 JUMP JUMPDEST PUSH2 0x8D9 JUMP JUMPDEST PUSH1 0x40 MLOAD PUSH2 0x25E SWAP2 SWAP1 PUSH2 0x4544 JUMP JUMPDEST PUSH1 0x40 MLOAD DUP1 SWAP2 SUB SWAP1 RETURN JUMPDEST CALLVALUE DUP1 ISZERO PUSH2 0x273 JUMPI PUSH1 0x0 DUP1 REVERT JUMPDEST POP PUSH2 0x27C PUSH2 0x8EB JUMP JUMPDEST PUSH1 0x40 MLOAD PUSH2 0x289 SWAP2 SWAP1 PUSH2 0x455F JUMP JUMPDEST PUSH1 0x40 MLOAD DUP1 SWAP2 SUB SWAP1 RETURN JUMPDEST CALLVALUE DUP1 ISZERO PUSH2 0x29E JUMPI PUSH1 0x0 DUP1 REVERT JUMPDEST POP PUSH2 0x2B9 PUSH1 0x4 DUP1 CALLDATASIZE SUB DUP2 ADD SWAP1 PUSH2 0x2B4 SWAP2 SWAP1 PUSH2 0x3DC4 JUMP JUMPDEST PUSH2 0x97D JUMP JUMPDEST PUSH1 0x40 MLOAD PUSH2 0x2C6 SWAP2 SWAP1 PUSH2 0x4489 JUMP JUMPDEST PUSH1 0x40 MLOAD DUP1 SWAP2 SUB SWAP1 RETURN JUMPDEST CALLVALUE DUP1 ISZERO PUSH2 0x2DB JUMPI PUSH1 0x0 DUP1 REVERT JUMPDEST POP PUSH2 0x2F6 PUSH1 0x4 DUP1 CALLDATASIZE SUB DUP2 ADD SWAP1 PUSH2 0x2F1 SWAP2 SWAP1 PUSH2 0x3C94 JUMP JUMPDEST PUSH2 0xA02 JUMP JUMPDEST STOP JUMPDEST CALLVALUE DUP1 ISZERO PUSH2 0x304 JUMPI PUSH1 0x0 DUP1 REVERT JUMPDEST POP PUSH2 0x30D PUSH2 0xB1A JUMP JUMPDEST PUSH1 0x40 MLOAD PUSH2 0x31A SWAP2 SWAP1 PUSH2 0x48E1 JUMP JUMPDEST PUSH1 0x40 MLOAD DUP1 SWAP2 SUB SWAP1 RETURN JUMPDEST CALLVALUE DUP1 ISZERO PUSH2 0x32F JUMPI PUSH1 0x0 DUP1 REVERT JUMPDEST POP PUSH2 0x34A PUSH1 0x4 DUP1 CALLDATASIZE SUB DUP2 ADD SWAP1 PUSH2 0x345 SWAP2 SWAP1 PUSH2 0x3B11 JUMP JUMPDEST PUSH2 0xB3E JUMP JUMPDEST PUSH1 0x40 MLOAD PUSH2 0x357 SWAP2 SWAP1 PUSH2 0x48E1 JUMP JUMPDEST PUSH1 0x40 MLOAD DUP1 SWAP2 SUB SWAP1 RETURN JUMPDEST CALLVALUE DUP1 ISZERO PUSH2 0x36C JUMPI PUSH1 0x0 DUP1 REVERT JUMPDEST POP PUSH2 0x387 PUSH1 0x4 DUP1 CALLDATASIZE SUB DUP2 ADD SWAP1 PUSH2 0x382 SWAP2 SWAP1 PUSH2 0x3E51 JUMP JUMPDEST PUSH2 0xBF6 JUMP JUMPDEST STOP JUMPDEST CALLVALUE DUP1 ISZERO PUSH2 0x395 JUMPI PUSH1 0x0 DUP1 REVERT JUMPDEST POP PUSH2 0x39E PUSH2 0xD16 JUMP JUMPDEST PUSH1 0x40 MLOAD PUSH2 0x3AB SWAP2 SWAP1 PUSH2 0x48E1 JUMP JUMPDEST PUSH1 0x40 MLOAD DUP1 SWAP2 SUB SWAP1 RETURN JUMPDEST CALLVALUE DUP1 ISZERO PUSH2 0x3C0 JUMPI PUSH1 0x0 DUP1 REVERT JUMPDEST POP PUSH2 0x3C9 PUSH2 0xD23 JUMP JUMPDEST PUSH1 0x40 MLOAD PUSH2 0x3D6 SWAP2 SWAP1 PUSH2 0x4544 JUMP JUMPDEST PUSH1 0x40 MLOAD DUP1 SWAP2 SUB SWAP1 RETURN JUMPDEST CALLVALUE DUP1 ISZERO PUSH2 0x3EB JUMPI PUSH1 0x0 DUP1 REVERT JUMPDEST POP PUSH2 0x406 PUSH1 0x4 DUP1 CALLDATASIZE SUB DUP2 ADD SWAP1 PUSH2 0x401 SWAP2 SWAP1 PUSH2 0x3B7E JUMP JUMPDEST PUSH2 0xD36 JUMP JUMPDEST STOP JUMPDEST PUSH2 0x422 PUSH1 0x4 DUP1 CALLDATASIZE SUB DUP2 ADD SWAP1 PUSH2 0x41D SWAP2 SWAP1 PUSH2 0x3DF1 JUMP JUMPDEST PUSH2 0xD96 JUMP JUMPDEST STOP JUMPDEST CALLVALUE DUP1 ISZERO PUSH2 0x430 JUMPI PUSH1 0x0 DUP1 REVERT JUMPDEST POP PUSH2 0x44B PUSH1 0x4 DUP1 CALLDATASIZE SUB DUP2 ADD SWAP1 PUSH2 0x446 SWAP2 SWAP1 PUSH2 0x3C94 JUMP JUMPDEST PUSH2 0x109F JUMP JUMPDEST PUSH1 0x40 MLOAD PUSH2 0x458 SWAP2 SWAP1 PUSH2 0x48E1 JUMP JUMPDEST PUSH1 0x40 MLOAD DUP1 SWAP2 SUB SWAP1 RETURN JUMPDEST CALLVALUE DUP1 ISZERO PUSH2 0x46D JUMPI PUSH1 0x0 DUP1 REVERT JUMPDEST POP PUSH2 0x488 PUSH1 0x4 DUP1 CALLDATASIZE SUB DUP2 ADD SWAP1 PUSH2 0x483 SWAP2 SWAP1 PUSH2 0x3B11 JUMP JUMPDEST PUSH2 0x1144 JUMP JUMPDEST STOP JUMPDEST CALLVALUE DUP1 ISZERO PUSH2 0x496 JUMPI PUSH1 0x0 DUP1 REVERT JUMPDEST POP PUSH2 0x49F PUSH2 0x1204 JUMP JUMPDEST PUSH1 0x40 MLOAD PUSH2 0x4AC SWAP2 SWAP1 PUSH2 0x48E1 JUMP JUMPDEST PUSH1 0x40 MLOAD DUP1 SWAP2 SUB SWAP1 RETURN JUMPDEST CALLVALUE DUP1 ISZERO PUSH2 0x4C1 JUMPI PUSH1 0x0 DUP1 REVERT JUMPDEST POP PUSH2 0x4DC PUSH1 0x4 DUP1 CALLDATASIZE SUB DUP2 ADD SWAP1 PUSH2 0x4D7 SWAP2 SWAP1 PUSH2 0x3B7E JUMP JUMPDEST PUSH2 0x1228 JUMP JUMPDEST STOP JUMPDEST CALLVALUE DUP1 ISZERO PUSH2 0x4EA JUMPI PUSH1 0x0 DUP1 REVERT JUMPDEST POP PUSH2 0x505 PUSH1 0x4 DUP1 CALLDATASIZE SUB DUP2 ADD SWAP1 PUSH2 0x500 SWAP2 SWAP1 PUSH2 0x3DC4 JUMP JUMPDEST PUSH2 0x1248 JUMP JUMPDEST STOP JUMPDEST CALLVALUE DUP1 ISZERO PUSH2 0x513 JUMPI PUSH1 0x0 DUP1 REVERT JUMPDEST POP PUSH2 0x52E PUSH1 0x4 DUP1 CALLDATASIZE SUB DUP2 ADD SWAP1 PUSH2 0x529 SWAP2 SWAP1 PUSH2 0x3DC4 JUMP JUMPDEST PUSH2 0x12E7 JUMP JUMPDEST PUSH1 0x40 MLOAD PUSH2 0x53B SWAP2 SWAP1 PUSH2 0x48E1 JUMP JUMPDEST PUSH1 0x40 MLOAD DUP1 SWAP2 SUB SWAP1 RETURN JUMPDEST CALLVALUE DUP1 ISZERO PUSH2 0x550 JUMPI PUSH1 0x0 DUP1 REVERT JUMPDEST POP PUSH2 0x559 PUSH2 0x1358 JUMP JUMPDEST STOP JUMPDEST CALLVALUE DUP1 ISZERO PUSH2 0x567 JUMPI PUSH1 0x0 DUP1 REVERT JUMPDEST POP PUSH2 0x582 PUSH1 0x4 DUP1 CALLDATASIZE SUB DUP2 ADD SWAP1 PUSH2 0x57D SWAP2 SWAP1 PUSH2 0x3DC4 JUMP JUMPDEST PUSH2 0x13F1 JUMP JUMPDEST PUSH1 0x40 MLOAD PUSH2 0x58F SWAP2 SWAP1 PUSH2 0x4489 JUMP JUMPDEST PUSH1 0x40 MLOAD DUP1 SWAP2 SUB SWAP1 RETURN JUMPDEST CALLVALUE DUP1 ISZERO PUSH2 0x5A4 JUMPI PUSH1 0x0 DUP1 REVERT JUMPDEST POP PUSH2 0x5BF PUSH1 0x4 DUP1 CALLDATASIZE SUB DUP2 ADD SWAP1 PUSH2 0x5BA SWAP2 SWAP1 PUSH2 0x3B11 JUMP JUMPDEST PUSH2 0x14A3 JUMP JUMPDEST PUSH1 0x40 MLOAD PUSH2 0x5CC SWAP2 SWAP1 PUSH2 0x48E1 JUMP JUMPDEST PUSH1 0x40 MLOAD DUP1 SWAP2 SUB SWAP1 RETURN JUMPDEST CALLVALUE DUP1 ISZERO PUSH2 0x5E1 JUMPI PUSH1 0x0 DUP1 REVERT JUMPDEST POP PUSH2 0x5EA PUSH2 0x155B JUMP JUMPDEST STOP JUMPDEST CALLVALUE DUP1 ISZERO PUSH2 0x5F8 JUMPI PUSH1 0x0 DUP1 REVERT JUMPDEST POP PUSH2 0x613 PUSH1 0x4 DUP1 CALLDATASIZE SUB DUP2 ADD SWAP1 PUSH2 0x60E SWAP2 SWAP1 PUSH2 0x3C94 JUMP JUMPDEST PUSH2 0x1698 JUMP JUMPDEST STOP JUMPDEST CALLVALUE DUP1 ISZERO PUSH2 0x621 JUMPI PUSH1 0x0 DUP1 REVERT JUMPDEST POP PUSH2 0x63C PUSH1 0x4 DUP1 CALLDATASIZE SUB DUP2 ADD SWAP1 PUSH2 0x637 SWAP2 SWAP1 PUSH2 0x3B11 JUMP JUMPDEST PUSH2 0x176E JUMP JUMPDEST PUSH1 0x40 MLOAD PUSH2 0x649 SWAP2 SWAP1 PUSH2 0x4522 JUMP JUMPDEST PUSH1 0x40 MLOAD DUP1 SWAP2 SUB SWAP1 RETURN JUMPDEST CALLVALUE DUP1 ISZERO PUSH2 0x65E JUMPI PUSH1 0x0 DUP1 REVERT JUMPDEST POP PUSH2 0x667 PUSH2 0x1878 JUMP JUMPDEST STOP JUMPDEST CALLVALUE DUP1 ISZERO PUSH2 0x675 JUMPI PUSH1 0x0 DUP1 REVERT JUMPDEST POP PUSH2 0x690 PUSH1 0x4 DUP1 CALLDATASIZE SUB DUP2 ADD SWAP1 PUSH2 0x68B SWAP2 SWAP1 PUSH2 0x3CD4 JUMP JUMPDEST PUSH2 0x193D JUMP JUMPDEST STOP JUMPDEST CALLVALUE DUP1 ISZERO PUSH2 0x69E JUMPI PUSH1 0x0 DUP1 REVERT JUMPDEST POP PUSH2 0x6A7 PUSH2 0x1B5B JUMP JUMPDEST PUSH1 0x40 MLOAD PUSH2 0x6B4 SWAP2 SWAP1 PUSH2 0x4489 JUMP JUMPDEST PUSH1 0x40 MLOAD DUP1 SWAP2 SUB SWAP1 RETURN JUMPDEST CALLVALUE DUP1 ISZERO PUSH2 0x6C9 JUMPI PUSH1 0x0 DUP1 REVERT JUMPDEST POP PUSH2 0x6D2 PUSH2 0x1B85 JUMP JUMPDEST PUSH1 0x40 MLOAD PUSH2 0x6DF SWAP2 SWAP1 PUSH2 0x455F JUMP JUMPDEST PUSH1 0x40 MLOAD DUP1 SWAP2 SUB SWAP1 RETURN JUMPDEST CALLVALUE DUP1 ISZERO PUSH2 0x6F4 JUMPI PUSH1 0x0 DUP1 REVERT JUMPDEST POP PUSH2 0x6FD PUSH2 0x1C17 JUMP JUMPDEST PUSH1 0x40 MLOAD PUSH2 0x70A SWAP2 SWAP1 PUSH2 0x48E1 JUMP JUMPDEST PUSH1 0x40 MLOAD DUP1 SWAP2 SUB SWAP1 RETURN JUMPDEST CALLVALUE DUP1 ISZERO PUSH2 0x71F JUMPI PUSH1 0x0 DUP1 REVERT JUMPDEST POP PUSH2 0x73A PUSH1 0x4 DUP1 CALLDATASIZE SUB DUP2 ADD SWAP1 PUSH2 0x735 SWAP2 SWAP1 PUSH2 0x3C54 JUMP JUMPDEST PUSH2 0x1C1D JUMP JUMPDEST STOP JUMPDEST CALLVALUE DUP1 ISZERO PUSH2 0x748 JUMPI PUSH1 0x0 DUP1 REVERT JUMPDEST POP PUSH2 0x751 PUSH2 0x1C33 JUMP JUMPDEST STOP JUMPDEST CALLVALUE DUP1 ISZERO PUSH2 0x75F JUMPI PUSH1 0x0 DUP1 REVERT JUMPDEST POP PUSH2 0x77A PUSH1 0x4 DUP1 CALLDATASIZE SUB DUP2 ADD SWAP1 PUSH2 0x775 SWAP2 SWAP1 PUSH2 0x3BD1 JUMP JUMPDEST PUSH2 0x1CCC JUMP JUMPDEST STOP JUMPDEST CALLVALUE DUP1 ISZERO PUSH2 0x788 JUMPI PUSH1 0x0 DUP1 REVERT JUMPDEST POP PUSH2 0x7A3 PUSH1 0x4 DUP1 CALLDATASIZE SUB DUP2 ADD SWAP1 PUSH2 0x79E SWAP2 SWAP1 PUSH2 0x3DC4 JUMP JUMPDEST PUSH2 0x1D2E JUMP JUMPDEST STOP JUMPDEST CALLVALUE DUP1 ISZERO PUSH2 0x7B1 JUMPI PUSH1 0x0 DUP1 REVERT JUMPDEST POP PUSH2 0x7CC PUSH1 0x4 DUP1 CALLDATASIZE SUB DUP2 ADD SWAP1 PUSH2 0x7C7 SWAP2 SWAP1 PUSH2 0x3DC4 JUMP JUMPDEST PUSH2 0x1DB4 JUMP JUMPDEST PUSH1 0x40 MLOAD PUSH2 0x7D9 SWAP2 SWAP1 PUSH2 0x455F JUMP JUMPDEST PUSH1 0x40 MLOAD DUP1 SWAP2 SUB SWAP1 RETURN JUMPDEST CALLVALUE DUP1 ISZERO PUSH2 0x7EE JUMPI PUSH1 0x0 DUP1 REVERT JUMPDEST POP PUSH2 0x809 PUSH1 0x4 DUP1 CALLDATASIZE SUB DUP2 ADD SWAP1 PUSH2 0x804 SWAP2 SWAP1 PUSH2 0x3D7B JUMP JUMPDEST PUSH2 0x1F06 JUMP JUMPDEST STOP JUMPDEST CALLVALUE DUP1 ISZERO PUSH2 0x817 JUMPI PUSH1 0x0 DUP1 REVERT JUMPDEST POP PUSH2 0x832 PUSH1 0x4 DUP1 CALLDATASIZE SUB DUP2 ADD SWAP1 PUSH2 0x82D SWAP2 SWAP1 PUSH2 0x3B3E JUMP JUMPDEST PUSH2 0x1F9C JUMP JUMPDEST PUSH1 0x40 MLOAD PUSH2 0x83F SWAP2 SWAP1 PUSH2 0x4544 JUMP JUMPDEST PUSH1 0x40 MLOAD DUP1 SWAP2 SUB SWAP1 RETURN JUMPDEST CALLVALUE DUP1 ISZERO PUSH2 0x854 JUMPI PUSH1 0x0 DUP1 REVERT JUMPDEST POP PUSH2 0x86F PUSH1 0x4 DUP1 CALLDATASIZE SUB DUP2 ADD SWAP1 PUSH2 0x86A SWAP2 SWAP1 PUSH2 0x3B11 JUMP JUMPDEST PUSH2 0x2030 JUMP JUMPDEST PUSH1 0x40 MLOAD PUSH2 0x87C SWAP2 SWAP1 PUSH2 0x48E1 JUMP JUMPDEST PUSH1 0x40 MLOAD DUP1 SWAP2 SUB SWAP1 RETURN JUMPDEST CALLVALUE DUP1 ISZERO PUSH2 0x891 JUMPI PUSH1 0x0 DUP1 REVERT JUMPDEST POP PUSH2 0x8AC PUSH1 0x4 DUP1 CALLDATASIZE SUB DUP2 ADD SWAP1 PUSH2 0x8A7 SWAP2 SWAP1 PUSH2 0x3B11 JUMP JUMPDEST PUSH2 0x2048 JUMP JUMPDEST STOP JUMPDEST CALLVALUE DUP1 ISZERO PUSH2 0x8BA JUMPI PUSH1 0x0 DUP1 REVERT JUMPDEST POP PUSH2 0x8C3 PUSH2 0x21F4 JUMP JUMPDEST PUSH1 0x40 MLOAD PUSH2 0x8D0 SWAP2 SWAP1 PUSH2 0x48E1 JUMP JUMPDEST PUSH1 0x40 MLOAD DUP1 SWAP2 SUB SWAP1 RETURN JUMPDEST PUSH1 0x0 PUSH2 0x8E4 DUP3 PUSH2 0x2218 JUMP JUMPDEST SWAP1 POP SWAP2 SWAP1 POP JUMP JUMPDEST PUSH1 0x60 PUSH1 0x0 DUP1 SLOAD PUSH2 0x8FA SWAP1 PUSH2 0x4C2A JUMP JUMPDEST DUP1 PUSH1 0x1F ADD PUSH1 0x20 DUP1 SWAP2 DIV MUL PUSH1 0x20 ADD PUSH1 0x40 MLOAD SWAP1 DUP2 ADD PUSH1 0x40 MSTORE DUP1 SWAP3 SWAP2 SWAP1 DUP2 DUP2 MSTORE PUSH1 0x20 ADD DUP3 DUP1 SLOAD PUSH2 0x926 SWAP1 PUSH2 0x4C2A JUMP JUMPDEST DUP1 ISZERO PUSH2 0x973 JUMPI DUP1 PUSH1 0x1F LT PUSH2 0x948 JUMPI PUSH2 0x100 DUP1 DUP4 SLOAD DIV MUL DUP4 MSTORE SWAP2 PUSH1 0x20 ADD SWAP2 PUSH2 0x973 JUMP JUMPDEST DUP3 ADD SWAP2 SWAP1 PUSH1 0x0 MSTORE PUSH1 0x20 PUSH1 0x0 KECCAK256 SWAP1 JUMPDEST DUP2 SLOAD DUP2 MSTORE SWAP1 PUSH1 0x1 ADD SWAP1 PUSH1 0x20 ADD DUP1 DUP4 GT PUSH2 0x956 JUMPI DUP3 SWAP1 SUB PUSH1 0x1F AND DUP3 ADD SWAP2 JUMPDEST POP POP POP POP POP SWAP1 POP SWAP1 JUMP JUMPDEST PUSH1 0x0 PUSH2 0x988 DUP3 PUSH2 0x2292 JUMP JUMPDEST PUSH2 0x9C7 JUMPI PUSH1 0x40 MLOAD PUSH32 0x8C379A000000000000000000000000000000000000000000000000000000000 DUP2 MSTORE PUSH1 0x4 ADD PUSH2 0x9BE SWAP1 PUSH2 0x4821 JUMP JUMPDEST PUSH1 0x40 MLOAD DUP1 SWAP2 SUB SWAP1 REVERT JUMPDEST PUSH1 0x4 PUSH1 0x0 DUP4 DUP2 MSTORE PUSH1 0x20 ADD SWAP1 DUP2 MSTORE PUSH1 0x20 ADD PUSH1 0x0 KECCAK256 PUSH1 0x0 SWAP1 SLOAD SWAP1 PUSH2 0x100 EXP SWAP1 DIV PUSH20 0xFFFFFFFFFFFFFFFFFFFFFFFFFFFFFFFFFFFFFFFF AND SWAP1 POP SWAP2 SWAP1 POP JUMP JUMPDEST PUSH1 0x0 PUSH2 0xA0D DUP3 PUSH2 0x13F1 JUMP JUMPDEST SWAP1 POP DUP1 PUSH20 0xFFFFFFFFFFFFFFFFFFFFFFFFFFFFFFFFFFFFFFFF AND DUP4 PUSH20 0xFFFFFFFFFFFFFFFFFFFFFFFFFFFFFFFFFFFFFFFF AND EQ ISZERO PUSH2 0xA7E JUMPI PUSH1 0x40 MLOAD PUSH32 0x8C379A000000000000000000000000000000000000000000000000000000000 DUP2 MSTORE PUSH1 0x4 ADD PUSH2 0xA75 SWAP1 PUSH2 0x4881 JUMP JUMPDEST PUSH1 0x40 MLOAD DUP1 SWAP2 SUB SWAP1 REVERT JUMPDEST DUP1 PUSH20 0xFFFFFFFFFFFFFFFFFFFFFFFFFFFFFFFFFFFFFFFF AND PUSH2 0xA9D PUSH2 0x22FE JUMP JUMPDEST PUSH20 0xFFFFFFFFFFFFFFFFFFFFFFFFFFFFFFFFFFFFFFFF AND EQ DUP1 PUSH2 0xACC JUMPI POP PUSH2 0xACB DUP2 PUSH2 0xAC6 PUSH2 0x22FE JUMP JUMPDEST PUSH2 0x1F9C JUMP JUMPDEST JUMPDEST PUSH2 0xB0B JUMPI PUSH1 0x40 MLOAD PUSH32 0x8C379A000000000000000000000000000000000000000000000000000000000 DUP2 MSTORE PUSH1 0x4 ADD PUSH2 0xB02 SWAP1 PUSH2 0x4701 JUMP JUMPDEST PUSH1 0x40 MLOAD DUP1 SWAP2 SUB SWAP1 REVERT JUMPDEST PUSH2 0xB15 DUP4 DUP4 PUSH2 0x2306 JUMP JUMPDEST POP POP POP JUMP JUMPDEST PUSH32 0x0 DUP2 JUMP JUMPDEST PUSH1 0x0 DUP1 PUSH20 0xFFFFFFFFFFFFFFFFFFFFFFFFFFFFFFFFFFFFFFFF AND DUP3 PUSH20 0xFFFFFFFFFFFFFFFFFFFFFFFFFFFFFFFFFFFFFFFF AND EQ ISZERO PUSH2 0xBAF JUMPI PUSH1 0x40 MLOAD PUSH32 0x8C379A000000000000000000000000000000000000000000000000000000000 DUP2 MSTORE PUSH1 0x4 ADD PUSH2 0xBA6 SWAP1 PUSH2 0x4721 JUMP JUMPDEST PUSH1 0x40 MLOAD DUP1 SWAP2 SUB SWAP1 REVERT JUMPDEST PUSH1 0x13 PUSH1 0x0 DUP4 PUSH20 0xFFFFFFFFFFFFFFFFFFFFFFFFFFFFFFFFFFFFFFFF AND PUSH20 0xFFFFFFFFFFFFFFFFFFFFFFFFFFFFFFFFFFFFFFFF AND DUP2 MSTORE PUSH1 0x20 ADD SWAP1 DUP2 MSTORE PUSH1 0x20 ADD PUSH1 0x0 KECCAK256 SLOAD SWAP1 POP SWAP2 SWAP1 POP JUMP JUMPDEST PUSH1 0xC PUSH1 0x0 SWAP1 SLOAD SWAP1 PUSH2 0x100 EXP SWAP1 DIV PUSH20 0xFFFFFFFFFFFFFFFFFFFFFFFFFFFFFFFFFFFFFFFF AND PUSH20 0xFFFFFFFFFFFFFFFFFFFFFFFFFFFFFFFFFFFFFFFF AND CALLER PUSH20 0xFFFFFFFFFFFFFFFFFFFFFFFFFFFFFFFFFFFFFFFF AND EQ DUP1 PUSH2 0xC84 JUMPI POP PUSH2 0xC55 PUSH2 0x1B5B JUMP JUMPDEST PUSH20 0xFFFFFFFFFFFFFFFFFFFFFFFFFFFFFFFFFFFFFFFF AND CALLER PUSH20 0xFFFFFFFFFFFFFFFFFFFFFFFFFFFFFFFFFFFFFFFF AND EQ JUMPDEST PUSH2 0xCC3 JUMPI PUSH1 0x40 MLOAD PUSH32 0x8C379A000000000000000000000000000000000000000000000000000000000 DUP2 MSTORE PUSH1 0x4 ADD PUSH2 0xCBA SWAP1 PUSH2 0x4581 JUMP JUMPDEST PUSH1 0x40 MLOAD DUP1 SWAP2 SUB SWAP1 REVERT JUMPDEST PUSH2 0xD11 DUP4 DUP4 DUP4 DUP1 DUP1 PUSH1 0x1F ADD PUSH1 0x20 DUP1 SWAP2 DIV MUL PUSH1 0x20 ADD PUSH1 0x40 MLOAD SWAP1 DUP2 ADD PUSH1 0x40 MSTORE DUP1 SWAP4 SWAP3 SWAP2 SWAP1 DUP2 DUP2 MSTORE PUSH1 0x20 ADD DUP4 DUP4 DUP1 DUP3 DUP5 CALLDATACOPY PUSH1 0x0 DUP2 DUP5 ADD MSTORE PUSH1 0x1F NOT PUSH1 0x1F DUP3 ADD AND SWAP1 POP DUP1 DUP4 ADD SWAP3 POP POP POP POP POP POP POP PUSH2 0x23BF JUMP JUMPDEST POP POP POP JUMP JUMPDEST PUSH1 0x0 PUSH1 0x8 DUP1 SLOAD SWAP1 POP SWAP1 POP SWAP1 JUMP JUMPDEST PUSH1 0x10 PUSH1 0x0 SWAP1 SLOAD SWAP1 PUSH2 0x100 EXP SWAP1 DIV PUSH1 0xFF AND DUP2 JUMP JUMPDEST PUSH2 0xD47 PUSH2 0xD41 PUSH2 0x22FE JUMP JUMPDEST DUP3 PUSH2 0x2433 JUMP JUMPDEST PUSH2 0xD86 JUMPI PUSH1 0x40 MLOAD PUSH32 0x8C379A000000000000000000000000000000000000000000000000000000000 DUP2 MSTORE PUSH1 0x4 ADD PUSH2 0xD7D SWAP1 PUSH2 0x48A1 JUMP JUMPDEST PUSH1 0x40 MLOAD DUP1 SWAP2 SUB SWAP1 REVERT JUMPDEST PUSH2 0xD91 DUP4 DUP4 DUP4 PUSH2 0x2511 JUMP JUMPDEST POP POP POP JUMP JUMPDEST PUSH1 0x0 DUP4 GT PUSH2 0xDA3 JUMPI PUSH1 0x0 DUP1 REVERT JUMPDEST PUSH1 0x1 ISZERO ISZERO PUSH1 0x10 PUSH1 0x0 SWAP1 SLOAD SWAP1 PUSH2 0x100 EXP SWAP1 DIV PUSH1 0xFF AND ISZERO ISZERO EQ PUSH2 0xDF9 JUMPI PUSH1 0x40 MLOAD PUSH32 0x8C379A000000000000000000000000000000000000000000000000000000000 DUP2 MSTORE PUSH1 0x4 ADD PUSH2 0xDF0 SWAP1 PUSH2 0x47C1 JUMP JUMPDEST PUSH1 0x40 MLOAD DUP1 SWAP2 SUB SWAP1 REVERT JUMPDEST PUSH32 0x0 DUP4 PUSH2 0xE23 PUSH2 0xD16 JUMP JUMPDEST PUSH2 0xE2D SWAP2 SWAP1 PUSH2 0x49FF JUMP JUMPDEST GT ISZERO PUSH2 0xE6E JUMPI PUSH1 0x40 MLOAD PUSH32 0x8C379A000000000000000000000000000000000000000000000000000000000 DUP2 MSTORE PUSH1 0x4 ADD PUSH2 0xE65 SWAP1 PUSH2 0x46E1 JUMP JUMPDEST PUSH1 0x40 MLOAD DUP1 SWAP2 SUB SWAP1 REVERT JUMPDEST PUSH32 0x0 PUSH1 0x14 PUSH1 0x0 CALLER PUSH20 0xFFFFFFFFFFFFFFFFFFFFFFFFFFFFFFFFFFFFFFFF AND PUSH20 0xFFFFFFFFFFFFFFFFFFFFFFFFFFFFFFFFFFFFFFFF AND DUP2 MSTORE PUSH1 0x20 ADD SWAP1 DUP2 MSTORE PUSH1 0x20 ADD PUSH1 0x0 KECCAK256 SLOAD LT PUSH2 0xF0F JUMPI PUSH1 0x40 MLOAD PUSH32 0x8C379A000000000000000000000000000000000000000000000000000000000 DUP2 MSTORE PUSH1 0x4 ADD PUSH2 0xF06 SWAP1 PUSH2 0x47E1 JUMP JUMPDEST PUSH1 0x40 MLOAD DUP1 SWAP2 SUB SWAP1 REVERT JUMPDEST PUSH32 0x0 DUP4 GT ISZERO PUSH2 0xF72 JUMPI PUSH1 0x40 MLOAD PUSH32 0x8C379A000000000000000000000000000000000000000000000000000000000 DUP2 MSTORE PUSH1 0x4 ADD PUSH2 0xF69 SWAP1 PUSH2 0x46A1 JUMP JUMPDEST PUSH1 0x40 MLOAD DUP1 SWAP2 SUB SWAP1 REVERT JUMPDEST PUSH32 0x0 DUP3 DUP3 SWAP1 POP EQ PUSH2 0xFD7 JUMPI PUSH1 0x40 MLOAD PUSH32 0x8C379A000000000000000000000000000000000000000000000000000000000 DUP2 MSTORE PUSH1 0x4 ADD PUSH2 0xFCE SWAP1 PUSH2 0x4681 JUMP JUMPDEST PUSH1 0x40 MLOAD DUP1 SWAP2 SUB SWAP1 REVERT JUMPDEST PUSH1 0x0 JUMPDEST DUP4 DUP2 LT ISZERO PUSH2 0x1099 JUMPI PUSH1 0x0 PUSH2 0xFEC PUSH2 0x2778 JUMP JUMPDEST SWAP1 POP PUSH2 0xFF8 CALLER DUP3 PUSH2 0x28A5 JUMP JUMPDEST DUP4 DUP4 PUSH1 0x15 PUSH1 0x0 DUP5 DUP2 MSTORE PUSH1 0x20 ADD SWAP1 DUP2 MSTORE PUSH1 0x20 ADD PUSH1 0x0 KECCAK256 SWAP2 SWAP1 PUSH2 0x101A SWAP3 SWAP2 SWAP1 PUSH2 0x382C JUMP JUMPDEST POP PUSH1 0x11 PUSH1 0x0 DUP2 SLOAD DUP1 SWAP3 SWAP2 SWAP1 PUSH2 0x102E SWAP1 PUSH2 0x4C8D JUMP JUMPDEST SWAP2 SWAP1 POP SSTORE POP CALLER PUSH20 0xFFFFFFFFFFFFFFFFFFFFFFFFFFFFFFFFFFFFFFFF AND PUSH32 0x6ED0E5921C2B0F37ED5915265DF534D42BD7AD62C6C44687E004658C5E331AA DUP6 DUP6 DUP5 PUSH1 0x40 MLOAD PUSH2 0x107D SWAP4 SWAP3 SWAP2 SWAP1 PUSH2 0x44F0 JUMP JUMPDEST PUSH1 0x40 MLOAD DUP1 SWAP2 SUB SWAP1 LOG2 POP DUP1 DUP1 PUSH2 0x1091 SWAP1 PUSH2 0x4C8D JUMP JUMPDEST SWAP2 POP POP PUSH2 0xFDA JUMP JUMPDEST POP POP POP POP JUMP JUMPDEST PUSH1 0x0 PUSH2 0x10AA DUP4 PUSH2 0x14A3 JUMP JUMPDEST DUP3 LT PUSH2 0x10EB JUMPI PUSH1 0x40 MLOAD PUSH32 0x8C379A000000000000000000000000000000000000000000000000000000000 DUP2 MSTORE PUSH1 0x4 ADD PUSH2 0x10E2 SWAP1 PUSH2 0x45A1 JUMP JUMPDEST PUSH1 0x40 MLOAD DUP1 SWAP2 SUB SWAP1 REVERT JUMPDEST PUSH1 0x6 PUSH1 0x0 DUP5 PUSH20 0xFFFFFFFFFFFFFFFFFFFFFFFFFFFFFFFFFFFFFFFF AND PUSH20 0xFFFFFFFFFFFFFFFFFFFFFFFFFFFFFFFFFFFFFFFF AND DUP2 MSTORE PUSH1 0x20 ADD SWAP1 DUP2 MSTORE PUSH1 0x20 ADD PUSH1 0x0 KECCAK256 PUSH1 0x0 DUP4 DUP2 MSTORE PUSH1 0x20 ADD SWAP1 DUP2 MSTORE PUSH1 0x20 ADD PUSH1 0x0 KECCAK256 SLOAD SWAP1 POP SWAP3 SWAP2 POP POP JUMP JUMPDEST PUSH2 0x114C PUSH2 0x22FE JUMP JUMPDEST PUSH20 0xFFFFFFFFFFFFFFFFFFFFFFFFFFFFFFFFFFFFFFFF AND PUSH2 0x116A PUSH2 0x1B5B JUMP JUMPDEST PUSH20 0xFFFFFFFFFFFFFFFFFFFFFFFFFFFFFFFFFFFFFFFF AND EQ PUSH2 0x11C0 JUMPI PUSH1 0x40 MLOAD PUSH32 0x8C379A000000000000000000000000000000000000000000000000000000000 DUP2 MSTORE PUSH1 0x4 ADD PUSH2 0x11B7 SWAP1 PUSH2 0x4841 JUMP JUMPDEST PUSH1 0x40 MLOAD DUP1 SWAP2 SUB SWAP1 REVERT JUMPDEST DUP1 PUSH1 0xC PUSH1 0x0 PUSH2 0x100 EXP DUP2 SLOAD DUP2 PUSH20 0xFFFFFFFFFFFFFFFFFFFFFFFFFFFFFFFFFFFFFFFF MUL NOT AND SWAP1 DUP4 PUSH20 0xFFFFFFFFFFFFFFFFFFFFFFFFFFFFFFFFFFFFFFFF AND MUL OR SWAP1 SSTORE POP POP JUMP JUMPDEST PUSH32 0x0 DUP2 JUMP JUMPDEST PUSH2 0x1243 DUP4 DUP4 DUP4 PUSH1 0x40 MLOAD DUP1 PUSH1 0x20 ADD PUSH1 0x40 MSTORE DUP1 PUSH1 0x0 DUP2 MSTORE POP PUSH2 0x1CCC JUMP JUMPDEST POP POP POP JUMP JUMPDEST PUSH2 0x1250 PUSH2 0x22FE JUMP JUMPDEST PUSH20 0xFFFFFFFFFFFFFFFFFFFFFFFFFFFFFFFFFFFFFFFF AND PUSH2 0x126E PUSH2 0x1B5B JUMP JUMPDEST PUSH20 0xFFFFFFFFFFFFFFFFFFFFFFFFFFFFFFFFFFFFFFFF AND EQ PUSH2 0x12C4 JUMPI PUSH1 0x40 MLOAD PUSH32 0x8C379A000000000000000000000000000000000000000000000000000000000 DUP2 MSTORE PUSH1 0x4 ADD PUSH2 0x12BB SWAP1 PUSH2 0x4841 JUMP JUMPDEST PUSH1 0x40 MLOAD DUP1 SWAP2 SUB SWAP1 REVERT JUMPDEST PUSH1 0x0 PUSH8 0xDE0B6B3A7640000 SWAP1 POP DUP1 DUP3 PUSH2 0x12DD SWAP2 SWAP1 PUSH2 0x4A86 JUMP JUMPDEST PUSH1 0xF DUP2 SWAP1 SSTORE POP POP POP JUMP JUMPDEST PUSH1 0x0 PUSH2 0x12F1 PUSH2 0xD16 JUMP JUMPDEST DUP3 LT PUSH2 0x1332 JUMPI PUSH1 0x40 MLOAD PUSH32 0x8C379A000000000000000000000000000000000000000000000000000000000 DUP2 MSTORE PUSH1 0x4 ADD PUSH2 0x1329 SWAP1 PUSH2 0x48C1 JUMP JUMPDEST PUSH1 0x40 MLOAD DUP1 SWAP2 SUB SWAP1 REVERT JUMPDEST PUSH1 0x8 DUP3 DUP2 SLOAD DUP2 LT PUSH2 0x1346 JUMPI PUSH2 0x1345 PUSH2 0x4DCD JUMP JUMPDEST JUMPDEST SWAP1 PUSH1 0x0 MSTORE PUSH1 0x20 PUSH1 0x0 KECCAK256 ADD SLOAD SWAP1 POP SWAP2 SWAP1 POP JUMP JUMPDEST PUSH2 0x1360 PUSH2 0x22FE JUMP JUMPDEST PUSH20 0xFFFFFFFFFFFFFFFFFFFFFFFFFFFFFFFFFFFFFFFF AND PUSH2 0x137E PUSH2 0x1B5B JUMP JUMPDEST PUSH20 0xFFFFFFFFFFFFFFFFFFFFFFFFFFFFFFFFFFFFFFFF AND EQ PUSH2 0x13D4 JUMPI PUSH1 0x40 MLOAD PUSH32 0x8C379A000000000000000000000000000000000000000000000000000000000 DUP2 MSTORE PUSH1 0x4 ADD PUSH2 0x13CB SWAP1 PUSH2 0x4841 JUMP JUMPDEST PUSH1 0x40 MLOAD DUP1 SWAP2 SUB SWAP1 REVERT JUMPDEST PUSH1 0x0 PUSH1 0x10 PUSH1 0x0 PUSH2 0x100 EXP DUP2 SLOAD DUP2 PUSH1 0xFF MUL NOT AND SWAP1 DUP4 ISZERO ISZERO MUL OR SWAP1 SSTORE POP JUMP JUMPDEST PUSH1 0x0 DUP1 PUSH1 0x2 PUSH1 0x0 DUP5 DUP2 MSTORE PUSH1 0x20 ADD SWAP1 DUP2 MSTORE PUSH1 0x20 ADD PUSH1 0x0 KECCAK256 PUSH1 0x0 SWAP1 SLOAD SWAP1 PUSH2 0x100 EXP SWAP1 DIV PUSH20 0xFFFFFFFFFFFFFFFFFFFFFFFFFFFFFFFFFFFFFFFF AND SWAP1 POP PUSH1 0x0 PUSH20 0xFFFFFFFFFFFFFFFFFFFFFFFFFFFFFFFFFFFFFFFF AND DUP2 PUSH20 0xFFFFFFFFFFFFFFFFFFFFFFFFFFFFFFFFFFFFFFFF AND EQ ISZERO PUSH2 0x149A JUMPI PUSH1 0x40 MLOAD PUSH32 0x8C379A000000000000000000000000000000000000000000000000000000000 DUP2 MSTORE PUSH1 0x4 ADD PUSH2 0x1491 SWAP1 PUSH2 0x4761 JUMP JUMPDEST PUSH1 0x40 MLOAD DUP1 SWAP2 SUB SWAP1 REVERT JUMPDEST DUP1 SWAP2 POP POP SWAP2 SWAP1 POP JUMP JUMPDEST PUSH1 0x0 DUP1 PUSH20 0xFFFFFFFFFFFFFFFFFFFFFFFFFFFFFFFFFFFFFFFF AND DUP3 PUSH20 0xFFFFFFFFFFFFFFFFFFFFFFFFFFFFFFFFFFFFFFFF AND EQ ISZERO PUSH2 0x1514 JUMPI PUSH1 0x40 MLOAD PUSH32 0x8C379A000000000000000000000000000000000000000000000000000000000 DUP2 MSTORE PUSH1 0x4 ADD PUSH2 0x150B SWAP1 PUSH2 0x4721 JUMP JUMPDEST PUSH1 0x40 MLOAD DUP1 SWAP2 SUB SWAP1 REVERT JUMPDEST PUSH1 0x3 PUSH1 0x0 DUP4 PUSH20 0xFFFFFFFFFFFFFFFFFFFFFFFFFFFFFFFFFFFFFFFF AND PUSH20 0xFFFFFFFFFFFFFFFFFFFFFFFFFFFFFFFFFFFFFFFF AND DUP2 MSTORE PUSH1 0x20 ADD SWAP1 DUP2 MSTORE PUSH1 0x20 ADD PUSH1 0x0 KECCAK256 SLOAD SWAP1 POP SWAP2 SWAP1 POP JUMP JUMPDEST PUSH2 0x1563 PUSH2 0x22FE JUMP JUMPDEST PUSH20 0xFFFFFFFFFFFFFFFFFFFFFFFFFFFFFFFFFFFFFFFF AND PUSH2 0x1581 PUSH2 0x1B5B JUMP JUMPDEST PUSH20 0xFFFFFFFFFFFFFFFFFFFFFFFFFFFFFFFFFFFFFFFF AND EQ PUSH2 0x15D7 JUMPI PUSH1 0x40 MLOAD PUSH32 0x8C379A000000000000000000000000000000000000000000000000000000000 DUP2 MSTORE PUSH1 0x4 ADD PUSH2 0x15CE SWAP1 PUSH2 0x4841 JUMP JUMPDEST PUSH1 0x40 MLOAD DUP1 SWAP2 SUB SWAP1 REVERT JUMPDEST PUSH1 0x0 PUSH20 0xFFFFFFFFFFFFFFFFFFFFFFFFFFFFFFFFFFFFFFFF AND PUSH1 0xB PUSH1 0x0 SWAP1 SLOAD SWAP1 PUSH2 0x100 EXP SWAP1 DIV PUSH20 0xFFFFFFFFFFFFFFFFFFFFFFFFFFFFFFFFFFFFFFFF AND PUSH20 0xFFFFFFFFFFFFFFFFFFFFFFFFFFFFFFFFFFFFFFFF AND PUSH32 0x8BE0079C531659141344CD1FD0A4F28419497F9722A3DAAFE3B4186F6B6457E0 PUSH1 0x40 MLOAD PUSH1 0x40 MLOAD DUP1 SWAP2 SUB SWAP1 LOG3 PUSH1 0x0 PUSH1 0xB PUSH1 0x0 PUSH2 0x100 EXP DUP2 SLOAD DUP2 PUSH20 0xFFFFFFFFFFFFFFFFFFFFFFFFFFFFFFFFFFFFFFFF MUL NOT AND SWAP1 DUP4 PUSH20 0xFFFFFFFFFFFFFFFFFFFFFFFFFFFFFFFFFFFFFFFF AND MUL OR SWAP1 SSTORE POP JUMP JUMPDEST PUSH2 0x16A0 PUSH2 0x22FE JUMP JUMPDEST PUSH20 0xFFFFFFFFFFFFFFFFFFFFFFFFFFFFFFFFFFFFFFFF AND PUSH2 0x16BE PUSH2 0x1B5B JUMP JUMPDEST PUSH20 0xFFFFFFFFFFFFFFFFFFFFFFFFFFFFFFFFFFFFFFFF AND EQ PUSH2 0x1714 JUMPI PUSH1 0x40 MLOAD PUSH32 0x8C379A000000000000000000000000000000000000000000000000000000000 DUP2 MSTORE PUSH1 0x4 ADD PUSH2 0x170B SWAP1 PUSH2 0x4841 JUMP JUMPDEST PUSH1 0x40 MLOAD DUP1 SWAP2 SUB SWAP1 REVERT JUMPDEST DUP1 PUSH1 0x13 PUSH1 0x0 DUP5 PUSH20 0xFFFFFFFFFFFFFFFFFFFFFFFFFFFFFFFFFFFFFFFF AND PUSH20 0xFFFFFFFFFFFFFFFFFFFFFFFFFFFFFFFFFFFFFFFF AND DUP2 MSTORE PUSH1 0x20 ADD SWAP1 DUP2 MSTORE PUSH1 0x20 ADD PUSH1 0x0 KECCAK256 PUSH1 0x0 DUP3 DUP3 SLOAD PUSH2 0x1763 SWAP2 SWAP1 PUSH2 0x49FF JUMP JUMPDEST SWAP3 POP POP DUP2 SWAP1 SSTORE POP POP POP JUMP JUMPDEST PUSH1 0x60 PUSH1 0x0 PUSH2 0x177B DUP4 PUSH2 0x14A3 JUMP JUMPDEST SWAP1 POP PUSH1 0x0 DUP2 EQ ISZERO PUSH2 0x17D8 JUMPI PUSH1 0x0 PUSH8 0xFFFFFFFFFFFFFFFF DUP2 GT ISZERO PUSH2 0x17A1 JUMPI PUSH2 0x17A0 PUSH2 0x4DFC JUMP JUMPDEST JUMPDEST PUSH1 0x40 MLOAD SWAP1 DUP1 DUP3 MSTORE DUP1 PUSH1 0x20 MUL PUSH1 0x20 ADD DUP3 ADD PUSH1 0x40 MSTORE DUP1 ISZERO PUSH2 0x17CF JUMPI DUP2 PUSH1 0x20 ADD PUSH1 0x20 DUP3 MUL DUP1 CALLDATASIZE DUP4 CALLDATACOPY DUP1 DUP3 ADD SWAP2 POP POP SWAP1 POP JUMPDEST POP SWAP2 POP POP PUSH2 0x1873 JUMP JUMPDEST PUSH1 0x0 DUP2 PUSH8 0xFFFFFFFFFFFFFFFF DUP2 GT ISZERO PUSH2 0x17F4 JUMPI PUSH2 0x17F3 PUSH2 0x4DFC JUMP JUMPDEST JUMPDEST PUSH1 0x40 MLOAD SWAP1 DUP1 DUP3 MSTORE DUP1 PUSH1 0x20 MUL PUSH1 0x20 ADD DUP3 ADD PUSH1 0x40 MSTORE DUP1 ISZERO PUSH2 0x1822 JUMPI DUP2 PUSH1 0x20 ADD PUSH1 0x20 DUP3 MUL DUP1 CALLDATASIZE DUP4 CALLDATACOPY DUP1 DUP3 ADD SWAP2 POP POP SWAP1 POP JUMPDEST POP SWAP1 POP PUSH1 0x0 JUMPDEST DUP3 DUP2 LT ISZERO PUSH2 0x186C JUMPI PUSH2 0x183A DUP6 DUP3 PUSH2 0x109F JUMP JUMPDEST DUP3 DUP3 DUP2 MLOAD DUP2 LT PUSH2 0x184D JUMPI PUSH2 0x184C PUSH2 0x4DCD JUMP JUMPDEST JUMPDEST PUSH1 0x20 MUL PUSH1 0x20 ADD ADD DUP2 DUP2 MSTORE POP POP DUP1 DUP1 PUSH2 0x1864 SWAP1 PUSH2 0x4C8D JUMP JUMPDEST SWAP2 POP POP PUSH2 0x1828 JUMP JUMPDEST DUP2 SWAP4 POP POP POP POP JUMPDEST SWAP2 SWAP1 POP JUMP JUMPDEST PUSH2 0x1880 PUSH2 0x22FE JUMP JUMPDEST PUSH20 0xFFFFFFFFFFFFFFFFFFFFFFFFFFFFFFFFFFFFFFFF AND PUSH2 0x189E PUSH2 0x1B5B JUMP JUMPDEST PUSH20 0xFFFFFFFFFFFFFFFFFFFFFFFFFFFFFFFFFFFFFFFF AND EQ PUSH2 0x18F4 JUMPI PUSH1 0x40 MLOAD PUSH32 0x8C379A000000000000000000000000000000000000000000000000000000000 DUP2 MSTORE PUSH1 0x4 ADD PUSH2 0x18EB SWAP1 PUSH2 0x4841 JUMP JUMPDEST PUSH1 0x40 MLOAD DUP1 SWAP2 SUB SWAP1 REVERT JUMPDEST CALLER PUSH20 0xFFFFFFFFFFFFFFFFFFFFFFFFFFFFFFFFFFFFFFFF AND PUSH2 0x8FC SELFBALANCE SWAP1 DUP2 ISZERO MUL SWAP1 PUSH1 0x40 MLOAD PUSH1 0x0 PUSH1 0x40 MLOAD DUP1 DUP4 SUB DUP2 DUP6 DUP9 DUP9 CALL SWAP4 POP POP POP POP ISZERO DUP1 ISZERO PUSH2 0x193A JUMPI RETURNDATASIZE PUSH1 0x0 DUP1 RETURNDATACOPY RETURNDATASIZE PUSH1 0x0 REVERT JUMPDEST POP JUMP JUMPDEST PUSH1 0x1 ISZERO ISZERO PUSH1 0x10 PUSH1 0x0 SWAP1 SLOAD SWAP1 PUSH2 0x100 EXP SWAP1 DIV PUSH1 0xFF AND ISZERO ISZERO EQ PUSH2 0x1993 JUMPI PUSH1 0x40 MLOAD PUSH32 0x8C379A000000000000000000000000000000000000000000000000000000000 DUP2 MSTORE PUSH1 0x4 ADD PUSH2 0x198A SWAP1 PUSH2 0x47C1 JUMP JUMPDEST PUSH1 0x40 MLOAD DUP1 SWAP2 SUB SWAP1 REVERT JUMPDEST PUSH32 0x0 PUSH2 0x19BC PUSH2 0xD16 JUMP JUMPDEST LT PUSH2 0x19FC JUMPI PUSH1 0x40 MLOAD PUSH32 0x8C379A000000000000000000000000000000000000000000000000000000000 DUP2 MSTORE PUSH1 0x4 ADD PUSH2 0x19F3 SWAP1 PUSH2 0x46E1 JUMP JUMPDEST PUSH1 0x40 MLOAD DUP1 SWAP2 SUB SWAP1 REVERT JUMPDEST PUSH1 0x1 PUSH1 0x13 PUSH1 0x0 CALLER PUSH20 0xFFFFFFFFFFFFFFFFFFFFFFFFFFFFFFFFFFFFFFFF AND PUSH20 0xFFFFFFFFFFFFFFFFFFFFFFFFFFFFFFFFFFFFFFFF AND DUP2 MSTORE PUSH1 0x20 ADD SWAP1 DUP2 MSTORE PUSH1 0x20 ADD PUSH1 0x0 KECCAK256 SLOAD LT ISZERO PUSH2 0x1A7F JUMPI PUSH1 0x40 MLOAD PUSH32 0x8C379A000000000000000000000000000000000000000000000000000000000 DUP2 MSTORE PUSH1 0x4 ADD PUSH2 0x1A76 SWAP1 PUSH2 0x4741 JUMP JUMPDEST PUSH1 0x40 MLOAD DUP1 SWAP2 SUB SWAP1 REVERT JUMPDEST PUSH1 0x0 PUSH2 0x1A89 PUSH2 0x2778 JUMP JUMPDEST SWAP1 POP PUSH2 0x1A95 CALLER DUP3 PUSH2 0x28A5 JUMP JUMPDEST PUSH1 0x11 PUSH1 0x0 DUP2 SLOAD DUP1 SWAP3 SWAP2 SWAP1 PUSH2 0x1AA8 SWAP1 PUSH2 0x4C8D JUMP JUMPDEST SWAP2 SWAP1 POP SSTORE POP CALLER PUSH20 0xFFFFFFFFFFFFFFFFFFFFFFFFFFFFFFFFFFFFFFFF AND PUSH32 0x6ED0E5921C2B0F37ED5915265DF534D42BD7AD62C6C44687E004658C5E331AA DUP5 DUP5 DUP5 PUSH1 0x40 MLOAD PUSH2 0x1AF7 SWAP4 SWAP3 SWAP2 SWAP1 PUSH2 0x44F0 JUMP JUMPDEST PUSH1 0x40 MLOAD DUP1 SWAP2 SUB SWAP1 LOG2 PUSH1 0x1 PUSH1 0x13 PUSH1 0x0 CALLER PUSH20 0xFFFFFFFFFFFFFFFFFFFFFFFFFFFFFFFFFFFFFFFF AND PUSH20 0xFFFFFFFFFFFFFFFFFFFFFFFFFFFFFFFFFFFFFFFF AND DUP2 MSTORE PUSH1 0x20 ADD SWAP1 DUP2 MSTORE PUSH1 0x20 ADD PUSH1 0x0 KECCAK256 PUSH1 0x0 DUP3 DUP3 SLOAD PUSH2 0x1B4F SWAP2 SWAP1 PUSH2 0x4AE0 JUMP JUMPDEST SWAP3 POP POP DUP2 SWAP1 SSTORE POP POP POP POP JUMP JUMPDEST PUSH1 0x0 PUSH1 0xB PUSH1 0x0 SWAP1 SLOAD SWAP1 PUSH2 0x100 EXP SWAP1 DIV PUSH20 0xFFFFFFFFFFFFFFFFFFFFFFFFFFFFFFFFFFFFFFFF AND SWAP1 POP SWAP1 JUMP JUMPDEST PUSH1 0x60 PUSH1 0x1 DUP1 SLOAD PUSH2 0x1B94 SWAP1 PUSH2 0x4C2A JUMP JUMPDEST DUP1 PUSH1 0x1F ADD PUSH1 0x20 DUP1 SWAP2 DIV MUL PUSH1 0x20 ADD PUSH1 0x40 MLOAD SWAP1 DUP2 ADD PUSH1 0x40 MSTORE DUP1 SWAP3 SWAP2 SWAP1 DUP2 DUP2 MSTORE PUSH1 0x20 ADD DUP3 DUP1 SLOAD PUSH2 0x1BC0 SWAP1 PUSH2 0x4C2A JUMP JUMPDEST DUP1 ISZERO PUSH2 0x1C0D JUMPI DUP1 PUSH1 0x1F LT PUSH2 0x1BE2 JUMPI PUSH2 0x100 DUP1 DUP4 SLOAD DIV MUL DUP4 MSTORE SWAP2 PUSH1 0x20 ADD SWAP2 PUSH2 0x1C0D JUMP JUMPDEST DUP3 ADD SWAP2 SWAP1 PUSH1 0x0 MSTORE PUSH1 0x20 PUSH1 0x0 KECCAK256 SWAP1 JUMPDEST DUP2 SLOAD DUP2 MSTORE SWAP1 PUSH1 0x1 ADD SWAP1 PUSH1 0x20 ADD DUP1 DUP4 GT PUSH2 0x1BF0 JUMPI DUP3 SWAP1 SUB PUSH1 0x1F AND DUP3 ADD SWAP2 JUMPDEST POP POP POP POP POP SWAP1 POP SWAP1 JUMP JUMPDEST PUSH1 0xF SLOAD DUP2 JUMP JUMPDEST PUSH2 0x1C2F PUSH2 0x1C28 PUSH2 0x22FE JUMP JUMPDEST DUP4 DUP4 PUSH2 0x28C3 JUMP JUMPDEST POP POP JUMP JUMPDEST PUSH2 0x1C3B PUSH2 0x22FE JUMP JUMPDEST PUSH20 0xFFFFFFFFFFFFFFFFFFFFFFFFFFFFFFFFFFFFFFFF AND PUSH2 0x1C59 PUSH2 0x1B5B JUMP JUMPDEST PUSH20 0xFFFFFFFFFFFFFFFFFFFFFFFFFFFFFFFFFFFFFFFF AND EQ PUSH2 0x1CAF JUMPI PUSH1 0x40 MLOAD PUSH32 0x8C379A000000000000000000000000000000000000000000000000000000000 DUP2 MSTORE PUSH1 0x4 ADD PUSH2 0x1CA6 SWAP1 PUSH2 0x4841 JUMP JUMPDEST PUSH1 0x40 MLOAD DUP1 SWAP2 SUB SWAP1 REVERT JUMPDEST PUSH1 0x1 PUSH1 0x10 PUSH1 0x0 PUSH2 0x100 EXP DUP2 SLOAD DUP2 PUSH1 0xFF MUL NOT AND SWAP1 DUP4 ISZERO ISZERO MUL OR SWAP1 SSTORE POP JUMP JUMPDEST PUSH2 0x1CDD PUSH2 0x1CD7 PUSH2 0x22FE JUMP JUMPDEST DUP4 PUSH2 0x2433 JUMP JUMPDEST PUSH2 0x1D1C JUMPI PUSH1 0x40 MLOAD PUSH32 0x8C379A000000000000000000000000000000000000000000000000000000000 DUP2 MSTORE PUSH1 0x4 ADD PUSH2 0x1D13 SWAP1 PUSH2 0x48A1 JUMP JUMPDEST PUSH1 0x40 MLOAD DUP1 SWAP2 SUB SWAP1 REVERT JUMPDEST PUSH2 0x1D28 DUP5 DUP5 DUP5 DUP5 PUSH2 0x2A30 JUMP JUMPDEST POP POP POP POP JUMP JUMPDEST PUSH2 0x1D36 PUSH2 0x22FE JUMP JUMPDEST PUSH20 0xFFFFFFFFFFFFFFFFFFFFFFFFFFFFFFFFFFFFFFFF AND PUSH2 0x1D54 PUSH2 0x1B5B JUMP JUMPDEST PUSH20 0xFFFFFFFFFFFFFFFFFFFFFFFFFFFFFFFFFFFFFFFF AND EQ PUSH2 0x1DAA JUMPI PUSH1 0x40 MLOAD PUSH32 0x8C379A000000000000000000000000000000000000000000000000000000000 DUP2 MSTORE PUSH1 0x4 ADD PUSH2 0x1DA1 SWAP1 PUSH2 0x4841 JUMP JUMPDEST PUSH1 0x40 MLOAD DUP1 SWAP2 SUB SWAP1 REVERT JUMPDEST DUP1 PUSH1 0xF DUP2 SWAP1 SSTORE POP POP JUMP JUMPDEST PUSH1 0x60 PUSH2 0x1DBF DUP3 PUSH2 0x2292 JUMP JUMPDEST PUSH2 0x1DFE JUMPI PUSH1 0x40 MLOAD PUSH32 0x8C379A000000000000000000000000000000000000000000000000000000000 DUP2 MSTORE PUSH1 0x4 ADD PUSH2 0x1DF5 SWAP1 PUSH2 0x4801 JUMP JUMPDEST PUSH1 0x40 MLOAD DUP1 SWAP2 SUB SWAP1 REVERT JUMPDEST PUSH1 0x0 PUSH1 0xE PUSH1 0x0 DUP5 DUP2 MSTORE PUSH1 0x20 ADD SWAP1 DUP2 MSTORE PUSH1 0x20 ADD PUSH1 0x0 KECCAK256 DUP1 SLOAD PUSH2 0x1E1E SWAP1 PUSH2 0x4C2A JUMP JUMPDEST DUP1 PUSH1 0x1F ADD PUSH1 0x20 DUP1 SWAP2 DIV MUL PUSH1 0x20 ADD PUSH1 0x40 MLOAD SWAP1 DUP2 ADD PUSH1 0x40 MSTORE DUP1 SWAP3 SWAP2 SWAP1 DUP2 DUP2 MSTORE PUSH1 0x20 ADD DUP3 DUP1 SLOAD PUSH2 0x1E4A SWAP1 PUSH2 0x4C2A JUMP JUMPDEST DUP1 ISZERO PUSH2 0x1E97 JUMPI DUP1 PUSH1 0x1F LT PUSH2 0x1E6C JUMPI PUSH2 0x100 DUP1 DUP4 SLOAD DIV MUL DUP4 MSTORE SWAP2 PUSH1 0x20 ADD SWAP2 PUSH2 0x1E97 JUMP JUMPDEST DUP3 ADD SWAP2 SWAP1 PUSH1 0x0 MSTORE PUSH1 0x20 PUSH1 0x0 KECCAK256 SWAP1 JUMPDEST DUP2 SLOAD DUP2 MSTORE SWAP1 PUSH1 0x1 ADD SWAP1 PUSH1 0x20 ADD DUP1 DUP4 GT PUSH2 0x1E7A JUMPI DUP3 SWAP1 SUB PUSH1 0x1F AND DUP3 ADD SWAP2 JUMPDEST POP POP POP POP POP SWAP1 POP PUSH1 0x0 PUSH2 0x1EA8 PUSH2 0x2A8C JUMP JUMPDEST SWAP1 POP PUSH1 0x0 DUP2 MLOAD EQ ISZERO PUSH2 0x1EBE JUMPI DUP2 SWAP3 POP POP POP PUSH2 0x1F01 JUMP JUMPDEST PUSH1 0x0 DUP3 MLOAD GT ISZERO PUSH2 0x1EF3 JUMPI DUP1 DUP3 PUSH1 0x40 MLOAD PUSH1 0x20 ADD PUSH2 0x1EDB SWAP3 SWAP2 SWAP1 PUSH2 0x4439 JUMP JUMPDEST PUSH1 0x40 MLOAD PUSH1 0x20 DUP2 DUP4 SUB SUB DUP2 MSTORE SWAP1 PUSH1 0x40 MSTORE SWAP3 POP POP POP PUSH2 0x1F01 JUMP JUMPDEST PUSH2 0x1EFC DUP5 PUSH2 0x2B1E JUMP JUMPDEST SWAP3 POP POP POP JUMPDEST SWAP2 SWAP1 POP JUMP JUMPDEST PUSH2 0x1F0E PUSH2 0x22FE JUMP JUMPDEST PUSH20 0xFFFFFFFFFFFFFFFFFFFFFFFFFFFFFFFFFFFFFFFF AND PUSH2 0x1F2C PUSH2 0x1B5B JUMP JUMPDEST PUSH20 0xFFFFFFFFFFFFFFFFFFFFFFFFFFFFFFFFFFFFFFFF AND EQ PUSH2 0x1F82 JUMPI PUSH1 0x40 MLOAD PUSH32 0x8C379A000000000000000000000000000000000000000000000000000000000 DUP2 MSTORE PUSH1 0x4 ADD PUSH2 0x1F79 SWAP1 PUSH2 0x4841 JUMP JUMPDEST PUSH1 0x40 MLOAD DUP1 SWAP2 SUB SWAP1 REVERT JUMPDEST DUP1 PUSH1 0xD SWAP1 DUP1 MLOAD SWAP1 PUSH1 0x20 ADD SWAP1 PUSH2 0x1F98 SWAP3 SWAP2 SWAP1 PUSH2 0x3879 JUMP JUMPDEST POP POP JUMP JUMPDEST PUSH1 0x0 PUSH1 0x5 PUSH1 0x0 DUP5 PUSH20 0xFFFFFFFFFFFFFFFFFFFFFFFFFFFFFFFFFFFFFFFF AND PUSH20 0xFFFFFFFFFFFFFFFFFFFFFFFFFFFFFFFFFFFFFFFF AND DUP2 MSTORE PUSH1 0x20 ADD SWAP1 DUP2 MSTORE PUSH1 0x20 ADD PUSH1 0x0 KECCAK256 PUSH1 0x0 DUP4 PUSH20 0xFFFFFFFFFFFFFFFFFFFFFFFFFFFFFFFFFFFFFFFF AND PUSH20 0xFFFFFFFFFFFFFFFFFFFFFFFFFFFFFFFFFFFFFFFF AND DUP2 MSTORE PUSH1 0x20 ADD SWAP1 DUP2 MSTORE PUSH1 0x20 ADD PUSH1 0x0 KECCAK256 PUSH1 0x0 SWAP1 SLOAD SWAP1 PUSH2 0x100 EXP SWAP1 DIV PUSH1 0xFF AND SWAP1 POP SWAP3 SWAP2 POP POP JUMP JUMPDEST PUSH1 0x14 PUSH1 0x20 MSTORE DUP1 PUSH1 0x0 MSTORE PUSH1 0x40 PUSH1 0x0 KECCAK256 PUSH1 0x0 SWAP2 POP SWAP1 POP SLOAD DUP2 JUMP JUMPDEST PUSH2 0x2050 PUSH2 0x22FE JUMP JUMPDEST PUSH20 0xFFFFFFFFFFFFFFFFFFFFFFFFFFFFFFFFFFFFFFFF AND PUSH2 0x206E PUSH2 0x1B5B JUMP JUMPDEST PUSH20 0xFFFFFFFFFFFFFFFFFFFFFFFFFFFFFFFFFFFFFFFF AND EQ PUSH2 0x20C4 JUMPI PUSH1 0x40 MLOAD PUSH32 0x8C379A000000000000000000000000000000000000000000000000000000000 DUP2 MSTORE PUSH1 0x4 ADD PUSH2 0x20BB SWAP1 PUSH2 0x4841 JUMP JUMPDEST PUSH1 0x40 MLOAD DUP1 SWAP2 SUB SWAP1 REVERT JUMPDEST PUSH1 0x0 PUSH20 0xFFFFFFFFFFFFFFFFFFFFFFFFFFFFFFFFFFFFFFFF AND DUP2 PUSH20 0xFFFFFFFFFFFFFFFFFFFFFFFFFFFFFFFFFFFFFFFF AND EQ ISZERO PUSH2 0x2134 JUMPI PUSH1 0x40 MLOAD PUSH32 0x8C379A000000000000000000000000000000000000000000000000000000000 DUP2 MSTORE PUSH1 0x4 ADD PUSH2 0x212B SWAP1 PUSH2 0x45E1 JUMP JUMPDEST PUSH1 0x40 MLOAD DUP1 SWAP2 SUB SWAP1 REVERT JUMPDEST DUP1 PUSH20 0xFFFFFFFFFFFFFFFFFFFFFFFFFFFFFFFFFFFFFFFF AND PUSH1 0xB PUSH1 0x0 SWAP1 SLOAD SWAP1 PUSH2 0x100 EXP SWAP1 DIV PUSH20 0xFFFFFFFFFFFFFFFFFFFFFFFFFFFFFFFFFFFFFFFF AND PUSH20 0xFFFFFFFFFFFFFFFFFFFFFFFFFFFFFFFFFFFFFFFF AND PUSH32 0x8BE0079C531659141344CD1FD0A4F28419497F9722A3DAAFE3B4186F6B6457E0 PUSH1 0x40 MLOAD PUSH1 0x40 MLOAD DUP1 SWAP2 SUB SWAP1 LOG3 DUP1 PUSH1 0xB PUSH1 0x0 PUSH2 0x100 EXP DUP2 SLOAD DUP2 PUSH20 0xFFFFFFFFFFFFFFFFFFFFFFFFFFFFFFFFFFFFFFFF MUL NOT AND SWAP1 DUP4 PUSH20 0xFFFFFFFFFFFFFFFFFFFFFFFFFFFFFFFFFFFFFFFF AND MUL OR SWAP1 SSTORE POP POP JUMP JUMPDEST PUSH32 0x0 DUP2 JUMP JUMPDEST PUSH1 0x0 PUSH32 0x780E9D6300000000000000000000000000000000000000000000000000000000 PUSH28 0xFFFFFFFFFFFFFFFFFFFFFFFFFFFFFFFFFFFFFFFFFFFFFFFFFFFFFFFF NOT AND DUP3 PUSH28 0xFFFFFFFFFFFFFFFFFFFFFFFFFFFFFFFFFFFFFFFFFFFFFFFFFFFFFFFF NOT AND EQ DUP1 PUSH2 0x228B JUMPI POP PUSH2 0x228A DUP3 PUSH2 0x2C70 JUMP JUMPDEST JUMPDEST SWAP1 POP SWAP2 SWAP1 POP JUMP JUMPDEST PUSH1 0x0 DUP1 PUSH20 0xFFFFFFFFFFFFFFFFFFFFFFFFFFFFFFFFFFFFFFFF AND PUSH1 0x2 PUSH1 0x0 DUP5 DUP2 MSTORE PUSH1 0x20 ADD SWAP1 DUP2 MSTORE PUSH1 0x20 ADD PUSH1 0x0 KECCAK256 PUSH1 0x0 SWAP1 SLOAD SWAP1 PUSH2 0x100 EXP SWAP1 DIV PUSH20 0xFFFFFFFFFFFFFFFFFFFFFFFFFFFFFFFFFFFFFFFF AND PUSH20 0xFFFFFFFFFFFFFFFFFFFFFFFFFFFFFFFFFFFFFFFF AND EQ ISZERO SWAP1 POP SWAP2 SWAP1 POP JUMP JUMPDEST PUSH1 0x0 CALLER SWAP1 POP SWAP1 JUMP JUMPDEST DUP2 PUSH1 0x4 PUSH1 0x0 DUP4 DUP2 MSTORE PUSH1 0x20 ADD SWAP1 DUP2 MSTORE PUSH1 0x20 ADD PUSH1 0x0 KECCAK256 PUSH1 0x0 PUSH2 0x100 EXP DUP2 SLOAD DUP2 PUSH20 0xFFFFFFFFFFFFFFFFFFFFFFFFFFFFFFFFFFFFFFFF MUL NOT AND SWAP1 DUP4 PUSH20 0xFFFFFFFFFFFFFFFFFFFFFFFFFFFFFFFFFFFFFFFF AND MUL OR SWAP1 SSTORE POP DUP1 DUP3 PUSH20 0xFFFFFFFFFFFFFFFFFFFFFFFFFFFFFFFFFFFFFFFF AND PUSH2 0x2379 DUP4 PUSH2 0x13F1 JUMP JUMPDEST PUSH20 0xFFFFFFFFFFFFFFFFFFFFFFFFFFFFFFFFFFFFFFFF AND PUSH32 0x8C5BE1E5EBEC7D5BD14F71427D1E84F3DD0314C0F7B2291E5B200AC8C7C3B925 PUSH1 0x40 MLOAD PUSH1 0x40 MLOAD DUP1 SWAP2 SUB SWAP1 LOG4 POP POP JUMP JUMPDEST PUSH2 0x23C8 DUP3 PUSH2 0x2292 JUMP JUMPDEST PUSH2 0x2407 JUMPI PUSH1 0x40 MLOAD PUSH32 0x8C379A000000000000000000000000000000000000000000000000000000000 DUP2 MSTORE PUSH1 0x4 ADD PUSH2 0x23FE SWAP1 PUSH2 0x4781 JUMP JUMPDEST PUSH1 0x40 MLOAD DUP1 SWAP2 SUB SWAP1 REVERT JUMPDEST DUP1 PUSH1 0xA PUSH1 0x0 DUP5 DUP2 MSTORE PUSH1 0x20 ADD SWAP1 DUP2 MSTORE PUSH1 0x20 ADD PUSH1 0x0 KECCAK256 SWAP1 DUP1 MLOAD SWAP1 PUSH1 0x20 ADD SWAP1 PUSH2 0x242E SWAP3 SWAP2 SWAP1 PUSH2 0x3879 JUMP JUMPDEST POP POP POP JUMP JUMPDEST PUSH1 0x0 PUSH2 0x243E DUP3 PUSH2 0x2292 JUMP JUMPDEST PUSH2 0x247D JUMPI PUSH1 0x40 MLOAD PUSH32 0x8C379A000000000000000000000000000000000000000000000000000000000 DUP2 MSTORE PUSH1 0x4 ADD PUSH2 0x2474 SWAP1 PUSH2 0x46C1 JUMP JUMPDEST PUSH1 0x40 MLOAD DUP1 SWAP2 SUB SWAP1 REVERT JUMPDEST PUSH1 0x0 PUSH2 0x2488 DUP4 PUSH2 0x13F1 JUMP JUMPDEST SWAP1 POP DUP1 PUSH20 0xFFFFFFFFFFFFFFFFFFFFFFFFFFFFFFFFFFFFFFFF AND DUP5 PUSH20 0xFFFFFFFFFFFFFFFFFFFFFFFFFFFFFFFFFFFFFFFF AND EQ DUP1 PUSH2 0x24CA JUMPI POP PUSH2 0x24C9 DUP2 DUP6 PUSH2 0x1F9C JUMP JUMPDEST JUMPDEST DUP1 PUSH2 0x2508 JUMPI POP DUP4 PUSH20 0xFFFFFFFFFFFFFFFFFFFFFFFFFFFFFFFFFFFFFFFF AND PUSH2 0x24F0 DUP5 PUSH2 0x97D JUMP JUMPDEST PUSH20 0xFFFFFFFFFFFFFFFFFFFFFFFFFFFFFFFFFFFFFFFF AND EQ JUMPDEST SWAP2 POP POP SWAP3 SWAP2 POP POP JUMP JUMPDEST DUP3 PUSH20 0xFFFFFFFFFFFFFFFFFFFFFFFFFFFFFFFFFFFFFFFF AND PUSH2 0x2531 DUP3 PUSH2 0x13F1 JUMP JUMPDEST PUSH20 0xFFFFFFFFFFFFFFFFFFFFFFFFFFFFFFFFFFFFFFFF AND EQ PUSH2 0x2587 JUMPI PUSH1 0x40 MLOAD PUSH32 0x8C379A000000000000000000000000000000000000000000000000000000000 DUP2 MSTORE PUSH1 0x4 ADD PUSH2 0x257E SWAP1 PUSH2 0x4601 JUMP JUMPDEST PUSH1 0x40 MLOAD DUP1 SWAP2 SUB SWAP1 REVERT JUMPDEST PUSH1 0x0 PUSH20 0xFFFFFFFFFFFFFFFFFFFFFFFFFFFFFFFFFFFFFFFF AND DUP3 PUSH20 0xFFFFFFFFFFFFFFFFFFFFFFFFFFFFFFFFFFFFFFFF AND EQ ISZERO PUSH2 0x25F7 JUMPI PUSH1 0x40 MLOAD PUSH32 0x8C379A000000000000000000000000000000000000000000000000000000000 DUP2 MSTORE PUSH1 0x4 ADD PUSH2 0x25EE SWAP1 PUSH2 0x4641 JUMP JUMPDEST PUSH1 0x40 MLOAD DUP1 SWAP2 SUB SWAP1 REVERT JUMPDEST PUSH2 0x2602 DUP4 DUP4 DUP4 PUSH2 0x2D52 JUMP JUMPDEST PUSH2 0x260D PUSH1 0x0 DUP3 PUSH2 0x2306 JUMP JUMPDEST PUSH1 0x1 PUSH1 0x3 PUSH1 0x0 DUP6 PUSH20 0xFFFFFFFFFFFFFFFFFFFFFFFFFFFFFFFFFFFFFFFF AND PUSH20 0xFFFFFFFFFFFFFFFFFFFFFFFFFFFFFFFFFFFFFFFF AND DUP2 MSTORE PUSH1 0x20 ADD SWAP1 DUP2 MSTORE PUSH1 0x20 ADD PUSH1 0x0 KECCAK256 PUSH1 0x0 DUP3 DUP3 SLOAD PUSH2 0x265D SWAP2 SWAP1 PUSH2 0x4AE0 JUMP JUMPDEST SWAP3 POP POP DUP2 SWAP1 SSTORE POP PUSH1 0x1 PUSH1 0x3 PUSH1 0x0 DUP5 PUSH20 0xFFFFFFFFFFFFFFFFFFFFFFFFFFFFFFFFFFFFFFFF AND PUSH20 0xFFFFFFFFFFFFFFFFFFFFFFFFFFFFFFFFFFFFFFFF AND DUP2 MSTORE PUSH1 0x20 ADD SWAP1 DUP2 MSTORE PUSH1 0x20 ADD PUSH1 0x0 KECCAK256 PUSH1 0x0 DUP3 DUP3 SLOAD PUSH2 0x26B4 SWAP2 SWAP1 PUSH2 0x49FF JUMP JUMPDEST SWAP3 POP POP DUP2 SWAP1 SSTORE POP DUP2 PUSH1 0x2 PUSH1 0x0 DUP4 DUP2 MSTORE PUSH1 0x20 ADD SWAP1 DUP2 MSTORE PUSH1 0x20 ADD PUSH1 0x0 KECCAK256 PUSH1 0x0 PUSH2 0x100 EXP DUP2 SLOAD DUP2 PUSH20 0xFFFFFFFFFFFFFFFFFFFFFFFFFFFFFFFFFFFFFFFF MUL NOT AND SWAP1 DUP4 PUSH20 0xFFFFFFFFFFFFFFFFFFFFFFFFFFFFFFFFFFFFFFFF AND MUL OR SWAP1 SSTORE POP DUP1 DUP3 PUSH20 0xFFFFFFFFFFFFFFFFFFFFFFFFFFFFFFFFFFFFFFFF AND DUP5 PUSH20 0xFFFFFFFFFFFFFFFFFFFFFFFFFFFFFFFFFFFFFFFF AND PUSH32 0xDDF252AD1BE2C89B69C2B068FC378DAA952BA7F163C4A11628F55A4DF523B3EF PUSH1 0x40 MLOAD PUSH1 0x40 MLOAD DUP1 SWAP2 SUB SWAP1 LOG4 PUSH2 0x2773 DUP4 DUP4 DUP4 PUSH2 0x2D62 JUMP JUMPDEST POP POP POP JUMP JUMPDEST PUSH1 0x0 DUP1 PUSH1 0x11 SLOAD PUSH32 0x0 PUSH2 0x27A9 SWAP2 SWAP1 PUSH2 0x4AE0 JUMP JUMPDEST SWAP1 POP PUSH1 0x0 DUP1 PUSH1 0x0 DUP4 PUSH2 0x27B9 PUSH2 0x2D67 JUMP JUMPDEST PUSH2 0x27C3 SWAP2 SWAP1 PUSH2 0x4CE0 JUMP JUMPDEST SWAP1 POP PUSH1 0x0 PUSH1 0x12 PUSH1 0x0 PUSH1 0x1 DUP8 PUSH2 0x27D8 SWAP2 SWAP1 PUSH2 0x4AE0 JUMP JUMPDEST DUP2 MSTORE PUSH1 0x20 ADD SWAP1 DUP2 MSTORE PUSH1 0x20 ADD PUSH1 0x0 KECCAK256 SLOAD EQ ISZERO PUSH2 0x2801 JUMPI PUSH1 0x1 DUP5 PUSH2 0x27FA SWAP2 SWAP1 PUSH2 0x4AE0 JUMP JUMPDEST SWAP3 POP PUSH2 0x2824 JUMP JUMPDEST PUSH1 0x12 PUSH1 0x0 PUSH1 0x1 DUP7 PUSH2 0x2812 SWAP2 SWAP1 PUSH2 0x4AE0 JUMP JUMPDEST DUP2 MSTORE PUSH1 0x20 ADD SWAP1 DUP2 MSTORE PUSH1 0x20 ADD PUSH1 0x0 KECCAK256 SLOAD SWAP3 POP JUMPDEST PUSH1 0x0 PUSH1 0x12 PUSH1 0x0 DUP4 DUP2 MSTORE PUSH1 0x20 ADD SWAP1 DUP2 MSTORE PUSH1 0x20 ADD PUSH1 0x0 KECCAK256 SLOAD EQ ISZERO PUSH2 0x2860 JUMPI DUP1 SWAP2 POP DUP3 PUSH1 0x12 PUSH1 0x0 DUP4 DUP2 MSTORE PUSH1 0x20 ADD SWAP1 DUP2 MSTORE PUSH1 0x20 ADD PUSH1 0x0 KECCAK256 DUP2 SWAP1 SSTORE POP PUSH2 0x288F JUMP JUMPDEST PUSH1 0x12 PUSH1 0x0 DUP3 DUP2 MSTORE PUSH1 0x20 ADD SWAP1 DUP2 MSTORE PUSH1 0x20 ADD PUSH1 0x0 KECCAK256 SLOAD SWAP2 POP DUP3 PUSH1 0x12 PUSH1 0x0 DUP4 DUP2 MSTORE PUSH1 0x20 ADD SWAP1 DUP2 MSTORE PUSH1 0x20 ADD PUSH1 0x0 KECCAK256 DUP2 SWAP1 SSTORE POP JUMPDEST PUSH1 0x1 DUP3 PUSH2 0x289C SWAP2 SWAP1 PUSH2 0x49FF JUMP JUMPDEST SWAP5 POP POP POP POP POP SWAP1 JUMP JUMPDEST PUSH2 0x28BF DUP3 DUP3 PUSH1 0x40 MLOAD DUP1 PUSH1 0x20 ADD PUSH1 0x40 MSTORE DUP1 PUSH1 0x0 DUP2 MSTORE POP PUSH2 0x2D9A JUMP JUMPDEST POP POP JUMP JUMPDEST DUP2 PUSH20 0xFFFFFFFFFFFFFFFFFFFFFFFFFFFFFFFFFFFFFFFF AND DUP4 PUSH20 0xFFFFFFFFFFFFFFFFFFFFFFFFFFFFFFFFFFFFFFFF AND EQ ISZERO PUSH2 0x2932 JUMPI PUSH1 0x40 MLOAD PUSH32 0x8C379A000000000000000000000000000000000000000000000000000000000 DUP2 MSTORE PUSH1 0x4 ADD PUSH2 0x2929 SWAP1 PUSH2 0x4661 JUMP JUMPDEST PUSH1 0x40 MLOAD DUP1 SWAP2 SUB SWAP1 REVERT JUMPDEST DUP1 PUSH1 0x5 PUSH1 0x0 DUP6 PUSH20 0xFFFFFFFFFFFFFFFFFFFFFFFFFFFFFFFFFFFFFFFF AND PUSH20 0xFFFFFFFFFFFFFFFFFFFFFFFFFFFFFFFFFFFFFFFF AND DUP2 MSTORE PUSH1 0x20 ADD SWAP1 DUP2 MSTORE PUSH1 0x20 ADD PUSH1 0x0 KECCAK256 PUSH1 0x0 DUP5 PUSH20 0xFFFFFFFFFFFFFFFFFFFFFFFFFFFFFFFFFFFFFFFF AND PUSH20 0xFFFFFFFFFFFFFFFFFFFFFFFFFFFFFFFFFFFFFFFF AND DUP2 MSTORE PUSH1 0x20 ADD SWAP1 DUP2 MSTORE PUSH1 0x20 ADD PUSH1 0x0 KECCAK256 PUSH1 0x0 PUSH2 0x100 EXP DUP2 SLOAD DUP2 PUSH1 0xFF MUL NOT AND SWAP1 DUP4 ISZERO ISZERO MUL OR SWAP1 SSTORE POP DUP2 PUSH20 0xFFFFFFFFFFFFFFFFFFFFFFFFFFFFFFFFFFFFFFFF AND DUP4 PUSH20 0xFFFFFFFFFFFFFFFFFFFFFFFFFFFFFFFFFFFFFFFF AND PUSH32 0x17307EAB39AB6107E8899845AD3D59BD9653F200F220920489CA2B5937696C31 DUP4 PUSH1 0x40 MLOAD PUSH2 0x2A23 SWAP2 SWAP1 PUSH2 0x4544 JUMP JUMPDEST PUSH1 0x40 MLOAD DUP1 SWAP2 SUB SWAP1 LOG3 POP POP POP JUMP JUMPDEST PUSH2 0x2A3B DUP5 DUP5 DUP5 PUSH2 0x2511 JUMP JUMPDEST PUSH2 0x2A47 DUP5 DUP5 DUP5 DUP5 PUSH2 0x2DF5 JUMP JUMPDEST PUSH2 0x2A86 JUMPI PUSH1 0x40 MLOAD PUSH32 0x8C379A000000000000000000000000000000000000000000000000000000000 DUP2 MSTORE PUSH1 0x4 ADD PUSH2 0x2A7D SWAP1 PUSH2 0x45C1 JUMP JUMPDEST PUSH1 0x40 MLOAD DUP1 SWAP2 SUB SWAP1 REVERT JUMPDEST POP POP POP POP JUMP JUMPDEST PUSH1 0x60 PUSH1 0xD DUP1 SLOAD PUSH2 0x2A9B SWAP1 PUSH2 0x4C2A JUMP JUMPDEST DUP1 PUSH1 0x1F ADD PUSH1 0x20 DUP1 SWAP2 DIV MUL PUSH1 0x20 ADD PUSH1 0x40 MLOAD SWAP1 DUP2 ADD PUSH1 0x40 MSTORE DUP1 SWAP3 SWAP2 SWAP1 DUP2 DUP2 MSTORE PUSH1 0x20 ADD DUP3 DUP1 SLOAD PUSH2 0x2AC7 SWAP1 PUSH2 0x4C2A JUMP JUMPDEST DUP1 ISZERO PUSH2 0x2B14 JUMPI DUP1 PUSH1 0x1F LT PUSH2 0x2AE9 JUMPI PUSH2 0x100 DUP1 DUP4 SLOAD DIV MUL DUP4 MSTORE SWAP2 PUSH1 0x20 ADD SWAP2 PUSH2 0x2B14 JUMP JUMPDEST DUP3 ADD SWAP2 SWAP1 PUSH1 0x0 MSTORE PUSH1 0x20 PUSH1 0x0 KECCAK256 SWAP1 JUMPDEST DUP2 SLOAD DUP2 MSTORE SWAP1 PUSH1 0x1 ADD SWAP1 PUSH1 0x20 ADD DUP1 DUP4 GT PUSH2 0x2AF7 JUMPI DUP3 SWAP1 SUB PUSH1 0x1F AND DUP3 ADD SWAP2 JUMPDEST POP POP POP POP POP SWAP1 POP SWAP1 JUMP JUMPDEST PUSH1 0x60 PUSH2 0x2B29 DUP3 PUSH2 0x2292 JUMP JUMPDEST PUSH2 0x2B68 JUMPI PUSH1 0x40 MLOAD PUSH32 0x8C379A000000000000000000000000000000000000000000000000000000000 DUP2 MSTORE PUSH1 0x4 ADD PUSH2 0x2B5F SWAP1 PUSH2 0x4801 JUMP JUMPDEST PUSH1 0x40 MLOAD DUP1 SWAP2 SUB SWAP1 REVERT JUMPDEST PUSH1 0x0 PUSH1 0xA PUSH1 0x0 DUP5 DUP2 MSTORE PUSH1 0x20 ADD SWAP1 DUP2 MSTORE PUSH1 0x20 ADD PUSH1 0x0 KECCAK256 DUP1 SLOAD PUSH2 0x2B88 SWAP1 PUSH2 0x4C2A JUMP JUMPDEST DUP1 PUSH1 0x1F ADD PUSH1 0x20 DUP1 SWAP2 DIV MUL PUSH1 0x20 ADD PUSH1 0x40 MLOAD SWAP1 DUP2 ADD PUSH1 0x40 MSTORE DUP1 SWAP3 SWAP2 SWAP1 DUP2 DUP2 MSTORE PUSH1 0x20 ADD DUP3 DUP1 SLOAD PUSH2 0x2BB4 SWAP1 PUSH2 0x4C2A JUMP JUMPDEST DUP1 ISZERO PUSH2 0x2C01 JUMPI DUP1 PUSH1 0x1F LT PUSH2 0x2BD6 JUMPI PUSH2 0x100 DUP1 DUP4 SLOAD DIV MUL DUP4 MSTORE SWAP2 PUSH1 0x20 ADD SWAP2 PUSH2 0x2C01 JUMP JUMPDEST DUP3 ADD SWAP2 SWAP1 PUSH1 0x0 MSTORE PUSH1 0x20 PUSH1 0x0 KECCAK256 SWAP1 JUMPDEST DUP2 SLOAD DUP2 MSTORE SWAP1 PUSH1 0x1 ADD SWAP1 PUSH1 0x20 ADD DUP1 DUP4 GT PUSH2 0x2BE4 JUMPI DUP3 SWAP1 SUB PUSH1 0x1F AND DUP3 ADD SWAP2 JUMPDEST POP POP POP POP POP SWAP1 POP PUSH1 0x0 PUSH2 0x2C12 PUSH2 0x2A8C JUMP JUMPDEST SWAP1 POP PUSH1 0x0 DUP2 MLOAD EQ ISZERO PUSH2 0x2C28 JUMPI DUP2 SWAP3 POP POP POP PUSH2 0x2C6B JUMP JUMPDEST PUSH1 0x0 DUP3 MLOAD GT ISZERO PUSH2 0x2C5D JUMPI DUP1 DUP3 PUSH1 0x40 MLOAD PUSH1 0x20 ADD PUSH2 0x2C45 SWAP3 SWAP2 SWAP1 PUSH2 0x4439 JUMP JUMPDEST PUSH1 0x40 MLOAD PUSH1 0x20 DUP2 DUP4 SUB SUB DUP2 MSTORE SWAP1 PUSH1 0x40 MSTORE SWAP3 POP POP POP PUSH2 0x2C6B JUMP JUMPDEST PUSH2 0x2C66 DUP5 PUSH2 0x2F8C JUMP JUMPDEST SWAP3 POP POP POP JUMPDEST SWAP2 SWAP1 POP JUMP JUMPDEST PUSH1 0x0 PUSH32 0x80AC58CD00000000000000000000000000000000000000000000000000000000 PUSH28 0xFFFFFFFFFFFFFFFFFFFFFFFFFFFFFFFFFFFFFFFFFFFFFFFFFFFFFFFF NOT AND DUP3 PUSH28 0xFFFFFFFFFFFFFFFFFFFFFFFFFFFFFFFFFFFFFFFFFFFFFFFFFFFFFFFF NOT AND EQ DUP1 PUSH2 0x2D3B JUMPI POP PUSH32 0x5B5E139F00000000000000000000000000000000000000000000000000000000 PUSH28 0xFFFFFFFFFFFFFFFFFFFFFFFFFFFFFFFFFFFFFFFFFFFFFFFFFFFFFFFF NOT AND DUP3 PUSH28 0xFFFFFFFFFFFFFFFFFFFFFFFFFFFFFFFFFFFFFFFFFFFFFFFFFFFFFFFF NOT AND EQ JUMPDEST DUP1 PUSH2 0x2D4B JUMPI POP PUSH2 0x2D4A DUP3 PUSH2 0x3033 JUMP JUMPDEST JUMPDEST SWAP1 POP SWAP2 SWAP1 POP JUMP JUMPDEST PUSH2 0x2D5D DUP4 DUP4 DUP4 PUSH2 0x309D JUMP JUMPDEST POP POP POP JUMP JUMPDEST POP POP POP JUMP JUMPDEST PUSH1 0x0 DIFFICULTY TIMESTAMP PUSH1 0x40 MLOAD PUSH1 0x20 ADD PUSH2 0x2D7C SWAP3 SWAP2 SWAP1 PUSH2 0x445D JUMP JUMPDEST PUSH1 0x40 MLOAD PUSH1 0x20 DUP2 DUP4 SUB SUB DUP2 MSTORE SWAP1 PUSH1 0x40 MSTORE DUP1 MLOAD SWAP1 PUSH1 0x20 ADD KECCAK256 PUSH1 0x0 SHR SWAP1 POP SWAP1 JUMP JUMPDEST PUSH2 0x2DA4 DUP4 DUP4 PUSH2 0x31B1 JUMP JUMPDEST PUSH2 0x2DB1 PUSH1 0x0 DUP5 DUP5 DUP5 PUSH2 0x2DF5 JUMP JUMPDEST PUSH2 0x2DF0 JUMPI PUSH1 0x40 MLOAD PUSH32 0x8C379A000000000000000000000000000000000000000000000000000000000 DUP2 MSTORE PUSH1 0x4 ADD PUSH2 0x2DE7 SWAP1 PUSH2 0x45C1 JUMP JUMPDEST PUSH1 0x40 MLOAD DUP1 SWAP2 SUB SWAP1 REVERT JUMPDEST POP POP POP JUMP JUMPDEST PUSH1 0x0 PUSH2 0x2E16 DUP5 PUSH20 0xFFFFFFFFFFFFFFFFFFFFFFFFFFFFFFFFFFFFFFFF AND PUSH2 0x338B JUMP JUMPDEST ISZERO PUSH2 0x2F7F JUMPI DUP4 PUSH20 0xFFFFFFFFFFFFFFFFFFFFFFFFFFFFFFFFFFFFFFFF AND PUSH4 0x150B7A02 PUSH2 0x2E3F PUSH2 0x22FE JUMP JUMPDEST DUP8 DUP7 DUP7 PUSH1 0x40 MLOAD DUP6 PUSH4 0xFFFFFFFF AND PUSH1 0xE0 SHL DUP2 MSTORE PUSH1 0x4 ADD PUSH2 0x2E61 SWAP5 SWAP4 SWAP3 SWAP2 SWAP1 PUSH2 0x44A4 JUMP JUMPDEST PUSH1 0x20 PUSH1 0x40 MLOAD DUP1 DUP4 SUB DUP2 PUSH1 0x0 DUP8 DUP1 EXTCODESIZE ISZERO DUP1 ISZERO PUSH2 0x2E7B JUMPI PUSH1 0x0 DUP1 REVERT JUMPDEST POP GAS CALL SWAP3 POP POP POP DUP1 ISZERO PUSH2 0x2EAC JUMPI POP PUSH1 0x40 MLOAD RETURNDATASIZE PUSH1 0x1F NOT PUSH1 0x1F DUP3 ADD AND DUP3 ADD DUP1 PUSH1 0x40 MSTORE POP DUP2 ADD SWAP1 PUSH2 0x2EA9 SWAP2 SWAP1 PUSH2 0x3D4E JUMP JUMPDEST PUSH1 0x1 JUMPDEST PUSH2 0x2F2F JUMPI RETURNDATASIZE DUP1 PUSH1 0x0 DUP2 EQ PUSH2 0x2EDC JUMPI PUSH1 0x40 MLOAD SWAP2 POP PUSH1 0x1F NOT PUSH1 0x3F RETURNDATASIZE ADD AND DUP3 ADD PUSH1 0x40 MSTORE RETURNDATASIZE DUP3 MSTORE RETURNDATASIZE PUSH1 0x0 PUSH1 0x20 DUP5 ADD RETURNDATACOPY PUSH2 0x2EE1 JUMP JUMPDEST PUSH1 0x60 SWAP2 POP JUMPDEST POP PUSH1 0x0 DUP2 MLOAD EQ ISZERO PUSH2 0x2F27 JUMPI PUSH1 0x40 MLOAD PUSH32 0x8C379A000000000000000000000000000000000000000000000000000000000 DUP2 MSTORE PUSH1 0x4 ADD PUSH2 0x2F1E SWAP1 PUSH2 0x45C1 JUMP JUMPDEST PUSH1 0x40 MLOAD DUP1 SWAP2 SUB SWAP1 REVERT JUMPDEST DUP1 MLOAD DUP2 PUSH1 0x20 ADD REVERT JUMPDEST PUSH4 0x150B7A02 PUSH1 0xE0 SHL PUSH28 0xFFFFFFFFFFFFFFFFFFFFFFFFFFFFFFFFFFFFFFFFFFFFFFFFFFFFFFFF NOT AND DUP2 PUSH28 0xFFFFFFFFFFFFFFFFFFFFFFFFFFFFFFFFFFFFFFFFFFFFFFFFFFFFFFFF NOT AND EQ SWAP2 POP POP PUSH2 0x2F84 JUMP JUMPDEST PUSH1 0x1 SWAP1 POP JUMPDEST SWAP5 SWAP4 POP POP POP POP JUMP JUMPDEST PUSH1 0x60 PUSH2 0x2F97 DUP3 PUSH2 0x2292 JUMP JUMPDEST PUSH2 0x2FD6 JUMPI PUSH1 0x40 MLOAD PUSH32 0x8C379A000000000000000000000000000000000000000000000000000000000 DUP2 MSTORE PUSH1 0x4 ADD PUSH2 0x2FCD SWAP1 PUSH2 0x4861 JUMP JUMPDEST PUSH1 0x40 MLOAD DUP1 SWAP2 SUB SWAP1 REVERT JUMPDEST PUSH1 0x0 PUSH2 0x2FE0 PUSH2 0x2A8C JUMP JUMPDEST SWAP1 POP PUSH1 0x0 DUP2 MLOAD GT PUSH2 0x3000 JUMPI PUSH1 0x40 MLOAD DUP1 PUSH1 0x20 ADD PUSH1 0x40 MSTORE DUP1 PUSH1 0x0 DUP2 MSTORE POP PUSH2 0x302B JUMP JUMPDEST DUP1 PUSH2 0x300A DUP5 PUSH2 0x33AE JUMP JUMPDEST PUSH1 0x40 MLOAD PUSH1 0x20 ADD PUSH2 0x301B SWAP3 SWAP2 SWAP1 PUSH2 0x4439 JUMP JUMPDEST PUSH1 0x40 MLOAD PUSH1 0x20 DUP2 DUP4 SUB SUB DUP2 MSTORE SWAP1 PUSH1 0x40 MSTORE JUMPDEST SWAP2 POP POP SWAP2 SWAP1 POP JUMP JUMPDEST PUSH1 0x0 PUSH32 0x1FFC9A700000000000000000000000000000000000000000000000000000000 PUSH28 0xFFFFFFFFFFFFFFFFFFFFFFFFFFFFFFFFFFFFFFFFFFFFFFFFFFFFFFFF NOT AND DUP3 PUSH28 0xFFFFFFFFFFFFFFFFFFFFFFFFFFFFFFFFFFFFFFFFFFFFFFFFFFFFFFFF NOT AND EQ SWAP1 POP SWAP2 SWAP1 POP JUMP JUMPDEST PUSH2 0x30A8 DUP4 DUP4 DUP4 PUSH2 0x3521 JUMP JUMPDEST PUSH1 0x0 PUSH20 0xFFFFFFFFFFFFFFFFFFFFFFFFFFFFFFFFFFFFFFFF AND DUP4 PUSH20 0xFFFFFFFFFFFFFFFFFFFFFFFFFFFFFFFFFFFFFFFF AND EQ ISZERO PUSH2 0x30EB JUMPI PUSH2 0x30E6 DUP2 PUSH2 0x3526 JUMP JUMPDEST PUSH2 0x312A JUMP JUMPDEST DUP2 PUSH20 0xFFFFFFFFFFFFFFFFFFFFFFFFFFFFFFFFFFFFFFFF AND DUP4 PUSH20 0xFFFFFFFFFFFFFFFFFFFFFFFFFFFFFFFFFFFFFFFF AND EQ PUSH2 0x3129 JUMPI PUSH2 0x3128 DUP4 DUP3 PUSH2 0x356F JUMP JUMPDEST JUMPDEST JUMPDEST PUSH1 0x0 PUSH20 0xFFFFFFFFFFFFFFFFFFFFFFFFFFFFFFFFFFFFFFFF AND DUP3 PUSH20 0xFFFFFFFFFFFFFFFFFFFFFFFFFFFFFFFFFFFFFFFF AND EQ ISZERO PUSH2 0x316D JUMPI PUSH2 0x3168 DUP2 PUSH2 0x36DC JUMP JUMPDEST PUSH2 0x31AC JUMP JUMPDEST DUP3 PUSH20 0xFFFFFFFFFFFFFFFFFFFFFFFFFFFFFFFFFFFFFFFF AND DUP3 PUSH20 0xFFFFFFFFFFFFFFFFFFFFFFFFFFFFFFFFFFFFFFFF AND EQ PUSH2 0x31AB JUMPI PUSH2 0x31AA DUP3 DUP3 PUSH2 0x37AD JUMP JUMPDEST JUMPDEST JUMPDEST POP POP POP JUMP JUMPDEST PUSH1 0x0 PUSH20 0xFFFFFFFFFFFFFFFFFFFFFFFFFFFFFFFFFFFFFFFF AND DUP3 PUSH20 0xFFFFFFFFFFFFFFFFFFFFFFFFFFFFFFFFFFFFFFFF AND EQ ISZERO PUSH2 0x3221 JUMPI PUSH1 0x40 MLOAD PUSH32 0x8C379A000000000000000000000000000000000000000000000000000000000 DUP2 MSTORE PUSH1 0x4 ADD PUSH2 0x3218 SWAP1 PUSH2 0x47A1 JUMP JUMPDEST PUSH1 0x40 MLOAD DUP1 SWAP2 SUB SWAP1 REVERT JUMPDEST PUSH2 0x322A DUP2 PUSH2 0x2292 JUMP JUMPDEST ISZERO PUSH2 0x326A JUMPI PUSH1 0x40 MLOAD PUSH32 0x8C379A000000000000000000000000000000000000000000000000000000000 DUP2 MSTORE PUSH1 0x4 ADD PUSH2 0x3261 SWAP1 PUSH2 0x4621 JUMP JUMPDEST PUSH1 0x40 MLOAD DUP1 SWAP2 SUB SWAP1 REVERT JUMPDEST PUSH2 0x3276 PUSH1 0x0 DUP4 DUP4 PUSH2 0x2D52 JUMP JUMPDEST PUSH1 0x1 PUSH1 0x3 PUSH1 0x0 DUP5 PUSH20 0xFFFFFFFFFFFFFFFFFFFFFFFFFFFFFFFFFFFFFFFF AND PUSH20 0xFFFFFFFFFFFFFFFFFFFFFFFFFFFFFFFFFFFFFFFF AND DUP2 MSTORE PUSH1 0x20 ADD SWAP1 DUP2 MSTORE PUSH1 0x20 ADD PUSH1 0x0 KECCAK256 PUSH1 0x0 DUP3 DUP3 SLOAD PUSH2 0x32C6 SWAP2 SWAP1 PUSH2 0x49FF JUMP JUMPDEST SWAP3 POP POP DUP2 SWAP1 SSTORE POP DUP2 PUSH1 0x2 PUSH1 0x0 DUP4 DUP2 MSTORE PUSH1 0x20 ADD SWAP1 DUP2 MSTORE PUSH1 0x20 ADD PUSH1 0x0 KECCAK256 PUSH1 0x0 PUSH2 0x100 EXP DUP2 SLOAD DUP2 PUSH20 0xFFFFFFFFFFFFFFFFFFFFFFFFFFFFFFFFFFFFFFFF MUL NOT AND SWAP1 DUP4 PUSH20 0xFFFFFFFFFFFFFFFFFFFFFFFFFFFFFFFFFFFFFFFF AND MUL OR SWAP1 SSTORE POP DUP1 DUP3 PUSH20 0xFFFFFFFFFFFFFFFFFFFFFFFFFFFFFFFFFFFFFFFF AND PUSH1 0x0 PUSH20 0xFFFFFFFFFFFFFFFFFFFFFFFFFFFFFFFFFFFFFFFF AND PUSH32 0xDDF252AD1BE2C89B69C2B068FC378DAA952BA7F163C4A11628F55A4DF523B3EF PUSH1 0x40 MLOAD PUSH1 0x40 MLOAD DUP1 SWAP2 SUB SWAP1 LOG4 PUSH2 0x3387 PUSH1 0x0 DUP4 DUP4 PUSH2 0x2D62 JUMP JUMPDEST POP POP JUMP JUMPDEST PUSH1 0x0 DUP1 DUP3 PUSH20 0xFFFFFFFFFFFFFFFFFFFFFFFFFFFFFFFFFFFFFFFF AND EXTCODESIZE GT SWAP1 POP SWAP2 SWAP1 POP JUMP JUMPDEST PUSH1 0x60 PUSH1 0x0 DUP3 EQ ISZERO PUSH2 0x33F6 JUMPI PUSH1 0x40 MLOAD DUP1 PUSH1 0x40 ADD PUSH1 0x40 MSTORE DUP1 PUSH1 0x1 DUP2 MSTORE PUSH1 0x20 ADD PUSH32 0x3000000000000000000000000000000000000000000000000000000000000000 DUP2 MSTORE POP SWAP1 POP PUSH2 0x351C JUMP JUMPDEST PUSH1 0x0 DUP3 SWAP1 POP PUSH1 0x0 JUMPDEST PUSH1 0x0 DUP3 EQ PUSH2 0x3428 JUMPI DUP1 DUP1 PUSH2 0x3411 SWAP1 PUSH2 0x4C8D JUMP JUMPDEST SWAP2 POP POP PUSH1 0xA DUP3 PUSH2 0x3421 SWAP2 SWAP1 PUSH2 0x4A55 JUMP JUMPDEST SWAP2 POP PUSH2 0x33FE JUMP JUMPDEST PUSH1 0x0 DUP2 PUSH8 0xFFFFFFFFFFFFFFFF DUP2 GT ISZERO PUSH2 0x3444 JUMPI PUSH2 0x3443 PUSH2 0x4DFC JUMP JUMPDEST JUMPDEST PUSH1 0x40 MLOAD SWAP1 DUP1 DUP3 MSTORE DUP1 PUSH1 0x1F ADD PUSH1 0x1F NOT AND PUSH1 0x20 ADD DUP3 ADD PUSH1 0x40 MSTORE DUP1 ISZERO PUSH2 0x3476 JUMPI DUP2 PUSH1 0x20 ADD PUSH1 0x1 DUP3 MUL DUP1 CALLDATASIZE DUP4 CALLDATACOPY DUP1 DUP3 ADD SWAP2 POP POP SWAP1 POP JUMPDEST POP SWAP1 POP PUSH1 0x0 PUSH1 0x1 DUP4 PUSH2 0x3488 SWAP2 SWAP1 PUSH2 0x4AE0 JUMP JUMPDEST SWAP1 POP DUP6 SWAP4 POP JUMPDEST PUSH1 0x0 DUP5 EQ PUSH2 0x3514 JUMPI PUSH1 0xA DUP5 PUSH2 0x34A3 SWAP2 SWAP1 PUSH2 0x4CE0 JUMP JUMPDEST PUSH1 0x30 PUSH2 0x34AF SWAP2 SWAP1 PUSH2 0x49FF JUMP JUMPDEST PUSH1 0xF8 SHL DUP3 DUP3 DUP1 PUSH2 0x34BE SWAP1 PUSH2 0x4C00 JUMP JUMPDEST SWAP4 POP DUP2 MLOAD DUP2 LT PUSH2 0x34D1 JUMPI PUSH2 0x34D0 PUSH2 0x4DCD JUMP JUMPDEST JUMPDEST PUSH1 0x20 ADD ADD SWAP1 PUSH31 0xFFFFFFFFFFFFFFFFFFFFFFFFFFFFFFFFFFFFFFFFFFFFFFFFFFFFFFFFFFFFFF NOT AND SWAP1 DUP2 PUSH1 0x0 BYTE SWAP1 MSTORE8 POP PUSH1 0xA DUP5 PUSH2 0x350D SWAP2 SWAP1 PUSH2 0x4A55 JUMP JUMPDEST SWAP4 POP PUSH2 0x348E JUMP JUMPDEST DUP2 SWAP5 POP POP POP POP POP JUMPDEST SWAP2 SWAP1 POP JUMP JUMPDEST POP POP POP JUMP JUMPDEST PUSH1 0x8 DUP1 SLOAD SWAP1 POP PUSH1 0x9 PUSH1 0x0 DUP4 DUP2 MSTORE PUSH1 0x20 ADD SWAP1 DUP2 MSTORE PUSH1 0x20 ADD PUSH1 0x0 KECCAK256 DUP2 SWAP1 SSTORE POP PUSH1 0x8 DUP2 SWAP1 DUP1 PUSH1 0x1 DUP2 SLOAD ADD DUP1 DUP3 SSTORE DUP1 SWAP2 POP POP PUSH1 0x1 SWAP1 SUB SWAP1 PUSH1 0x0 MSTORE PUSH1 0x20 PUSH1 0x0 KECCAK256 ADD PUSH1 0x0 SWAP1 SWAP2 SWAP1 SWAP2 SWAP1 SWAP2 POP SSTORE POP JUMP JUMPDEST PUSH1 0x0 PUSH1 0x1 PUSH2 0x357C DUP5 PUSH2 0x14A3 JUMP JUMPDEST PUSH2 0x3586 SWAP2 SWAP1 PUSH2 0x4AE0 JUMP JUMPDEST SWAP1 POP PUSH1 0x0 PUSH1 0x7 PUSH1 0x0 DUP5 DUP2 MSTORE PUSH1 0x20 ADD SWAP1 DUP2 MSTORE PUSH1 0x20 ADD PUSH1 0x0 KECCAK256 SLOAD SWAP1 POP DUP2 DUP2 EQ PUSH2 0x366B JUMPI PUSH1 0x0 PUSH1 0x6 PUSH1 0x0 DUP7 PUSH20 0xFFFFFFFFFFFFFFFFFFFFFFFFFFFFFFFFFFFFFFFF AND PUSH20 0xFFFFFFFFFFFFFFFFFFFFFFFFFFFFFFFFFFFFFFFF AND DUP2 MSTORE PUSH1 0x20 ADD SWAP1 DUP2 MSTORE PUSH1 0x20 ADD PUSH1 0x0 KECCAK256 PUSH1 0x0 DUP5 DUP2 MSTORE PUSH1 0x20 ADD SWAP1 DUP2 MSTORE PUSH1 0x20 ADD PUSH1 0x0 KECCAK256 SLOAD SWAP1 POP DUP1 PUSH1 0x6 PUSH1 0x0 DUP8 PUSH20 0xFFFFFFFFFFFFFFFFFFFFFFFFFFFFFFFFFFFFFFFF AND PUSH20 0xFFFFFFFFFFFFFFFFFFFFFFFFFFFFFFFFFFFFFFFF AND DUP2 MSTORE PUSH1 0x20 ADD SWAP1 DUP2 MSTORE PUSH1 0x20 ADD PUSH1 0x0 KECCAK256 PUSH1 0x0 DUP5 DUP2 MSTORE PUSH1 0x20 ADD SWAP1 DUP2 MSTORE PUSH1 0x20 ADD PUSH1 0x0 KECCAK256 DUP2 SWAP1 SSTORE POP DUP2 PUSH1 0x7 PUSH1 0x0 DUP4 DUP2 MSTORE PUSH1 0x20 ADD SWAP1 DUP2 MSTORE PUSH1 0x20 ADD PUSH1 0x0 KECCAK256 DUP2 SWAP1 SSTORE POP POP JUMPDEST PUSH1 0x7 PUSH1 0x0 DUP5 DUP2 MSTORE PUSH1 0x20 ADD SWAP1 DUP2 MSTORE PUSH1 0x20 ADD PUSH1 0x0 KECCAK256 PUSH1 0x0 SWAP1 SSTORE PUSH1 0x6 PUSH1 0x0 DUP6 PUSH20 0xFFFFFFFFFFFFFFFFFFFFFFFFFFFFFFFFFFFFFFFF AND PUSH20 0xFFFFFFFFFFFFFFFFFFFFFFFFFFFFFFFFFFFFFFFF AND DUP2 MSTORE PUSH1 0x20 ADD SWAP1 DUP2 MSTORE PUSH1 0x20 ADD PUSH1 0x0 KECCAK256 PUSH1 0x0 DUP4 DUP2 MSTORE PUSH1 0x20 ADD SWAP1 DUP2 MSTORE PUSH1 0x20 ADD PUSH1 0x0 KECCAK256 PUSH1 0x0 SWAP1 SSTORE POP POP POP POP JUMP JUMPDEST PUSH1 0x0 PUSH1 0x1 PUSH1 0x8 DUP1 SLOAD SWAP1 POP PUSH2 0x36F0 SWAP2 SWAP1 PUSH2 0x4AE0 JUMP JUMPDEST SWAP1 POP PUSH1 0x0 PUSH1 0x9 PUSH1 0x0 DUP5 DUP2 MSTORE PUSH1 0x20 ADD SWAP1 DUP2 MSTORE PUSH1 0x20 ADD PUSH1 0x0 KECCAK256 SLOAD SWAP1 POP PUSH1 0x0 PUSH1 0x8 DUP4 DUP2 SLOAD DUP2 LT PUSH2 0x3720 JUMPI PUSH2 0x371F PUSH2 0x4DCD JUMP JUMPDEST JUMPDEST SWAP1 PUSH1 0x0 MSTORE PUSH1 0x20 PUSH1 0x0 KECCAK256 ADD SLOAD SWAP1 POP DUP1 PUSH1 0x8 DUP4 DUP2 SLOAD DUP2 LT PUSH2 0x3742 JUMPI PUSH2 0x3741 PUSH2 0x4DCD JUMP JUMPDEST JUMPDEST SWAP1 PUSH1 0x0 MSTORE PUSH1 0x20 PUSH1 0x0 KECCAK256 ADD DUP2 SWAP1 SSTORE POP DUP2 PUSH1 0x9 PUSH1 0x0 DUP4 DUP2 MSTORE PUSH1 0x20 ADD SWAP1 DUP2 MSTORE PUSH1 0x20 ADD PUSH1 0x0 KECCAK256 DUP2 SWAP1 SSTORE POP PUSH1 0x9 PUSH1 0x0 DUP6 DUP2 MSTORE PUSH1 0x20 ADD SWAP1 DUP2 MSTORE PUSH1 0x20 ADD PUSH1 0x0 KECCAK256 PUSH1 0x0 SWAP1 SSTORE PUSH1 0x8 DUP1 SLOAD DUP1 PUSH2 0x3791 JUMPI PUSH2 0x3790 PUSH2 0x4D9E JUMP JUMPDEST JUMPDEST PUSH1 0x1 SWAP1 SUB DUP2 DUP2 SWAP1 PUSH1 0x0 MSTORE PUSH1 0x20 PUSH1 0x0 KECCAK256 ADD PUSH1 0x0 SWAP1 SSTORE SWAP1 SSTORE POP POP POP POP JUMP JUMPDEST PUSH1 0x0 PUSH2 0x37B8 DUP4 PUSH2 0x14A3 JUMP JUMPDEST SWAP1 POP DUP2 PUSH1 0x6 PUSH1 0x0 DUP6 PUSH20 0xFFFFFFFFFFFFFFFFFFFFFFFFFFFFFFFFFFFFFFFF AND PUSH20 0xFFFFFFFFFFFFFFFFFFFFFFFFFFFFFFFFFFFFFFFF AND DUP2 MSTORE PUSH1 0x20 ADD SWAP1 DUP2 MSTORE PUSH1 0x20 ADD PUSH1 0x0 KECCAK256 PUSH1 0x0 DUP4 DUP2 MSTORE PUSH1 0x20 ADD SWAP1 DUP2 MSTORE PUSH1 0x20 ADD PUSH1 0x0 KECCAK256 DUP2 SWAP1 SSTORE POP DUP1 PUSH1 0x7 PUSH1 0x0 DUP5 DUP2 MSTORE PUSH1 0x20 ADD SWAP1 DUP2 MSTORE PUSH1 0x20 ADD PUSH1 0x0 KECCAK256 DUP2 SWAP1 SSTORE POP POP POP POP JUMP JUMPDEST DUP3 DUP1 SLOAD DUP3 DUP3 SSTORE SWAP1 PUSH1 0x0 MSTORE PUSH1 0x20 PUSH1 0x0 KECCAK256 SWAP1 DUP2 ADD SWAP3 DUP3 ISZERO PUSH2 0x3868 JUMPI SWAP2 PUSH1 0x20 MUL DUP3 ADD JUMPDEST DUP3 DUP2 GT ISZERO PUSH2 0x3867 JUMPI DUP3 CALLDATALOAD DUP3 SSTORE SWAP2 PUSH1 0x20 ADD SWAP2 SWAP1 PUSH1 0x1 ADD SWAP1 PUSH2 0x384C JUMP JUMPDEST JUMPDEST POP SWAP1 POP PUSH2 0x3875 SWAP2 SWAP1 PUSH2 0x38FF JUMP JUMPDEST POP SWAP1 JUMP JUMPDEST DUP3 DUP1 SLOAD PUSH2 0x3885 SWAP1 PUSH2 0x4C2A JUMP JUMPDEST SWAP1 PUSH1 0x0 MSTORE PUSH1 0x20 PUSH1 0x0 KECCAK256 SWAP1 PUSH1 0x1F ADD PUSH1 0x20 SWAP1 DIV DUP2 ADD SWAP3 DUP3 PUSH2 0x38A7 JUMPI PUSH1 0x0 DUP6 SSTORE PUSH2 0x38EE JUMP JUMPDEST DUP3 PUSH1 0x1F LT PUSH2 0x38C0 JUMPI DUP1 MLOAD PUSH1 0xFF NOT AND DUP4 DUP1 ADD OR DUP6 SSTORE PUSH2 0x38EE JUMP JUMPDEST DUP3 DUP1 ADD PUSH1 0x1 ADD DUP6 SSTORE DUP3 ISZERO PUSH2 0x38EE JUMPI SWAP2 DUP3 ADD JUMPDEST DUP3 DUP2 GT ISZERO PUSH2 0x38ED JUMPI DUP3 MLOAD DUP3 SSTORE SWAP2 PUSH1 0x20 ADD SWAP2 SWAP1 PUSH1 0x1 ADD SWAP1 PUSH2 0x38D2 JUMP JUMPDEST JUMPDEST POP SWAP1 POP PUSH2 0x38FB SWAP2 SWAP1 PUSH2 0x38FF JUMP JUMPDEST POP SWAP1 JUMP JUMPDEST JUMPDEST DUP1 DUP3 GT ISZERO PUSH2 0x3918 JUMPI PUSH1 0x0 DUP2 PUSH1 0x0 SWAP1 SSTORE POP PUSH1 0x1 ADD PUSH2 0x3900 JUMP JUMPDEST POP SWAP1 JUMP JUMPDEST PUSH1 0x0 PUSH2 0x392F PUSH2 0x392A DUP5 PUSH2 0x4921 JUMP JUMPDEST PUSH2 0x48FC JUMP JUMPDEST SWAP1 POP DUP3 DUP2 MSTORE PUSH1 0x20 DUP2 ADD DUP5 DUP5 DUP5 ADD GT ISZERO PUSH2 0x394B JUMPI PUSH2 0x394A PUSH2 0x4E3A JUMP JUMPDEST JUMPDEST PUSH2 0x3956 DUP5 DUP3 DUP6 PUSH2 0x4BBE JUMP JUMPDEST POP SWAP4 SWAP3 POP POP POP JUMP JUMPDEST PUSH1 0x0 PUSH2 0x3971 PUSH2 0x396C DUP5 PUSH2 0x4952 JUMP JUMPDEST PUSH2 0x48FC JUMP JUMPDEST SWAP1 POP DUP3 DUP2 MSTORE PUSH1 0x20 DUP2 ADD DUP5 DUP5 DUP5 ADD GT ISZERO PUSH2 0x398D JUMPI PUSH2 0x398C PUSH2 0x4E3A JUMP JUMPDEST JUMPDEST PUSH2 0x3998 DUP5 DUP3 DUP6 PUSH2 0x4BBE JUMP JUMPDEST POP SWAP4 SWAP3 POP POP POP JUMP JUMPDEST PUSH1 0x0 DUP2 CALLDATALOAD SWAP1 POP PUSH2 0x39AF DUP2 PUSH2 0x555E JUMP JUMPDEST SWAP3 SWAP2 POP POP JUMP JUMPDEST PUSH1 0x0 DUP1 DUP4 PUSH1 0x1F DUP5 ADD SLT PUSH2 0x39CB JUMPI PUSH2 0x39CA PUSH2 0x4E30 JUMP JUMPDEST JUMPDEST DUP3 CALLDATALOAD SWAP1 POP PUSH8 0xFFFFFFFFFFFFFFFF DUP2 GT ISZERO PUSH2 0x39E8 JUMPI PUSH2 0x39E7 PUSH2 0x4E2B JUMP JUMPDEST JUMPDEST PUSH1 0x20 DUP4 ADD SWAP2 POP DUP4 PUSH1 0x20 DUP3 MUL DUP4 ADD GT ISZERO PUSH2 0x3A04 JUMPI PUSH2 0x3A03 PUSH2 0x4E35 JUMP JUMPDEST JUMPDEST SWAP3 POP SWAP3 SWAP1 POP JUMP JUMPDEST PUSH1 0x0 DUP2 CALLDATALOAD SWAP1 POP PUSH2 0x3A1A DUP2 PUSH2 0x5575 JUMP JUMPDEST SWAP3 SWAP2 POP POP JUMP JUMPDEST PUSH1 0x0 DUP2 CALLDATALOAD SWAP1 POP PUSH2 0x3A2F DUP2 PUSH2 0x558C JUMP JUMPDEST SWAP3 SWAP2 POP POP JUMP JUMPDEST PUSH1 0x0 DUP2 MLOAD SWAP1 POP PUSH2 0x3A44 DUP2 PUSH2 0x558C JUMP JUMPDEST SWAP3 SWAP2 POP POP JUMP JUMPDEST PUSH1 0x0 DUP3 PUSH1 0x1F DUP4 ADD SLT PUSH2 0x3A5F JUMPI PUSH2 0x3A5E PUSH2 0x4E30 JUMP JUMPDEST JUMPDEST DUP2 CALLDATALOAD PUSH2 0x3A6F DUP5 DUP3 PUSH1 0x20 DUP7 ADD PUSH2 0x391C JUMP JUMPDEST SWAP2 POP POP SWAP3 SWAP2 POP POP JUMP JUMPDEST PUSH1 0x0 DUP1 DUP4 PUSH1 0x1F DUP5 ADD SLT PUSH2 0x3A8E JUMPI PUSH2 0x3A8D PUSH2 0x4E30 JUMP JUMPDEST JUMPDEST DUP3 CALLDATALOAD SWAP1 POP PUSH8 0xFFFFFFFFFFFFFFFF DUP2 GT ISZERO PUSH2 0x3AAB JUMPI PUSH2 0x3AAA PUSH2 0x4E2B JUMP JUMPDEST JUMPDEST PUSH1 0x20 DUP4 ADD SWAP2 POP DUP4 PUSH1 0x1 DUP3 MUL DUP4 ADD GT ISZERO PUSH2 0x3AC7 JUMPI PUSH2 0x3AC6 PUSH2 0x4E35 JUMP JUMPDEST JUMPDEST SWAP3 POP SWAP3 SWAP1 POP JUMP JUMPDEST PUSH1 0x0 DUP3 PUSH1 0x1F DUP4 ADD SLT PUSH2 0x3AE3 JUMPI PUSH2 0x3AE2 PUSH2 0x4E30 JUMP JUMPDEST JUMPDEST DUP2 CALLDATALOAD PUSH2 0x3AF3 DUP5 DUP3 PUSH1 0x20 DUP7 ADD PUSH2 0x395E JUMP JUMPDEST SWAP2 POP POP SWAP3 SWAP2 POP POP JUMP JUMPDEST PUSH1 0x0 DUP2 CALLDATALOAD SWAP1 POP PUSH2 0x3B0B DUP2 PUSH2 0x55A3 JUMP JUMPDEST SWAP3 SWAP2 POP POP JUMP JUMPDEST PUSH1 0x0 PUSH1 0x20 DUP3 DUP5 SUB SLT ISZERO PUSH2 0x3B27 JUMPI PUSH2 0x3B26 PUSH2 0x4E49 JUMP JUMPDEST JUMPDEST PUSH1 0x0 PUSH2 0x3B35 DUP5 DUP3 DUP6 ADD PUSH2 0x39A0 JUMP JUMPDEST SWAP2 POP POP SWAP3 SWAP2 POP POP JUMP JUMPDEST PUSH1 0x0 DUP1 PUSH1 0x40 DUP4 DUP6 SUB SLT ISZERO PUSH2 0x3B55 JUMPI PUSH2 0x3B54 PUSH2 0x4E49 JUMP JUMPDEST JUMPDEST PUSH1 0x0 PUSH2 0x3B63 DUP6 DUP3 DUP7 ADD PUSH2 0x39A0 JUMP JUMPDEST SWAP3 POP POP PUSH1 0x20 PUSH2 0x3B74 DUP6 DUP3 DUP7 ADD PUSH2 0x39A0 JUMP JUMPDEST SWAP2 POP POP SWAP3 POP SWAP3 SWAP1 POP JUMP JUMPDEST PUSH1 0x0 DUP1 PUSH1 0x0 PUSH1 0x60 DUP5 DUP7 SUB SLT ISZERO PUSH2 0x3B97 JUMPI PUSH2 0x3B96 PUSH2 0x4E49 JUMP JUMPDEST JUMPDEST PUSH1 0x0 PUSH2 0x3BA5 DUP7 DUP3 DUP8 ADD PUSH2 0x39A0 JUMP JUMPDEST SWAP4 POP POP PUSH1 0x20 PUSH2 0x3BB6 DUP7 DUP3 DUP8 ADD PUSH2 0x39A0 JUMP JUMPDEST SWAP3 POP POP PUSH1 0x40 PUSH2 0x3BC7 DUP7 DUP3 DUP8 ADD PUSH2 0x3AFC JUMP JUMPDEST SWAP2 POP POP SWAP3 POP SWAP3 POP SWAP3 JUMP JUMPDEST PUSH1 0x0 DUP1 PUSH1 0x0 DUP1 PUSH1 0x80 DUP6 DUP8 SUB SLT ISZERO PUSH2 0x3BEB JUMPI PUSH2 0x3BEA PUSH2 0x4E49 JUMP JUMPDEST JUMPDEST PUSH1 0x0 PUSH2 0x3BF9 DUP8 DUP3 DUP9 ADD PUSH2 0x39A0 JUMP JUMPDEST SWAP5 POP POP PUSH1 0x20 PUSH2 0x3C0A DUP8 DUP3 DUP9 ADD PUSH2 0x39A0 JUMP JUMPDEST SWAP4 POP POP PUSH1 0x40 PUSH2 0x3C1B DUP8 DUP3 DUP9 ADD PUSH2 0x3AFC JUMP JUMPDEST SWAP3 POP POP PUSH1 0x60 DUP6 ADD CALLDATALOAD PUSH8 0xFFFFFFFFFFFFFFFF DUP2 GT ISZERO PUSH2 0x3C3C JUMPI PUSH2 0x3C3B PUSH2 0x4E3F JUMP JUMPDEST JUMPDEST PUSH2 0x3C48 DUP8 DUP3 DUP9 ADD PUSH2 0x3A4A JUMP JUMPDEST SWAP2 POP POP SWAP3 SWAP6 SWAP2 SWAP5 POP SWAP3 POP JUMP JUMPDEST PUSH1 0x0 DUP1 PUSH1 0x40 DUP4 DUP6 SUB SLT ISZERO PUSH2 0x3C6B JUMPI PUSH2 0x3C6A PUSH2 0x4E49 JUMP JUMPDEST JUMPDEST PUSH1 0x0 PUSH2 0x3C79 DUP6 DUP3 DUP7 ADD PUSH2 0x39A0 JUMP JUMPDEST SWAP3 POP POP PUSH1 0x20 PUSH2 0x3C8A DUP6 DUP3 DUP7 ADD PUSH2 0x3A0B JUMP JUMPDEST SWAP2 POP POP SWAP3 POP SWAP3 SWAP1 POP JUMP JUMPDEST PUSH1 0x0 DUP1 PUSH1 0x40 DUP4 DUP6 SUB SLT ISZERO PUSH2 0x3CAB JUMPI PUSH2 0x3CAA PUSH2 0x4E49 JUMP JUMPDEST JUMPDEST PUSH1 0x0 PUSH2 0x3CB9 DUP6 DUP3 DUP7 ADD PUSH2 0x39A0 JUMP JUMPDEST SWAP3 POP POP PUSH1 0x20 PUSH2 0x3CCA DUP6 DUP3 DUP7 ADD PUSH2 0x3AFC JUMP JUMPDEST SWAP2 POP POP SWAP3 POP SWAP3 SWAP1 POP JUMP JUMPDEST PUSH1 0x0 DUP1 PUSH1 0x20 DUP4 DUP6 SUB SLT ISZERO PUSH2 0x3CEB JUMPI PUSH2 0x3CEA PUSH2 0x4E49 JUMP JUMPDEST JUMPDEST PUSH1 0x0 DUP4 ADD CALLDATALOAD PUSH8 0xFFFFFFFFFFFFFFFF DUP2 GT ISZERO PUSH2 0x3D09 JUMPI PUSH2 0x3D08 PUSH2 0x4E3F JUMP JUMPDEST JUMPDEST PUSH2 0x3D15 DUP6 DUP3 DUP7 ADD PUSH2 0x39B5 JUMP JUMPDEST SWAP3 POP SWAP3 POP POP SWAP3 POP SWAP3 SWAP1 POP JUMP JUMPDEST PUSH1 0x0 PUSH1 0x20 DUP3 DUP5 SUB SLT ISZERO PUSH2 0x3D37 JUMPI PUSH2 0x3D36 PUSH2 0x4E49 JUMP JUMPDEST JUMPDEST PUSH1 0x0 PUSH2 0x3D45 DUP5 DUP3 DUP6 ADD PUSH2 0x3A20 JUMP JUMPDEST SWAP2 POP POP SWAP3 SWAP2 POP POP JUMP JUMPDEST PUSH1 0x0 PUSH1 0x20 DUP3 DUP5 SUB SLT ISZERO PUSH2 0x3D64 JUMPI PUSH2 0x3D63 PUSH2 0x4E49 JUMP JUMPDEST JUMPDEST PUSH1 0x0 PUSH2 0x3D72 DUP5 DUP3 DUP6 ADD PUSH2 0x3A35 JUMP JUMPDEST SWAP2 POP POP SWAP3 SWAP2 POP POP JUMP JUMPDEST PUSH1 0x0 PUSH1 0x20 DUP3 DUP5 SUB SLT ISZERO PUSH2 0x3D91 JUMPI PUSH2 0x3D90 PUSH2 0x4E49 JUMP JUMPDEST JUMPDEST PUSH1 0x0 DUP3 ADD CALLDATALOAD PUSH8 0xFFFFFFFFFFFFFFFF DUP2 GT ISZERO PUSH2 0x3DAF JUMPI PUSH2 0x3DAE PUSH2 0x4E3F JUMP JUMPDEST JUMPDEST PUSH2 0x3DBB DUP5 DUP3 DUP6 ADD PUSH2 0x3ACE JUMP JUMPDEST SWAP2 POP POP SWAP3 SWAP2 POP POP JUMP JUMPDEST PUSH1 0x0 PUSH1 0x20 DUP3 DUP5 SUB SLT ISZERO PUSH2 0x3DDA JUMPI PUSH2 0x3DD9 PUSH2 0x4E49 JUMP JUMPDEST JUMPDEST PUSH1 0x0 PUSH2 0x3DE8 DUP5 DUP3 DUP6 ADD PUSH2 0x3AFC JUMP JUMPDEST SWAP2 POP POP SWAP3 SWAP2 POP POP JUMP JUMPDEST PUSH1 0x0 DUP1 PUSH1 0x0 PUSH1 0x40 DUP5 DUP7 SUB SLT ISZERO PUSH2 0x3E0A JUMPI PUSH2 0x3E09 PUSH2 0x4E49 JUMP JUMPDEST JUMPDEST PUSH1 0x0 PUSH2 0x3E18 DUP7 DUP3 DUP8 ADD PUSH2 0x3AFC JUMP JUMPDEST SWAP4 POP POP PUSH1 0x20 DUP5 ADD CALLDATALOAD PUSH8 0xFFFFFFFFFFFFFFFF DUP2 GT ISZERO PUSH2 0x3E39 JUMPI PUSH2 0x3E38 PUSH2 0x4E3F JUMP JUMPDEST JUMPDEST PUSH2 0x3E45 DUP7 DUP3 DUP8 ADD PUSH2 0x39B5 JUMP JUMPDEST SWAP3 POP SWAP3 POP POP SWAP3 POP SWAP3 POP SWAP3 JUMP JUMPDEST PUSH1 0x0 DUP1 PUSH1 0x0 PUSH1 0x40 DUP5 DUP7 SUB SLT ISZERO PUSH2 0x3E6A JUMPI PUSH2 0x3E69 PUSH2 0x4E49 JUMP JUMPDEST JUMPDEST PUSH1 0x0 PUSH2 0x3E78 DUP7 DUP3 DUP8 ADD PUSH2 0x3AFC JUMP JUMPDEST SWAP4 POP POP PUSH1 0x20 DUP5 ADD CALLDATALOAD PUSH8 0xFFFFFFFFFFFFFFFF DUP2 GT ISZERO PUSH2 0x3E99 JUMPI PUSH2 0x3E98 PUSH2 0x4E3F JUMP JUMPDEST JUMPDEST PUSH2 0x3EA5 DUP7 DUP3 DUP8 ADD PUSH2 0x3A78 JUMP JUMPDEST SWAP3 POP SWAP3 POP POP SWAP3 POP SWAP3 POP SWAP3 JUMP JUMPDEST PUSH1 0x0 PUSH2 0x3EBD DUP4 DUP4 PUSH2 0x4404 JUMP JUMPDEST PUSH1 0x20 DUP4 ADD SWAP1 POP SWAP3 SWAP2 POP POP JUMP JUMPDEST PUSH2 0x3ED2 DUP2 PUSH2 0x4B88 JUMP JUMPDEST DUP3 MSTORE POP POP JUMP JUMPDEST PUSH2 0x3EE1 DUP2 PUSH2 0x4B14 JUMP JUMPDEST DUP3 MSTORE POP POP JUMP JUMPDEST PUSH1 0x0 PUSH2 0x3EF3 DUP4 DUP6 PUSH2 0x49C1 JUMP JUMPDEST SWAP4 POP PUSH32 0x7FFFFFFFFFFFFFFFFFFFFFFFFFFFFFFFFFFFFFFFFFFFFFFFFFFFFFFFFFFFFFF DUP4 GT ISZERO PUSH2 0x3F26 JUMPI PUSH2 0x3F25 PUSH2 0x4E44 JUMP JUMPDEST JUMPDEST PUSH1 0x20 DUP4 MUL SWAP3 POP PUSH2 0x3F37 DUP4 DUP6 DUP5 PUSH2 0x4BBE JUMP JUMPDEST DUP3 DUP5 ADD SWAP1 POP SWAP4 SWAP3 POP POP POP JUMP JUMPDEST PUSH1 0x0 PUSH2 0x3F4E DUP3 PUSH2 0x4993 JUMP JUMPDEST PUSH2 0x3F58 DUP2 DUP6 PUSH2 0x49C1 JUMP JUMPDEST SWAP4 POP PUSH2 0x3F63 DUP4 PUSH2 0x4983 JUMP JUMPDEST DUP1 PUSH1 0x0 JUMPDEST DUP4 DUP2 LT ISZERO PUSH2 0x3F94 JUMPI DUP2 MLOAD PUSH2 0x3F7B DUP9 DUP3 PUSH2 0x3EB1 JUMP JUMPDEST SWAP8 POP PUSH2 0x3F86 DUP4 PUSH2 0x49B4 JUMP JUMPDEST SWAP3 POP POP PUSH1 0x1 DUP2 ADD SWAP1 POP PUSH2 0x3F67 JUMP JUMPDEST POP DUP6 SWAP4 POP POP POP POP SWAP3 SWAP2 POP POP JUMP JUMPDEST PUSH2 0x3FAA DUP2 PUSH2 0x4B26 JUMP JUMPDEST DUP3 MSTORE POP POP JUMP JUMPDEST PUSH1 0x0 PUSH2 0x3FBB DUP3 PUSH2 0x499E JUMP JUMPDEST PUSH2 0x3FC5 DUP2 DUP6 PUSH2 0x49D2 JUMP JUMPDEST SWAP4 POP PUSH2 0x3FD5 DUP2 DUP6 PUSH1 0x20 DUP7 ADD PUSH2 0x4BCD JUMP JUMPDEST PUSH2 0x3FDE DUP2 PUSH2 0x4E4E JUMP JUMPDEST DUP5 ADD SWAP2 POP POP SWAP3 SWAP2 POP POP JUMP JUMPDEST PUSH1 0x0 PUSH2 0x3FF4 DUP3 PUSH2 0x49A9 JUMP JUMPDEST PUSH2 0x3FFE DUP2 DUP6 PUSH2 0x49E3 JUMP JUMPDEST SWAP4 POP PUSH2 0x400E DUP2 DUP6 PUSH1 0x20 DUP7 ADD PUSH2 0x4BCD JUMP JUMPDEST PUSH2 0x4017 DUP2 PUSH2 0x4E4E JUMP JUMPDEST DUP5 ADD SWAP2 POP POP SWAP3 SWAP2 POP POP JUMP JUMPDEST PUSH1 0x0 PUSH2 0x402D DUP3 PUSH2 0x49A9 JUMP JUMPDEST PUSH2 0x4037 DUP2 DUP6 PUSH2 0x49F4 JUMP JUMPDEST SWAP4 POP PUSH2 0x4047 DUP2 DUP6 PUSH1 0x20 DUP7 ADD PUSH2 0x4BCD JUMP JUMPDEST DUP1 DUP5 ADD SWAP2 POP POP SWAP3 SWAP2 POP POP JUMP JUMPDEST PUSH1 0x0 PUSH2 0x4060 PUSH1 0x39 DUP4 PUSH2 0x49E3 JUMP JUMPDEST SWAP2 POP PUSH2 0x406B DUP3 PUSH2 0x4E5F JUMP JUMPDEST PUSH1 0x40 DUP3 ADD SWAP1 POP SWAP2 SWAP1 POP JUMP JUMPDEST PUSH1 0x0 PUSH2 0x4083 PUSH1 0x2B DUP4 PUSH2 0x49E3 JUMP JUMPDEST SWAP2 POP PUSH2 0x408E DUP3 PUSH2 0x4EAE JUMP JUMPDEST PUSH1 0x40 DUP3 ADD SWAP1 POP SWAP2 SWAP1 POP JUMP JUMPDEST PUSH1 0x0 PUSH2 0x40A6 PUSH1 0x32 DUP4 PUSH2 0x49E3 JUMP JUMPDEST SWAP2 POP PUSH2 0x40B1 DUP3 PUSH2 0x4EFD JUMP JUMPDEST PUSH1 0x40 DUP3 ADD SWAP1 POP SWAP2 SWAP1 POP JUMP JUMPDEST PUSH1 0x0 PUSH2 0x40C9 PUSH1 0x26 DUP4 PUSH2 0x49E3 JUMP JUMPDEST SWAP2 POP PUSH2 0x40D4 DUP3 PUSH2 0x4F4C JUMP JUMPDEST PUSH1 0x40 DUP3 ADD SWAP1 POP SWAP2 SWAP1 POP JUMP JUMPDEST PUSH1 0x0 PUSH2 0x40EC PUSH1 0x25 DUP4 PUSH2 0x49E3 JUMP JUMPDEST SWAP2 POP PUSH2 0x40F7 DUP3 PUSH2 0x4F9B JUMP JUMPDEST PUSH1 0x40 DUP3 ADD SWAP1 POP SWAP2 SWAP1 POP JUMP JUMPDEST PUSH1 0x0 PUSH2 0x410F PUSH1 0x1C DUP4 PUSH2 0x49E3 JUMP JUMPDEST SWAP2 POP PUSH2 0x411A DUP3 PUSH2 0x4FEA JUMP JUMPDEST PUSH1 0x20 DUP3 ADD SWAP1 POP SWAP2 SWAP1 POP JUMP JUMPDEST PUSH1 0x0 PUSH2 0x4132 PUSH1 0x24 DUP4 PUSH2 0x49E3 JUMP JUMPDEST SWAP2 POP PUSH2 0x413D DUP3 PUSH2 0x5013 JUMP JUMPDEST PUSH1 0x40 DUP3 ADD SWAP1 POP SWAP2 SWAP1 POP JUMP JUMPDEST PUSH1 0x0 PUSH2 0x4155 PUSH1 0x19 DUP4 PUSH2 0x49E3 JUMP JUMPDEST SWAP2 POP PUSH2 0x4160 DUP3 PUSH2 0x5062 JUMP JUMPDEST PUSH1 0x20 DUP3 ADD SWAP1 POP SWAP2 SWAP1 POP JUMP JUMPDEST PUSH1 0x0 PUSH2 0x4178 PUSH1 0x24 DUP4 PUSH2 0x49E3 JUMP JUMPDEST SWAP2 POP PUSH2 0x4183 DUP3 PUSH2 0x508B JUMP JUMPDEST PUSH1 0x40 DUP3 ADD SWAP1 POP SWAP2 SWAP1 POP JUMP JUMPDEST PUSH1 0x0 PUSH2 0x419B PUSH1 0x11 DUP4 PUSH2 0x49E3 JUMP JUMPDEST SWAP2 POP PUSH2 0x41A6 DUP3 PUSH2 0x50DA JUMP JUMPDEST PUSH1 0x20 DUP3 ADD SWAP1 POP SWAP2 SWAP1 POP JUMP JUMPDEST PUSH1 0x0 PUSH2 0x41BE PUSH1 0x2C DUP4 PUSH2 0x49E3 JUMP JUMPDEST SWAP2 POP PUSH2 0x41C9 DUP3 PUSH2 0x5103 JUMP JUMPDEST PUSH1 0x40 DUP3 ADD SWAP1 POP SWAP2 SWAP1 POP JUMP JUMPDEST PUSH1 0x0 PUSH2 0x41E1 PUSH1 0x12 DUP4 PUSH2 0x49E3 JUMP JUMPDEST SWAP2 POP PUSH2 0x41EC DUP3 PUSH2 0x5152 JUMP JUMPDEST PUSH1 0x20 DUP3 ADD SWAP1 POP SWAP2 SWAP1 POP JUMP JUMPDEST PUSH1 0x0 PUSH2 0x4204 PUSH1 0x38 DUP4 PUSH2 0x49E3 JUMP JUMPDEST SWAP2 POP PUSH2 0x420F DUP3 PUSH2 0x517B JUMP JUMPDEST PUSH1 0x40 DUP3 ADD SWAP1 POP SWAP2 SWAP1 POP JUMP JUMPDEST PUSH1 0x0 PUSH2 0x4227 PUSH1 0x2A DUP4 PUSH2 0x49E3 JUMP JUMPDEST SWAP2 POP PUSH2 0x4232 DUP3 PUSH2 0x51CA JUMP JUMPDEST PUSH1 0x40 DUP3 ADD SWAP1 POP SWAP2 SWAP1 POP JUMP JUMPDEST PUSH1 0x0 PUSH2 0x424A PUSH1 0x12 DUP4 PUSH2 0x49E3 JUMP JUMPDEST SWAP2 POP PUSH2 0x4255 DUP3 PUSH2 0x5219 JUMP JUMPDEST PUSH1 0x20 DUP3 ADD SWAP1 POP SWAP2 SWAP1 POP JUMP JUMPDEST PUSH1 0x0 PUSH2 0x426D PUSH1 0x29 DUP4 PUSH2 0x49E3 JUMP JUMPDEST SWAP2 POP PUSH2 0x4278 DUP3 PUSH2 0x5242 JUMP JUMPDEST PUSH1 0x40 DUP3 ADD SWAP1 POP SWAP2 SWAP1 POP JUMP JUMPDEST PUSH1 0x0 PUSH2 0x4290 PUSH1 0x2E DUP4 PUSH2 0x49E3 JUMP JUMPDEST SWAP2 POP PUSH2 0x429B DUP3 PUSH2 0x5291 JUMP JUMPDEST PUSH1 0x40 DUP3 ADD SWAP1 POP SWAP2 SWAP1 POP JUMP JUMPDEST PUSH1 0x0 PUSH2 0x42B3 PUSH1 0x20 DUP4 PUSH2 0x49E3 JUMP JUMPDEST SWAP2 POP PUSH2 0x42BE DUP3 PUSH2 0x52E0 JUMP JUMPDEST PUSH1 0x20 DUP3 ADD SWAP1 POP SWAP2 SWAP1 POP JUMP JUMPDEST PUSH1 0x0 PUSH2 0x42D6 PUSH1 0x20 DUP4 PUSH2 0x49E3 JUMP JUMPDEST SWAP2 POP PUSH2 0x42E1 DUP3 PUSH2 0x5309 JUMP JUMPDEST PUSH1 0x20 DUP3 ADD SWAP1 POP SWAP2 SWAP1 POP JUMP JUMPDEST PUSH1 0x0 PUSH2 0x42F9 PUSH1 0x17 DUP4 PUSH2 0x49E3 JUMP JUMPDEST SWAP2 POP PUSH2 0x4304 DUP3 PUSH2 0x5332 JUMP JUMPDEST PUSH1 0x20 DUP3 ADD SWAP1 POP SWAP2 SWAP1 POP JUMP JUMPDEST PUSH1 0x0 PUSH2 0x431C PUSH1 0x31 DUP4 PUSH2 0x49E3 JUMP JUMPDEST SWAP2 POP PUSH2 0x4327 DUP3 PUSH2 0x535B JUMP JUMPDEST PUSH1 0x40 DUP3 ADD SWAP1 POP SWAP2 SWAP1 POP JUMP JUMPDEST PUSH1 0x0 PUSH2 0x433F PUSH1 0x2C DUP4 PUSH2 0x49E3 JUMP JUMPDEST SWAP2 POP PUSH2 0x434A DUP3 PUSH2 0x53AA JUMP JUMPDEST PUSH1 0x40 DUP3 ADD SWAP1 POP SWAP2 SWAP1 POP JUMP JUMPDEST PUSH1 0x0 PUSH2 0x4362 PUSH1 0x20 DUP4 PUSH2 0x49E3 JUMP JUMPDEST SWAP2 POP PUSH2 0x436D DUP3 PUSH2 0x53F9 JUMP JUMPDEST PUSH1 0x20 DUP3 ADD SWAP1 POP SWAP2 SWAP1 POP JUMP JUMPDEST PUSH1 0x0 PUSH2 0x4385 PUSH1 0x2F DUP4 PUSH2 0x49E3 JUMP JUMPDEST SWAP2 POP PUSH2 0x4390 DUP3 PUSH2 0x5422 JUMP JUMPDEST PUSH1 0x40 DUP3 ADD SWAP1 POP SWAP2 SWAP1 POP JUMP JUMPDEST PUSH1 0x0 PUSH2 0x43A8 PUSH1 0x21 DUP4 PUSH2 0x49E3 JUMP JUMPDEST SWAP2 POP PUSH2 0x43B3 DUP3 PUSH2 0x5471 JUMP JUMPDEST PUSH1 0x40 DUP3 ADD SWAP1 POP SWAP2 SWAP1 POP JUMP JUMPDEST PUSH1 0x0 PUSH2 0x43CB PUSH1 0x31 DUP4 PUSH2 0x49E3 JUMP JUMPDEST SWAP2 POP PUSH2 0x43D6 DUP3 PUSH2 0x54C0 JUMP JUMPDEST PUSH1 0x40 DUP3 ADD SWAP1 POP SWAP2 SWAP1 POP JUMP JUMPDEST PUSH1 0x0 PUSH2 0x43EE PUSH1 0x2C DUP4 PUSH2 0x49E3 JUMP JUMPDEST SWAP2 POP PUSH2 0x43F9 DUP3 PUSH2 0x550F JUMP JUMPDEST PUSH1 0x40 DUP3 ADD SWAP1 POP SWAP2 SWAP1 POP JUMP JUMPDEST PUSH2 0x440D DUP2 PUSH2 0x4B7E JUMP JUMPDEST DUP3 MSTORE POP POP JUMP JUMPDEST PUSH2 0x441C DUP2 PUSH2 0x4B7E JUMP JUMPDEST DUP3 MSTORE POP POP JUMP JUMPDEST PUSH2 0x4433 PUSH2 0x442E DUP3 PUSH2 0x4B7E JUMP JUMPDEST PUSH2 0x4CD6 JUMP JUMPDEST DUP3 MSTORE POP POP JUMP JUMPDEST PUSH1 0x0 PUSH2 0x4445 DUP3 DUP6 PUSH2 0x4022 JUMP JUMPDEST SWAP2 POP PUSH2 0x4451 DUP3 DUP5 PUSH2 0x4022 JUMP JUMPDEST SWAP2 POP DUP2 SWAP1 POP SWAP4 SWAP3 POP POP POP JUMP JUMPDEST PUSH1 0x0 PUSH2 0x4469 DUP3 DUP6 PUSH2 0x4422 JUMP JUMPDEST PUSH1 0x20 DUP3 ADD SWAP2 POP PUSH2 0x4479 DUP3 DUP5 PUSH2 0x4422 JUMP JUMPDEST PUSH1 0x20 DUP3 ADD SWAP2 POP DUP2 SWAP1 POP SWAP4 SWAP3 POP POP POP JUMP JUMPDEST PUSH1 0x0 PUSH1 0x20 DUP3 ADD SWAP1 POP PUSH2 0x449E PUSH1 0x0 DUP4 ADD DUP5 PUSH2 0x3ED8 JUMP JUMPDEST SWAP3 SWAP2 POP POP JUMP JUMPDEST PUSH1 0x0 PUSH1 0x80 DUP3 ADD SWAP1 POP PUSH2 0x44B9 PUSH1 0x0 DUP4 ADD DUP8 PUSH2 0x3EC9 JUMP JUMPDEST PUSH2 0x44C6 PUSH1 0x20 DUP4 ADD DUP7 PUSH2 0x3ED8 JUMP JUMPDEST PUSH2 0x44D3 PUSH1 0x40 DUP4 ADD DUP6 PUSH2 0x4413 JUMP JUMPDEST DUP2 DUP2 SUB PUSH1 0x60 DUP4 ADD MSTORE PUSH2 0x44E5 DUP2 DUP5 PUSH2 0x3FB0 JUMP JUMPDEST SWAP1 POP SWAP6 SWAP5 POP POP POP POP POP JUMP JUMPDEST PUSH1 0x0 PUSH1 0x40 DUP3 ADD SWAP1 POP DUP2 DUP2 SUB PUSH1 0x0 DUP4 ADD MSTORE PUSH2 0x450B DUP2 DUP6 DUP8 PUSH2 0x3EE7 JUMP JUMPDEST SWAP1 POP PUSH2 0x451A PUSH1 0x20 DUP4 ADD DUP5 PUSH2 0x4413 JUMP JUMPDEST SWAP5 SWAP4 POP POP POP POP JUMP JUMPDEST PUSH1 0x0 PUSH1 0x20 DUP3 ADD SWAP1 POP DUP2 DUP2 SUB PUSH1 0x0 DUP4 ADD MSTORE PUSH2 0x453C DUP2 DUP5 PUSH2 0x3F43 JUMP JUMPDEST SWAP1 POP SWAP3 SWAP2 POP POP JUMP JUMPDEST PUSH1 0x0 PUSH1 0x20 DUP3 ADD SWAP1 POP PUSH2 0x4559 PUSH1 0x0 DUP4 ADD DUP5 PUSH2 0x3FA1 JUMP JUMPDEST SWAP3 SWAP2 POP POP JUMP JUMPDEST PUSH1 0x0 PUSH1 0x20 DUP3 ADD SWAP1 POP DUP2 DUP2 SUB PUSH1 0x0 DUP4 ADD MSTORE PUSH2 0x4579 DUP2 DUP5 PUSH2 0x3FE9 JUMP JUMPDEST SWAP1 POP SWAP3 SWAP2 POP POP JUMP JUMPDEST PUSH1 0x0 PUSH1 0x20 DUP3 ADD SWAP1 POP DUP2 DUP2 SUB PUSH1 0x0 DUP4 ADD MSTORE PUSH2 0x459A DUP2 PUSH2 0x4053 JUMP JUMPDEST SWAP1 POP SWAP2 SWAP1 POP JUMP JUMPDEST PUSH1 0x0 PUSH1 0x20 DUP3 ADD SWAP1 POP DUP2 DUP2 SUB PUSH1 0x0 DUP4 ADD MSTORE PUSH2 0x45BA DUP2 PUSH2 0x4076 JUMP JUMPDEST SWAP1 POP SWAP2 SWAP1 POP JUMP JUMPDEST PUSH1 0x0 PUSH1 0x20 DUP3 ADD SWAP1 POP DUP2 DUP2 SUB PUSH1 0x0 DUP4 ADD MSTORE PUSH2 0x45DA DUP2 PUSH2 0x4099 JUMP JUMPDEST SWAP1 POP SWAP2 SWAP1 POP JUMP JUMPDEST PUSH1 0x0 PUSH1 0x20 DUP3 ADD SWAP1 POP DUP2 DUP2 SUB PUSH1 0x0 DUP4 ADD MSTORE PUSH2 0x45FA DUP2 PUSH2 0x40BC JUMP JUMPDEST SWAP1 POP SWAP2 SWAP1 POP JUMP JUMPDEST PUSH1 0x0 PUSH1 0x20 DUP3 ADD SWAP1 POP DUP2 DUP2 SUB PUSH1 0x0 DUP4 ADD MSTORE PUSH2 0x461A DUP2 PUSH2 0x40DF JUMP JUMPDEST SWAP1 POP SWAP2 SWAP1 POP JUMP JUMPDEST PUSH1 0x0 PUSH1 0x20 DUP3 ADD SWAP1 POP DUP2 DUP2 SUB PUSH1 0x0 DUP4 ADD MSTORE PUSH2 0x463A DUP2 PUSH2 0x4102 JUMP JUMPDEST SWAP1 POP SWAP2 SWAP1 POP JUMP JUMPDEST PUSH1 0x0 PUSH1 0x20 DUP3 ADD SWAP1 POP DUP2 DUP2 SUB PUSH1 0x0 DUP4 ADD MSTORE PUSH2 0x465A DUP2 PUSH2 0x4125 JUMP JUMPDEST SWAP1 POP SWAP2 SWAP1 POP JUMP JUMPDEST PUSH1 0x0 PUSH1 0x20 DUP3 ADD SWAP1 POP DUP2 DUP2 SUB PUSH1 0x0 DUP4 ADD MSTORE PUSH2 0x467A DUP2 PUSH2 0x4148 JUMP JUMPDEST SWAP1 POP SWAP2 SWAP1 POP JUMP JUMPDEST PUSH1 0x0 PUSH1 0x20 DUP3 ADD SWAP1 POP DUP2 DUP2 SUB PUSH1 0x0 DUP4 ADD MSTORE PUSH2 0x469A DUP2 PUSH2 0x416B JUMP JUMPDEST SWAP1 POP SWAP2 SWAP1 POP JUMP JUMPDEST PUSH1 0x0 PUSH1 0x20 DUP3 ADD SWAP1 POP DUP2 DUP2 SUB PUSH1 0x0 DUP4 ADD MSTORE PUSH2 0x46BA DUP2 PUSH2 0x418E JUMP JUMPDEST SWAP1 POP SWAP2 SWAP1 POP JUMP JUMPDEST PUSH1 0x0 PUSH1 0x20 DUP3 ADD SWAP1 POP DUP2 DUP2 SUB PUSH1 0x0 DUP4 ADD MSTORE PUSH2 0x46DA DUP2 PUSH2 0x41B1 JUMP JUMPDEST SWAP1 POP SWAP2 SWAP1 POP JUMP JUMPDEST PUSH1 0x0 PUSH1 0x20 DUP3 ADD SWAP1 POP DUP2 DUP2 SUB PUSH1 0x0 DUP4 ADD MSTORE PUSH2 0x46FA DUP2 PUSH2 0x41D4 JUMP JUMPDEST SWAP1 POP SWAP2 SWAP1 POP JUMP JUMPDEST PUSH1 0x0 PUSH1 0x20 DUP3 ADD SWAP1 POP DUP2 DUP2 SUB PUSH1 0x0 DUP4 ADD MSTORE PUSH2 0x471A DUP2 PUSH2 0x41F7 JUMP JUMPDEST SWAP1 POP SWAP2 SWAP1 POP JUMP JUMPDEST PUSH1 0x0 PUSH1 0x20 DUP3 ADD SWAP1 POP DUP2 DUP2 SUB PUSH1 0x0 DUP4 ADD MSTORE PUSH2 0x473A DUP2 PUSH2 0x421A JUMP JUMPDEST SWAP1 POP SWAP2 SWAP1 POP JUMP JUMPDEST PUSH1 0x0 PUSH1 0x20 DUP3 ADD SWAP1 POP DUP2 DUP2 SUB PUSH1 0x0 DUP4 ADD MSTORE PUSH2 0x475A DUP2 PUSH2 0x423D JUMP JUMPDEST SWAP1 POP SWAP2 SWAP1 POP JUMP JUMPDEST PUSH1 0x0 PUSH1 0x20 DUP3 ADD SWAP1 POP DUP2 DUP2 SUB PUSH1 0x0 DUP4 ADD MSTORE PUSH2 0x477A DUP2 PUSH2 0x4260 JUMP JUMPDEST SWAP1 POP SWAP2 SWAP1 POP JUMP JUMPDEST PUSH1 0x0 PUSH1 0x20 DUP3 ADD SWAP1 POP DUP2 DUP2 SUB PUSH1 0x0 DUP4 ADD MSTORE PUSH2 0x479A DUP2 PUSH2 0x4283 JUMP JUMPDEST SWAP1 POP SWAP2 SWAP1 POP JUMP JUMPDEST PUSH1 0x0 PUSH1 0x20 DUP3 ADD SWAP1 POP DUP2 DUP2 SUB PUSH1 0x0 DUP4 ADD MSTORE PUSH2 0x47BA DUP2 PUSH2 0x42A6 JUMP JUMPDEST SWAP1 POP SWAP2 SWAP1 POP JUMP JUMPDEST PUSH1 0x0 PUSH1 0x20 DUP3 ADD SWAP1 POP DUP2 DUP2 SUB PUSH1 0x0 DUP4 ADD MSTORE PUSH2 0x47DA DUP2 PUSH2 0x42C9 JUMP JUMPDEST SWAP1 POP SWAP2 SWAP1 POP JUMP JUMPDEST PUSH1 0x0 PUSH1 0x20 DUP3 ADD SWAP1 POP DUP2 DUP2 SUB PUSH1 0x0 DUP4 ADD MSTORE PUSH2 0x47FA DUP2 PUSH2 0x42EC JUMP JUMPDEST SWAP1 POP SWAP2 SWAP1 POP JUMP JUMPDEST PUSH1 0x0 PUSH1 0x20 DUP3 ADD SWAP1 POP DUP2 DUP2 SUB PUSH1 0x0 DUP4 ADD MSTORE PUSH2 0x481A DUP2 PUSH2 0x430F JUMP JUMPDEST SWAP1 POP SWAP2 SWAP1 POP JUMP JUMPDEST PUSH1 0x0 PUSH1 0x20 DUP3 ADD SWAP1 POP DUP2 DUP2 SUB PUSH1 0x0 DUP4 ADD MSTORE PUSH2 0x483A DUP2 PUSH2 0x4332 JUMP JUMPDEST SWAP1 POP SWAP2 SWAP1 POP JUMP JUMPDEST PUSH1 0x0 PUSH1 0x20 DUP3 ADD SWAP1 POP DUP2 DUP2 SUB PUSH1 0x0 DUP4 ADD MSTORE PUSH2 0x485A DUP2 PUSH2 0x4355 JUMP JUMPDEST SWAP1 POP SWAP2 SWAP1 POP JUMP JUMPDEST PUSH1 0x0 PUSH1 0x20 DUP3 ADD SWAP1 POP DUP2 DUP2 SUB PUSH1 0x0 DUP4 ADD MSTORE PUSH2 0x487A DUP2 PUSH2 0x4378 JUMP JUMPDEST SWAP1 POP SWAP2 SWAP1 POP JUMP JUMPDEST PUSH1 0x0 PUSH1 0x20 DUP3 ADD SWAP1 POP DUP2 DUP2 SUB PUSH1 0x0 DUP4 ADD MSTORE PUSH2 0x489A DUP2 PUSH2 0x439B JUMP JUMPDEST SWAP1 POP SWAP2 SWAP1 POP JUMP JUMPDEST PUSH1 0x0 PUSH1 0x20 DUP3 ADD SWAP1 POP DUP2 DUP2 SUB PUSH1 0x0 DUP4 ADD MSTORE PUSH2 0x48BA DUP2 PUSH2 0x43BE JUMP JUMPDEST SWAP1 POP SWAP2 SWAP1 POP JUMP JUMPDEST PUSH1 0x0 PUSH1 0x20 DUP3 ADD SWAP1 POP DUP2 DUP2 SUB PUSH1 0x0 DUP4 ADD MSTORE PUSH2 0x48DA DUP2 PUSH2 0x43E1 JUMP JUMPDEST SWAP1 POP SWAP2 SWAP1 POP JUMP JUMPDEST PUSH1 0x0 PUSH1 0x20 DUP3 ADD SWAP1 POP PUSH2 0x48F6 PUSH1 0x0 DUP4 ADD DUP5 PUSH2 0x4413 JUMP JUMPDEST SWAP3 SWAP2 POP POP JUMP JUMPDEST PUSH1 0x0 PUSH2 0x4906 PUSH2 0x4917 JUMP JUMPDEST SWAP1 POP PUSH2 0x4912 DUP3 DUP3 PUSH2 0x4C5C JUMP JUMPDEST SWAP2 SWAP1 POP JUMP JUMPDEST PUSH1 0x0 PUSH1 0x40 MLOAD SWAP1 POP SWAP1 JUMP JUMPDEST PUSH1 0x0 PUSH8 0xFFFFFFFFFFFFFFFF DUP3 GT ISZERO PUSH2 0x493C JUMPI PUSH2 0x493B PUSH2 0x4DFC JUMP JUMPDEST JUMPDEST PUSH2 0x4945 DUP3 PUSH2 0x4E4E JUMP JUMPDEST SWAP1 POP PUSH1 0x20 DUP2 ADD SWAP1 POP SWAP2 SWAP1 POP JUMP JUMPDEST PUSH1 0x0 PUSH8 0xFFFFFFFFFFFFFFFF DUP3 GT ISZERO PUSH2 0x496D JUMPI PUSH2 0x496C PUSH2 0x4DFC JUMP JUMPDEST JUMPDEST PUSH2 0x4976 DUP3 PUSH2 0x4E4E JUMP JUMPDEST SWAP1 POP PUSH1 0x20 DUP2 ADD SWAP1 POP SWAP2 SWAP1 POP JUMP JUMPDEST PUSH1 0x0 DUP2 SWAP1 POP PUSH1 0x20 DUP3 ADD SWAP1 POP SWAP2 SWAP1 POP JUMP JUMPDEST PUSH1 0x0 DUP2 MLOAD SWAP1 POP SWAP2 SWAP1 POP JUMP JUMPDEST PUSH1 0x0 DUP2 MLOAD SWAP1 POP SWAP2 SWAP1 POP JUMP JUMPDEST PUSH1 0x0 DUP2 MLOAD SWAP1 POP SWAP2 SWAP1 POP JUMP JUMPDEST PUSH1 0x0 PUSH1 0x20 DUP3 ADD SWAP1 POP SWAP2 SWAP1 POP JUMP JUMPDEST PUSH1 0x0 DUP3 DUP3 MSTORE PUSH1 0x20 DUP3 ADD SWAP1 POP SWAP3 SWAP2 POP POP JUMP JUMPDEST PUSH1 0x0 DUP3 DUP3 MSTORE PUSH1 0x20 DUP3 ADD SWAP1 POP SWAP3 SWAP2 POP POP JUMP JUMPDEST PUSH1 0x0 DUP3 DUP3 MSTORE PUSH1 0x20 DUP3 ADD SWAP1 POP SWAP3 SWAP2 POP POP JUMP JUMPDEST PUSH1 0x0 DUP2 SWAP1 POP SWAP3 SWAP2 POP POP JUMP JUMPDEST PUSH1 0x0 PUSH2 0x4A0A DUP3 PUSH2 0x4B7E JUMP JUMPDEST SWAP2 POP PUSH2 0x4A15 DUP4 PUSH2 0x4B7E JUMP JUMPDEST SWAP3 POP DUP3 PUSH32 0xFFFFFFFFFFFFFFFFFFFFFFFFFFFFFFFFFFFFFFFFFFFFFFFFFFFFFFFFFFFFFFFF SUB DUP3 GT ISZERO PUSH2 0x4A4A JUMPI PUSH2 0x4A49 PUSH2 0x4D11 JUMP JUMPDEST JUMPDEST DUP3 DUP3 ADD SWAP1 POP SWAP3 SWAP2 POP POP JUMP JUMPDEST PUSH1 0x0 PUSH2 0x4A60 DUP3 PUSH2 0x4B7E JUMP JUMPDEST SWAP2 POP PUSH2 0x4A6B DUP4 PUSH2 0x4B7E JUMP JUMPDEST SWAP3 POP DUP3 PUSH2 0x4A7B JUMPI PUSH2 0x4A7A PUSH2 0x4D40 JUMP JUMPDEST JUMPDEST DUP3 DUP3 DIV SWAP1 POP SWAP3 SWAP2 POP POP JUMP JUMPDEST PUSH1 0x0 PUSH2 0x4A91 DUP3 PUSH2 0x4B7E JUMP JUMPDEST SWAP2 POP PUSH2 0x4A9C DUP4 PUSH2 0x4B7E JUMP JUMPDEST SWAP3 POP DUP2 PUSH32 0xFFFFFFFFFFFFFFFFFFFFFFFFFFFFFFFFFFFFFFFFFFFFFFFFFFFFFFFFFFFFFFFF DIV DUP4 GT DUP3 ISZERO ISZERO AND ISZERO PUSH2 0x4AD5 JUMPI PUSH2 0x4AD4 PUSH2 0x4D11 JUMP JUMPDEST JUMPDEST DUP3 DUP3 MUL SWAP1 POP SWAP3 SWAP2 POP POP JUMP JUMPDEST PUSH1 0x0 PUSH2 0x4AEB DUP3 PUSH2 0x4B7E JUMP JUMPDEST SWAP2 POP PUSH2 0x4AF6 DUP4 PUSH2 0x4B7E JUMP JUMPDEST SWAP3 POP DUP3 DUP3 LT ISZERO PUSH2 0x4B09 JUMPI PUSH2 0x4B08 PUSH2 0x4D11 JUMP JUMPDEST JUMPDEST DUP3 DUP3 SUB SWAP1 POP SWAP3 SWAP2 POP POP JUMP JUMPDEST PUSH1 0x0 PUSH2 0x4B1F DUP3 PUSH2 0x4B5E JUMP JUMPDEST SWAP1 POP SWAP2 SWAP1 POP JUMP JUMPDEST PUSH1 0x0 DUP2 ISZERO ISZERO SWAP1 POP SWAP2 SWAP1 POP JUMP JUMPDEST PUSH1 0x0 PUSH32 0xFFFFFFFF00000000000000000000000000000000000000000000000000000000 DUP3 AND SWAP1 POP SWAP2 SWAP1 POP JUMP JUMPDEST PUSH1 0x0 PUSH20 0xFFFFFFFFFFFFFFFFFFFFFFFFFFFFFFFFFFFFFFFF DUP3 AND SWAP1 POP SWAP2 SWAP1 POP JUMP JUMPDEST PUSH1 0x0 DUP2 SWAP1 POP SWAP2 SWAP1 POP JUMP JUMPDEST PUSH1 0x0 PUSH2 0x4B93 DUP3 PUSH2 0x4B9A JUMP JUMPDEST SWAP1 POP SWAP2 SWAP1 POP JUMP JUMPDEST PUSH1 0x0 PUSH2 0x4BA5 DUP3 PUSH2 0x4BAC JUMP JUMPDEST SWAP1 POP SWAP2 SWAP1 POP JUMP JUMPDEST PUSH1 0x0 PUSH2 0x4BB7 DUP3 PUSH2 0x4B5E JUMP JUMPDEST SWAP1 POP SWAP2 SWAP1 POP JUMP JUMPDEST DUP3 DUP2 DUP4 CALLDATACOPY PUSH1 0x0 DUP4 DUP4 ADD MSTORE POP POP POP JUMP JUMPDEST PUSH1 0x0 JUMPDEST DUP4 DUP2 LT ISZERO PUSH2 0x4BEB JUMPI DUP1 DUP3 ADD MLOAD DUP2 DUP5 ADD MSTORE PUSH1 0x20 DUP2 ADD SWAP1 POP PUSH2 0x4BD0 JUMP JUMPDEST DUP4 DUP2 GT ISZERO PUSH2 0x4BFA JUMPI PUSH1 0x0 DUP5 DUP5 ADD MSTORE JUMPDEST POP POP POP POP JUMP JUMPDEST PUSH1 0x0 PUSH2 0x4C0B DUP3 PUSH2 0x4B7E JUMP JUMPDEST SWAP2 POP PUSH1 0x0 DUP3 EQ ISZERO PUSH2 0x4C1F JUMPI PUSH2 0x4C1E PUSH2 0x4D11 JUMP JUMPDEST JUMPDEST PUSH1 0x1 DUP3 SUB SWAP1 POP SWAP2 SWAP1 POP JUMP JUMPDEST PUSH1 0x0 PUSH1 0x2 DUP3 DIV SWAP1 POP PUSH1 0x1 DUP3 AND DUP1 PUSH2 0x4C42 JUMPI PUSH1 0x7F DUP3 AND SWAP2 POP JUMPDEST PUSH1 0x20 DUP3 LT DUP2 EQ ISZERO PUSH2 0x4C56 JUMPI PUSH2 0x4C55 PUSH2 0x4D6F JUMP JUMPDEST JUMPDEST POP SWAP2 SWAP1 POP JUMP JUMPDEST PUSH2 0x4C65 DUP3 PUSH2 0x4E4E JUMP JUMPDEST DUP2 ADD DUP2 DUP2 LT PUSH8 0xFFFFFFFFFFFFFFFF DUP3 GT OR ISZERO PUSH2 0x4C84 JUMPI PUSH2 0x4C83 PUSH2 0x4DFC JUMP JUMPDEST JUMPDEST DUP1 PUSH1 0x40 MSTORE POP POP POP JUMP JUMPDEST PUSH1 0x0 PUSH2 0x4C98 DUP3 PUSH2 0x4B7E JUMP JUMPDEST SWAP2 POP PUSH32 0xFFFFFFFFFFFFFFFFFFFFFFFFFFFFFFFFFFFFFFFFFFFFFFFFFFFFFFFFFFFFFFFF DUP3 EQ ISZERO PUSH2 0x4CCB JUMPI PUSH2 0x4CCA PUSH2 0x4D11 JUMP JUMPDEST JUMPDEST PUSH1 0x1 DUP3 ADD SWAP1 POP SWAP2 SWAP1 POP JUMP JUMPDEST PUSH1 0x0 DUP2 SWAP1 POP SWAP2 SWAP1 POP JUMP JUMPDEST PUSH1 0x0 PUSH2 0x4CEB DUP3 PUSH2 0x4B7E JUMP JUMPDEST SWAP2 POP PUSH2 0x4CF6 DUP4 PUSH2 0x4B7E JUMP JUMPDEST SWAP3 POP DUP3 PUSH2 0x4D06 JUMPI PUSH2 0x4D05 PUSH2 0x4D40 JUMP JUMPDEST JUMPDEST DUP3 DUP3 MOD SWAP1 POP SWAP3 SWAP2 POP POP JUMP JUMPDEST PUSH32 0x4E487B7100000000000000000000000000000000000000000000000000000000 PUSH1 0x0 MSTORE PUSH1 0x11 PUSH1 0x4 MSTORE PUSH1 0x24 PUSH1 0x0 REVERT JUMPDEST PUSH32 0x4E487B7100000000000000000000000000000000000000000000000000000000 PUSH1 0x0 MSTORE PUSH1 0x12 PUSH1 0x4 MSTORE PUSH1 0x24 PUSH1 0x0 REVERT JUMPDEST PUSH32 0x4E487B7100000000000000000000000000000000000000000000000000000000 PUSH1 0x0 MSTORE PUSH1 0x22 PUSH1 0x4 MSTORE PUSH1 0x24 PUSH1 0x0 REVERT JUMPDEST PUSH32 0x4E487B7100000000000000000000000000000000000000000000000000000000 PUSH1 0x0 MSTORE PUSH1 0x31 PUSH1 0x4 MSTORE PUSH1 0x24 PUSH1 0x0 REVERT JUMPDEST PUSH32 0x4E487B7100000000000000000000000000000000000000000000000000000000 PUSH1 0x0 MSTORE PUSH1 0x32 PUSH1 0x4 MSTORE PUSH1 0x24 PUSH1 0x0 REVERT JUMPDEST PUSH32 0x4E487B7100000000000000000000000000000000000000000000000000000000 PUSH1 0x0 MSTORE PUSH1 0x41 PUSH1 0x4 MSTORE PUSH1 0x24 PUSH1 0x0 REVERT JUMPDEST PUSH1 0x0 DUP1 REVERT JUMPDEST PUSH1 0x0 DUP1 REVERT JUMPDEST PUSH1 0x0 DUP1 REVERT JUMPDEST PUSH1 0x0 DUP1 REVERT JUMPDEST PUSH1 0x0 DUP1 REVERT JUMPDEST PUSH1 0x0 DUP1 REVERT JUMPDEST PUSH1 0x0 DUP1 REVERT JUMPDEST PUSH1 0x0 PUSH1 0x1F NOT PUSH1 0x1F DUP4 ADD AND SWAP1 POP SWAP2 SWAP1 POP JUMP JUMPDEST PUSH32 0x6F6E6C792074686520617574686F72697A6564206275696C646572206F722063 PUSH1 0x0 DUP3 ADD MSTORE PUSH32 0x6F6E7472616374206F776E6572206D6179207365742055524900000000000000 PUSH1 0x20 DUP3 ADD MSTORE POP JUMP JUMPDEST PUSH32 0x455243373231456E756D657261626C653A206F776E657220696E646578206F75 PUSH1 0x0 DUP3 ADD MSTORE PUSH32 0x74206F6620626F756E6473000000000000000000000000000000000000000000 PUSH1 0x20 DUP3 ADD MSTORE POP JUMP JUMPDEST PUSH32 0x4552433732313A207472616E7366657220746F206E6F6E204552433732315265 PUSH1 0x0 DUP3 ADD MSTORE PUSH32 0x63656976657220696D706C656D656E7465720000000000000000000000000000 PUSH1 0x20 DUP3 ADD MSTORE POP JUMP JUMPDEST PUSH32 0x4F776E61626C653A206E6577206F776E657220697320746865207A65726F2061 PUSH1 0x0 DUP3 ADD MSTORE PUSH32 0x6464726573730000000000000000000000000000000000000000000000000000 PUSH1 0x20 DUP3 ADD MSTORE POP JUMP JUMPDEST PUSH32 0x4552433732313A207472616E736665722066726F6D20696E636F727265637420 PUSH1 0x0 DUP3 ADD MSTORE PUSH32 0x6F776E6572000000000000000000000000000000000000000000000000000000 PUSH1 0x20 DUP3 ADD MSTORE POP JUMP JUMPDEST PUSH32 0x4552433732313A20746F6B656E20616C7265616479206D696E74656400000000 PUSH1 0x0 DUP3 ADD MSTORE POP JUMP JUMPDEST PUSH32 0x4552433732313A207472616E7366657220746F20746865207A65726F20616464 PUSH1 0x0 DUP3 ADD MSTORE PUSH32 0x7265737300000000000000000000000000000000000000000000000000000000 PUSH1 0x20 DUP3 ADD MSTORE POP JUMP JUMPDEST PUSH32 0x4552433732313A20617070726F766520746F2063616C6C657200000000000000 PUSH1 0x0 DUP3 ADD MSTORE POP JUMP JUMPDEST PUSH32 0x496E636F727265637420616D6F756E74206F6620747261697473207370656369 PUSH1 0x0 DUP3 ADD MSTORE PUSH32 0x6669656400000000000000000000000000000000000000000000000000000000 PUSH1 0x20 DUP3 ADD MSTORE POP JUMP JUMPDEST PUSH32 0x6D61785065725478206578636565646564000000000000000000000000000000 PUSH1 0x0 DUP3 ADD MSTORE POP JUMP JUMPDEST PUSH32 0x4552433732313A206F70657261746F7220717565727920666F72206E6F6E6578 PUSH1 0x0 DUP3 ADD MSTORE PUSH32 0x697374656E7420746F6B656E0000000000000000000000000000000000000000 PUSH1 0x20 DUP3 ADD MSTORE POP JUMP JUMPDEST PUSH32 0x45786365656473204D41585F537570706C790000000000000000000000000000 PUSH1 0x0 DUP3 ADD MSTORE POP JUMP JUMPDEST PUSH32 0x4552433732313A20617070726F76652063616C6C6572206973206E6F74206F77 PUSH1 0x0 DUP3 ADD MSTORE PUSH32 0x6E6572206E6F7220617070726F76656420666F7220616C6C0000000000000000 PUSH1 0x20 DUP3 ADD MSTORE POP JUMP JUMPDEST PUSH32 0x4552433732313A2062616C616E636520717565727920666F7220746865207A65 PUSH1 0x0 DUP3 ADD MSTORE PUSH32 0x726F206164647265737300000000000000000000000000000000000000000000 PUSH1 0x20 DUP3 ADD MSTORE POP JUMP JUMPDEST PUSH32 0x4E6F7420656E6F75676820437265646974730000000000000000000000000000 PUSH1 0x0 DUP3 ADD MSTORE POP JUMP JUMPDEST PUSH32 0x4552433732313A206F776E657220717565727920666F72206E6F6E6578697374 PUSH1 0x0 DUP3 ADD MSTORE PUSH32 0x656E7420746F6B656E0000000000000000000000000000000000000000000000 PUSH1 0x20 DUP3 ADD MSTORE POP JUMP JUMPDEST PUSH32 0x45524337323155524953746F726167653A2055524920736574206F66206E6F6E PUSH1 0x0 DUP3 ADD MSTORE PUSH32 0x6578697374656E7420746F6B656E000000000000000000000000000000000000 PUSH1 0x20 DUP3 ADD MSTORE POP JUMP JUMPDEST PUSH32 0x4552433732313A206D696E7420746F20746865207A65726F2061646472657373 PUSH1 0x0 DUP3 ADD MSTORE POP JUMP JUMPDEST PUSH32 0x4D696E74696E67206973206E6F742063757272656E746C7920656E61626C6564 PUSH1 0x0 DUP3 ADD MSTORE POP JUMP JUMPDEST PUSH32 0x6D696E747350657257616C6C6574206578636565646564000000000000000000 PUSH1 0x0 DUP3 ADD MSTORE POP JUMP JUMPDEST PUSH32 0x45524337323155524953746F726167653A2055524920717565727920666F7220 PUSH1 0x0 DUP3 ADD MSTORE PUSH32 0x6E6F6E6578697374656E7420746F6B656E000000000000000000000000000000 PUSH1 0x20 DUP3 ADD MSTORE POP JUMP JUMPDEST PUSH32 0x4552433732313A20617070726F76656420717565727920666F72206E6F6E6578 PUSH1 0x0 DUP3 ADD MSTORE PUSH32 0x697374656E7420746F6B656E0000000000000000000000000000000000000000 PUSH1 0x20 DUP3 ADD MSTORE POP JUMP JUMPDEST PUSH32 0x4F776E61626C653A2063616C6C6572206973206E6F7420746865206F776E6572 PUSH1 0x0 DUP3 ADD MSTORE POP JUMP JUMPDEST PUSH32 0x4552433732314D657461646174613A2055524920717565727920666F72206E6F PUSH1 0x0 DUP3 ADD MSTORE PUSH32 0x6E6578697374656E7420746F6B656E0000000000000000000000000000000000 PUSH1 0x20 DUP3 ADD MSTORE POP JUMP JUMPDEST PUSH32 0x4552433732313A20617070726F76616C20746F2063757272656E74206F776E65 PUSH1 0x0 DUP3 ADD MSTORE PUSH32 0x7200000000000000000000000000000000000000000000000000000000000000 PUSH1 0x20 DUP3 ADD MSTORE POP JUMP JUMPDEST PUSH32 0x4552433732313A207472616E736665722063616C6C6572206973206E6F74206F PUSH1 0x0 DUP3 ADD MSTORE PUSH32 0x776E6572206E6F7220617070726F766564000000000000000000000000000000 PUSH1 0x20 DUP3 ADD MSTORE POP JUMP JUMPDEST PUSH32 0x455243373231456E756D657261626C653A20676C6F62616C20696E646578206F PUSH1 0x0 DUP3 ADD MSTORE PUSH32 0x7574206F6620626F756E64730000000000000000000000000000000000000000 PUSH1 0x20 DUP3 ADD MSTORE POP JUMP JUMPDEST PUSH2 0x5567 DUP2 PUSH2 0x4B14 JUMP JUMPDEST DUP2 EQ PUSH2 0x5572 JUMPI PUSH1 0x0 DUP1 REVERT JUMPDEST POP JUMP JUMPDEST PUSH2 0x557E DUP2 PUSH2 0x4B26 JUMP JUMPDEST DUP2 EQ PUSH2 0x5589 JUMPI PUSH1 0x0 DUP1 REVERT JUMPDEST POP JUMP JUMPDEST PUSH2 0x5595 DUP2 PUSH2 0x4B32 JUMP JUMPDEST DUP2 EQ PUSH2 0x55A0 JUMPI PUSH1 0x0 DUP1 REVERT JUMPDEST POP JUMP JUMPDEST PUSH2 0x55AC DUP2 PUSH2 0x4B7E JUMP JUMPDEST DUP2 EQ PUSH2 0x55B7 JUMPI PUSH1 0x0 DUP1 REVERT JUMPDEST POP JUMP INVALID LOG2 PUSH5 0x6970667358 0x22 SLT KECCAK256 0xD7 CREATE2 0xCB 0x23 0xDA 0xDA 0xB0 0x2A PUSH1 0xC4 0x2B 0xC9 PUSH26 0x9978B9EF098102B0C8D7880A54E554643FCDDA64736F6C634300 ADDMOD SMOD STOP CALLER "
		},
		"gasEstimates": {
			"creation": {
				"codeDepositCost": "4400000",
				"executionCost": "infinite",
				"totalCost": "infinite"
			},
			"external": {
				"MAX_Supply()": "infinite",
				"_mintedAmount(address)": "2902",
				"addCredit(address,uint256)": "infinite",
				"approve(address,uint256)": "infinite",
				"balanceOf(address)": "2925",
				"balanceOfCredit(address)": "2947",
				"getApproved(uint256)": "5251",
				"hasSaleStarted()": "2605",
				"isApprovedForAll(address,address)": "infinite",
				"maxPerTx()": "infinite",
				"mint(uint256,uint256[])": "infinite",
				"mintCredit(uint256[])": "infinite",
				"mintsPerWallet()": "infinite",
				"name()": "infinite",
				"owner()": "2611",
				"ownerOf(uint256)": "3110",
				"pauseSale()": "26762",
				"price()": "2562",
				"renounceOwnership()": "30400",
				"safeTransferFrom(address,address,uint256)": "infinite",
				"safeTransferFrom(address,address,uint256,bytes)": "infinite",
				"setApprovalForAll(address,bool)": "infinite",
				"setDefaultURI(string)": "infinite",
				"setNftBuilder(address)": "27074",
				"setPriceFtm(uint256)": "infinite",
				"setPriceWei(uint256)": "24871",
				"setTokenURI(uint256,string)": "infinite",
				"startSale()": "26718",
				"supportsInterface(bytes4)": "952",
				"symbol()": "infinite",
				"tokenByIndex(uint256)": "infinite",
				"tokenOfOwnerByIndex(address,uint256)": "infinite",
				"tokenURI(uint256)": "infinite",
				"tokensOfOwner(address)": "infinite",
				"totalSupply()": "2557",
				"transferFrom(address,address,uint256)": "infinite",
				"transferOwnership(address)": "30791",
				"withdrawAll()": "infinite"
			},
			"internal": {
				"_baseURI()": "infinite",
				"_beforeTokenTransfer(address,address,uint256)": "infinite",
				"_burn(uint256)": "infinite",
				"genID()": "infinite",
				"randomNumber()": "infinite"
			}
		},
		"methodIdentifiers": {
			"MAX_Supply()": "0b191314",
			"_mintedAmount(address)": "ed64892b",
			"addCredit(address,uint256)": "7d27d66c",
			"approve(address,uint256)": "095ea7b3",
			"balanceOf(address)": "70a08231",
			"balanceOfCredit(address)": "14a1fc35",
			"getApproved(uint256)": "081812fc",
			"hasSaleStarted()": "1c8b232d",
			"isApprovedForAll(address,address)": "e985e9c5",
			"maxPerTx()": "f968adbe",
			"mint(uint256,uint256[])": "2d69044f",
			"mintCredit(uint256[])": "87ec11b3",
			"mintsPerWallet()": "40221e20",
			"name()": "06fdde03",
			"owner()": "8da5cb5b",
			"ownerOf(uint256)": "6352211e",
			"pauseSale()": "55367ba9",
			"price()": "a035b1fe",
			"renounceOwnership()": "715018a6",
			"safeTransferFrom(address,address,uint256)": "42842e0e",
			"safeTransferFrom(address,address,uint256,bytes)": "b88d4fde",
			"setApprovalForAll(address,bool)": "a22cb465",
			"setDefaultURI(string)": "da1b9e08",
			"setNftBuilder(address)": "384242be",
			"setPriceFtm(uint256)": "4c1a8642",
			"setPriceWei(uint256)": "c1e4dfda",
			"setTokenURI(uint256,string)": "162094c4",
			"startSale()": "b66a0e5d",
			"supportsInterface(bytes4)": "01ffc9a7",
			"symbol()": "95d89b41",
			"tokenByIndex(uint256)": "4f6ccce7",
			"tokenOfOwnerByIndex(address,uint256)": "2f745c59",
			"tokenURI(uint256)": "c87b56dd",
			"tokensOfOwner(address)": "8462151c",
			"totalSupply()": "18160ddd",
			"transferFrom(address,address,uint256)": "23b872dd",
			"transferOwnership(address)": "f2fde38b",
			"withdrawAll()": "853828b6"
		}
	},
	"abi": [
		{
			"inputs": [
				{
					"internalType": "string",
					"name": "name",
					"type": "string"
				},
				{
					"internalType": "string",
					"name": "symbol",
					"type": "string"
				},
				{
					"internalType": "string",
					"name": "defaultURI",
					"type": "string"
				},
				{
					"internalType": "uint256",
					"name": "priceWei",
					"type": "uint256"
				},
				{
					"internalType": "uint256",
					"name": "supply",
					"type": "uint256"
				},
				{
					"internalType": "uint256",
					"name": "mintsPerTx",
					"type": "uint256"
				},
				{
					"internalType": "uint256",
					"name": "layerCount",
					"type": "uint256"
				},
				{
					"internalType": "uint256",
					"name": "walletAllowance",
					"type": "uint256"
				}
			],
			"stateMutability": "nonpayable",
			"type": "constructor"
		},
		{
			"anonymous": false,
			"inputs": [
				{
					"indexed": true,
					"internalType": "address",
					"name": "owner",
					"type": "address"
				},
				{
					"indexed": true,
					"internalType": "address",
					"name": "approved",
					"type": "address"
				},
				{
					"indexed": true,
					"internalType": "uint256",
					"name": "tokenId",
					"type": "uint256"
				}
			],
			"name": "Approval",
			"type": "event"
		},
		{
			"anonymous": false,
			"inputs": [
				{
					"indexed": true,
					"internalType": "address",
					"name": "owner",
					"type": "address"
				},
				{
					"indexed": true,
					"internalType": "address",
					"name": "operator",
					"type": "address"
				},
				{
					"indexed": false,
					"internalType": "bool",
					"name": "approved",
					"type": "bool"
				}
			],
			"name": "ApprovalForAll",
			"type": "event"
		},
		{
			"anonymous": false,
			"inputs": [
				{
					"indexed": true,
					"internalType": "address",
					"name": "_from",
					"type": "address"
				},
				{
					"indexed": false,
					"internalType": "uint256[]",
					"name": "_traits",
					"type": "uint256[]"
				},
				{
					"indexed": false,
					"internalType": "uint256",
					"name": "_tokenId",
					"type": "uint256"
				}
			],
			"name": "CustomMint",
			"type": "event"
		},
		{
			"anonymous": false,
			"inputs": [
				{
					"indexed": true,
					"internalType": "address",
					"name": "previousOwner",
					"type": "address"
				},
				{
					"indexed": true,
					"internalType": "address",
					"name": "newOwner",
					"type": "address"
				}
			],
			"name": "OwnershipTransferred",
			"type": "event"
		},
		{
			"anonymous": false,
			"inputs": [
				{
					"indexed": true,
					"internalType": "address",
					"name": "from",
					"type": "address"
				},
				{
					"indexed": true,
					"internalType": "address",
					"name": "to",
					"type": "address"
				},
				{
					"indexed": true,
					"internalType": "uint256",
					"name": "tokenId",
					"type": "uint256"
				}
			],
			"name": "Transfer",
			"type": "event"
		},
		{
			"inputs": [],
			"name": "MAX_Supply",
			"outputs": [
				{
					"internalType": "uint256",
					"name": "",
					"type": "uint256"
				}
			],
			"stateMutability": "view",
			"type": "function"
		},
		{
			"inputs": [
				{
					"internalType": "address",
					"name": "",
					"type": "address"
				}
			],
			"name": "_mintedAmount",
			"outputs": [
				{
					"internalType": "uint256",
					"name": "",
					"type": "uint256"
				}
			],
			"stateMutability": "view",
			"type": "function"
		},
		{
			"inputs": [
				{
					"internalType": "address",
					"name": "owner",
					"type": "address"
				},
				{
					"internalType": "uint256",
					"name": "credits",
					"type": "uint256"
				}
			],
			"name": "addCredit",
			"outputs": [],
			"stateMutability": "nonpayable",
			"type": "function"
		},
		{
			"inputs": [
				{
					"internalType": "address",
					"name": "to",
					"type": "address"
				},
				{
					"internalType": "uint256",
					"name": "tokenId",
					"type": "uint256"
				}
			],
			"name": "approve",
			"outputs": [],
			"stateMutability": "nonpayable",
			"type": "function"
		},
		{
			"inputs": [
				{
					"internalType": "address",
					"name": "owner",
					"type": "address"
				}
			],
			"name": "balanceOf",
			"outputs": [
				{
					"internalType": "uint256",
					"name": "",
					"type": "uint256"
				}
			],
			"stateMutability": "view",
			"type": "function"
		},
		{
			"inputs": [
				{
					"internalType": "address",
					"name": "owner",
					"type": "address"
				}
			],
			"name": "balanceOfCredit",
			"outputs": [
				{
					"internalType": "uint256",
					"name": "",
					"type": "uint256"
				}
			],
			"stateMutability": "view",
			"type": "function"
		},
		{
			"inputs": [
				{
					"internalType": "uint256",
					"name": "tokenId",
					"type": "uint256"
				}
			],
			"name": "getApproved",
			"outputs": [
				{
					"internalType": "address",
					"name": "",
					"type": "address"
				}
			],
			"stateMutability": "view",
			"type": "function"
		},
		{
			"inputs": [],
			"name": "hasSaleStarted",
			"outputs": [
				{
					"internalType": "bool",
					"name": "",
					"type": "bool"
				}
			],
			"stateMutability": "view",
			"type": "function"
		},
		{
			"inputs": [
				{
					"internalType": "address",
					"name": "owner",
					"type": "address"
				},
				{
					"internalType": "address",
					"name": "operator",
					"type": "address"
				}
			],
			"name": "isApprovedForAll",
			"outputs": [
				{
					"internalType": "bool",
					"name": "",
					"type": "bool"
				}
			],
			"stateMutability": "view",
			"type": "function"
		},
		{
			"inputs": [],
			"name": "maxPerTx",
			"outputs": [
				{
					"internalType": "uint256",
					"name": "",
					"type": "uint256"
				}
			],
			"stateMutability": "view",
			"type": "function"
		},
		{
			"inputs": [
				{
					"internalType": "uint256",
					"name": "mintAmount",
					"type": "uint256"
				},
				{
					"internalType": "uint256[]",
					"name": "chosenTraits",
					"type": "uint256[]"
				}
			],
			"name": "mint",
			"outputs": [],
			"stateMutability": "payable",
			"type": "function"
		},
		{
			"inputs": [
				{
					"internalType": "uint256[]",
					"name": "chosenTraits",
					"type": "uint256[]"
				}
			],
			"name": "mintCredit",
			"outputs": [],
			"stateMutability": "nonpayable",
			"type": "function"
		},
		{
			"inputs": [],
			"name": "mintsPerWallet",
			"outputs": [
				{
					"internalType": "uint256",
					"name": "",
					"type": "uint256"
				}
			],
			"stateMutability": "view",
			"type": "function"
		},
		{
			"inputs": [],
			"name": "name",
			"outputs": [
				{
					"internalType": "string",
					"name": "",
					"type": "string"
				}
			],
			"stateMutability": "view",
			"type": "function"
		},
		{
			"inputs": [],
			"name": "owner",
			"outputs": [
				{
					"internalType": "address",
					"name": "",
					"type": "address"
				}
			],
			"stateMutability": "view",
			"type": "function"
		},
		{
			"inputs": [
				{
					"internalType": "uint256",
					"name": "tokenId",
					"type": "uint256"
				}
			],
			"name": "ownerOf",
			"outputs": [
				{
					"internalType": "address",
					"name": "",
					"type": "address"
				}
			],
			"stateMutability": "view",
			"type": "function"
		},
		{
			"inputs": [],
			"name": "pauseSale",
			"outputs": [],
			"stateMutability": "nonpayable",
			"type": "function"
		},
		{
			"inputs": [],
			"name": "price",
			"outputs": [
				{
					"internalType": "uint256",
					"name": "",
					"type": "uint256"
				}
			],
			"stateMutability": "view",
			"type": "function"
		},
		{
			"inputs": [],
			"name": "renounceOwnership",
			"outputs": [],
			"stateMutability": "nonpayable",
			"type": "function"
		},
		{
			"inputs": [
				{
					"internalType": "address",
					"name": "from",
					"type": "address"
				},
				{
					"internalType": "address",
					"name": "to",
					"type": "address"
				},
				{
					"internalType": "uint256",
					"name": "tokenId",
					"type": "uint256"
				}
			],
			"name": "safeTransferFrom",
			"outputs": [],
			"stateMutability": "nonpayable",
			"type": "function"
		},
		{
			"inputs": [
				{
					"internalType": "address",
					"name": "from",
					"type": "address"
				},
				{
					"internalType": "address",
					"name": "to",
					"type": "address"
				},
				{
					"internalType": "uint256",
					"name": "tokenId",
					"type": "uint256"
				},
				{
					"internalType": "bytes",
					"name": "_data",
					"type": "bytes"
				}
			],
			"name": "safeTransferFrom",
			"outputs": [],
			"stateMutability": "nonpayable",
			"type": "function"
		},
		{
			"inputs": [
				{
					"internalType": "address",
					"name": "operator",
					"type": "address"
				},
				{
					"internalType": "bool",
					"name": "approved",
					"type": "bool"
				}
			],
			"name": "setApprovalForAll",
			"outputs": [],
			"stateMutability": "nonpayable",
			"type": "function"
		},
		{
			"inputs": [
				{
					"internalType": "string",
					"name": "defaultURI",
					"type": "string"
				}
			],
			"name": "setDefaultURI",
			"outputs": [],
			"stateMutability": "nonpayable",
			"type": "function"
		},
		{
			"inputs": [
				{
					"internalType": "address",
					"name": "newBuilder",
					"type": "address"
				}
			],
			"name": "setNftBuilder",
			"outputs": [],
			"stateMutability": "nonpayable",
			"type": "function"
		},
		{
			"inputs": [
				{
					"internalType": "uint256",
					"name": "newPrice",
					"type": "uint256"
				}
			],
			"name": "setPriceFtm",
			"outputs": [],
			"stateMutability": "nonpayable",
			"type": "function"
		},
		{
			"inputs": [
				{
					"internalType": "uint256",
					"name": "newPrice",
					"type": "uint256"
				}
			],
			"name": "setPriceWei",
			"outputs": [],
			"stateMutability": "nonpayable",
			"type": "function"
		},
		{
			"inputs": [
				{
					"internalType": "uint256",
					"name": "tokenId",
					"type": "uint256"
				},
				{
					"internalType": "string",
					"name": "URI",
					"type": "string"
				}
			],
			"name": "setTokenURI",
			"outputs": [],
			"stateMutability": "nonpayable",
			"type": "function"
		},
		{
			"inputs": [],
			"name": "startSale",
			"outputs": [],
			"stateMutability": "nonpayable",
			"type": "function"
		},
		{
			"inputs": [
				{
					"internalType": "bytes4",
					"name": "interfaceId",
					"type": "bytes4"
				}
			],
			"name": "supportsInterface",
			"outputs": [
				{
					"internalType": "bool",
					"name": "",
					"type": "bool"
				}
			],
			"stateMutability": "view",
			"type": "function"
		},
		{
			"inputs": [],
			"name": "symbol",
			"outputs": [
				{
					"internalType": "string",
					"name": "",
					"type": "string"
				}
			],
			"stateMutability": "view",
			"type": "function"
		},
		{
			"inputs": [
				{
					"internalType": "uint256",
					"name": "index",
					"type": "uint256"
				}
			],
			"name": "tokenByIndex",
			"outputs": [
				{
					"internalType": "uint256",
					"name": "",
					"type": "uint256"
				}
			],
			"stateMutability": "view",
			"type": "function"
		},
		{
			"inputs": [
				{
					"internalType": "address",
					"name": "owner",
					"type": "address"
				},
				{
					"internalType": "uint256",
					"name": "index",
					"type": "uint256"
				}
			],
			"name": "tokenOfOwnerByIndex",
			"outputs": [
				{
					"internalType": "uint256",
					"name": "",
					"type": "uint256"
				}
			],
			"stateMutability": "view",
			"type": "function"
		},
		{
			"inputs": [
				{
					"internalType": "uint256",
					"name": "tokenId",
					"type": "uint256"
				}
			],
			"name": "tokenURI",
			"outputs": [
				{
					"internalType": "string",
					"name": "",
					"type": "string"
				}
			],
			"stateMutability": "view",
			"type": "function"
		},
		{
			"inputs": [
				{
					"internalType": "address",
					"name": "_owner",
					"type": "address"
				}
			],
			"name": "tokensOfOwner",
			"outputs": [
				{
					"internalType": "uint256[]",
					"name": "",
					"type": "uint256[]"
				}
			],
			"stateMutability": "view",
			"type": "function"
		},
		{
			"inputs": [],
			"name": "totalSupply",
			"outputs": [
				{
					"internalType": "uint256",
					"name": "",
					"type": "uint256"
				}
			],
			"stateMutability": "view",
			"type": "function"
		},
		{
			"inputs": [
				{
					"internalType": "address",
					"name": "from",
					"type": "address"
				},
				{
					"internalType": "address",
					"name": "to",
					"type": "address"
				},
				{
					"internalType": "uint256",
					"name": "tokenId",
					"type": "uint256"
				}
			],
			"name": "transferFrom",
			"outputs": [],
			"stateMutability": "nonpayable",
			"type": "function"
		},
		{
			"inputs": [
				{
					"internalType": "address",
					"name": "newOwner",
					"type": "address"
				}
			],
			"name": "transferOwnership",
			"outputs": [],
			"stateMutability": "nonpayable",
			"type": "function"
		},
		{
			"inputs": [],
			"name": "withdrawAll",
			"outputs": [],
			"stateMutability": "nonpayable",
			"type": "function"
		}
	]
}