{
	"data": {
		"bytecode": {
			"linkReferences": {},
			"object": "6101206040526000600d5560405180602001604052806000815250601190805190602001906200003192919062000338565b506000601360006101000a81548160ff0219169083151502179055503480156200005a57600080fd5b50604051620065383803806200653883398181016040528101906200008091906200047d565b83888881600090805190602001906200009b92919062000338565b508060019080519060200190620000b492919062000338565b5050508060808181525050506000620000d2620001c260201b60201c565b905080600f60006101000a81548173ffffffffffffffffffffffffffffffffffffffff021916908373ffffffffffffffffffffffffffffffffffffffff1602179055508073ffffffffffffffffffffffffffffffffffffffff16600073ffffffffffffffffffffffffffffffffffffffff167f8be0079c531659141344cd1fd0a4f28419497f9722a3daafe3b4186f6b6457e060405160405180910390a3508360c081815250508260e081815250508061010081815250508160a08181525050620001a386620001ca60201b60201c565b620001b4856200027560201b60201c565b5050505050505050620007ce565b600033905090565b620001da620001c260201b60201c565b73ffffffffffffffffffffffffffffffffffffffff16620002006200030e60201b60201c565b73ffffffffffffffffffffffffffffffffffffffff161462000259576040517f08c379a00000000000000000000000000000000000000000000000000000000081526004016200025090620005ca565b60405180910390fd5b80601190805190602001906200027192919062000338565b5050565b62000285620001c260201b60201c565b73ffffffffffffffffffffffffffffffffffffffff16620002ab6200030e60201b60201c565b73ffffffffffffffffffffffffffffffffffffffff161462000304576040517f08c379a0000000000000000000000000000000000000000000000000000000008152600401620002fb90620005ca565b60405180910390fd5b8060128190555050565b6000600f60009054906101000a900473ffffffffffffffffffffffffffffffffffffffff16905090565b82805462000346906200069c565b90600052602060002090601f0160209004810192826200036a5760008555620003b6565b82601f106200038557805160ff1916838001178555620003b6565b82800160010185558215620003b6579182015b82811115620003b557825182559160200191906001019062000398565b5b509050620003c59190620003c9565b5090565b5b80821115620003e4576000816000905550600101620003ca565b5090565b6000620003ff620003f98462000615565b620005ec565b9050828152602081018484840111156200041e576200041d6200076b565b5b6200042b84828562000666565b509392505050565b600082601f8301126200044b576200044a62000766565b5b81516200045d848260208601620003e8565b91505092915050565b6000815190506200047781620007b4565b92915050565b600080600080600080600080610100898b031215620004a157620004a062000775565b5b600089015167ffffffffffffffff811115620004c257620004c162000770565b5b620004d08b828c0162000433565b985050602089015167ffffffffffffffff811115620004f457620004f362000770565b5b620005028b828c0162000433565b975050604089015167ffffffffffffffff81111562000526576200052562000770565b5b620005348b828c0162000433565b9650506060620005478b828c0162000466565b95505060806200055a8b828c0162000466565b94505060a06200056d8b828c0162000466565b93505060c0620005808b828c0162000466565b92505060e0620005938b828c0162000466565b9150509295985092959890939650565b6000620005b26020836200064b565b9150620005bf826200078b565b602082019050919050565b60006020820190508181036000830152620005e581620005a3565b9050919050565b6000620005f86200060b565b9050620006068282620006d2565b919050565b6000604051905090565b600067ffffffffffffffff82111562000633576200063262000737565b5b6200063e826200077a565b9050602081019050919050565b600082825260208201905092915050565b6000819050919050565b60005b838110156200068657808201518184015260208101905062000669565b8381111562000696576000848401525b50505050565b60006002820490506001821680620006b557607f821691505b60208210811415620006cc57620006cb62000708565b5b50919050565b620006dd826200077a565b810181811067ffffffffffffffff82111715620006ff57620006fe62000737565b5b80604052505050565b7f4e487b7100000000000000000000000000000000000000000000000000000000600052602260045260246000fd5b7f4e487b7100000000000000000000000000000000000000000000000000000000600052604160045260246000fd5b600080fd5b600080fd5b600080fd5b600080fd5b6000601f19601f8301169050919050565b7f4f776e61626c653a2063616c6c6572206973206e6f7420746865206f776e6572600082015250565b620007bf816200065c565b8114620007cb57600080fd5b50565b60805160a05160c05160e05161010051615d026200083660003960008181610fc201526114ed0152600081816110630152612731015260008181610c4a01528181610f4d0152611d060152600081816111150152611df201526000612cbb0152615d026000f3fe60806040526004361061025c5760003560e01c806370a0823111610144578063b66a0e5d116100b6578063da1b9e081161007a578063da1b9e08146108d1578063e2084db0146108fa578063e985e9c514610939578063ed64892b14610976578063f2fde38b146109b3578063f968adbe146109dc5761025c565b8063b66a0e5d14610802578063b88d4fde14610819578063c1e4dfda14610842578063c87b56dd1461086b578063d13cb5af146108a85761025c565b806387ec11b31161010857806387ec11b3146107065780638bdc87761461072f5780638da5cb5b1461075857806395d89b4114610783578063a035b1fe146107ae578063a22cb465146107d95761025c565b806370a0823114610635578063715018a6146106725780637d27d66c146106895780638462151c146106b2578063853828b6146106ef5761025c565b80632ac1e552116101dd57806342842e0e116101a157806342842e0e146105295780634c1a8642146105525780634f6ccce71461057b57806355367ba9146105b85780635a743c10146105cf5780636352211e146105f85761025c565b80632ac1e5521461043f5780632d69044f1461047c5780632f745c5914610498578063384242be146104d557806340221e20146104fe5761025c565b806314a1fc351161022457806314a1fc351461035a578063162094c41461039757806318160ddd146103c05780631c8b232d146103eb57806323b872dd146104165761025c565b806301ffc9a71461026157806306fdde031461029e578063081812fc146102c9578063095ea7b3146103065780630b1913141461032f575b600080fd5b34801561026d57600080fd5b506102886004803603810190610283919061430e565b610a07565b6040516102959190614b83565b60405180910390f35b3480156102aa57600080fd5b506102b3610a19565b6040516102c09190614b9e565b60405180910390f35b3480156102d557600080fd5b506102f060048036038101906102eb91906143b1565b610aab565b6040516102fd9190614ac8565b60405180910390f35b34801561031257600080fd5b5061032d600480360381019061032891906141ab565b610b30565b005b34801561033b57600080fd5b50610344610c48565b6040516103519190614f40565b60405180910390f35b34801561036657600080fd5b50610381600480360381019061037c9190614028565b610c6c565b60405161038e9190614f40565b60405180910390f35b3480156103a357600080fd5b506103be60048036038101906103b9919061443e565b610d24565b005b3480156103cc57600080fd5b506103d5610e44565b6040516103e29190614f40565b60405180910390f35b3480156103f757600080fd5b50610400610e51565b60405161040d9190614b83565b60405180910390f35b34801561042257600080fd5b5061043d60048036038101906104389190614095565b610e64565b005b34801561044b57600080fd5b50610466600480360381019061046191906143b1565b610ec4565b6040516104739190614f40565b60405180910390f35b610496600480360381019061049191906143de565b610ee8565b005b3480156104a457600080fd5b506104bf60048036038101906104ba91906141ab565b611386565b6040516104cc9190614f40565b60405180910390f35b3480156104e157600080fd5b506104fc60048036038101906104f79190614028565b61142b565b005b34801561050a57600080fd5b506105136114eb565b6040516105209190614f40565b60405180910390f35b34801561053557600080fd5b50610550600480360381019061054b9190614095565b61150f565b005b34801561055e57600080fd5b50610579600480360381019061057491906143b1565b61152f565b005b34801561058757600080fd5b506105a2600480360381019061059d91906143b1565b6115ce565b6040516105af9190614f40565b60405180910390f35b3480156105c457600080fd5b506105cd61163f565b005b3480156105db57600080fd5b506105f660048036038101906105f191906141eb565b6116d8565b005b34801561060457600080fd5b5061061f600480360381019061061a91906143b1565b611762565b60405161062c9190614ac8565b60405180910390f35b34801561064157600080fd5b5061065c60048036038101906106579190614028565b611814565b6040516106699190614f40565b60405180910390f35b34801561067e57600080fd5b506106876118cc565b005b34801561069557600080fd5b506106b060048036038101906106ab91906141ab565b611a09565b005b3480156106be57600080fd5b506106d960048036038101906106d49190614028565b611adf565b6040516106e69190614b61565b60405180910390f35b3480156106fb57600080fd5b50610704611be9565b005b34801561071257600080fd5b5061072d600480360381019061072891906141eb565b611cae565b005b34801561073b57600080fd5b5061075660048036038101906107519190614238565b61206b565b005b34801561076457600080fd5b5061076d6120f7565b60405161077a9190614ac8565b60405180910390f35b34801561078f57600080fd5b50610798612121565b6040516107a59190614b9e565b60405180910390f35b3480156107ba57600080fd5b506107c36121b3565b6040516107d09190614f40565b60405180910390f35b3480156107e557600080fd5b5061080060048036038101906107fb919061416b565b6121b9565b005b34801561080e57600080fd5b506108176121cf565b005b34801561082557600080fd5b50610840600480360381019061083b91906140e8565b612268565b005b34801561084e57600080fd5b50610869600480360381019061086491906143b1565b6122ca565b005b34801561087757600080fd5b50610892600480360381019061088d91906143b1565b612350565b60405161089f9190614b9e565b60405180910390f35b3480156108b457600080fd5b506108cf60048036038101906108ca9190614298565b612362565b005b3480156108dd57600080fd5b506108f860048036038101906108f39190614368565b6123ea565b005b34801561090657600080fd5b50610921600480360381019061091c91906142e1565b612480565b60405161093093929190614f5b565b60405180910390f35b34801561094557600080fd5b50610960600480360381019061095b9190614055565b6124d7565b60405161096d9190614b83565b60405180910390f35b34801561098257600080fd5b5061099d60048036038101906109989190614028565b61256b565b6040516109aa9190614f40565b60405180910390f35b3480156109bf57600080fd5b506109da60048036038101906109d59190614028565b612583565b005b3480156109e857600080fd5b506109f161272f565b6040516109fe9190614f40565b60405180910390f35b6000610a1282612753565b9050919050565b606060008054610a28906152e5565b80601f0160208091040260200160405190810160405280929190818152602001828054610a54906152e5565b8015610aa15780601f10610a7657610100808354040283529160200191610aa1565b820191906000526020600020905b815481529060010190602001808311610a8457829003601f168201915b5050505050905090565b6000610ab6826127cd565b610af5576040517f08c379a0000000000000000000000000000000000000000000000000000000008152600401610aec90614e80565b60405180910390fd5b6004600083815260200190815260200160002060009054906101000a900473ffffffffffffffffffffffffffffffffffffffff169050919050565b6000610b3b82611762565b90508073ffffffffffffffffffffffffffffffffffffffff168373ffffffffffffffffffffffffffffffffffffffff161415610bac576040517f08c379a0000000000000000000000000000000000000000000000000000000008152600401610ba390614ee0565b60405180910390fd5b8073ffffffffffffffffffffffffffffffffffffffff16610bcb612839565b73ffffffffffffffffffffffffffffffffffffffff161480610bfa5750610bf981610bf4612839565b6124d7565b5b610c39576040517f08c379a0000000000000000000000000000000000000000000000000000000008152600401610c3090614d60565b60405180910390fd5b610c438383612841565b505050565b7f000000000000000000000000000000000000000000000000000000000000000081565b60008073ffffffffffffffffffffffffffffffffffffffff168273ffffffffffffffffffffffffffffffffffffffff161415610cdd576040517f08c379a0000000000000000000000000000000000000000000000000000000008152600401610cd490614d80565b60405180910390fd5b601460008373ffffffffffffffffffffffffffffffffffffffff1673ffffffffffffffffffffffffffffffffffffffff168152602001908152602001600020549050919050565b601060009054906101000a900473ffffffffffffffffffffffffffffffffffffffff1673ffffffffffffffffffffffffffffffffffffffff163373ffffffffffffffffffffffffffffffffffffffff161480610db25750610d836120f7565b73ffffffffffffffffffffffffffffffffffffffff163373ffffffffffffffffffffffffffffffffffffffff16145b610df1576040517f08c379a0000000000000000000000000000000000000000000000000000000008152600401610de890614bc0565b60405180910390fd5b610e3f8383838080601f016020809104026020016040519081016040528093929190818152602001838380828437600081840152601f19601f820116905080830192505050505050506128fa565b505050565b6000600880549050905090565b601360009054906101000a900460ff1681565b610e75610e6f612839565b8261296e565b610eb4576040517f08c379a0000000000000000000000000000000000000000000000000000000008152600401610eab90614f00565b60405180910390fd5b610ebf838383612a4c565b505050565b600c8181548110610ed457600080fd5b906000526020600020016000915090505481565b60008311610ef557600080fd5b60011515601360009054906101000a900460ff16151514610f4b576040517f08c379a0000000000000000000000000000000000000000000000000000000008152600401610f4290614e20565b60405180910390fd5b7f000000000000000000000000000000000000000000000000000000000000000083610f75610e44565b610f7f91906150c1565b1115610fc0576040517f08c379a0000000000000000000000000000000000000000000000000000000008152600401610fb790614d40565b60405180910390fd5b7f0000000000000000000000000000000000000000000000000000000000000000601560003373ffffffffffffffffffffffffffffffffffffffff1673ffffffffffffffffffffffffffffffffffffffff1681526020019081526020016000205410611061576040517f08c379a000000000000000000000000000000000000000000000000000000000815260040161105890614e40565b60405180910390fd5b7f00000000000000000000000000000000000000000000000000000000000000008311156110c4576040517f08c379a00000000000000000000000000000000000000000000000000000000081526004016110bb90614d00565b60405180910390fd5b826012546110d29190615151565b3414611113576040517f08c379a000000000000000000000000000000000000000000000000000000000815260040161110a90614ec0565b60405180910390fd5b7f00000000000000000000000000000000000000000000000000000000000000008282905014611178576040517f08c379a000000000000000000000000000000000000000000000000000000000815260040161116f90614ce0565b60405180910390fd5b6000828260405160200161118d929190614a83565b604051602081830303815290604052805190602001209050600b600082815260200190815260200160002060000160089054906101000a900460ff161561127557600b600082815260200190815260200160002060000160049054906101000a900463ffffffff1663ffffffff1684600b600084815260200190815260200160002060000160009054906101000a900463ffffffff1663ffffffff1661123391906150c1565b1115611274576040517f08c379a000000000000000000000000000000000000000000000000000000000815260040161126b90614be0565b60405180910390fd5b5b60005b8481101561137f576000600161128c612cb3565b61129691906150c1565b90506112a23382612dec565b84846016600084815260200190815260200160002091906112c4929190613c2e565b506001600b600085815260200190815260200160002060000160008282829054906101000a900463ffffffff166112fb9190615117565b92506101000a81548163ffffffff021916908363ffffffff1602179055503373ffffffffffffffffffffffffffffffffffffffff167f06ed0e5921c2b0f37ed5915265df534d42bd7ad62c6c44687e004658c5e331aa86868460405161136393929190614b2f565b60405180910390a250808061137790615348565b915050611278565b5050505050565b600061139183611814565b82106113d2576040517f08c379a00000000000000000000000000000000000000000000000000000000081526004016113c990614c00565b60405180910390fd5b600660008473ffffffffffffffffffffffffffffffffffffffff1673ffffffffffffffffffffffffffffffffffffffff168152602001908152602001600020600083815260200190815260200160002054905092915050565b611433612839565b73ffffffffffffffffffffffffffffffffffffffff166114516120f7565b73ffffffffffffffffffffffffffffffffffffffff16146114a7576040517f08c379a000000000000000000000000000000000000000000000000000000000815260040161149e90614ea0565b60405180910390fd5b80601060006101000a81548173ffffffffffffffffffffffffffffffffffffffff021916908373ffffffffffffffffffffffffffffffffffffffff16021790555050565b7f000000000000000000000000000000000000000000000000000000000000000081565b61152a83838360405180602001604052806000815250612268565b505050565b611537612839565b73ffffffffffffffffffffffffffffffffffffffff166115556120f7565b73ffffffffffffffffffffffffffffffffffffffff16146115ab576040517f08c379a00000000000000000000000000000000000000000000000000000000081526004016115a290614ea0565b60405180910390fd5b6000670de0b6b3a7640000905080826115c49190615151565b6012819055505050565b60006115d8610e44565b8210611619576040517f08c379a000000000000000000000000000000000000000000000000000000000815260040161161090614f20565b60405180910390fd5b6008828154811061162d5761162c615488565b5b90600052602060002001549050919050565b611647612839565b73ffffffffffffffffffffffffffffffffffffffff166116656120f7565b73ffffffffffffffffffffffffffffffffffffffff16146116bb576040517f08c379a00000000000000000000000000000000000000000000000000000000081526004016116b290614ea0565b60405180910390fd5b6000601360006101000a81548160ff021916908315150217905550565b6116e0612839565b73ffffffffffffffffffffffffffffffffffffffff166116fe6120f7565b73ffffffffffffffffffffffffffffffffffffffff1614611754576040517f08c379a000000000000000000000000000000000000000000000000000000000815260040161174b90614ea0565b60405180910390fd5b61175e8282612e0a565b5050565b6000806002600084815260200190815260200160002060009054906101000a900473ffffffffffffffffffffffffffffffffffffffff169050600073ffffffffffffffffffffffffffffffffffffffff168173ffffffffffffffffffffffffffffffffffffffff16141561180b576040517f08c379a000000000000000000000000000000000000000000000000000000000815260040161180290614dc0565b60405180910390fd5b80915050919050565b60008073ffffffffffffffffffffffffffffffffffffffff168273ffffffffffffffffffffffffffffffffffffffff161415611885576040517f08c379a000000000000000000000000000000000000000000000000000000000815260040161187c90614d80565b60405180910390fd5b600360008373ffffffffffffffffffffffffffffffffffffffff1673ffffffffffffffffffffffffffffffffffffffff168152602001908152602001600020549050919050565b6118d4612839565b73ffffffffffffffffffffffffffffffffffffffff166118f26120f7565b73ffffffffffffffffffffffffffffffffffffffff1614611948576040517f08c379a000000000000000000000000000000000000000000000000000000000815260040161193f90614ea0565b60405180910390fd5b600073ffffffffffffffffffffffffffffffffffffffff16600f60009054906101000a900473ffffffffffffffffffffffffffffffffffffffff1673ffffffffffffffffffffffffffffffffffffffff167f8be0079c531659141344cd1fd0a4f28419497f9722a3daafe3b4186f6b6457e060405160405180910390a36000600f60006101000a81548173ffffffffffffffffffffffffffffffffffffffff021916908373ffffffffffffffffffffffffffffffffffffffff160217905550565b611a11612839565b73ffffffffffffffffffffffffffffffffffffffff16611a2f6120f7565b73ffffffffffffffffffffffffffffffffffffffff1614611a85576040517f08c379a0000000000000000000000000000000000000000000000000000000008152600401611a7c90614ea0565b60405180910390fd5b80601460008473ffffffffffffffffffffffffffffffffffffffff1673ffffffffffffffffffffffffffffffffffffffff1681526020019081526020016000206000828254611ad491906150c1565b925050819055505050565b60606000611aec83611814565b90506000811415611b4957600067ffffffffffffffff811115611b1257611b116154b7565b5b604051908082528060200260200182016040528015611b405781602001602082028036833780820191505090505b50915050611be4565b60008167ffffffffffffffff811115611b6557611b646154b7565b5b604051908082528060200260200182016040528015611b935781602001602082028036833780820191505090505b50905060005b82811015611bdd57611bab8582611386565b828281518110611bbe57611bbd615488565b5b6020026020010181815250508080611bd590615348565b915050611b99565b8193505050505b919050565b611bf1612839565b73ffffffffffffffffffffffffffffffffffffffff16611c0f6120f7565b73ffffffffffffffffffffffffffffffffffffffff1614611c65576040517f08c379a0000000000000000000000000000000000000000000000000000000008152600401611c5c90614ea0565b60405180910390fd5b3373ffffffffffffffffffffffffffffffffffffffff166108fc479081150290604051600060405180830381858888f19350505050158015611cab573d6000803e3d6000fd5b50565b60011515601360009054906101000a900460ff16151514611d04576040517f08c379a0000000000000000000000000000000000000000000000000000000008152600401611cfb90614e20565b60405180910390fd5b7f0000000000000000000000000000000000000000000000000000000000000000611d2d610e44565b10611d6d576040517f08c379a0000000000000000000000000000000000000000000000000000000008152600401611d6490614d40565b60405180910390fd5b6001601460003373ffffffffffffffffffffffffffffffffffffffff1673ffffffffffffffffffffffffffffffffffffffff168152602001908152602001600020541015611df0576040517f08c379a0000000000000000000000000000000000000000000000000000000008152600401611de790614da0565b60405180910390fd5b7f00000000000000000000000000000000000000000000000000000000000000008282905014611e55576040517f08c379a0000000000000000000000000000000000000000000000000000000008152600401611e4c90614ce0565b60405180910390fd5b60008282604051602001611e6a929190614a83565b604051602081830303815290604052805190602001209050600b600082815260200190815260200160002060000160089054906101000a900460ff1615611f4657600b600082815260200190815260200160002060000160049054906101000a900463ffffffff1663ffffffff16600b600083815260200190815260200160002060000160009054906101000a900463ffffffff1663ffffffff1610611f45576040517f08c379a0000000000000000000000000000000000000000000000000000000008152600401611f3c90614be0565b60405180910390fd5b5b60006001611f52612cb3565b611f5c91906150c1565b9050611f683382612dec565b6001600b600084815260200190815260200160002060000160008282829054906101000a900463ffffffff16611f9e9190615117565b92506101000a81548163ffffffff021916908363ffffffff1602179055503373ffffffffffffffffffffffffffffffffffffffff167f06ed0e5921c2b0f37ed5915265df534d42bd7ad62c6c44687e004658c5e331aa85858460405161200693929190614b2f565b60405180910390a26001601460003373ffffffffffffffffffffffffffffffffffffffff1673ffffffffffffffffffffffffffffffffffffffff168152602001908152602001600020600082825461205e91906151ab565b9250508190555050505050565b612073612839565b73ffffffffffffffffffffffffffffffffffffffff166120916120f7565b73ffffffffffffffffffffffffffffffffffffffff16146120e7576040517f08c379a00000000000000000000000000000000000000000000000000000000081526004016120de90614ea0565b60405180910390fd5b6120f2838383612e6b565b505050565b6000600f60009054906101000a900473ffffffffffffffffffffffffffffffffffffffff16905090565b606060018054612130906152e5565b80601f016020809104026020016040519081016040528092919081815260200182805461215c906152e5565b80156121a95780601f1061217e576101008083540402835291602001916121a9565b820191906000526020600020905b81548152906001019060200180831161218c57829003601f168201915b5050505050905090565b60125481565b6121cb6121c4612839565b8383612f02565b5050565b6121d7612839565b73ffffffffffffffffffffffffffffffffffffffff166121f56120f7565b73ffffffffffffffffffffffffffffffffffffffff161461224b576040517f08c379a000000000000000000000000000000000000000000000000000000000815260040161224290614ea0565b60405180910390fd5b6001601360006101000a81548160ff021916908315150217905550565b612279612273612839565b8361296e565b6122b8576040517f08c379a00000000000000000000000000000000000000000000000000000000081526004016122af90614f00565b60405180910390fd5b6122c48484848461306f565b50505050565b6122d2612839565b73ffffffffffffffffffffffffffffffffffffffff166122f06120f7565b73ffffffffffffffffffffffffffffffffffffffff1614612346576040517f08c379a000000000000000000000000000000000000000000000000000000000815260040161233d90614ea0565b60405180910390fd5b8060128190555050565b606061235b826130cb565b9050919050565b61236a612839565b73ffffffffffffffffffffffffffffffffffffffff166123886120f7565b73ffffffffffffffffffffffffffffffffffffffff16146123de576040517f08c379a00000000000000000000000000000000000000000000000000000000081526004016123d590614ea0565b60405180910390fd5b6123e7816131e0565b50565b6123f2612839565b73ffffffffffffffffffffffffffffffffffffffff166124106120f7565b73ffffffffffffffffffffffffffffffffffffffff1614612466576040517f08c379a000000000000000000000000000000000000000000000000000000000815260040161245d90614ea0565b60405180910390fd5b806011908051906020019061247c929190613c7b565b5050565b600b6020528060005260406000206000915090508060000160009054906101000a900463ffffffff16908060000160049054906101000a900463ffffffff16908060000160089054906101000a900460ff16905083565b6000600560008473ffffffffffffffffffffffffffffffffffffffff1673ffffffffffffffffffffffffffffffffffffffff16815260200190815260200160002060008373ffffffffffffffffffffffffffffffffffffffff1673ffffffffffffffffffffffffffffffffffffffff16815260200190815260200160002060009054906101000a900460ff16905092915050565b60156020528060005260406000206000915090505481565b61258b612839565b73ffffffffffffffffffffffffffffffffffffffff166125a96120f7565b73ffffffffffffffffffffffffffffffffffffffff16146125ff576040517f08c379a00000000000000000000000000000000000000000000000000000000081526004016125f690614ea0565b60405180910390fd5b600073ffffffffffffffffffffffffffffffffffffffff168173ffffffffffffffffffffffffffffffffffffffff16141561266f576040517f08c379a000000000000000000000000000000000000000000000000000000000815260040161266690614c40565b60405180910390fd5b8073ffffffffffffffffffffffffffffffffffffffff16600f60009054906101000a900473ffffffffffffffffffffffffffffffffffffffff1673ffffffffffffffffffffffffffffffffffffffff167f8be0079c531659141344cd1fd0a4f28419497f9722a3daafe3b4186f6b6457e060405160405180910390a380600f60006101000a81548173ffffffffffffffffffffffffffffffffffffffff021916908373ffffffffffffffffffffffffffffffffffffffff16021790555050565b7f000000000000000000000000000000000000000000000000000000000000000081565b60007f780e9d63000000000000000000000000000000000000000000000000000000007bffffffffffffffffffffffffffffffffffffffffffffffffffffffff1916827bffffffffffffffffffffffffffffffffffffffffffffffffffffffff191614806127c657506127c5826131fa565b5b9050919050565b60008073ffffffffffffffffffffffffffffffffffffffff166002600084815260200190815260200160002060009054906101000a900473ffffffffffffffffffffffffffffffffffffffff1673ffffffffffffffffffffffffffffffffffffffff1614159050919050565b600033905090565b816004600083815260200190815260200160002060006101000a81548173ffffffffffffffffffffffffffffffffffffffff021916908373ffffffffffffffffffffffffffffffffffffffff160217905550808273ffffffffffffffffffffffffffffffffffffffff166128b483611762565b73ffffffffffffffffffffffffffffffffffffffff167f8c5be1e5ebec7d5bd14f71427d1e84f3dd0314c0f7b2291e5b200ac8c7c3b92560405160405180910390a45050565b612903826127cd565b612942576040517f08c379a000000000000000000000000000000000000000000000000000000000815260040161293990614de0565b60405180910390fd5b80600a60008481526020019081526020016000209080519060200190612969929190613c7b565b505050565b6000612979826127cd565b6129b8576040517f08c379a00000000000000000000000000000000000000000000000000000000081526004016129af90614d20565b60405180910390fd5b60006129c383611762565b90508073ffffffffffffffffffffffffffffffffffffffff168473ffffffffffffffffffffffffffffffffffffffff161480612a055750612a0481856124d7565b5b80612a4357508373ffffffffffffffffffffffffffffffffffffffff16612a2b84610aab565b73ffffffffffffffffffffffffffffffffffffffff16145b91505092915050565b8273ffffffffffffffffffffffffffffffffffffffff16612a6c82611762565b73ffffffffffffffffffffffffffffffffffffffff1614612ac2576040517f08c379a0000000000000000000000000000000000000000000000000000000008152600401612ab990614c60565b60405180910390fd5b600073ffffffffffffffffffffffffffffffffffffffff168273ffffffffffffffffffffffffffffffffffffffff161415612b32576040517f08c379a0000000000000000000000000000000000000000000000000000000008152600401612b2990614ca0565b60405180910390fd5b612b3d8383836132dc565b612b48600082612841565b6001600360008573ffffffffffffffffffffffffffffffffffffffff1673ffffffffffffffffffffffffffffffffffffffff1681526020019081526020016000206000828254612b9891906151ab565b925050819055506001600360008473ffffffffffffffffffffffffffffffffffffffff1673ffffffffffffffffffffffffffffffffffffffff1681526020019081526020016000206000828254612bef91906150c1565b92505081905550816002600083815260200190815260200160002060006101000a81548173ffffffffffffffffffffffffffffffffffffffff021916908373ffffffffffffffffffffffffffffffffffffffff160217905550808273ffffffffffffffffffffffffffffffffffffffff168473ffffffffffffffffffffffffffffffffffffffff167fddf252ad1be2c89b69c2b068fc378daa952ba7f163c4a11628f55a4df523b3ef60405160405180910390a4612cae8383836132ec565b505050565b600080600d547f0000000000000000000000000000000000000000000000000000000000000000612ce491906151ab565b9050600080600083612cf46132f1565b612cfe919061539b565b90506000600e6000600187612d1391906151ab565b8152602001908152602001600020541415612d3c57600184612d3591906151ab565b9250612d5f565b600e6000600186612d4d91906151ab565b81526020019081526020016000205492505b6000600e6000838152602001908152602001600020541415612d9b5780915082600e600083815260200190815260200160002081905550612dca565b600e600082815260200190815260200160002054915082600e6000838152602001908152602001600020819055505b600d6000815480929190612ddd90615348565b91905055508194505050505090565b612e06828260405180602001604052806000815250613324565b5050565b60008282604051602001612e1f929190614a83565b6040516020818303038152906040528051906020012090506000600b600083815260200190815260200160002060000160086101000a81548160ff021916908315150217905550505050565b60008383604051602001612e80929190614a83565b6040516020818303038152906040528051906020012090506001600b600083815260200190815260200160002060000160086101000a81548160ff02191690831515021790555081600b600083815260200190815260200160002060000160046101000a81548163ffffffff021916908363ffffffff16021790555050505050565b8173ffffffffffffffffffffffffffffffffffffffff168373ffffffffffffffffffffffffffffffffffffffff161415612f71576040517f08c379a0000000000000000000000000000000000000000000000000000000008152600401612f6890614cc0565b60405180910390fd5b80600560008573ffffffffffffffffffffffffffffffffffffffff1673ffffffffffffffffffffffffffffffffffffffff16815260200190815260200160002060008473ffffffffffffffffffffffffffffffffffffffff1673ffffffffffffffffffffffffffffffffffffffff16815260200190815260200160002060006101000a81548160ff0219169083151502179055508173ffffffffffffffffffffffffffffffffffffffff168373ffffffffffffffffffffffffffffffffffffffff167f17307eab39ab6107e8899845ad3d59bd9653f200f220920489ca2b5937696c31836040516130629190614b83565b60405180910390a3505050565b61307a848484612a4c565b6130868484848461337f565b6130c5576040517f08c379a00000000000000000000000000000000000000000000000000000000081526004016130bc90614c20565b60405180910390fd5b50505050565b60606130d6826127cd565b613115576040517f08c379a000000000000000000000000000000000000000000000000000000000815260040161310c90614e60565b60405180910390fd5b6000600a60008481526020019081526020016000208054613135906152e5565b80601f0160208091040260200160405190810160405280929190818152602001828054613161906152e5565b80156131ae5780601f10613183576101008083540402835291602001916131ae565b820191906000526020600020905b81548152906001019060200180831161319157829003601f168201915b5050505050905060006131bf613516565b90506000825114156131d55780925050506131db565b81925050505b919050565b80600c90805190602001906131f6929190613d01565b5050565b60007f80ac58cd000000000000000000000000000000000000000000000000000000007bffffffffffffffffffffffffffffffffffffffffffffffffffffffff1916827bffffffffffffffffffffffffffffffffffffffffffffffffffffffff191614806132c557507f5b5e139f000000000000000000000000000000000000000000000000000000007bffffffffffffffffffffffffffffffffffffffffffffffffffffffff1916827bffffffffffffffffffffffffffffffffffffffffffffffffffffffff1916145b806132d557506132d4826135a8565b5b9050919050565b6132e7838383613612565b505050565b505050565b60004442604051602001613306929190614a9c565b6040516020818303038152906040528051906020012060001c905090565b61332e8383613726565b61333b600084848461337f565b61337a576040517f08c379a000000000000000000000000000000000000000000000000000000000815260040161337190614c20565b60405180910390fd5b505050565b60006133a08473ffffffffffffffffffffffffffffffffffffffff16613900565b15613509578373ffffffffffffffffffffffffffffffffffffffff1663150b7a026133c9612839565b8786866040518563ffffffff1660e01b81526004016133eb9493929190614ae3565b602060405180830381600087803b15801561340557600080fd5b505af192505050801561343657506040513d601f19601f82011682018060405250810190613433919061433b565b60015b6134b9573d8060008114613466576040519150601f19603f3d011682016040523d82523d6000602084013e61346b565b606091505b506000815114156134b1576040517f08c379a00000000000000000000000000000000000000000000000000000000081526004016134a890614c20565b60405180910390fd5b805181602001fd5b63150b7a0260e01b7bffffffffffffffffffffffffffffffffffffffffffffffffffffffff1916817bffffffffffffffffffffffffffffffffffffffffffffffffffffffff19161491505061350e565b600190505b949350505050565b606060118054613525906152e5565b80601f0160208091040260200160405190810160405280929190818152602001828054613551906152e5565b801561359e5780601f106135735761010080835404028352916020019161359e565b820191906000526020600020905b81548152906001019060200180831161358157829003601f168201915b5050505050905090565b60007f01ffc9a7000000000000000000000000000000000000000000000000000000007bffffffffffffffffffffffffffffffffffffffffffffffffffffffff1916827bffffffffffffffffffffffffffffffffffffffffffffffffffffffff1916149050919050565b61361d838383613923565b600073ffffffffffffffffffffffffffffffffffffffff168373ffffffffffffffffffffffffffffffffffffffff1614156136605761365b81613928565b61369f565b8173ffffffffffffffffffffffffffffffffffffffff168373ffffffffffffffffffffffffffffffffffffffff161461369e5761369d8382613971565b5b5b600073ffffffffffffffffffffffffffffffffffffffff168273ffffffffffffffffffffffffffffffffffffffff1614156136e2576136dd81613ade565b613721565b8273ffffffffffffffffffffffffffffffffffffffff168273ffffffffffffffffffffffffffffffffffffffff16146137205761371f8282613baf565b5b5b505050565b600073ffffffffffffffffffffffffffffffffffffffff168273ffffffffffffffffffffffffffffffffffffffff161415613796576040517f08c379a000000000000000000000000000000000000000000000000000000000815260040161378d90614e00565b60405180910390fd5b61379f816127cd565b156137df576040517f08c379a00000000000000000000000000000000000000000000000000000000081526004016137d690614c80565b60405180910390fd5b6137eb600083836132dc565b6001600360008473ffffffffffffffffffffffffffffffffffffffff1673ffffffffffffffffffffffffffffffffffffffff168152602001908152602001600020600082825461383b91906150c1565b92505081905550816002600083815260200190815260200160002060006101000a81548173ffffffffffffffffffffffffffffffffffffffff021916908373ffffffffffffffffffffffffffffffffffffffff160217905550808273ffffffffffffffffffffffffffffffffffffffff16600073ffffffffffffffffffffffffffffffffffffffff167fddf252ad1be2c89b69c2b068fc378daa952ba7f163c4a11628f55a4df523b3ef60405160405180910390a46138fc600083836132ec565b5050565b6000808273ffffffffffffffffffffffffffffffffffffffff163b119050919050565b505050565b6008805490506009600083815260200190815260200160002081905550600881908060018154018082558091505060019003906000526020600020016000909190919091505550565b6000600161397e84611814565b61398891906151ab565b9050600060076000848152602001908152602001600020549050818114613a6d576000600660008673ffffffffffffffffffffffffffffffffffffffff1673ffffffffffffffffffffffffffffffffffffffff168152602001908152602001600020600084815260200190815260200160002054905080600660008773ffffffffffffffffffffffffffffffffffffffff1673ffffffffffffffffffffffffffffffffffffffff168152602001908152602001600020600084815260200190815260200160002081905550816007600083815260200190815260200160002081905550505b6007600084815260200190815260200160002060009055600660008573ffffffffffffffffffffffffffffffffffffffff1673ffffffffffffffffffffffffffffffffffffffff16815260200190815260200160002060008381526020019081526020016000206000905550505050565b60006001600880549050613af291906151ab565b9050600060096000848152602001908152602001600020549050600060088381548110613b2257613b21615488565b5b906000526020600020015490508060088381548110613b4457613b43615488565b5b906000526020600020018190555081600960008381526020019081526020016000208190555060096000858152602001908152602001600020600090556008805480613b9357613b92615459565b5b6001900381819060005260206000200160009055905550505050565b6000613bba83611814565b905081600660008573ffffffffffffffffffffffffffffffffffffffff1673ffffffffffffffffffffffffffffffffffffffff168152602001908152602001600020600083815260200190815260200160002081905550806007600084815260200190815260200160002081905550505050565b828054828255906000526020600020908101928215613c6a579160200282015b82811115613c69578235825591602001919060010190613c4e565b5b509050613c779190613d4e565b5090565b828054613c87906152e5565b90600052602060002090601f016020900481019282613ca95760008555613cf0565b82601f10613cc257805160ff1916838001178555613cf0565b82800160010185558215613cf0579182015b82811115613cef578251825591602001919060010190613cd4565b5b509050613cfd9190613d4e565b5090565b828054828255906000526020600020908101928215613d3d579160200282015b82811115613d3c578251825591602001919060010190613d21565b5b509050613d4a9190613d4e565b5090565b5b80821115613d67576000816000905550600101613d4f565b5090565b6000613d7e613d7984614fb7565b614f92565b90508083825260208201905082856020860282011115613da157613da06154f0565b5b60005b85811015613dd15781613db78882613ffe565b845260208401935060208301925050600181019050613da4565b5050509392505050565b6000613dee613de984614fe3565b614f92565b905082815260208101848484011115613e0a57613e096154f5565b5b613e158482856152a3565b509392505050565b6000613e30613e2b84615014565b614f92565b905082815260208101848484011115613e4c57613e4b6154f5565b5b613e578482856152a3565b509392505050565b600081359050613e6e81615c42565b92915050565b60008083601f840112613e8a57613e896154eb565b5b8235905067ffffffffffffffff811115613ea757613ea66154e6565b5b602083019150836020820283011115613ec357613ec26154f0565b5b9250929050565b600082601f830112613edf57613ede6154eb565b5b8135613eef848260208601613d6b565b91505092915050565b600081359050613f0781615c59565b92915050565b600081359050613f1c81615c70565b92915050565b600081359050613f3181615c87565b92915050565b600081519050613f4681615c87565b92915050565b600082601f830112613f6157613f606154eb565b5b8135613f71848260208601613ddb565b91505092915050565b60008083601f840112613f9057613f8f6154eb565b5b8235905067ffffffffffffffff811115613fad57613fac6154e6565b5b602083019150836001820283011115613fc957613fc86154f0565b5b9250929050565b600082601f830112613fe557613fe46154eb565b5b8135613ff5848260208601613e1d565b91505092915050565b60008135905061400d81615c9e565b92915050565b60008135905061402281615cb5565b92915050565b60006020828403121561403e5761403d615504565b5b600061404c84828501613e5f565b91505092915050565b6000806040838503121561406c5761406b615504565b5b600061407a85828601613e5f565b925050602061408b85828601613e5f565b9150509250929050565b6000806000606084860312156140ae576140ad615504565b5b60006140bc86828701613e5f565b93505060206140cd86828701613e5f565b92505060406140de86828701613ffe565b9150509250925092565b6000806000806080858703121561410257614101615504565b5b600061411087828801613e5f565b945050602061412187828801613e5f565b935050604061413287828801613ffe565b925050606085013567ffffffffffffffff811115614153576141526154fa565b5b61415f87828801613f4c565b91505092959194509250565b6000806040838503121561418257614181615504565b5b600061419085828601613e5f565b92505060206141a185828601613ef8565b9150509250929050565b600080604083850312156141c2576141c1615504565b5b60006141d085828601613e5f565b92505060206141e185828601613ffe565b9150509250929050565b6000806020838503121561420257614201615504565b5b600083013567ffffffffffffffff8111156142205761421f6154fa565b5b61422c85828601613e74565b92509250509250929050565b60008060006040848603121561425157614250615504565b5b600084013567ffffffffffffffff81111561426f5761426e6154fa565b5b61427b86828701613e74565b9350935050602061428e86828701614013565b9150509250925092565b6000602082840312156142ae576142ad615504565b5b600082013567ffffffffffffffff8111156142cc576142cb6154fa565b5b6142d884828501613eca565b91505092915050565b6000602082840312156142f7576142f6615504565b5b600061430584828501613f0d565b91505092915050565b60006020828403121561432457614323615504565b5b600061433284828501613f22565b91505092915050565b60006020828403121561435157614350615504565b5b600061435f84828501613f37565b91505092915050565b60006020828403121561437e5761437d615504565b5b600082013567ffffffffffffffff81111561439c5761439b6154fa565b5b6143a884828501613fd0565b91505092915050565b6000602082840312156143c7576143c6615504565b5b60006143d584828501613ffe565b91505092915050565b6000806000604084860312156143f7576143f6615504565b5b600061440586828701613ffe565b935050602084013567ffffffffffffffff811115614426576144256154fa565b5b61443286828701613e74565b92509250509250925092565b60008060006040848603121561445757614456615504565b5b600061446586828701613ffe565b935050602084013567ffffffffffffffff811115614486576144856154fa565b5b61449286828701613f7a565b92509250509250925092565b60006144aa8383614a3f565b60208301905092915050565b6144bf8161526d565b82525050565b6144ce816151df565b82525050565b60006144e08385615083565b93507f07ffffffffffffffffffffffffffffffffffffffffffffffffffffffffffffff831115614513576145126154ff565b5b6020830292506145248385846152a3565b82840190509392505050565b600061453c8385615094565b93507f07ffffffffffffffffffffffffffffffffffffffffffffffffffffffffffffff83111561456f5761456e6154ff565b5b6020830292506145808385846152a3565b82840190509392505050565b600061459782615055565b6145a18185615083565b93506145ac83615045565b8060005b838110156145dd5781516145c4888261449e565b97506145cf83615076565b9250506001810190506145b0565b5085935050505092915050565b6145f3816151f1565b82525050565b600061460482615060565b61460e818561509f565b935061461e8185602086016152b2565b61462781615509565b840191505092915050565b600061463d8261506b565b61464781856150b0565b93506146578185602086016152b2565b61466081615509565b840191505092915050565b60006146786039836150b0565b91506146838261551a565b604082019050919050565b600061469b6031836150b0565b91506146a682615569565b604082019050919050565b60006146be602b836150b0565b91506146c9826155b8565b604082019050919050565b60006146e16032836150b0565b91506146ec82615607565b604082019050919050565b60006147046026836150b0565b915061470f82615656565b604082019050919050565b60006147276025836150b0565b9150614732826156a5565b604082019050919050565b600061474a601c836150b0565b9150614755826156f4565b602082019050919050565b600061476d6024836150b0565b91506147788261571d565b604082019050919050565b60006147906019836150b0565b915061479b8261576c565b602082019050919050565b60006147b36024836150b0565b91506147be82615795565b604082019050919050565b60006147d66011836150b0565b91506147e1826157e4565b602082019050919050565b60006147f9602c836150b0565b91506148048261580d565b604082019050919050565b600061481c6012836150b0565b91506148278261585c565b602082019050919050565b600061483f6038836150b0565b915061484a82615885565b604082019050919050565b6000614862602a836150b0565b915061486d826158d4565b604082019050919050565b60006148856012836150b0565b915061489082615923565b602082019050919050565b60006148a86029836150b0565b91506148b38261594c565b604082019050919050565b60006148cb602e836150b0565b91506148d68261599b565b604082019050919050565b60006148ee6020836150b0565b91506148f9826159ea565b602082019050919050565b60006149116020836150b0565b915061491c82615a13565b602082019050919050565b60006149346017836150b0565b915061493f82615a3c565b602082019050919050565b60006149576031836150b0565b915061496282615a65565b604082019050919050565b600061497a602c836150b0565b915061498582615ab4565b604082019050919050565b600061499d6020836150b0565b91506149a882615b03565b602082019050919050565b60006149c06013836150b0565b91506149cb82615b2c565b602082019050919050565b60006149e36021836150b0565b91506149ee82615b55565b604082019050919050565b6000614a066031836150b0565b9150614a1182615ba4565b604082019050919050565b6000614a29602c836150b0565b9150614a3482615bf3565b604082019050919050565b614a4881615253565b82525050565b614a5781615253565b82525050565b614a6e614a6982615253565b615391565b82525050565b614a7d8161525d565b82525050565b6000614a90828486614530565b91508190509392505050565b6000614aa88285614a5d565b602082019150614ab88284614a5d565b6020820191508190509392505050565b6000602082019050614add60008301846144c5565b92915050565b6000608082019050614af860008301876144b6565b614b0560208301866144c5565b614b126040830185614a4e565b8181036060830152614b2481846145f9565b905095945050505050565b60006040820190508181036000830152614b4a8185876144d4565b9050614b596020830184614a4e565b949350505050565b60006020820190508181036000830152614b7b818461458c565b905092915050565b6000602082019050614b9860008301846145ea565b92915050565b60006020820190508181036000830152614bb88184614632565b905092915050565b60006020820190508181036000830152614bd98161466b565b9050919050565b60006020820190508181036000830152614bf98161468e565b9050919050565b60006020820190508181036000830152614c19816146b1565b9050919050565b60006020820190508181036000830152614c39816146d4565b9050919050565b60006020820190508181036000830152614c59816146f7565b9050919050565b60006020820190508181036000830152614c798161471a565b9050919050565b60006020820190508181036000830152614c998161473d565b9050919050565b60006020820190508181036000830152614cb981614760565b9050919050565b60006020820190508181036000830152614cd981614783565b9050919050565b60006020820190508181036000830152614cf9816147a6565b9050919050565b60006020820190508181036000830152614d19816147c9565b9050919050565b60006020820190508181036000830152614d39816147ec565b9050919050565b60006020820190508181036000830152614d598161480f565b9050919050565b60006020820190508181036000830152614d7981614832565b9050919050565b60006020820190508181036000830152614d9981614855565b9050919050565b60006020820190508181036000830152614db981614878565b9050919050565b60006020820190508181036000830152614dd98161489b565b9050919050565b60006020820190508181036000830152614df9816148be565b9050919050565b60006020820190508181036000830152614e19816148e1565b9050919050565b60006020820190508181036000830152614e3981614904565b9050919050565b60006020820190508181036000830152614e5981614927565b9050919050565b60006020820190508181036000830152614e798161494a565b9050919050565b60006020820190508181036000830152614e998161496d565b9050919050565b60006020820190508181036000830152614eb981614990565b9050919050565b60006020820190508181036000830152614ed9816149b3565b9050919050565b60006020820190508181036000830152614ef9816149d6565b9050919050565b60006020820190508181036000830152614f19816149f9565b9050919050565b60006020820190508181036000830152614f3981614a1c565b9050919050565b6000602082019050614f556000830184614a4e565b92915050565b6000606082019050614f706000830186614a74565b614f7d6020830185614a74565b614f8a60408301846145ea565b949350505050565b6000614f9c614fad565b9050614fa88282615317565b919050565b6000604051905090565b600067ffffffffffffffff821115614fd257614fd16154b7565b5b602082029050602081019050919050565b600067ffffffffffffffff821115614ffe57614ffd6154b7565b5b61500782615509565b9050602081019050919050565b600067ffffffffffffffff82111561502f5761502e6154b7565b5b61503882615509565b9050602081019050919050565b6000819050602082019050919050565b600081519050919050565b600081519050919050565b600081519050919050565b6000602082019050919050565b600082825260208201905092915050565b600081905092915050565b600082825260208201905092915050565b600082825260208201905092915050565b60006150cc82615253565b91506150d783615253565b9250827fffffffffffffffffffffffffffffffffffffffffffffffffffffffffffffffff0382111561510c5761510b6153cc565b5b828201905092915050565b60006151228261525d565b915061512d8361525d565b92508263ffffffff03821115615146576151456153cc565b5b828201905092915050565b600061515c82615253565b915061516783615253565b9250817fffffffffffffffffffffffffffffffffffffffffffffffffffffffffffffffff04831182151516156151a05761519f6153cc565b5b828202905092915050565b60006151b682615253565b91506151c183615253565b9250828210156151d4576151d36153cc565b5b828203905092915050565b60006151ea82615233565b9050919050565b60008115159050919050565b6000819050919050565b60007fffffffff0000000000000000000000000000000000000000000000000000000082169050919050565b600073ffffffffffffffffffffffffffffffffffffffff82169050919050565b6000819050919050565b600063ffffffff82169050919050565b60006152788261527f565b9050919050565b600061528a82615291565b9050919050565b600061529c82615233565b9050919050565b82818337600083830152505050565b60005b838110156152d05780820151818401526020810190506152b5565b838111156152df576000848401525b50505050565b600060028204905060018216806152fd57607f821691505b602082108114156153115761531061542a565b5b50919050565b61532082615509565b810181811067ffffffffffffffff8211171561533f5761533e6154b7565b5b80604052505050565b600061535382615253565b91507fffffffffffffffffffffffffffffffffffffffffffffffffffffffffffffffff821415615386576153856153cc565b5b600182019050919050565b6000819050919050565b60006153a682615253565b91506153b183615253565b9250826153c1576153c06153fb565b5b828206905092915050565b7f4e487b7100000000000000000000000000000000000000000000000000000000600052601160045260246000fd5b7f4e487b7100000000000000000000000000000000000000000000000000000000600052601260045260246000fd5b7f4e487b7100000000000000000000000000000000000000000000000000000000600052602260045260246000fd5b7f4e487b7100000000000000000000000000000000000000000000000000000000600052603160045260246000fd5b7f4e487b7100000000000000000000000000000000000000000000000000000000600052603260045260246000fd5b7f4e487b7100000000000000000000000000000000000000000000000000000000600052604160045260246000fd5b600080fd5b600080fd5b600080fd5b600080fd5b600080fd5b600080fd5b600080fd5b6000601f19601f8301169050919050565b7f6f6e6c792074686520617574686f72697a6564206275696c646572206f72206360008201527f6f6e7472616374206f776e6572206d6179207365742055524900000000000000602082015250565b7f74686520737570706c79206f66207468697320636f6d62696e6174696f6e206860008201527f6173206265656e20657868617573746564000000000000000000000000000000602082015250565b7f455243373231456e756d657261626c653a206f776e657220696e646578206f7560008201527f74206f6620626f756e6473000000000000000000000000000000000000000000602082015250565b7f4552433732313a207472616e7366657220746f206e6f6e20455243373231526560008201527f63656976657220696d706c656d656e7465720000000000000000000000000000602082015250565b7f4f776e61626c653a206e6577206f776e657220697320746865207a65726f206160008201527f6464726573730000000000000000000000000000000000000000000000000000602082015250565b7f4552433732313a207472616e736665722066726f6d20696e636f72726563742060008201527f6f776e6572000000000000000000000000000000000000000000000000000000602082015250565b7f4552433732313a20746f6b656e20616c7265616479206d696e74656400000000600082015250565b7f4552433732313a207472616e7366657220746f20746865207a65726f2061646460008201527f7265737300000000000000000000000000000000000000000000000000000000602082015250565b7f4552433732313a20617070726f766520746f2063616c6c657200000000000000600082015250565b7f496e636f727265637420616d6f756e74206f662074726169747320737065636960008201527f6669656400000000000000000000000000000000000000000000000000000000602082015250565b7f6d61785065725478206578636565646564000000000000000000000000000000600082015250565b7f4552433732313a206f70657261746f7220717565727920666f72206e6f6e657860008201527f697374656e7420746f6b656e0000000000000000000000000000000000000000602082015250565b7f45786365656473204d41585f537570706c790000000000000000000000000000600082015250565b7f4552433732313a20617070726f76652063616c6c6572206973206e6f74206f7760008201527f6e6572206e6f7220617070726f76656420666f7220616c6c0000000000000000602082015250565b7f4552433732313a2062616c616e636520717565727920666f7220746865207a6560008201527f726f206164647265737300000000000000000000000000000000000000000000602082015250565b7f4e6f7420656e6f75676820437265646974730000000000000000000000000000600082015250565b7f4552433732313a206f776e657220717565727920666f72206e6f6e657869737460008201527f656e7420746f6b656e0000000000000000000000000000000000000000000000602082015250565b7f45524337323155524953746f726167653a2055524920736574206f66206e6f6e60008201527f6578697374656e7420746f6b656e000000000000000000000000000000000000602082015250565b7f4552433732313a206d696e7420746f20746865207a65726f2061646472657373600082015250565b7f4d696e74696e67206973206e6f742063757272656e746c7920656e61626c6564600082015250565b7f6d696e747350657257616c6c6574206578636565646564000000000000000000600082015250565b7f45524337323155524953746f726167653a2055524920717565727920666f722060008201527f6e6f6e6578697374656e7420746f6b656e000000000000000000000000000000602082015250565b7f4552433732313a20617070726f76656420717565727920666f72206e6f6e657860008201527f697374656e7420746f6b656e0000000000000000000000000000000000000000602082015250565b7f4f776e61626c653a2063616c6c6572206973206e6f7420746865206f776e6572600082015250565b7f496e636f7272656374206d73672e76616c756500000000000000000000000000600082015250565b7f4552433732313a20617070726f76616c20746f2063757272656e74206f776e6560008201527f7200000000000000000000000000000000000000000000000000000000000000602082015250565b7f4552433732313a207472616e736665722063616c6c6572206973206e6f74206f60008201527f776e6572206e6f7220617070726f766564000000000000000000000000000000602082015250565b7f455243373231456e756d657261626c653a20676c6f62616c20696e646578206f60008201527f7574206f6620626f756e64730000000000000000000000000000000000000000602082015250565b615c4b816151df565b8114615c5657600080fd5b50565b615c62816151f1565b8114615c6d57600080fd5b50565b615c79816151fd565b8114615c8457600080fd5b50565b615c9081615207565b8114615c9b57600080fd5b50565b615ca781615253565b8114615cb257600080fd5b50565b615cbe8161525d565b8114615cc957600080fd5b5056fea2646970667358221220d29c61ad8dad0f90dc1903b8a5a5a5b9bac35af3a0c4f9e0f18ecdf74eccb6ef64736f6c63430008070033",
			"opcodes": "PUSH2 0x120 PUSH1 0x40 MSTORE PUSH1 0x0 PUSH1 0xD SSTORE PUSH1 0x40 MLOAD DUP1 PUSH1 0x20 ADD PUSH1 0x40 MSTORE DUP1 PUSH1 0x0 DUP2 MSTORE POP PUSH1 0x11 SWAP1 DUP1 MLOAD SWAP1 PUSH1 0x20 ADD SWAP1 PUSH3 0x31 SWAP3 SWAP2 SWAP1 PUSH3 0x338 JUMP JUMPDEST POP PUSH1 0x0 PUSH1 0x13 PUSH1 0x0 PUSH2 0x100 EXP DUP2 SLOAD DUP2 PUSH1 0xFF MUL NOT AND SWAP1 DUP4 ISZERO ISZERO MUL OR SWAP1 SSTORE POP CALLVALUE DUP1 ISZERO PUSH3 0x5A JUMPI PUSH1 0x0 DUP1 REVERT JUMPDEST POP PUSH1 0x40 MLOAD PUSH3 0x6538 CODESIZE SUB DUP1 PUSH3 0x6538 DUP4 CODECOPY DUP2 DUP2 ADD PUSH1 0x40 MSTORE DUP2 ADD SWAP1 PUSH3 0x80 SWAP2 SWAP1 PUSH3 0x47D JUMP JUMPDEST DUP4 DUP9 DUP9 DUP2 PUSH1 0x0 SWAP1 DUP1 MLOAD SWAP1 PUSH1 0x20 ADD SWAP1 PUSH3 0x9B SWAP3 SWAP2 SWAP1 PUSH3 0x338 JUMP JUMPDEST POP DUP1 PUSH1 0x1 SWAP1 DUP1 MLOAD SWAP1 PUSH1 0x20 ADD SWAP1 PUSH3 0xB4 SWAP3 SWAP2 SWAP1 PUSH3 0x338 JUMP JUMPDEST POP POP POP DUP1 PUSH1 0x80 DUP2 DUP2 MSTORE POP POP POP PUSH1 0x0 PUSH3 0xD2 PUSH3 0x1C2 PUSH1 0x20 SHL PUSH1 0x20 SHR JUMP JUMPDEST SWAP1 POP DUP1 PUSH1 0xF PUSH1 0x0 PUSH2 0x100 EXP DUP2 SLOAD DUP2 PUSH20 0xFFFFFFFFFFFFFFFFFFFFFFFFFFFFFFFFFFFFFFFF MUL NOT AND SWAP1 DUP4 PUSH20 0xFFFFFFFFFFFFFFFFFFFFFFFFFFFFFFFFFFFFFFFF AND MUL OR SWAP1 SSTORE POP DUP1 PUSH20 0xFFFFFFFFFFFFFFFFFFFFFFFFFFFFFFFFFFFFFFFF AND PUSH1 0x0 PUSH20 0xFFFFFFFFFFFFFFFFFFFFFFFFFFFFFFFFFFFFFFFF AND PUSH32 0x8BE0079C531659141344CD1FD0A4F28419497F9722A3DAAFE3B4186F6B6457E0 PUSH1 0x40 MLOAD PUSH1 0x40 MLOAD DUP1 SWAP2 SUB SWAP1 LOG3 POP DUP4 PUSH1 0xC0 DUP2 DUP2 MSTORE POP POP DUP3 PUSH1 0xE0 DUP2 DUP2 MSTORE POP POP DUP1 PUSH2 0x100 DUP2 DUP2 MSTORE POP POP DUP2 PUSH1 0xA0 DUP2 DUP2 MSTORE POP POP PUSH3 0x1A3 DUP7 PUSH3 0x1CA PUSH1 0x20 SHL PUSH1 0x20 SHR JUMP JUMPDEST PUSH3 0x1B4 DUP6 PUSH3 0x275 PUSH1 0x20 SHL PUSH1 0x20 SHR JUMP JUMPDEST POP POP POP POP POP POP POP POP PUSH3 0x7CE JUMP JUMPDEST PUSH1 0x0 CALLER SWAP1 POP SWAP1 JUMP JUMPDEST PUSH3 0x1DA PUSH3 0x1C2 PUSH1 0x20 SHL PUSH1 0x20 SHR JUMP JUMPDEST PUSH20 0xFFFFFFFFFFFFFFFFFFFFFFFFFFFFFFFFFFFFFFFF AND PUSH3 0x200 PUSH3 0x30E PUSH1 0x20 SHL PUSH1 0x20 SHR JUMP JUMPDEST PUSH20 0xFFFFFFFFFFFFFFFFFFFFFFFFFFFFFFFFFFFFFFFF AND EQ PUSH3 0x259 JUMPI PUSH1 0x40 MLOAD PUSH32 0x8C379A000000000000000000000000000000000000000000000000000000000 DUP2 MSTORE PUSH1 0x4 ADD PUSH3 0x250 SWAP1 PUSH3 0x5CA JUMP JUMPDEST PUSH1 0x40 MLOAD DUP1 SWAP2 SUB SWAP1 REVERT JUMPDEST DUP1 PUSH1 0x11 SWAP1 DUP1 MLOAD SWAP1 PUSH1 0x20 ADD SWAP1 PUSH3 0x271 SWAP3 SWAP2 SWAP1 PUSH3 0x338 JUMP JUMPDEST POP POP JUMP JUMPDEST PUSH3 0x285 PUSH3 0x1C2 PUSH1 0x20 SHL PUSH1 0x20 SHR JUMP JUMPDEST PUSH20 0xFFFFFFFFFFFFFFFFFFFFFFFFFFFFFFFFFFFFFFFF AND PUSH3 0x2AB PUSH3 0x30E PUSH1 0x20 SHL PUSH1 0x20 SHR JUMP JUMPDEST PUSH20 0xFFFFFFFFFFFFFFFFFFFFFFFFFFFFFFFFFFFFFFFF AND EQ PUSH3 0x304 JUMPI PUSH1 0x40 MLOAD PUSH32 0x8C379A000000000000000000000000000000000000000000000000000000000 DUP2 MSTORE PUSH1 0x4 ADD PUSH3 0x2FB SWAP1 PUSH3 0x5CA JUMP JUMPDEST PUSH1 0x40 MLOAD DUP1 SWAP2 SUB SWAP1 REVERT JUMPDEST DUP1 PUSH1 0x12 DUP2 SWAP1 SSTORE POP POP JUMP JUMPDEST PUSH1 0x0 PUSH1 0xF PUSH1 0x0 SWAP1 SLOAD SWAP1 PUSH2 0x100 EXP SWAP1 DIV PUSH20 0xFFFFFFFFFFFFFFFFFFFFFFFFFFFFFFFFFFFFFFFF AND SWAP1 POP SWAP1 JUMP JUMPDEST DUP3 DUP1 SLOAD PUSH3 0x346 SWAP1 PUSH3 0x69C JUMP JUMPDEST SWAP1 PUSH1 0x0 MSTORE PUSH1 0x20 PUSH1 0x0 KECCAK256 SWAP1 PUSH1 0x1F ADD PUSH1 0x20 SWAP1 DIV DUP2 ADD SWAP3 DUP3 PUSH3 0x36A JUMPI PUSH1 0x0 DUP6 SSTORE PUSH3 0x3B6 JUMP JUMPDEST DUP3 PUSH1 0x1F LT PUSH3 0x385 JUMPI DUP1 MLOAD PUSH1 0xFF NOT AND DUP4 DUP1 ADD OR DUP6 SSTORE PUSH3 0x3B6 JUMP JUMPDEST DUP3 DUP1 ADD PUSH1 0x1 ADD DUP6 SSTORE DUP3 ISZERO PUSH3 0x3B6 JUMPI SWAP2 DUP3 ADD JUMPDEST DUP3 DUP2 GT ISZERO PUSH3 0x3B5 JUMPI DUP3 MLOAD DUP3 SSTORE SWAP2 PUSH1 0x20 ADD SWAP2 SWAP1 PUSH1 0x1 ADD SWAP1 PUSH3 0x398 JUMP JUMPDEST JUMPDEST POP SWAP1 POP PUSH3 0x3C5 SWAP2 SWAP1 PUSH3 0x3C9 JUMP JUMPDEST POP SWAP1 JUMP JUMPDEST JUMPDEST DUP1 DUP3 GT ISZERO PUSH3 0x3E4 JUMPI PUSH1 0x0 DUP2 PUSH1 0x0 SWAP1 SSTORE POP PUSH1 0x1 ADD PUSH3 0x3CA JUMP JUMPDEST POP SWAP1 JUMP JUMPDEST PUSH1 0x0 PUSH3 0x3FF PUSH3 0x3F9 DUP5 PUSH3 0x615 JUMP JUMPDEST PUSH3 0x5EC JUMP JUMPDEST SWAP1 POP DUP3 DUP2 MSTORE PUSH1 0x20 DUP2 ADD DUP5 DUP5 DUP5 ADD GT ISZERO PUSH3 0x41E JUMPI PUSH3 0x41D PUSH3 0x76B JUMP JUMPDEST JUMPDEST PUSH3 0x42B DUP5 DUP3 DUP6 PUSH3 0x666 JUMP JUMPDEST POP SWAP4 SWAP3 POP POP POP JUMP JUMPDEST PUSH1 0x0 DUP3 PUSH1 0x1F DUP4 ADD SLT PUSH3 0x44B JUMPI PUSH3 0x44A PUSH3 0x766 JUMP JUMPDEST JUMPDEST DUP2 MLOAD PUSH3 0x45D DUP5 DUP3 PUSH1 0x20 DUP7 ADD PUSH3 0x3E8 JUMP JUMPDEST SWAP2 POP POP SWAP3 SWAP2 POP POP JUMP JUMPDEST PUSH1 0x0 DUP2 MLOAD SWAP1 POP PUSH3 0x477 DUP2 PUSH3 0x7B4 JUMP JUMPDEST SWAP3 SWAP2 POP POP JUMP JUMPDEST PUSH1 0x0 DUP1 PUSH1 0x0 DUP1 PUSH1 0x0 DUP1 PUSH1 0x0 DUP1 PUSH2 0x100 DUP10 DUP12 SUB SLT ISZERO PUSH3 0x4A1 JUMPI PUSH3 0x4A0 PUSH3 0x775 JUMP JUMPDEST JUMPDEST PUSH1 0x0 DUP10 ADD MLOAD PUSH8 0xFFFFFFFFFFFFFFFF DUP2 GT ISZERO PUSH3 0x4C2 JUMPI PUSH3 0x4C1 PUSH3 0x770 JUMP JUMPDEST JUMPDEST PUSH3 0x4D0 DUP12 DUP3 DUP13 ADD PUSH3 0x433 JUMP JUMPDEST SWAP9 POP POP PUSH1 0x20 DUP10 ADD MLOAD PUSH8 0xFFFFFFFFFFFFFFFF DUP2 GT ISZERO PUSH3 0x4F4 JUMPI PUSH3 0x4F3 PUSH3 0x770 JUMP JUMPDEST JUMPDEST PUSH3 0x502 DUP12 DUP3 DUP13 ADD PUSH3 0x433 JUMP JUMPDEST SWAP8 POP POP PUSH1 0x40 DUP10 ADD MLOAD PUSH8 0xFFFFFFFFFFFFFFFF DUP2 GT ISZERO PUSH3 0x526 JUMPI PUSH3 0x525 PUSH3 0x770 JUMP JUMPDEST JUMPDEST PUSH3 0x534 DUP12 DUP3 DUP13 ADD PUSH3 0x433 JUMP JUMPDEST SWAP7 POP POP PUSH1 0x60 PUSH3 0x547 DUP12 DUP3 DUP13 ADD PUSH3 0x466 JUMP JUMPDEST SWAP6 POP POP PUSH1 0x80 PUSH3 0x55A DUP12 DUP3 DUP13 ADD PUSH3 0x466 JUMP JUMPDEST SWAP5 POP POP PUSH1 0xA0 PUSH3 0x56D DUP12 DUP3 DUP13 ADD PUSH3 0x466 JUMP JUMPDEST SWAP4 POP POP PUSH1 0xC0 PUSH3 0x580 DUP12 DUP3 DUP13 ADD PUSH3 0x466 JUMP JUMPDEST SWAP3 POP POP PUSH1 0xE0 PUSH3 0x593 DUP12 DUP3 DUP13 ADD PUSH3 0x466 JUMP JUMPDEST SWAP2 POP POP SWAP3 SWAP6 SWAP9 POP SWAP3 SWAP6 SWAP9 SWAP1 SWAP4 SWAP7 POP JUMP JUMPDEST PUSH1 0x0 PUSH3 0x5B2 PUSH1 0x20 DUP4 PUSH3 0x64B JUMP JUMPDEST SWAP2 POP PUSH3 0x5BF DUP3 PUSH3 0x78B JUMP JUMPDEST PUSH1 0x20 DUP3 ADD SWAP1 POP SWAP2 SWAP1 POP JUMP JUMPDEST PUSH1 0x0 PUSH1 0x20 DUP3 ADD SWAP1 POP DUP2 DUP2 SUB PUSH1 0x0 DUP4 ADD MSTORE PUSH3 0x5E5 DUP2 PUSH3 0x5A3 JUMP JUMPDEST SWAP1 POP SWAP2 SWAP1 POP JUMP JUMPDEST PUSH1 0x0 PUSH3 0x5F8 PUSH3 0x60B JUMP JUMPDEST SWAP1 POP PUSH3 0x606 DUP3 DUP3 PUSH3 0x6D2 JUMP JUMPDEST SWAP2 SWAP1 POP JUMP JUMPDEST PUSH1 0x0 PUSH1 0x40 MLOAD SWAP1 POP SWAP1 JUMP JUMPDEST PUSH1 0x0 PUSH8 0xFFFFFFFFFFFFFFFF DUP3 GT ISZERO PUSH3 0x633 JUMPI PUSH3 0x632 PUSH3 0x737 JUMP JUMPDEST JUMPDEST PUSH3 0x63E DUP3 PUSH3 0x77A JUMP JUMPDEST SWAP1 POP PUSH1 0x20 DUP2 ADD SWAP1 POP SWAP2 SWAP1 POP JUMP JUMPDEST PUSH1 0x0 DUP3 DUP3 MSTORE PUSH1 0x20 DUP3 ADD SWAP1 POP SWAP3 SWAP2 POP POP JUMP JUMPDEST PUSH1 0x0 DUP2 SWAP1 POP SWAP2 SWAP1 POP JUMP JUMPDEST PUSH1 0x0 JUMPDEST DUP4 DUP2 LT ISZERO PUSH3 0x686 JUMPI DUP1 DUP3 ADD MLOAD DUP2 DUP5 ADD MSTORE PUSH1 0x20 DUP2 ADD SWAP1 POP PUSH3 0x669 JUMP JUMPDEST DUP4 DUP2 GT ISZERO PUSH3 0x696 JUMPI PUSH1 0x0 DUP5 DUP5 ADD MSTORE JUMPDEST POP POP POP POP JUMP JUMPDEST PUSH1 0x0 PUSH1 0x2 DUP3 DIV SWAP1 POP PUSH1 0x1 DUP3 AND DUP1 PUSH3 0x6B5 JUMPI PUSH1 0x7F DUP3 AND SWAP2 POP JUMPDEST PUSH1 0x20 DUP3 LT DUP2 EQ ISZERO PUSH3 0x6CC JUMPI PUSH3 0x6CB PUSH3 0x708 JUMP JUMPDEST JUMPDEST POP SWAP2 SWAP1 POP JUMP JUMPDEST PUSH3 0x6DD DUP3 PUSH3 0x77A JUMP JUMPDEST DUP2 ADD DUP2 DUP2 LT PUSH8 0xFFFFFFFFFFFFFFFF DUP3 GT OR ISZERO PUSH3 0x6FF JUMPI PUSH3 0x6FE PUSH3 0x737 JUMP JUMPDEST JUMPDEST DUP1 PUSH1 0x40 MSTORE POP POP POP JUMP JUMPDEST PUSH32 0x4E487B7100000000000000000000000000000000000000000000000000000000 PUSH1 0x0 MSTORE PUSH1 0x22 PUSH1 0x4 MSTORE PUSH1 0x24 PUSH1 0x0 REVERT JUMPDEST PUSH32 0x4E487B7100000000000000000000000000000000000000000000000000000000 PUSH1 0x0 MSTORE PUSH1 0x41 PUSH1 0x4 MSTORE PUSH1 0x24 PUSH1 0x0 REVERT JUMPDEST PUSH1 0x0 DUP1 REVERT JUMPDEST PUSH1 0x0 DUP1 REVERT JUMPDEST PUSH1 0x0 DUP1 REVERT JUMPDEST PUSH1 0x0 DUP1 REVERT JUMPDEST PUSH1 0x0 PUSH1 0x1F NOT PUSH1 0x1F DUP4 ADD AND SWAP1 POP SWAP2 SWAP1 POP JUMP JUMPDEST PUSH32 0x4F776E61626C653A2063616C6C6572206973206E6F7420746865206F776E6572 PUSH1 0x0 DUP3 ADD MSTORE POP JUMP JUMPDEST PUSH3 0x7BF DUP2 PUSH3 0x65C JUMP JUMPDEST DUP2 EQ PUSH3 0x7CB JUMPI PUSH1 0x0 DUP1 REVERT JUMPDEST POP JUMP JUMPDEST PUSH1 0x80 MLOAD PUSH1 0xA0 MLOAD PUSH1 0xC0 MLOAD PUSH1 0xE0 MLOAD PUSH2 0x100 MLOAD PUSH2 0x5D02 PUSH3 0x836 PUSH1 0x0 CODECOPY PUSH1 0x0 DUP2 DUP2 PUSH2 0xFC2 ADD MSTORE PUSH2 0x14ED ADD MSTORE PUSH1 0x0 DUP2 DUP2 PUSH2 0x1063 ADD MSTORE PUSH2 0x2731 ADD MSTORE PUSH1 0x0 DUP2 DUP2 PUSH2 0xC4A ADD MSTORE DUP2 DUP2 PUSH2 0xF4D ADD MSTORE PUSH2 0x1D06 ADD MSTORE PUSH1 0x0 DUP2 DUP2 PUSH2 0x1115 ADD MSTORE PUSH2 0x1DF2 ADD MSTORE PUSH1 0x0 PUSH2 0x2CBB ADD MSTORE PUSH2 0x5D02 PUSH1 0x0 RETURN INVALID PUSH1 0x80 PUSH1 0x40 MSTORE PUSH1 0x4 CALLDATASIZE LT PUSH2 0x25C JUMPI PUSH1 0x0 CALLDATALOAD PUSH1 0xE0 SHR DUP1 PUSH4 0x70A08231 GT PUSH2 0x144 JUMPI DUP1 PUSH4 0xB66A0E5D GT PUSH2 0xB6 JUMPI DUP1 PUSH4 0xDA1B9E08 GT PUSH2 0x7A JUMPI DUP1 PUSH4 0xDA1B9E08 EQ PUSH2 0x8D1 JUMPI DUP1 PUSH4 0xE2084DB0 EQ PUSH2 0x8FA JUMPI DUP1 PUSH4 0xE985E9C5 EQ PUSH2 0x939 JUMPI DUP1 PUSH4 0xED64892B EQ PUSH2 0x976 JUMPI DUP1 PUSH4 0xF2FDE38B EQ PUSH2 0x9B3 JUMPI DUP1 PUSH4 0xF968ADBE EQ PUSH2 0x9DC JUMPI PUSH2 0x25C JUMP JUMPDEST DUP1 PUSH4 0xB66A0E5D EQ PUSH2 0x802 JUMPI DUP1 PUSH4 0xB88D4FDE EQ PUSH2 0x819 JUMPI DUP1 PUSH4 0xC1E4DFDA EQ PUSH2 0x842 JUMPI DUP1 PUSH4 0xC87B56DD EQ PUSH2 0x86B JUMPI DUP1 PUSH4 0xD13CB5AF EQ PUSH2 0x8A8 JUMPI PUSH2 0x25C JUMP JUMPDEST DUP1 PUSH4 0x87EC11B3 GT PUSH2 0x108 JUMPI DUP1 PUSH4 0x87EC11B3 EQ PUSH2 0x706 JUMPI DUP1 PUSH4 0x8BDC8776 EQ PUSH2 0x72F JUMPI DUP1 PUSH4 0x8DA5CB5B EQ PUSH2 0x758 JUMPI DUP1 PUSH4 0x95D89B41 EQ PUSH2 0x783 JUMPI DUP1 PUSH4 0xA035B1FE EQ PUSH2 0x7AE JUMPI DUP1 PUSH4 0xA22CB465 EQ PUSH2 0x7D9 JUMPI PUSH2 0x25C JUMP JUMPDEST DUP1 PUSH4 0x70A08231 EQ PUSH2 0x635 JUMPI DUP1 PUSH4 0x715018A6 EQ PUSH2 0x672 JUMPI DUP1 PUSH4 0x7D27D66C EQ PUSH2 0x689 JUMPI DUP1 PUSH4 0x8462151C EQ PUSH2 0x6B2 JUMPI DUP1 PUSH4 0x853828B6 EQ PUSH2 0x6EF JUMPI PUSH2 0x25C JUMP JUMPDEST DUP1 PUSH4 0x2AC1E552 GT PUSH2 0x1DD JUMPI DUP1 PUSH4 0x42842E0E GT PUSH2 0x1A1 JUMPI DUP1 PUSH4 0x42842E0E EQ PUSH2 0x529 JUMPI DUP1 PUSH4 0x4C1A8642 EQ PUSH2 0x552 JUMPI DUP1 PUSH4 0x4F6CCCE7 EQ PUSH2 0x57B JUMPI DUP1 PUSH4 0x55367BA9 EQ PUSH2 0x5B8 JUMPI DUP1 PUSH4 0x5A743C10 EQ PUSH2 0x5CF JUMPI DUP1 PUSH4 0x6352211E EQ PUSH2 0x5F8 JUMPI PUSH2 0x25C JUMP JUMPDEST DUP1 PUSH4 0x2AC1E552 EQ PUSH2 0x43F JUMPI DUP1 PUSH4 0x2D69044F EQ PUSH2 0x47C JUMPI DUP1 PUSH4 0x2F745C59 EQ PUSH2 0x498 JUMPI DUP1 PUSH4 0x384242BE EQ PUSH2 0x4D5 JUMPI DUP1 PUSH4 0x40221E20 EQ PUSH2 0x4FE JUMPI PUSH2 0x25C JUMP JUMPDEST DUP1 PUSH4 0x14A1FC35 GT PUSH2 0x224 JUMPI DUP1 PUSH4 0x14A1FC35 EQ PUSH2 0x35A JUMPI DUP1 PUSH4 0x162094C4 EQ PUSH2 0x397 JUMPI DUP1 PUSH4 0x18160DDD EQ PUSH2 0x3C0 JUMPI DUP1 PUSH4 0x1C8B232D EQ PUSH2 0x3EB JUMPI DUP1 PUSH4 0x23B872DD EQ PUSH2 0x416 JUMPI PUSH2 0x25C JUMP JUMPDEST DUP1 PUSH4 0x1FFC9A7 EQ PUSH2 0x261 JUMPI DUP1 PUSH4 0x6FDDE03 EQ PUSH2 0x29E JUMPI DUP1 PUSH4 0x81812FC EQ PUSH2 0x2C9 JUMPI DUP1 PUSH4 0x95EA7B3 EQ PUSH2 0x306 JUMPI DUP1 PUSH4 0xB191314 EQ PUSH2 0x32F JUMPI JUMPDEST PUSH1 0x0 DUP1 REVERT JUMPDEST CALLVALUE DUP1 ISZERO PUSH2 0x26D JUMPI PUSH1 0x0 DUP1 REVERT JUMPDEST POP PUSH2 0x288 PUSH1 0x4 DUP1 CALLDATASIZE SUB DUP2 ADD SWAP1 PUSH2 0x283 SWAP2 SWAP1 PUSH2 0x430E JUMP JUMPDEST PUSH2 0xA07 JUMP JUMPDEST PUSH1 0x40 MLOAD PUSH2 0x295 SWAP2 SWAP1 PUSH2 0x4B83 JUMP JUMPDEST PUSH1 0x40 MLOAD DUP1 SWAP2 SUB SWAP1 RETURN JUMPDEST CALLVALUE DUP1 ISZERO PUSH2 0x2AA JUMPI PUSH1 0x0 DUP1 REVERT JUMPDEST POP PUSH2 0x2B3 PUSH2 0xA19 JUMP JUMPDEST PUSH1 0x40 MLOAD PUSH2 0x2C0 SWAP2 SWAP1 PUSH2 0x4B9E JUMP JUMPDEST PUSH1 0x40 MLOAD DUP1 SWAP2 SUB SWAP1 RETURN JUMPDEST CALLVALUE DUP1 ISZERO PUSH2 0x2D5 JUMPI PUSH1 0x0 DUP1 REVERT JUMPDEST POP PUSH2 0x2F0 PUSH1 0x4 DUP1 CALLDATASIZE SUB DUP2 ADD SWAP1 PUSH2 0x2EB SWAP2 SWAP1 PUSH2 0x43B1 JUMP JUMPDEST PUSH2 0xAAB JUMP JUMPDEST PUSH1 0x40 MLOAD PUSH2 0x2FD SWAP2 SWAP1 PUSH2 0x4AC8 JUMP JUMPDEST PUSH1 0x40 MLOAD DUP1 SWAP2 SUB SWAP1 RETURN JUMPDEST CALLVALUE DUP1 ISZERO PUSH2 0x312 JUMPI PUSH1 0x0 DUP1 REVERT JUMPDEST POP PUSH2 0x32D PUSH1 0x4 DUP1 CALLDATASIZE SUB DUP2 ADD SWAP1 PUSH2 0x328 SWAP2 SWAP1 PUSH2 0x41AB JUMP JUMPDEST PUSH2 0xB30 JUMP JUMPDEST STOP JUMPDEST CALLVALUE DUP1 ISZERO PUSH2 0x33B JUMPI PUSH1 0x0 DUP1 REVERT JUMPDEST POP PUSH2 0x344 PUSH2 0xC48 JUMP JUMPDEST PUSH1 0x40 MLOAD PUSH2 0x351 SWAP2 SWAP1 PUSH2 0x4F40 JUMP JUMPDEST PUSH1 0x40 MLOAD DUP1 SWAP2 SUB SWAP1 RETURN JUMPDEST CALLVALUE DUP1 ISZERO PUSH2 0x366 JUMPI PUSH1 0x0 DUP1 REVERT JUMPDEST POP PUSH2 0x381 PUSH1 0x4 DUP1 CALLDATASIZE SUB DUP2 ADD SWAP1 PUSH2 0x37C SWAP2 SWAP1 PUSH2 0x4028 JUMP JUMPDEST PUSH2 0xC6C JUMP JUMPDEST PUSH1 0x40 MLOAD PUSH2 0x38E SWAP2 SWAP1 PUSH2 0x4F40 JUMP JUMPDEST PUSH1 0x40 MLOAD DUP1 SWAP2 SUB SWAP1 RETURN JUMPDEST CALLVALUE DUP1 ISZERO PUSH2 0x3A3 JUMPI PUSH1 0x0 DUP1 REVERT JUMPDEST POP PUSH2 0x3BE PUSH1 0x4 DUP1 CALLDATASIZE SUB DUP2 ADD SWAP1 PUSH2 0x3B9 SWAP2 SWAP1 PUSH2 0x443E JUMP JUMPDEST PUSH2 0xD24 JUMP JUMPDEST STOP JUMPDEST CALLVALUE DUP1 ISZERO PUSH2 0x3CC JUMPI PUSH1 0x0 DUP1 REVERT JUMPDEST POP PUSH2 0x3D5 PUSH2 0xE44 JUMP JUMPDEST PUSH1 0x40 MLOAD PUSH2 0x3E2 SWAP2 SWAP1 PUSH2 0x4F40 JUMP JUMPDEST PUSH1 0x40 MLOAD DUP1 SWAP2 SUB SWAP1 RETURN JUMPDEST CALLVALUE DUP1 ISZERO PUSH2 0x3F7 JUMPI PUSH1 0x0 DUP1 REVERT JUMPDEST POP PUSH2 0x400 PUSH2 0xE51 JUMP JUMPDEST PUSH1 0x40 MLOAD PUSH2 0x40D SWAP2 SWAP1 PUSH2 0x4B83 JUMP JUMPDEST PUSH1 0x40 MLOAD DUP1 SWAP2 SUB SWAP1 RETURN JUMPDEST CALLVALUE DUP1 ISZERO PUSH2 0x422 JUMPI PUSH1 0x0 DUP1 REVERT JUMPDEST POP PUSH2 0x43D PUSH1 0x4 DUP1 CALLDATASIZE SUB DUP2 ADD SWAP1 PUSH2 0x438 SWAP2 SWAP1 PUSH2 0x4095 JUMP JUMPDEST PUSH2 0xE64 JUMP JUMPDEST STOP JUMPDEST CALLVALUE DUP1 ISZERO PUSH2 0x44B JUMPI PUSH1 0x0 DUP1 REVERT JUMPDEST POP PUSH2 0x466 PUSH1 0x4 DUP1 CALLDATASIZE SUB DUP2 ADD SWAP1 PUSH2 0x461 SWAP2 SWAP1 PUSH2 0x43B1 JUMP JUMPDEST PUSH2 0xEC4 JUMP JUMPDEST PUSH1 0x40 MLOAD PUSH2 0x473 SWAP2 SWAP1 PUSH2 0x4F40 JUMP JUMPDEST PUSH1 0x40 MLOAD DUP1 SWAP2 SUB SWAP1 RETURN JUMPDEST PUSH2 0x496 PUSH1 0x4 DUP1 CALLDATASIZE SUB DUP2 ADD SWAP1 PUSH2 0x491 SWAP2 SWAP1 PUSH2 0x43DE JUMP JUMPDEST PUSH2 0xEE8 JUMP JUMPDEST STOP JUMPDEST CALLVALUE DUP1 ISZERO PUSH2 0x4A4 JUMPI PUSH1 0x0 DUP1 REVERT JUMPDEST POP PUSH2 0x4BF PUSH1 0x4 DUP1 CALLDATASIZE SUB DUP2 ADD SWAP1 PUSH2 0x4BA SWAP2 SWAP1 PUSH2 0x41AB JUMP JUMPDEST PUSH2 0x1386 JUMP JUMPDEST PUSH1 0x40 MLOAD PUSH2 0x4CC SWAP2 SWAP1 PUSH2 0x4F40 JUMP JUMPDEST PUSH1 0x40 MLOAD DUP1 SWAP2 SUB SWAP1 RETURN JUMPDEST CALLVALUE DUP1 ISZERO PUSH2 0x4E1 JUMPI PUSH1 0x0 DUP1 REVERT JUMPDEST POP PUSH2 0x4FC PUSH1 0x4 DUP1 CALLDATASIZE SUB DUP2 ADD SWAP1 PUSH2 0x4F7 SWAP2 SWAP1 PUSH2 0x4028 JUMP JUMPDEST PUSH2 0x142B JUMP JUMPDEST STOP JUMPDEST CALLVALUE DUP1 ISZERO PUSH2 0x50A JUMPI PUSH1 0x0 DUP1 REVERT JUMPDEST POP PUSH2 0x513 PUSH2 0x14EB JUMP JUMPDEST PUSH1 0x40 MLOAD PUSH2 0x520 SWAP2 SWAP1 PUSH2 0x4F40 JUMP JUMPDEST PUSH1 0x40 MLOAD DUP1 SWAP2 SUB SWAP1 RETURN JUMPDEST CALLVALUE DUP1 ISZERO PUSH2 0x535 JUMPI PUSH1 0x0 DUP1 REVERT JUMPDEST POP PUSH2 0x550 PUSH1 0x4 DUP1 CALLDATASIZE SUB DUP2 ADD SWAP1 PUSH2 0x54B SWAP2 SWAP1 PUSH2 0x4095 JUMP JUMPDEST PUSH2 0x150F JUMP JUMPDEST STOP JUMPDEST CALLVALUE DUP1 ISZERO PUSH2 0x55E JUMPI PUSH1 0x0 DUP1 REVERT JUMPDEST POP PUSH2 0x579 PUSH1 0x4 DUP1 CALLDATASIZE SUB DUP2 ADD SWAP1 PUSH2 0x574 SWAP2 SWAP1 PUSH2 0x43B1 JUMP JUMPDEST PUSH2 0x152F JUMP JUMPDEST STOP JUMPDEST CALLVALUE DUP1 ISZERO PUSH2 0x587 JUMPI PUSH1 0x0 DUP1 REVERT JUMPDEST POP PUSH2 0x5A2 PUSH1 0x4 DUP1 CALLDATASIZE SUB DUP2 ADD SWAP1 PUSH2 0x59D SWAP2 SWAP1 PUSH2 0x43B1 JUMP JUMPDEST PUSH2 0x15CE JUMP JUMPDEST PUSH1 0x40 MLOAD PUSH2 0x5AF SWAP2 SWAP1 PUSH2 0x4F40 JUMP JUMPDEST PUSH1 0x40 MLOAD DUP1 SWAP2 SUB SWAP1 RETURN JUMPDEST CALLVALUE DUP1 ISZERO PUSH2 0x5C4 JUMPI PUSH1 0x0 DUP1 REVERT JUMPDEST POP PUSH2 0x5CD PUSH2 0x163F JUMP JUMPDEST STOP JUMPDEST CALLVALUE DUP1 ISZERO PUSH2 0x5DB JUMPI PUSH1 0x0 DUP1 REVERT JUMPDEST POP PUSH2 0x5F6 PUSH1 0x4 DUP1 CALLDATASIZE SUB DUP2 ADD SWAP1 PUSH2 0x5F1 SWAP2 SWAP1 PUSH2 0x41EB JUMP JUMPDEST PUSH2 0x16D8 JUMP JUMPDEST STOP JUMPDEST CALLVALUE DUP1 ISZERO PUSH2 0x604 JUMPI PUSH1 0x0 DUP1 REVERT JUMPDEST POP PUSH2 0x61F PUSH1 0x4 DUP1 CALLDATASIZE SUB DUP2 ADD SWAP1 PUSH2 0x61A SWAP2 SWAP1 PUSH2 0x43B1 JUMP JUMPDEST PUSH2 0x1762 JUMP JUMPDEST PUSH1 0x40 MLOAD PUSH2 0x62C SWAP2 SWAP1 PUSH2 0x4AC8 JUMP JUMPDEST PUSH1 0x40 MLOAD DUP1 SWAP2 SUB SWAP1 RETURN JUMPDEST CALLVALUE DUP1 ISZERO PUSH2 0x641 JUMPI PUSH1 0x0 DUP1 REVERT JUMPDEST POP PUSH2 0x65C PUSH1 0x4 DUP1 CALLDATASIZE SUB DUP2 ADD SWAP1 PUSH2 0x657 SWAP2 SWAP1 PUSH2 0x4028 JUMP JUMPDEST PUSH2 0x1814 JUMP JUMPDEST PUSH1 0x40 MLOAD PUSH2 0x669 SWAP2 SWAP1 PUSH2 0x4F40 JUMP JUMPDEST PUSH1 0x40 MLOAD DUP1 SWAP2 SUB SWAP1 RETURN JUMPDEST CALLVALUE DUP1 ISZERO PUSH2 0x67E JUMPI PUSH1 0x0 DUP1 REVERT JUMPDEST POP PUSH2 0x687 PUSH2 0x18CC JUMP JUMPDEST STOP JUMPDEST CALLVALUE DUP1 ISZERO PUSH2 0x695 JUMPI PUSH1 0x0 DUP1 REVERT JUMPDEST POP PUSH2 0x6B0 PUSH1 0x4 DUP1 CALLDATASIZE SUB DUP2 ADD SWAP1 PUSH2 0x6AB SWAP2 SWAP1 PUSH2 0x41AB JUMP JUMPDEST PUSH2 0x1A09 JUMP JUMPDEST STOP JUMPDEST CALLVALUE DUP1 ISZERO PUSH2 0x6BE JUMPI PUSH1 0x0 DUP1 REVERT JUMPDEST POP PUSH2 0x6D9 PUSH1 0x4 DUP1 CALLDATASIZE SUB DUP2 ADD SWAP1 PUSH2 0x6D4 SWAP2 SWAP1 PUSH2 0x4028 JUMP JUMPDEST PUSH2 0x1ADF JUMP JUMPDEST PUSH1 0x40 MLOAD PUSH2 0x6E6 SWAP2 SWAP1 PUSH2 0x4B61 JUMP JUMPDEST PUSH1 0x40 MLOAD DUP1 SWAP2 SUB SWAP1 RETURN JUMPDEST CALLVALUE DUP1 ISZERO PUSH2 0x6FB JUMPI PUSH1 0x0 DUP1 REVERT JUMPDEST POP PUSH2 0x704 PUSH2 0x1BE9 JUMP JUMPDEST STOP JUMPDEST CALLVALUE DUP1 ISZERO PUSH2 0x712 JUMPI PUSH1 0x0 DUP1 REVERT JUMPDEST POP PUSH2 0x72D PUSH1 0x4 DUP1 CALLDATASIZE SUB DUP2 ADD SWAP1 PUSH2 0x728 SWAP2 SWAP1 PUSH2 0x41EB JUMP JUMPDEST PUSH2 0x1CAE JUMP JUMPDEST STOP JUMPDEST CALLVALUE DUP1 ISZERO PUSH2 0x73B JUMPI PUSH1 0x0 DUP1 REVERT JUMPDEST POP PUSH2 0x756 PUSH1 0x4 DUP1 CALLDATASIZE SUB DUP2 ADD SWAP1 PUSH2 0x751 SWAP2 SWAP1 PUSH2 0x4238 JUMP JUMPDEST PUSH2 0x206B JUMP JUMPDEST STOP JUMPDEST CALLVALUE DUP1 ISZERO PUSH2 0x764 JUMPI PUSH1 0x0 DUP1 REVERT JUMPDEST POP PUSH2 0x76D PUSH2 0x20F7 JUMP JUMPDEST PUSH1 0x40 MLOAD PUSH2 0x77A SWAP2 SWAP1 PUSH2 0x4AC8 JUMP JUMPDEST PUSH1 0x40 MLOAD DUP1 SWAP2 SUB SWAP1 RETURN JUMPDEST CALLVALUE DUP1 ISZERO PUSH2 0x78F JUMPI PUSH1 0x0 DUP1 REVERT JUMPDEST POP PUSH2 0x798 PUSH2 0x2121 JUMP JUMPDEST PUSH1 0x40 MLOAD PUSH2 0x7A5 SWAP2 SWAP1 PUSH2 0x4B9E JUMP JUMPDEST PUSH1 0x40 MLOAD DUP1 SWAP2 SUB SWAP1 RETURN JUMPDEST CALLVALUE DUP1 ISZERO PUSH2 0x7BA JUMPI PUSH1 0x0 DUP1 REVERT JUMPDEST POP PUSH2 0x7C3 PUSH2 0x21B3 JUMP JUMPDEST PUSH1 0x40 MLOAD PUSH2 0x7D0 SWAP2 SWAP1 PUSH2 0x4F40 JUMP JUMPDEST PUSH1 0x40 MLOAD DUP1 SWAP2 SUB SWAP1 RETURN JUMPDEST CALLVALUE DUP1 ISZERO PUSH2 0x7E5 JUMPI PUSH1 0x0 DUP1 REVERT JUMPDEST POP PUSH2 0x800 PUSH1 0x4 DUP1 CALLDATASIZE SUB DUP2 ADD SWAP1 PUSH2 0x7FB SWAP2 SWAP1 PUSH2 0x416B JUMP JUMPDEST PUSH2 0x21B9 JUMP JUMPDEST STOP JUMPDEST CALLVALUE DUP1 ISZERO PUSH2 0x80E JUMPI PUSH1 0x0 DUP1 REVERT JUMPDEST POP PUSH2 0x817 PUSH2 0x21CF JUMP JUMPDEST STOP JUMPDEST CALLVALUE DUP1 ISZERO PUSH2 0x825 JUMPI PUSH1 0x0 DUP1 REVERT JUMPDEST POP PUSH2 0x840 PUSH1 0x4 DUP1 CALLDATASIZE SUB DUP2 ADD SWAP1 PUSH2 0x83B SWAP2 SWAP1 PUSH2 0x40E8 JUMP JUMPDEST PUSH2 0x2268 JUMP JUMPDEST STOP JUMPDEST CALLVALUE DUP1 ISZERO PUSH2 0x84E JUMPI PUSH1 0x0 DUP1 REVERT JUMPDEST POP PUSH2 0x869 PUSH1 0x4 DUP1 CALLDATASIZE SUB DUP2 ADD SWAP1 PUSH2 0x864 SWAP2 SWAP1 PUSH2 0x43B1 JUMP JUMPDEST PUSH2 0x22CA JUMP JUMPDEST STOP JUMPDEST CALLVALUE DUP1 ISZERO PUSH2 0x877 JUMPI PUSH1 0x0 DUP1 REVERT JUMPDEST POP PUSH2 0x892 PUSH1 0x4 DUP1 CALLDATASIZE SUB DUP2 ADD SWAP1 PUSH2 0x88D SWAP2 SWAP1 PUSH2 0x43B1 JUMP JUMPDEST PUSH2 0x2350 JUMP JUMPDEST PUSH1 0x40 MLOAD PUSH2 0x89F SWAP2 SWAP1 PUSH2 0x4B9E JUMP JUMPDEST PUSH1 0x40 MLOAD DUP1 SWAP2 SUB SWAP1 RETURN JUMPDEST CALLVALUE DUP1 ISZERO PUSH2 0x8B4 JUMPI PUSH1 0x0 DUP1 REVERT JUMPDEST POP PUSH2 0x8CF PUSH1 0x4 DUP1 CALLDATASIZE SUB DUP2 ADD SWAP1 PUSH2 0x8CA SWAP2 SWAP1 PUSH2 0x4298 JUMP JUMPDEST PUSH2 0x2362 JUMP JUMPDEST STOP JUMPDEST CALLVALUE DUP1 ISZERO PUSH2 0x8DD JUMPI PUSH1 0x0 DUP1 REVERT JUMPDEST POP PUSH2 0x8F8 PUSH1 0x4 DUP1 CALLDATASIZE SUB DUP2 ADD SWAP1 PUSH2 0x8F3 SWAP2 SWAP1 PUSH2 0x4368 JUMP JUMPDEST PUSH2 0x23EA JUMP JUMPDEST STOP JUMPDEST CALLVALUE DUP1 ISZERO PUSH2 0x906 JUMPI PUSH1 0x0 DUP1 REVERT JUMPDEST POP PUSH2 0x921 PUSH1 0x4 DUP1 CALLDATASIZE SUB DUP2 ADD SWAP1 PUSH2 0x91C SWAP2 SWAP1 PUSH2 0x42E1 JUMP JUMPDEST PUSH2 0x2480 JUMP JUMPDEST PUSH1 0x40 MLOAD PUSH2 0x930 SWAP4 SWAP3 SWAP2 SWAP1 PUSH2 0x4F5B JUMP JUMPDEST PUSH1 0x40 MLOAD DUP1 SWAP2 SUB SWAP1 RETURN JUMPDEST CALLVALUE DUP1 ISZERO PUSH2 0x945 JUMPI PUSH1 0x0 DUP1 REVERT JUMPDEST POP PUSH2 0x960 PUSH1 0x4 DUP1 CALLDATASIZE SUB DUP2 ADD SWAP1 PUSH2 0x95B SWAP2 SWAP1 PUSH2 0x4055 JUMP JUMPDEST PUSH2 0x24D7 JUMP JUMPDEST PUSH1 0x40 MLOAD PUSH2 0x96D SWAP2 SWAP1 PUSH2 0x4B83 JUMP JUMPDEST PUSH1 0x40 MLOAD DUP1 SWAP2 SUB SWAP1 RETURN JUMPDEST CALLVALUE DUP1 ISZERO PUSH2 0x982 JUMPI PUSH1 0x0 DUP1 REVERT JUMPDEST POP PUSH2 0x99D PUSH1 0x4 DUP1 CALLDATASIZE SUB DUP2 ADD SWAP1 PUSH2 0x998 SWAP2 SWAP1 PUSH2 0x4028 JUMP JUMPDEST PUSH2 0x256B JUMP JUMPDEST PUSH1 0x40 MLOAD PUSH2 0x9AA SWAP2 SWAP1 PUSH2 0x4F40 JUMP JUMPDEST PUSH1 0x40 MLOAD DUP1 SWAP2 SUB SWAP1 RETURN JUMPDEST CALLVALUE DUP1 ISZERO PUSH2 0x9BF JUMPI PUSH1 0x0 DUP1 REVERT JUMPDEST POP PUSH2 0x9DA PUSH1 0x4 DUP1 CALLDATASIZE SUB DUP2 ADD SWAP1 PUSH2 0x9D5 SWAP2 SWAP1 PUSH2 0x4028 JUMP JUMPDEST PUSH2 0x2583 JUMP JUMPDEST STOP JUMPDEST CALLVALUE DUP1 ISZERO PUSH2 0x9E8 JUMPI PUSH1 0x0 DUP1 REVERT JUMPDEST POP PUSH2 0x9F1 PUSH2 0x272F JUMP JUMPDEST PUSH1 0x40 MLOAD PUSH2 0x9FE SWAP2 SWAP1 PUSH2 0x4F40 JUMP JUMPDEST PUSH1 0x40 MLOAD DUP1 SWAP2 SUB SWAP1 RETURN JUMPDEST PUSH1 0x0 PUSH2 0xA12 DUP3 PUSH2 0x2753 JUMP JUMPDEST SWAP1 POP SWAP2 SWAP1 POP JUMP JUMPDEST PUSH1 0x60 PUSH1 0x0 DUP1 SLOAD PUSH2 0xA28 SWAP1 PUSH2 0x52E5 JUMP JUMPDEST DUP1 PUSH1 0x1F ADD PUSH1 0x20 DUP1 SWAP2 DIV MUL PUSH1 0x20 ADD PUSH1 0x40 MLOAD SWAP1 DUP2 ADD PUSH1 0x40 MSTORE DUP1 SWAP3 SWAP2 SWAP1 DUP2 DUP2 MSTORE PUSH1 0x20 ADD DUP3 DUP1 SLOAD PUSH2 0xA54 SWAP1 PUSH2 0x52E5 JUMP JUMPDEST DUP1 ISZERO PUSH2 0xAA1 JUMPI DUP1 PUSH1 0x1F LT PUSH2 0xA76 JUMPI PUSH2 0x100 DUP1 DUP4 SLOAD DIV MUL DUP4 MSTORE SWAP2 PUSH1 0x20 ADD SWAP2 PUSH2 0xAA1 JUMP JUMPDEST DUP3 ADD SWAP2 SWAP1 PUSH1 0x0 MSTORE PUSH1 0x20 PUSH1 0x0 KECCAK256 SWAP1 JUMPDEST DUP2 SLOAD DUP2 MSTORE SWAP1 PUSH1 0x1 ADD SWAP1 PUSH1 0x20 ADD DUP1 DUP4 GT PUSH2 0xA84 JUMPI DUP3 SWAP1 SUB PUSH1 0x1F AND DUP3 ADD SWAP2 JUMPDEST POP POP POP POP POP SWAP1 POP SWAP1 JUMP JUMPDEST PUSH1 0x0 PUSH2 0xAB6 DUP3 PUSH2 0x27CD JUMP JUMPDEST PUSH2 0xAF5 JUMPI PUSH1 0x40 MLOAD PUSH32 0x8C379A000000000000000000000000000000000000000000000000000000000 DUP2 MSTORE PUSH1 0x4 ADD PUSH2 0xAEC SWAP1 PUSH2 0x4E80 JUMP JUMPDEST PUSH1 0x40 MLOAD DUP1 SWAP2 SUB SWAP1 REVERT JUMPDEST PUSH1 0x4 PUSH1 0x0 DUP4 DUP2 MSTORE PUSH1 0x20 ADD SWAP1 DUP2 MSTORE PUSH1 0x20 ADD PUSH1 0x0 KECCAK256 PUSH1 0x0 SWAP1 SLOAD SWAP1 PUSH2 0x100 EXP SWAP1 DIV PUSH20 0xFFFFFFFFFFFFFFFFFFFFFFFFFFFFFFFFFFFFFFFF AND SWAP1 POP SWAP2 SWAP1 POP JUMP JUMPDEST PUSH1 0x0 PUSH2 0xB3B DUP3 PUSH2 0x1762 JUMP JUMPDEST SWAP1 POP DUP1 PUSH20 0xFFFFFFFFFFFFFFFFFFFFFFFFFFFFFFFFFFFFFFFF AND DUP4 PUSH20 0xFFFFFFFFFFFFFFFFFFFFFFFFFFFFFFFFFFFFFFFF AND EQ ISZERO PUSH2 0xBAC JUMPI PUSH1 0x40 MLOAD PUSH32 0x8C379A000000000000000000000000000000000000000000000000000000000 DUP2 MSTORE PUSH1 0x4 ADD PUSH2 0xBA3 SWAP1 PUSH2 0x4EE0 JUMP JUMPDEST PUSH1 0x40 MLOAD DUP1 SWAP2 SUB SWAP1 REVERT JUMPDEST DUP1 PUSH20 0xFFFFFFFFFFFFFFFFFFFFFFFFFFFFFFFFFFFFFFFF AND PUSH2 0xBCB PUSH2 0x2839 JUMP JUMPDEST PUSH20 0xFFFFFFFFFFFFFFFFFFFFFFFFFFFFFFFFFFFFFFFF AND EQ DUP1 PUSH2 0xBFA JUMPI POP PUSH2 0xBF9 DUP2 PUSH2 0xBF4 PUSH2 0x2839 JUMP JUMPDEST PUSH2 0x24D7 JUMP JUMPDEST JUMPDEST PUSH2 0xC39 JUMPI PUSH1 0x40 MLOAD PUSH32 0x8C379A000000000000000000000000000000000000000000000000000000000 DUP2 MSTORE PUSH1 0x4 ADD PUSH2 0xC30 SWAP1 PUSH2 0x4D60 JUMP JUMPDEST PUSH1 0x40 MLOAD DUP1 SWAP2 SUB SWAP1 REVERT JUMPDEST PUSH2 0xC43 DUP4 DUP4 PUSH2 0x2841 JUMP JUMPDEST POP POP POP JUMP JUMPDEST PUSH32 0x0 DUP2 JUMP JUMPDEST PUSH1 0x0 DUP1 PUSH20 0xFFFFFFFFFFFFFFFFFFFFFFFFFFFFFFFFFFFFFFFF AND DUP3 PUSH20 0xFFFFFFFFFFFFFFFFFFFFFFFFFFFFFFFFFFFFFFFF AND EQ ISZERO PUSH2 0xCDD JUMPI PUSH1 0x40 MLOAD PUSH32 0x8C379A000000000000000000000000000000000000000000000000000000000 DUP2 MSTORE PUSH1 0x4 ADD PUSH2 0xCD4 SWAP1 PUSH2 0x4D80 JUMP JUMPDEST PUSH1 0x40 MLOAD DUP1 SWAP2 SUB SWAP1 REVERT JUMPDEST PUSH1 0x14 PUSH1 0x0 DUP4 PUSH20 0xFFFFFFFFFFFFFFFFFFFFFFFFFFFFFFFFFFFFFFFF AND PUSH20 0xFFFFFFFFFFFFFFFFFFFFFFFFFFFFFFFFFFFFFFFF AND DUP2 MSTORE PUSH1 0x20 ADD SWAP1 DUP2 MSTORE PUSH1 0x20 ADD PUSH1 0x0 KECCAK256 SLOAD SWAP1 POP SWAP2 SWAP1 POP JUMP JUMPDEST PUSH1 0x10 PUSH1 0x0 SWAP1 SLOAD SWAP1 PUSH2 0x100 EXP SWAP1 DIV PUSH20 0xFFFFFFFFFFFFFFFFFFFFFFFFFFFFFFFFFFFFFFFF AND PUSH20 0xFFFFFFFFFFFFFFFFFFFFFFFFFFFFFFFFFFFFFFFF AND CALLER PUSH20 0xFFFFFFFFFFFFFFFFFFFFFFFFFFFFFFFFFFFFFFFF AND EQ DUP1 PUSH2 0xDB2 JUMPI POP PUSH2 0xD83 PUSH2 0x20F7 JUMP JUMPDEST PUSH20 0xFFFFFFFFFFFFFFFFFFFFFFFFFFFFFFFFFFFFFFFF AND CALLER PUSH20 0xFFFFFFFFFFFFFFFFFFFFFFFFFFFFFFFFFFFFFFFF AND EQ JUMPDEST PUSH2 0xDF1 JUMPI PUSH1 0x40 MLOAD PUSH32 0x8C379A000000000000000000000000000000000000000000000000000000000 DUP2 MSTORE PUSH1 0x4 ADD PUSH2 0xDE8 SWAP1 PUSH2 0x4BC0 JUMP JUMPDEST PUSH1 0x40 MLOAD DUP1 SWAP2 SUB SWAP1 REVERT JUMPDEST PUSH2 0xE3F DUP4 DUP4 DUP4 DUP1 DUP1 PUSH1 0x1F ADD PUSH1 0x20 DUP1 SWAP2 DIV MUL PUSH1 0x20 ADD PUSH1 0x40 MLOAD SWAP1 DUP2 ADD PUSH1 0x40 MSTORE DUP1 SWAP4 SWAP3 SWAP2 SWAP1 DUP2 DUP2 MSTORE PUSH1 0x20 ADD DUP4 DUP4 DUP1 DUP3 DUP5 CALLDATACOPY PUSH1 0x0 DUP2 DUP5 ADD MSTORE PUSH1 0x1F NOT PUSH1 0x1F DUP3 ADD AND SWAP1 POP DUP1 DUP4 ADD SWAP3 POP POP POP POP POP POP POP PUSH2 0x28FA JUMP JUMPDEST POP POP POP JUMP JUMPDEST PUSH1 0x0 PUSH1 0x8 DUP1 SLOAD SWAP1 POP SWAP1 POP SWAP1 JUMP JUMPDEST PUSH1 0x13 PUSH1 0x0 SWAP1 SLOAD SWAP1 PUSH2 0x100 EXP SWAP1 DIV PUSH1 0xFF AND DUP2 JUMP JUMPDEST PUSH2 0xE75 PUSH2 0xE6F PUSH2 0x2839 JUMP JUMPDEST DUP3 PUSH2 0x296E JUMP JUMPDEST PUSH2 0xEB4 JUMPI PUSH1 0x40 MLOAD PUSH32 0x8C379A000000000000000000000000000000000000000000000000000000000 DUP2 MSTORE PUSH1 0x4 ADD PUSH2 0xEAB SWAP1 PUSH2 0x4F00 JUMP JUMPDEST PUSH1 0x40 MLOAD DUP1 SWAP2 SUB SWAP1 REVERT JUMPDEST PUSH2 0xEBF DUP4 DUP4 DUP4 PUSH2 0x2A4C JUMP JUMPDEST POP POP POP JUMP JUMPDEST PUSH1 0xC DUP2 DUP2 SLOAD DUP2 LT PUSH2 0xED4 JUMPI PUSH1 0x0 DUP1 REVERT JUMPDEST SWAP1 PUSH1 0x0 MSTORE PUSH1 0x20 PUSH1 0x0 KECCAK256 ADD PUSH1 0x0 SWAP2 POP SWAP1 POP SLOAD DUP2 JUMP JUMPDEST PUSH1 0x0 DUP4 GT PUSH2 0xEF5 JUMPI PUSH1 0x0 DUP1 REVERT JUMPDEST PUSH1 0x1 ISZERO ISZERO PUSH1 0x13 PUSH1 0x0 SWAP1 SLOAD SWAP1 PUSH2 0x100 EXP SWAP1 DIV PUSH1 0xFF AND ISZERO ISZERO EQ PUSH2 0xF4B JUMPI PUSH1 0x40 MLOAD PUSH32 0x8C379A000000000000000000000000000000000000000000000000000000000 DUP2 MSTORE PUSH1 0x4 ADD PUSH2 0xF42 SWAP1 PUSH2 0x4E20 JUMP JUMPDEST PUSH1 0x40 MLOAD DUP1 SWAP2 SUB SWAP1 REVERT JUMPDEST PUSH32 0x0 DUP4 PUSH2 0xF75 PUSH2 0xE44 JUMP JUMPDEST PUSH2 0xF7F SWAP2 SWAP1 PUSH2 0x50C1 JUMP JUMPDEST GT ISZERO PUSH2 0xFC0 JUMPI PUSH1 0x40 MLOAD PUSH32 0x8C379A000000000000000000000000000000000000000000000000000000000 DUP2 MSTORE PUSH1 0x4 ADD PUSH2 0xFB7 SWAP1 PUSH2 0x4D40 JUMP JUMPDEST PUSH1 0x40 MLOAD DUP1 SWAP2 SUB SWAP1 REVERT JUMPDEST PUSH32 0x0 PUSH1 0x15 PUSH1 0x0 CALLER PUSH20 0xFFFFFFFFFFFFFFFFFFFFFFFFFFFFFFFFFFFFFFFF AND PUSH20 0xFFFFFFFFFFFFFFFFFFFFFFFFFFFFFFFFFFFFFFFF AND DUP2 MSTORE PUSH1 0x20 ADD SWAP1 DUP2 MSTORE PUSH1 0x20 ADD PUSH1 0x0 KECCAK256 SLOAD LT PUSH2 0x1061 JUMPI PUSH1 0x40 MLOAD PUSH32 0x8C379A000000000000000000000000000000000000000000000000000000000 DUP2 MSTORE PUSH1 0x4 ADD PUSH2 0x1058 SWAP1 PUSH2 0x4E40 JUMP JUMPDEST PUSH1 0x40 MLOAD DUP1 SWAP2 SUB SWAP1 REVERT JUMPDEST PUSH32 0x0 DUP4 GT ISZERO PUSH2 0x10C4 JUMPI PUSH1 0x40 MLOAD PUSH32 0x8C379A000000000000000000000000000000000000000000000000000000000 DUP2 MSTORE PUSH1 0x4 ADD PUSH2 0x10BB SWAP1 PUSH2 0x4D00 JUMP JUMPDEST PUSH1 0x40 MLOAD DUP1 SWAP2 SUB SWAP1 REVERT JUMPDEST DUP3 PUSH1 0x12 SLOAD PUSH2 0x10D2 SWAP2 SWAP1 PUSH2 0x5151 JUMP JUMPDEST CALLVALUE EQ PUSH2 0x1113 JUMPI PUSH1 0x40 MLOAD PUSH32 0x8C379A000000000000000000000000000000000000000000000000000000000 DUP2 MSTORE PUSH1 0x4 ADD PUSH2 0x110A SWAP1 PUSH2 0x4EC0 JUMP JUMPDEST PUSH1 0x40 MLOAD DUP1 SWAP2 SUB SWAP1 REVERT JUMPDEST PUSH32 0x0 DUP3 DUP3 SWAP1 POP EQ PUSH2 0x1178 JUMPI PUSH1 0x40 MLOAD PUSH32 0x8C379A000000000000000000000000000000000000000000000000000000000 DUP2 MSTORE PUSH1 0x4 ADD PUSH2 0x116F SWAP1 PUSH2 0x4CE0 JUMP JUMPDEST PUSH1 0x40 MLOAD DUP1 SWAP2 SUB SWAP1 REVERT JUMPDEST PUSH1 0x0 DUP3 DUP3 PUSH1 0x40 MLOAD PUSH1 0x20 ADD PUSH2 0x118D SWAP3 SWAP2 SWAP1 PUSH2 0x4A83 JUMP JUMPDEST PUSH1 0x40 MLOAD PUSH1 0x20 DUP2 DUP4 SUB SUB DUP2 MSTORE SWAP1 PUSH1 0x40 MSTORE DUP1 MLOAD SWAP1 PUSH1 0x20 ADD KECCAK256 SWAP1 POP PUSH1 0xB PUSH1 0x0 DUP3 DUP2 MSTORE PUSH1 0x20 ADD SWAP1 DUP2 MSTORE PUSH1 0x20 ADD PUSH1 0x0 KECCAK256 PUSH1 0x0 ADD PUSH1 0x8 SWAP1 SLOAD SWAP1 PUSH2 0x100 EXP SWAP1 DIV PUSH1 0xFF AND ISZERO PUSH2 0x1275 JUMPI PUSH1 0xB PUSH1 0x0 DUP3 DUP2 MSTORE PUSH1 0x20 ADD SWAP1 DUP2 MSTORE PUSH1 0x20 ADD PUSH1 0x0 KECCAK256 PUSH1 0x0 ADD PUSH1 0x4 SWAP1 SLOAD SWAP1 PUSH2 0x100 EXP SWAP1 DIV PUSH4 0xFFFFFFFF AND PUSH4 0xFFFFFFFF AND DUP5 PUSH1 0xB PUSH1 0x0 DUP5 DUP2 MSTORE PUSH1 0x20 ADD SWAP1 DUP2 MSTORE PUSH1 0x20 ADD PUSH1 0x0 KECCAK256 PUSH1 0x0 ADD PUSH1 0x0 SWAP1 SLOAD SWAP1 PUSH2 0x100 EXP SWAP1 DIV PUSH4 0xFFFFFFFF AND PUSH4 0xFFFFFFFF AND PUSH2 0x1233 SWAP2 SWAP1 PUSH2 0x50C1 JUMP JUMPDEST GT ISZERO PUSH2 0x1274 JUMPI PUSH1 0x40 MLOAD PUSH32 0x8C379A000000000000000000000000000000000000000000000000000000000 DUP2 MSTORE PUSH1 0x4 ADD PUSH2 0x126B SWAP1 PUSH2 0x4BE0 JUMP JUMPDEST PUSH1 0x40 MLOAD DUP1 SWAP2 SUB SWAP1 REVERT JUMPDEST JUMPDEST PUSH1 0x0 JUMPDEST DUP5 DUP2 LT ISZERO PUSH2 0x137F JUMPI PUSH1 0x0 PUSH1 0x1 PUSH2 0x128C PUSH2 0x2CB3 JUMP JUMPDEST PUSH2 0x1296 SWAP2 SWAP1 PUSH2 0x50C1 JUMP JUMPDEST SWAP1 POP PUSH2 0x12A2 CALLER DUP3 PUSH2 0x2DEC JUMP JUMPDEST DUP5 DUP5 PUSH1 0x16 PUSH1 0x0 DUP5 DUP2 MSTORE PUSH1 0x20 ADD SWAP1 DUP2 MSTORE PUSH1 0x20 ADD PUSH1 0x0 KECCAK256 SWAP2 SWAP1 PUSH2 0x12C4 SWAP3 SWAP2 SWAP1 PUSH2 0x3C2E JUMP JUMPDEST POP PUSH1 0x1 PUSH1 0xB PUSH1 0x0 DUP6 DUP2 MSTORE PUSH1 0x20 ADD SWAP1 DUP2 MSTORE PUSH1 0x20 ADD PUSH1 0x0 KECCAK256 PUSH1 0x0 ADD PUSH1 0x0 DUP3 DUP3 DUP3 SWAP1 SLOAD SWAP1 PUSH2 0x100 EXP SWAP1 DIV PUSH4 0xFFFFFFFF AND PUSH2 0x12FB SWAP2 SWAP1 PUSH2 0x5117 JUMP JUMPDEST SWAP3 POP PUSH2 0x100 EXP DUP2 SLOAD DUP2 PUSH4 0xFFFFFFFF MUL NOT AND SWAP1 DUP4 PUSH4 0xFFFFFFFF AND MUL OR SWAP1 SSTORE POP CALLER PUSH20 0xFFFFFFFFFFFFFFFFFFFFFFFFFFFFFFFFFFFFFFFF AND PUSH32 0x6ED0E5921C2B0F37ED5915265DF534D42BD7AD62C6C44687E004658C5E331AA DUP7 DUP7 DUP5 PUSH1 0x40 MLOAD PUSH2 0x1363 SWAP4 SWAP3 SWAP2 SWAP1 PUSH2 0x4B2F JUMP JUMPDEST PUSH1 0x40 MLOAD DUP1 SWAP2 SUB SWAP1 LOG2 POP DUP1 DUP1 PUSH2 0x1377 SWAP1 PUSH2 0x5348 JUMP JUMPDEST SWAP2 POP POP PUSH2 0x1278 JUMP JUMPDEST POP POP POP POP POP JUMP JUMPDEST PUSH1 0x0 PUSH2 0x1391 DUP4 PUSH2 0x1814 JUMP JUMPDEST DUP3 LT PUSH2 0x13D2 JUMPI PUSH1 0x40 MLOAD PUSH32 0x8C379A000000000000000000000000000000000000000000000000000000000 DUP2 MSTORE PUSH1 0x4 ADD PUSH2 0x13C9 SWAP1 PUSH2 0x4C00 JUMP JUMPDEST PUSH1 0x40 MLOAD DUP1 SWAP2 SUB SWAP1 REVERT JUMPDEST PUSH1 0x6 PUSH1 0x0 DUP5 PUSH20 0xFFFFFFFFFFFFFFFFFFFFFFFFFFFFFFFFFFFFFFFF AND PUSH20 0xFFFFFFFFFFFFFFFFFFFFFFFFFFFFFFFFFFFFFFFF AND DUP2 MSTORE PUSH1 0x20 ADD SWAP1 DUP2 MSTORE PUSH1 0x20 ADD PUSH1 0x0 KECCAK256 PUSH1 0x0 DUP4 DUP2 MSTORE PUSH1 0x20 ADD SWAP1 DUP2 MSTORE PUSH1 0x20 ADD PUSH1 0x0 KECCAK256 SLOAD SWAP1 POP SWAP3 SWAP2 POP POP JUMP JUMPDEST PUSH2 0x1433 PUSH2 0x2839 JUMP JUMPDEST PUSH20 0xFFFFFFFFFFFFFFFFFFFFFFFFFFFFFFFFFFFFFFFF AND PUSH2 0x1451 PUSH2 0x20F7 JUMP JUMPDEST PUSH20 0xFFFFFFFFFFFFFFFFFFFFFFFFFFFFFFFFFFFFFFFF AND EQ PUSH2 0x14A7 JUMPI PUSH1 0x40 MLOAD PUSH32 0x8C379A000000000000000000000000000000000000000000000000000000000 DUP2 MSTORE PUSH1 0x4 ADD PUSH2 0x149E SWAP1 PUSH2 0x4EA0 JUMP JUMPDEST PUSH1 0x40 MLOAD DUP1 SWAP2 SUB SWAP1 REVERT JUMPDEST DUP1 PUSH1 0x10 PUSH1 0x0 PUSH2 0x100 EXP DUP2 SLOAD DUP2 PUSH20 0xFFFFFFFFFFFFFFFFFFFFFFFFFFFFFFFFFFFFFFFF MUL NOT AND SWAP1 DUP4 PUSH20 0xFFFFFFFFFFFFFFFFFFFFFFFFFFFFFFFFFFFFFFFF AND MUL OR SWAP1 SSTORE POP POP JUMP JUMPDEST PUSH32 0x0 DUP2 JUMP JUMPDEST PUSH2 0x152A DUP4 DUP4 DUP4 PUSH1 0x40 MLOAD DUP1 PUSH1 0x20 ADD PUSH1 0x40 MSTORE DUP1 PUSH1 0x0 DUP2 MSTORE POP PUSH2 0x2268 JUMP JUMPDEST POP POP POP JUMP JUMPDEST PUSH2 0x1537 PUSH2 0x2839 JUMP JUMPDEST PUSH20 0xFFFFFFFFFFFFFFFFFFFFFFFFFFFFFFFFFFFFFFFF AND PUSH2 0x1555 PUSH2 0x20F7 JUMP JUMPDEST PUSH20 0xFFFFFFFFFFFFFFFFFFFFFFFFFFFFFFFFFFFFFFFF AND EQ PUSH2 0x15AB JUMPI PUSH1 0x40 MLOAD PUSH32 0x8C379A000000000000000000000000000000000000000000000000000000000 DUP2 MSTORE PUSH1 0x4 ADD PUSH2 0x15A2 SWAP1 PUSH2 0x4EA0 JUMP JUMPDEST PUSH1 0x40 MLOAD DUP1 SWAP2 SUB SWAP1 REVERT JUMPDEST PUSH1 0x0 PUSH8 0xDE0B6B3A7640000 SWAP1 POP DUP1 DUP3 PUSH2 0x15C4 SWAP2 SWAP1 PUSH2 0x5151 JUMP JUMPDEST PUSH1 0x12 DUP2 SWAP1 SSTORE POP POP POP JUMP JUMPDEST PUSH1 0x0 PUSH2 0x15D8 PUSH2 0xE44 JUMP JUMPDEST DUP3 LT PUSH2 0x1619 JUMPI PUSH1 0x40 MLOAD PUSH32 0x8C379A000000000000000000000000000000000000000000000000000000000 DUP2 MSTORE PUSH1 0x4 ADD PUSH2 0x1610 SWAP1 PUSH2 0x4F20 JUMP JUMPDEST PUSH1 0x40 MLOAD DUP1 SWAP2 SUB SWAP1 REVERT JUMPDEST PUSH1 0x8 DUP3 DUP2 SLOAD DUP2 LT PUSH2 0x162D JUMPI PUSH2 0x162C PUSH2 0x5488 JUMP JUMPDEST JUMPDEST SWAP1 PUSH1 0x0 MSTORE PUSH1 0x20 PUSH1 0x0 KECCAK256 ADD SLOAD SWAP1 POP SWAP2 SWAP1 POP JUMP JUMPDEST PUSH2 0x1647 PUSH2 0x2839 JUMP JUMPDEST PUSH20 0xFFFFFFFFFFFFFFFFFFFFFFFFFFFFFFFFFFFFFFFF AND PUSH2 0x1665 PUSH2 0x20F7 JUMP JUMPDEST PUSH20 0xFFFFFFFFFFFFFFFFFFFFFFFFFFFFFFFFFFFFFFFF AND EQ PUSH2 0x16BB JUMPI PUSH1 0x40 MLOAD PUSH32 0x8C379A000000000000000000000000000000000000000000000000000000000 DUP2 MSTORE PUSH1 0x4 ADD PUSH2 0x16B2 SWAP1 PUSH2 0x4EA0 JUMP JUMPDEST PUSH1 0x40 MLOAD DUP1 SWAP2 SUB SWAP1 REVERT JUMPDEST PUSH1 0x0 PUSH1 0x13 PUSH1 0x0 PUSH2 0x100 EXP DUP2 SLOAD DUP2 PUSH1 0xFF MUL NOT AND SWAP1 DUP4 ISZERO ISZERO MUL OR SWAP1 SSTORE POP JUMP JUMPDEST PUSH2 0x16E0 PUSH2 0x2839 JUMP JUMPDEST PUSH20 0xFFFFFFFFFFFFFFFFFFFFFFFFFFFFFFFFFFFFFFFF AND PUSH2 0x16FE PUSH2 0x20F7 JUMP JUMPDEST PUSH20 0xFFFFFFFFFFFFFFFFFFFFFFFFFFFFFFFFFFFFFFFF AND EQ PUSH2 0x1754 JUMPI PUSH1 0x40 MLOAD PUSH32 0x8C379A000000000000000000000000000000000000000000000000000000000 DUP2 MSTORE PUSH1 0x4 ADD PUSH2 0x174B SWAP1 PUSH2 0x4EA0 JUMP JUMPDEST PUSH1 0x40 MLOAD DUP1 SWAP2 SUB SWAP1 REVERT JUMPDEST PUSH2 0x175E DUP3 DUP3 PUSH2 0x2E0A JUMP JUMPDEST POP POP JUMP JUMPDEST PUSH1 0x0 DUP1 PUSH1 0x2 PUSH1 0x0 DUP5 DUP2 MSTORE PUSH1 0x20 ADD SWAP1 DUP2 MSTORE PUSH1 0x20 ADD PUSH1 0x0 KECCAK256 PUSH1 0x0 SWAP1 SLOAD SWAP1 PUSH2 0x100 EXP SWAP1 DIV PUSH20 0xFFFFFFFFFFFFFFFFFFFFFFFFFFFFFFFFFFFFFFFF AND SWAP1 POP PUSH1 0x0 PUSH20 0xFFFFFFFFFFFFFFFFFFFFFFFFFFFFFFFFFFFFFFFF AND DUP2 PUSH20 0xFFFFFFFFFFFFFFFFFFFFFFFFFFFFFFFFFFFFFFFF AND EQ ISZERO PUSH2 0x180B JUMPI PUSH1 0x40 MLOAD PUSH32 0x8C379A000000000000000000000000000000000000000000000000000000000 DUP2 MSTORE PUSH1 0x4 ADD PUSH2 0x1802 SWAP1 PUSH2 0x4DC0 JUMP JUMPDEST PUSH1 0x40 MLOAD DUP1 SWAP2 SUB SWAP1 REVERT JUMPDEST DUP1 SWAP2 POP POP SWAP2 SWAP1 POP JUMP JUMPDEST PUSH1 0x0 DUP1 PUSH20 0xFFFFFFFFFFFFFFFFFFFFFFFFFFFFFFFFFFFFFFFF AND DUP3 PUSH20 0xFFFFFFFFFFFFFFFFFFFFFFFFFFFFFFFFFFFFFFFF AND EQ ISZERO PUSH2 0x1885 JUMPI PUSH1 0x40 MLOAD PUSH32 0x8C379A000000000000000000000000000000000000000000000000000000000 DUP2 MSTORE PUSH1 0x4 ADD PUSH2 0x187C SWAP1 PUSH2 0x4D80 JUMP JUMPDEST PUSH1 0x40 MLOAD DUP1 SWAP2 SUB SWAP1 REVERT JUMPDEST PUSH1 0x3 PUSH1 0x0 DUP4 PUSH20 0xFFFFFFFFFFFFFFFFFFFFFFFFFFFFFFFFFFFFFFFF AND PUSH20 0xFFFFFFFFFFFFFFFFFFFFFFFFFFFFFFFFFFFFFFFF AND DUP2 MSTORE PUSH1 0x20 ADD SWAP1 DUP2 MSTORE PUSH1 0x20 ADD PUSH1 0x0 KECCAK256 SLOAD SWAP1 POP SWAP2 SWAP1 POP JUMP JUMPDEST PUSH2 0x18D4 PUSH2 0x2839 JUMP JUMPDEST PUSH20 0xFFFFFFFFFFFFFFFFFFFFFFFFFFFFFFFFFFFFFFFF AND PUSH2 0x18F2 PUSH2 0x20F7 JUMP JUMPDEST PUSH20 0xFFFFFFFFFFFFFFFFFFFFFFFFFFFFFFFFFFFFFFFF AND EQ PUSH2 0x1948 JUMPI PUSH1 0x40 MLOAD PUSH32 0x8C379A000000000000000000000000000000000000000000000000000000000 DUP2 MSTORE PUSH1 0x4 ADD PUSH2 0x193F SWAP1 PUSH2 0x4EA0 JUMP JUMPDEST PUSH1 0x40 MLOAD DUP1 SWAP2 SUB SWAP1 REVERT JUMPDEST PUSH1 0x0 PUSH20 0xFFFFFFFFFFFFFFFFFFFFFFFFFFFFFFFFFFFFFFFF AND PUSH1 0xF PUSH1 0x0 SWAP1 SLOAD SWAP1 PUSH2 0x100 EXP SWAP1 DIV PUSH20 0xFFFFFFFFFFFFFFFFFFFFFFFFFFFFFFFFFFFFFFFF AND PUSH20 0xFFFFFFFFFFFFFFFFFFFFFFFFFFFFFFFFFFFFFFFF AND PUSH32 0x8BE0079C531659141344CD1FD0A4F28419497F9722A3DAAFE3B4186F6B6457E0 PUSH1 0x40 MLOAD PUSH1 0x40 MLOAD DUP1 SWAP2 SUB SWAP1 LOG3 PUSH1 0x0 PUSH1 0xF PUSH1 0x0 PUSH2 0x100 EXP DUP2 SLOAD DUP2 PUSH20 0xFFFFFFFFFFFFFFFFFFFFFFFFFFFFFFFFFFFFFFFF MUL NOT AND SWAP1 DUP4 PUSH20 0xFFFFFFFFFFFFFFFFFFFFFFFFFFFFFFFFFFFFFFFF AND MUL OR SWAP1 SSTORE POP JUMP JUMPDEST PUSH2 0x1A11 PUSH2 0x2839 JUMP JUMPDEST PUSH20 0xFFFFFFFFFFFFFFFFFFFFFFFFFFFFFFFFFFFFFFFF AND PUSH2 0x1A2F PUSH2 0x20F7 JUMP JUMPDEST PUSH20 0xFFFFFFFFFFFFFFFFFFFFFFFFFFFFFFFFFFFFFFFF AND EQ PUSH2 0x1A85 JUMPI PUSH1 0x40 MLOAD PUSH32 0x8C379A000000000000000000000000000000000000000000000000000000000 DUP2 MSTORE PUSH1 0x4 ADD PUSH2 0x1A7C SWAP1 PUSH2 0x4EA0 JUMP JUMPDEST PUSH1 0x40 MLOAD DUP1 SWAP2 SUB SWAP1 REVERT JUMPDEST DUP1 PUSH1 0x14 PUSH1 0x0 DUP5 PUSH20 0xFFFFFFFFFFFFFFFFFFFFFFFFFFFFFFFFFFFFFFFF AND PUSH20 0xFFFFFFFFFFFFFFFFFFFFFFFFFFFFFFFFFFFFFFFF AND DUP2 MSTORE PUSH1 0x20 ADD SWAP1 DUP2 MSTORE PUSH1 0x20 ADD PUSH1 0x0 KECCAK256 PUSH1 0x0 DUP3 DUP3 SLOAD PUSH2 0x1AD4 SWAP2 SWAP1 PUSH2 0x50C1 JUMP JUMPDEST SWAP3 POP POP DUP2 SWAP1 SSTORE POP POP POP JUMP JUMPDEST PUSH1 0x60 PUSH1 0x0 PUSH2 0x1AEC DUP4 PUSH2 0x1814 JUMP JUMPDEST SWAP1 POP PUSH1 0x0 DUP2 EQ ISZERO PUSH2 0x1B49 JUMPI PUSH1 0x0 PUSH8 0xFFFFFFFFFFFFFFFF DUP2 GT ISZERO PUSH2 0x1B12 JUMPI PUSH2 0x1B11 PUSH2 0x54B7 JUMP JUMPDEST JUMPDEST PUSH1 0x40 MLOAD SWAP1 DUP1 DUP3 MSTORE DUP1 PUSH1 0x20 MUL PUSH1 0x20 ADD DUP3 ADD PUSH1 0x40 MSTORE DUP1 ISZERO PUSH2 0x1B40 JUMPI DUP2 PUSH1 0x20 ADD PUSH1 0x20 DUP3 MUL DUP1 CALLDATASIZE DUP4 CALLDATACOPY DUP1 DUP3 ADD SWAP2 POP POP SWAP1 POP JUMPDEST POP SWAP2 POP POP PUSH2 0x1BE4 JUMP JUMPDEST PUSH1 0x0 DUP2 PUSH8 0xFFFFFFFFFFFFFFFF DUP2 GT ISZERO PUSH2 0x1B65 JUMPI PUSH2 0x1B64 PUSH2 0x54B7 JUMP JUMPDEST JUMPDEST PUSH1 0x40 MLOAD SWAP1 DUP1 DUP3 MSTORE DUP1 PUSH1 0x20 MUL PUSH1 0x20 ADD DUP3 ADD PUSH1 0x40 MSTORE DUP1 ISZERO PUSH2 0x1B93 JUMPI DUP2 PUSH1 0x20 ADD PUSH1 0x20 DUP3 MUL DUP1 CALLDATASIZE DUP4 CALLDATACOPY DUP1 DUP3 ADD SWAP2 POP POP SWAP1 POP JUMPDEST POP SWAP1 POP PUSH1 0x0 JUMPDEST DUP3 DUP2 LT ISZERO PUSH2 0x1BDD JUMPI PUSH2 0x1BAB DUP6 DUP3 PUSH2 0x1386 JUMP JUMPDEST DUP3 DUP3 DUP2 MLOAD DUP2 LT PUSH2 0x1BBE JUMPI PUSH2 0x1BBD PUSH2 0x5488 JUMP JUMPDEST JUMPDEST PUSH1 0x20 MUL PUSH1 0x20 ADD ADD DUP2 DUP2 MSTORE POP POP DUP1 DUP1 PUSH2 0x1BD5 SWAP1 PUSH2 0x5348 JUMP JUMPDEST SWAP2 POP POP PUSH2 0x1B99 JUMP JUMPDEST DUP2 SWAP4 POP POP POP POP JUMPDEST SWAP2 SWAP1 POP JUMP JUMPDEST PUSH2 0x1BF1 PUSH2 0x2839 JUMP JUMPDEST PUSH20 0xFFFFFFFFFFFFFFFFFFFFFFFFFFFFFFFFFFFFFFFF AND PUSH2 0x1C0F PUSH2 0x20F7 JUMP JUMPDEST PUSH20 0xFFFFFFFFFFFFFFFFFFFFFFFFFFFFFFFFFFFFFFFF AND EQ PUSH2 0x1C65 JUMPI PUSH1 0x40 MLOAD PUSH32 0x8C379A000000000000000000000000000000000000000000000000000000000 DUP2 MSTORE PUSH1 0x4 ADD PUSH2 0x1C5C SWAP1 PUSH2 0x4EA0 JUMP JUMPDEST PUSH1 0x40 MLOAD DUP1 SWAP2 SUB SWAP1 REVERT JUMPDEST CALLER PUSH20 0xFFFFFFFFFFFFFFFFFFFFFFFFFFFFFFFFFFFFFFFF AND PUSH2 0x8FC SELFBALANCE SWAP1 DUP2 ISZERO MUL SWAP1 PUSH1 0x40 MLOAD PUSH1 0x0 PUSH1 0x40 MLOAD DUP1 DUP4 SUB DUP2 DUP6 DUP9 DUP9 CALL SWAP4 POP POP POP POP ISZERO DUP1 ISZERO PUSH2 0x1CAB JUMPI RETURNDATASIZE PUSH1 0x0 DUP1 RETURNDATACOPY RETURNDATASIZE PUSH1 0x0 REVERT JUMPDEST POP JUMP JUMPDEST PUSH1 0x1 ISZERO ISZERO PUSH1 0x13 PUSH1 0x0 SWAP1 SLOAD SWAP1 PUSH2 0x100 EXP SWAP1 DIV PUSH1 0xFF AND ISZERO ISZERO EQ PUSH2 0x1D04 JUMPI PUSH1 0x40 MLOAD PUSH32 0x8C379A000000000000000000000000000000000000000000000000000000000 DUP2 MSTORE PUSH1 0x4 ADD PUSH2 0x1CFB SWAP1 PUSH2 0x4E20 JUMP JUMPDEST PUSH1 0x40 MLOAD DUP1 SWAP2 SUB SWAP1 REVERT JUMPDEST PUSH32 0x0 PUSH2 0x1D2D PUSH2 0xE44 JUMP JUMPDEST LT PUSH2 0x1D6D JUMPI PUSH1 0x40 MLOAD PUSH32 0x8C379A000000000000000000000000000000000000000000000000000000000 DUP2 MSTORE PUSH1 0x4 ADD PUSH2 0x1D64 SWAP1 PUSH2 0x4D40 JUMP JUMPDEST PUSH1 0x40 MLOAD DUP1 SWAP2 SUB SWAP1 REVERT JUMPDEST PUSH1 0x1 PUSH1 0x14 PUSH1 0x0 CALLER PUSH20 0xFFFFFFFFFFFFFFFFFFFFFFFFFFFFFFFFFFFFFFFF AND PUSH20 0xFFFFFFFFFFFFFFFFFFFFFFFFFFFFFFFFFFFFFFFF AND DUP2 MSTORE PUSH1 0x20 ADD SWAP1 DUP2 MSTORE PUSH1 0x20 ADD PUSH1 0x0 KECCAK256 SLOAD LT ISZERO PUSH2 0x1DF0 JUMPI PUSH1 0x40 MLOAD PUSH32 0x8C379A000000000000000000000000000000000000000000000000000000000 DUP2 MSTORE PUSH1 0x4 ADD PUSH2 0x1DE7 SWAP1 PUSH2 0x4DA0 JUMP JUMPDEST PUSH1 0x40 MLOAD DUP1 SWAP2 SUB SWAP1 REVERT JUMPDEST PUSH32 0x0 DUP3 DUP3 SWAP1 POP EQ PUSH2 0x1E55 JUMPI PUSH1 0x40 MLOAD PUSH32 0x8C379A000000000000000000000000000000000000000000000000000000000 DUP2 MSTORE PUSH1 0x4 ADD PUSH2 0x1E4C SWAP1 PUSH2 0x4CE0 JUMP JUMPDEST PUSH1 0x40 MLOAD DUP1 SWAP2 SUB SWAP1 REVERT JUMPDEST PUSH1 0x0 DUP3 DUP3 PUSH1 0x40 MLOAD PUSH1 0x20 ADD PUSH2 0x1E6A SWAP3 SWAP2 SWAP1 PUSH2 0x4A83 JUMP JUMPDEST PUSH1 0x40 MLOAD PUSH1 0x20 DUP2 DUP4 SUB SUB DUP2 MSTORE SWAP1 PUSH1 0x40 MSTORE DUP1 MLOAD SWAP1 PUSH1 0x20 ADD KECCAK256 SWAP1 POP PUSH1 0xB PUSH1 0x0 DUP3 DUP2 MSTORE PUSH1 0x20 ADD SWAP1 DUP2 MSTORE PUSH1 0x20 ADD PUSH1 0x0 KECCAK256 PUSH1 0x0 ADD PUSH1 0x8 SWAP1 SLOAD SWAP1 PUSH2 0x100 EXP SWAP1 DIV PUSH1 0xFF AND ISZERO PUSH2 0x1F46 JUMPI PUSH1 0xB PUSH1 0x0 DUP3 DUP2 MSTORE PUSH1 0x20 ADD SWAP1 DUP2 MSTORE PUSH1 0x20 ADD PUSH1 0x0 KECCAK256 PUSH1 0x0 ADD PUSH1 0x4 SWAP1 SLOAD SWAP1 PUSH2 0x100 EXP SWAP1 DIV PUSH4 0xFFFFFFFF AND PUSH4 0xFFFFFFFF AND PUSH1 0xB PUSH1 0x0 DUP4 DUP2 MSTORE PUSH1 0x20 ADD SWAP1 DUP2 MSTORE PUSH1 0x20 ADD PUSH1 0x0 KECCAK256 PUSH1 0x0 ADD PUSH1 0x0 SWAP1 SLOAD SWAP1 PUSH2 0x100 EXP SWAP1 DIV PUSH4 0xFFFFFFFF AND PUSH4 0xFFFFFFFF AND LT PUSH2 0x1F45 JUMPI PUSH1 0x40 MLOAD PUSH32 0x8C379A000000000000000000000000000000000000000000000000000000000 DUP2 MSTORE PUSH1 0x4 ADD PUSH2 0x1F3C SWAP1 PUSH2 0x4BE0 JUMP JUMPDEST PUSH1 0x40 MLOAD DUP1 SWAP2 SUB SWAP1 REVERT JUMPDEST JUMPDEST PUSH1 0x0 PUSH1 0x1 PUSH2 0x1F52 PUSH2 0x2CB3 JUMP JUMPDEST PUSH2 0x1F5C SWAP2 SWAP1 PUSH2 0x50C1 JUMP JUMPDEST SWAP1 POP PUSH2 0x1F68 CALLER DUP3 PUSH2 0x2DEC JUMP JUMPDEST PUSH1 0x1 PUSH1 0xB PUSH1 0x0 DUP5 DUP2 MSTORE PUSH1 0x20 ADD SWAP1 DUP2 MSTORE PUSH1 0x20 ADD PUSH1 0x0 KECCAK256 PUSH1 0x0 ADD PUSH1 0x0 DUP3 DUP3 DUP3 SWAP1 SLOAD SWAP1 PUSH2 0x100 EXP SWAP1 DIV PUSH4 0xFFFFFFFF AND PUSH2 0x1F9E SWAP2 SWAP1 PUSH2 0x5117 JUMP JUMPDEST SWAP3 POP PUSH2 0x100 EXP DUP2 SLOAD DUP2 PUSH4 0xFFFFFFFF MUL NOT AND SWAP1 DUP4 PUSH4 0xFFFFFFFF AND MUL OR SWAP1 SSTORE POP CALLER PUSH20 0xFFFFFFFFFFFFFFFFFFFFFFFFFFFFFFFFFFFFFFFF AND PUSH32 0x6ED0E5921C2B0F37ED5915265DF534D42BD7AD62C6C44687E004658C5E331AA DUP6 DUP6 DUP5 PUSH1 0x40 MLOAD PUSH2 0x2006 SWAP4 SWAP3 SWAP2 SWAP1 PUSH2 0x4B2F JUMP JUMPDEST PUSH1 0x40 MLOAD DUP1 SWAP2 SUB SWAP1 LOG2 PUSH1 0x1 PUSH1 0x14 PUSH1 0x0 CALLER PUSH20 0xFFFFFFFFFFFFFFFFFFFFFFFFFFFFFFFFFFFFFFFF AND PUSH20 0xFFFFFFFFFFFFFFFFFFFFFFFFFFFFFFFFFFFFFFFF AND DUP2 MSTORE PUSH1 0x20 ADD SWAP1 DUP2 MSTORE PUSH1 0x20 ADD PUSH1 0x0 KECCAK256 PUSH1 0x0 DUP3 DUP3 SLOAD PUSH2 0x205E SWAP2 SWAP1 PUSH2 0x51AB JUMP JUMPDEST SWAP3 POP POP DUP2 SWAP1 SSTORE POP POP POP POP POP JUMP JUMPDEST PUSH2 0x2073 PUSH2 0x2839 JUMP JUMPDEST PUSH20 0xFFFFFFFFFFFFFFFFFFFFFFFFFFFFFFFFFFFFFFFF AND PUSH2 0x2091 PUSH2 0x20F7 JUMP JUMPDEST PUSH20 0xFFFFFFFFFFFFFFFFFFFFFFFFFFFFFFFFFFFFFFFF AND EQ PUSH2 0x20E7 JUMPI PUSH1 0x40 MLOAD PUSH32 0x8C379A000000000000000000000000000000000000000000000000000000000 DUP2 MSTORE PUSH1 0x4 ADD PUSH2 0x20DE SWAP1 PUSH2 0x4EA0 JUMP JUMPDEST PUSH1 0x40 MLOAD DUP1 SWAP2 SUB SWAP1 REVERT JUMPDEST PUSH2 0x20F2 DUP4 DUP4 DUP4 PUSH2 0x2E6B JUMP JUMPDEST POP POP POP JUMP JUMPDEST PUSH1 0x0 PUSH1 0xF PUSH1 0x0 SWAP1 SLOAD SWAP1 PUSH2 0x100 EXP SWAP1 DIV PUSH20 0xFFFFFFFFFFFFFFFFFFFFFFFFFFFFFFFFFFFFFFFF AND SWAP1 POP SWAP1 JUMP JUMPDEST PUSH1 0x60 PUSH1 0x1 DUP1 SLOAD PUSH2 0x2130 SWAP1 PUSH2 0x52E5 JUMP JUMPDEST DUP1 PUSH1 0x1F ADD PUSH1 0x20 DUP1 SWAP2 DIV MUL PUSH1 0x20 ADD PUSH1 0x40 MLOAD SWAP1 DUP2 ADD PUSH1 0x40 MSTORE DUP1 SWAP3 SWAP2 SWAP1 DUP2 DUP2 MSTORE PUSH1 0x20 ADD DUP3 DUP1 SLOAD PUSH2 0x215C SWAP1 PUSH2 0x52E5 JUMP JUMPDEST DUP1 ISZERO PUSH2 0x21A9 JUMPI DUP1 PUSH1 0x1F LT PUSH2 0x217E JUMPI PUSH2 0x100 DUP1 DUP4 SLOAD DIV MUL DUP4 MSTORE SWAP2 PUSH1 0x20 ADD SWAP2 PUSH2 0x21A9 JUMP JUMPDEST DUP3 ADD SWAP2 SWAP1 PUSH1 0x0 MSTORE PUSH1 0x20 PUSH1 0x0 KECCAK256 SWAP1 JUMPDEST DUP2 SLOAD DUP2 MSTORE SWAP1 PUSH1 0x1 ADD SWAP1 PUSH1 0x20 ADD DUP1 DUP4 GT PUSH2 0x218C JUMPI DUP3 SWAP1 SUB PUSH1 0x1F AND DUP3 ADD SWAP2 JUMPDEST POP POP POP POP POP SWAP1 POP SWAP1 JUMP JUMPDEST PUSH1 0x12 SLOAD DUP2 JUMP JUMPDEST PUSH2 0x21CB PUSH2 0x21C4 PUSH2 0x2839 JUMP JUMPDEST DUP4 DUP4 PUSH2 0x2F02 JUMP JUMPDEST POP POP JUMP JUMPDEST PUSH2 0x21D7 PUSH2 0x2839 JUMP JUMPDEST PUSH20 0xFFFFFFFFFFFFFFFFFFFFFFFFFFFFFFFFFFFFFFFF AND PUSH2 0x21F5 PUSH2 0x20F7 JUMP JUMPDEST PUSH20 0xFFFFFFFFFFFFFFFFFFFFFFFFFFFFFFFFFFFFFFFF AND EQ PUSH2 0x224B JUMPI PUSH1 0x40 MLOAD PUSH32 0x8C379A000000000000000000000000000000000000000000000000000000000 DUP2 MSTORE PUSH1 0x4 ADD PUSH2 0x2242 SWAP1 PUSH2 0x4EA0 JUMP JUMPDEST PUSH1 0x40 MLOAD DUP1 SWAP2 SUB SWAP1 REVERT JUMPDEST PUSH1 0x1 PUSH1 0x13 PUSH1 0x0 PUSH2 0x100 EXP DUP2 SLOAD DUP2 PUSH1 0xFF MUL NOT AND SWAP1 DUP4 ISZERO ISZERO MUL OR SWAP1 SSTORE POP JUMP JUMPDEST PUSH2 0x2279 PUSH2 0x2273 PUSH2 0x2839 JUMP JUMPDEST DUP4 PUSH2 0x296E JUMP JUMPDEST PUSH2 0x22B8 JUMPI PUSH1 0x40 MLOAD PUSH32 0x8C379A000000000000000000000000000000000000000000000000000000000 DUP2 MSTORE PUSH1 0x4 ADD PUSH2 0x22AF SWAP1 PUSH2 0x4F00 JUMP JUMPDEST PUSH1 0x40 MLOAD DUP1 SWAP2 SUB SWAP1 REVERT JUMPDEST PUSH2 0x22C4 DUP5 DUP5 DUP5 DUP5 PUSH2 0x306F JUMP JUMPDEST POP POP POP POP JUMP JUMPDEST PUSH2 0x22D2 PUSH2 0x2839 JUMP JUMPDEST PUSH20 0xFFFFFFFFFFFFFFFFFFFFFFFFFFFFFFFFFFFFFFFF AND PUSH2 0x22F0 PUSH2 0x20F7 JUMP JUMPDEST PUSH20 0xFFFFFFFFFFFFFFFFFFFFFFFFFFFFFFFFFFFFFFFF AND EQ PUSH2 0x2346 JUMPI PUSH1 0x40 MLOAD PUSH32 0x8C379A000000000000000000000000000000000000000000000000000000000 DUP2 MSTORE PUSH1 0x4 ADD PUSH2 0x233D SWAP1 PUSH2 0x4EA0 JUMP JUMPDEST PUSH1 0x40 MLOAD DUP1 SWAP2 SUB SWAP1 REVERT JUMPDEST DUP1 PUSH1 0x12 DUP2 SWAP1 SSTORE POP POP JUMP JUMPDEST PUSH1 0x60 PUSH2 0x235B DUP3 PUSH2 0x30CB JUMP JUMPDEST SWAP1 POP SWAP2 SWAP1 POP JUMP JUMPDEST PUSH2 0x236A PUSH2 0x2839 JUMP JUMPDEST PUSH20 0xFFFFFFFFFFFFFFFFFFFFFFFFFFFFFFFFFFFFFFFF AND PUSH2 0x2388 PUSH2 0x20F7 JUMP JUMPDEST PUSH20 0xFFFFFFFFFFFFFFFFFFFFFFFFFFFFFFFFFFFFFFFF AND EQ PUSH2 0x23DE JUMPI PUSH1 0x40 MLOAD PUSH32 0x8C379A000000000000000000000000000000000000000000000000000000000 DUP2 MSTORE PUSH1 0x4 ADD PUSH2 0x23D5 SWAP1 PUSH2 0x4EA0 JUMP JUMPDEST PUSH1 0x40 MLOAD DUP1 SWAP2 SUB SWAP1 REVERT JUMPDEST PUSH2 0x23E7 DUP2 PUSH2 0x31E0 JUMP JUMPDEST POP JUMP JUMPDEST PUSH2 0x23F2 PUSH2 0x2839 JUMP JUMPDEST PUSH20 0xFFFFFFFFFFFFFFFFFFFFFFFFFFFFFFFFFFFFFFFF AND PUSH2 0x2410 PUSH2 0x20F7 JUMP JUMPDEST PUSH20 0xFFFFFFFFFFFFFFFFFFFFFFFFFFFFFFFFFFFFFFFF AND EQ PUSH2 0x2466 JUMPI PUSH1 0x40 MLOAD PUSH32 0x8C379A000000000000000000000000000000000000000000000000000000000 DUP2 MSTORE PUSH1 0x4 ADD PUSH2 0x245D SWAP1 PUSH2 0x4EA0 JUMP JUMPDEST PUSH1 0x40 MLOAD DUP1 SWAP2 SUB SWAP1 REVERT JUMPDEST DUP1 PUSH1 0x11 SWAP1 DUP1 MLOAD SWAP1 PUSH1 0x20 ADD SWAP1 PUSH2 0x247C SWAP3 SWAP2 SWAP1 PUSH2 0x3C7B JUMP JUMPDEST POP POP JUMP JUMPDEST PUSH1 0xB PUSH1 0x20 MSTORE DUP1 PUSH1 0x0 MSTORE PUSH1 0x40 PUSH1 0x0 KECCAK256 PUSH1 0x0 SWAP2 POP SWAP1 POP DUP1 PUSH1 0x0 ADD PUSH1 0x0 SWAP1 SLOAD SWAP1 PUSH2 0x100 EXP SWAP1 DIV PUSH4 0xFFFFFFFF AND SWAP1 DUP1 PUSH1 0x0 ADD PUSH1 0x4 SWAP1 SLOAD SWAP1 PUSH2 0x100 EXP SWAP1 DIV PUSH4 0xFFFFFFFF AND SWAP1 DUP1 PUSH1 0x0 ADD PUSH1 0x8 SWAP1 SLOAD SWAP1 PUSH2 0x100 EXP SWAP1 DIV PUSH1 0xFF AND SWAP1 POP DUP4 JUMP JUMPDEST PUSH1 0x0 PUSH1 0x5 PUSH1 0x0 DUP5 PUSH20 0xFFFFFFFFFFFFFFFFFFFFFFFFFFFFFFFFFFFFFFFF AND PUSH20 0xFFFFFFFFFFFFFFFFFFFFFFFFFFFFFFFFFFFFFFFF AND DUP2 MSTORE PUSH1 0x20 ADD SWAP1 DUP2 MSTORE PUSH1 0x20 ADD PUSH1 0x0 KECCAK256 PUSH1 0x0 DUP4 PUSH20 0xFFFFFFFFFFFFFFFFFFFFFFFFFFFFFFFFFFFFFFFF AND PUSH20 0xFFFFFFFFFFFFFFFFFFFFFFFFFFFFFFFFFFFFFFFF AND DUP2 MSTORE PUSH1 0x20 ADD SWAP1 DUP2 MSTORE PUSH1 0x20 ADD PUSH1 0x0 KECCAK256 PUSH1 0x0 SWAP1 SLOAD SWAP1 PUSH2 0x100 EXP SWAP1 DIV PUSH1 0xFF AND SWAP1 POP SWAP3 SWAP2 POP POP JUMP JUMPDEST PUSH1 0x15 PUSH1 0x20 MSTORE DUP1 PUSH1 0x0 MSTORE PUSH1 0x40 PUSH1 0x0 KECCAK256 PUSH1 0x0 SWAP2 POP SWAP1 POP SLOAD DUP2 JUMP JUMPDEST PUSH2 0x258B PUSH2 0x2839 JUMP JUMPDEST PUSH20 0xFFFFFFFFFFFFFFFFFFFFFFFFFFFFFFFFFFFFFFFF AND PUSH2 0x25A9 PUSH2 0x20F7 JUMP JUMPDEST PUSH20 0xFFFFFFFFFFFFFFFFFFFFFFFFFFFFFFFFFFFFFFFF AND EQ PUSH2 0x25FF JUMPI PUSH1 0x40 MLOAD PUSH32 0x8C379A000000000000000000000000000000000000000000000000000000000 DUP2 MSTORE PUSH1 0x4 ADD PUSH2 0x25F6 SWAP1 PUSH2 0x4EA0 JUMP JUMPDEST PUSH1 0x40 MLOAD DUP1 SWAP2 SUB SWAP1 REVERT JUMPDEST PUSH1 0x0 PUSH20 0xFFFFFFFFFFFFFFFFFFFFFFFFFFFFFFFFFFFFFFFF AND DUP2 PUSH20 0xFFFFFFFFFFFFFFFFFFFFFFFFFFFFFFFFFFFFFFFF AND EQ ISZERO PUSH2 0x266F JUMPI PUSH1 0x40 MLOAD PUSH32 0x8C379A000000000000000000000000000000000000000000000000000000000 DUP2 MSTORE PUSH1 0x4 ADD PUSH2 0x2666 SWAP1 PUSH2 0x4C40 JUMP JUMPDEST PUSH1 0x40 MLOAD DUP1 SWAP2 SUB SWAP1 REVERT JUMPDEST DUP1 PUSH20 0xFFFFFFFFFFFFFFFFFFFFFFFFFFFFFFFFFFFFFFFF AND PUSH1 0xF PUSH1 0x0 SWAP1 SLOAD SWAP1 PUSH2 0x100 EXP SWAP1 DIV PUSH20 0xFFFFFFFFFFFFFFFFFFFFFFFFFFFFFFFFFFFFFFFF AND PUSH20 0xFFFFFFFFFFFFFFFFFFFFFFFFFFFFFFFFFFFFFFFF AND PUSH32 0x8BE0079C531659141344CD1FD0A4F28419497F9722A3DAAFE3B4186F6B6457E0 PUSH1 0x40 MLOAD PUSH1 0x40 MLOAD DUP1 SWAP2 SUB SWAP1 LOG3 DUP1 PUSH1 0xF PUSH1 0x0 PUSH2 0x100 EXP DUP2 SLOAD DUP2 PUSH20 0xFFFFFFFFFFFFFFFFFFFFFFFFFFFFFFFFFFFFFFFF MUL NOT AND SWAP1 DUP4 PUSH20 0xFFFFFFFFFFFFFFFFFFFFFFFFFFFFFFFFFFFFFFFF AND MUL OR SWAP1 SSTORE POP POP JUMP JUMPDEST PUSH32 0x0 DUP2 JUMP JUMPDEST PUSH1 0x0 PUSH32 0x780E9D6300000000000000000000000000000000000000000000000000000000 PUSH28 0xFFFFFFFFFFFFFFFFFFFFFFFFFFFFFFFFFFFFFFFFFFFFFFFFFFFFFFFF NOT AND DUP3 PUSH28 0xFFFFFFFFFFFFFFFFFFFFFFFFFFFFFFFFFFFFFFFFFFFFFFFFFFFFFFFF NOT AND EQ DUP1 PUSH2 0x27C6 JUMPI POP PUSH2 0x27C5 DUP3 PUSH2 0x31FA JUMP JUMPDEST JUMPDEST SWAP1 POP SWAP2 SWAP1 POP JUMP JUMPDEST PUSH1 0x0 DUP1 PUSH20 0xFFFFFFFFFFFFFFFFFFFFFFFFFFFFFFFFFFFFFFFF AND PUSH1 0x2 PUSH1 0x0 DUP5 DUP2 MSTORE PUSH1 0x20 ADD SWAP1 DUP2 MSTORE PUSH1 0x20 ADD PUSH1 0x0 KECCAK256 PUSH1 0x0 SWAP1 SLOAD SWAP1 PUSH2 0x100 EXP SWAP1 DIV PUSH20 0xFFFFFFFFFFFFFFFFFFFFFFFFFFFFFFFFFFFFFFFF AND PUSH20 0xFFFFFFFFFFFFFFFFFFFFFFFFFFFFFFFFFFFFFFFF AND EQ ISZERO SWAP1 POP SWAP2 SWAP1 POP JUMP JUMPDEST PUSH1 0x0 CALLER SWAP1 POP SWAP1 JUMP JUMPDEST DUP2 PUSH1 0x4 PUSH1 0x0 DUP4 DUP2 MSTORE PUSH1 0x20 ADD SWAP1 DUP2 MSTORE PUSH1 0x20 ADD PUSH1 0x0 KECCAK256 PUSH1 0x0 PUSH2 0x100 EXP DUP2 SLOAD DUP2 PUSH20 0xFFFFFFFFFFFFFFFFFFFFFFFFFFFFFFFFFFFFFFFF MUL NOT AND SWAP1 DUP4 PUSH20 0xFFFFFFFFFFFFFFFFFFFFFFFFFFFFFFFFFFFFFFFF AND MUL OR SWAP1 SSTORE POP DUP1 DUP3 PUSH20 0xFFFFFFFFFFFFFFFFFFFFFFFFFFFFFFFFFFFFFFFF AND PUSH2 0x28B4 DUP4 PUSH2 0x1762 JUMP JUMPDEST PUSH20 0xFFFFFFFFFFFFFFFFFFFFFFFFFFFFFFFFFFFFFFFF AND PUSH32 0x8C5BE1E5EBEC7D5BD14F71427D1E84F3DD0314C0F7B2291E5B200AC8C7C3B925 PUSH1 0x40 MLOAD PUSH1 0x40 MLOAD DUP1 SWAP2 SUB SWAP1 LOG4 POP POP JUMP JUMPDEST PUSH2 0x2903 DUP3 PUSH2 0x27CD JUMP JUMPDEST PUSH2 0x2942 JUMPI PUSH1 0x40 MLOAD PUSH32 0x8C379A000000000000000000000000000000000000000000000000000000000 DUP2 MSTORE PUSH1 0x4 ADD PUSH2 0x2939 SWAP1 PUSH2 0x4DE0 JUMP JUMPDEST PUSH1 0x40 MLOAD DUP1 SWAP2 SUB SWAP1 REVERT JUMPDEST DUP1 PUSH1 0xA PUSH1 0x0 DUP5 DUP2 MSTORE PUSH1 0x20 ADD SWAP1 DUP2 MSTORE PUSH1 0x20 ADD PUSH1 0x0 KECCAK256 SWAP1 DUP1 MLOAD SWAP1 PUSH1 0x20 ADD SWAP1 PUSH2 0x2969 SWAP3 SWAP2 SWAP1 PUSH2 0x3C7B JUMP JUMPDEST POP POP POP JUMP JUMPDEST PUSH1 0x0 PUSH2 0x2979 DUP3 PUSH2 0x27CD JUMP JUMPDEST PUSH2 0x29B8 JUMPI PUSH1 0x40 MLOAD PUSH32 0x8C379A000000000000000000000000000000000000000000000000000000000 DUP2 MSTORE PUSH1 0x4 ADD PUSH2 0x29AF SWAP1 PUSH2 0x4D20 JUMP JUMPDEST PUSH1 0x40 MLOAD DUP1 SWAP2 SUB SWAP1 REVERT JUMPDEST PUSH1 0x0 PUSH2 0x29C3 DUP4 PUSH2 0x1762 JUMP JUMPDEST SWAP1 POP DUP1 PUSH20 0xFFFFFFFFFFFFFFFFFFFFFFFFFFFFFFFFFFFFFFFF AND DUP5 PUSH20 0xFFFFFFFFFFFFFFFFFFFFFFFFFFFFFFFFFFFFFFFF AND EQ DUP1 PUSH2 0x2A05 JUMPI POP PUSH2 0x2A04 DUP2 DUP6 PUSH2 0x24D7 JUMP JUMPDEST JUMPDEST DUP1 PUSH2 0x2A43 JUMPI POP DUP4 PUSH20 0xFFFFFFFFFFFFFFFFFFFFFFFFFFFFFFFFFFFFFFFF AND PUSH2 0x2A2B DUP5 PUSH2 0xAAB JUMP JUMPDEST PUSH20 0xFFFFFFFFFFFFFFFFFFFFFFFFFFFFFFFFFFFFFFFF AND EQ JUMPDEST SWAP2 POP POP SWAP3 SWAP2 POP POP JUMP JUMPDEST DUP3 PUSH20 0xFFFFFFFFFFFFFFFFFFFFFFFFFFFFFFFFFFFFFFFF AND PUSH2 0x2A6C DUP3 PUSH2 0x1762 JUMP JUMPDEST PUSH20 0xFFFFFFFFFFFFFFFFFFFFFFFFFFFFFFFFFFFFFFFF AND EQ PUSH2 0x2AC2 JUMPI PUSH1 0x40 MLOAD PUSH32 0x8C379A000000000000000000000000000000000000000000000000000000000 DUP2 MSTORE PUSH1 0x4 ADD PUSH2 0x2AB9 SWAP1 PUSH2 0x4C60 JUMP JUMPDEST PUSH1 0x40 MLOAD DUP1 SWAP2 SUB SWAP1 REVERT JUMPDEST PUSH1 0x0 PUSH20 0xFFFFFFFFFFFFFFFFFFFFFFFFFFFFFFFFFFFFFFFF AND DUP3 PUSH20 0xFFFFFFFFFFFFFFFFFFFFFFFFFFFFFFFFFFFFFFFF AND EQ ISZERO PUSH2 0x2B32 JUMPI PUSH1 0x40 MLOAD PUSH32 0x8C379A000000000000000000000000000000000000000000000000000000000 DUP2 MSTORE PUSH1 0x4 ADD PUSH2 0x2B29 SWAP1 PUSH2 0x4CA0 JUMP JUMPDEST PUSH1 0x40 MLOAD DUP1 SWAP2 SUB SWAP1 REVERT JUMPDEST PUSH2 0x2B3D DUP4 DUP4 DUP4 PUSH2 0x32DC JUMP JUMPDEST PUSH2 0x2B48 PUSH1 0x0 DUP3 PUSH2 0x2841 JUMP JUMPDEST PUSH1 0x1 PUSH1 0x3 PUSH1 0x0 DUP6 PUSH20 0xFFFFFFFFFFFFFFFFFFFFFFFFFFFFFFFFFFFFFFFF AND PUSH20 0xFFFFFFFFFFFFFFFFFFFFFFFFFFFFFFFFFFFFFFFF AND DUP2 MSTORE PUSH1 0x20 ADD SWAP1 DUP2 MSTORE PUSH1 0x20 ADD PUSH1 0x0 KECCAK256 PUSH1 0x0 DUP3 DUP3 SLOAD PUSH2 0x2B98 SWAP2 SWAP1 PUSH2 0x51AB JUMP JUMPDEST SWAP3 POP POP DUP2 SWAP1 SSTORE POP PUSH1 0x1 PUSH1 0x3 PUSH1 0x0 DUP5 PUSH20 0xFFFFFFFFFFFFFFFFFFFFFFFFFFFFFFFFFFFFFFFF AND PUSH20 0xFFFFFFFFFFFFFFFFFFFFFFFFFFFFFFFFFFFFFFFF AND DUP2 MSTORE PUSH1 0x20 ADD SWAP1 DUP2 MSTORE PUSH1 0x20 ADD PUSH1 0x0 KECCAK256 PUSH1 0x0 DUP3 DUP3 SLOAD PUSH2 0x2BEF SWAP2 SWAP1 PUSH2 0x50C1 JUMP JUMPDEST SWAP3 POP POP DUP2 SWAP1 SSTORE POP DUP2 PUSH1 0x2 PUSH1 0x0 DUP4 DUP2 MSTORE PUSH1 0x20 ADD SWAP1 DUP2 MSTORE PUSH1 0x20 ADD PUSH1 0x0 KECCAK256 PUSH1 0x0 PUSH2 0x100 EXP DUP2 SLOAD DUP2 PUSH20 0xFFFFFFFFFFFFFFFFFFFFFFFFFFFFFFFFFFFFFFFF MUL NOT AND SWAP1 DUP4 PUSH20 0xFFFFFFFFFFFFFFFFFFFFFFFFFFFFFFFFFFFFFFFF AND MUL OR SWAP1 SSTORE POP DUP1 DUP3 PUSH20 0xFFFFFFFFFFFFFFFFFFFFFFFFFFFFFFFFFFFFFFFF AND DUP5 PUSH20 0xFFFFFFFFFFFFFFFFFFFFFFFFFFFFFFFFFFFFFFFF AND PUSH32 0xDDF252AD1BE2C89B69C2B068FC378DAA952BA7F163C4A11628F55A4DF523B3EF PUSH1 0x40 MLOAD PUSH1 0x40 MLOAD DUP1 SWAP2 SUB SWAP1 LOG4 PUSH2 0x2CAE DUP4 DUP4 DUP4 PUSH2 0x32EC JUMP JUMPDEST POP POP POP JUMP JUMPDEST PUSH1 0x0 DUP1 PUSH1 0xD SLOAD PUSH32 0x0 PUSH2 0x2CE4 SWAP2 SWAP1 PUSH2 0x51AB JUMP JUMPDEST SWAP1 POP PUSH1 0x0 DUP1 PUSH1 0x0 DUP4 PUSH2 0x2CF4 PUSH2 0x32F1 JUMP JUMPDEST PUSH2 0x2CFE SWAP2 SWAP1 PUSH2 0x539B JUMP JUMPDEST SWAP1 POP PUSH1 0x0 PUSH1 0xE PUSH1 0x0 PUSH1 0x1 DUP8 PUSH2 0x2D13 SWAP2 SWAP1 PUSH2 0x51AB JUMP JUMPDEST DUP2 MSTORE PUSH1 0x20 ADD SWAP1 DUP2 MSTORE PUSH1 0x20 ADD PUSH1 0x0 KECCAK256 SLOAD EQ ISZERO PUSH2 0x2D3C JUMPI PUSH1 0x1 DUP5 PUSH2 0x2D35 SWAP2 SWAP1 PUSH2 0x51AB JUMP JUMPDEST SWAP3 POP PUSH2 0x2D5F JUMP JUMPDEST PUSH1 0xE PUSH1 0x0 PUSH1 0x1 DUP7 PUSH2 0x2D4D SWAP2 SWAP1 PUSH2 0x51AB JUMP JUMPDEST DUP2 MSTORE PUSH1 0x20 ADD SWAP1 DUP2 MSTORE PUSH1 0x20 ADD PUSH1 0x0 KECCAK256 SLOAD SWAP3 POP JUMPDEST PUSH1 0x0 PUSH1 0xE PUSH1 0x0 DUP4 DUP2 MSTORE PUSH1 0x20 ADD SWAP1 DUP2 MSTORE PUSH1 0x20 ADD PUSH1 0x0 KECCAK256 SLOAD EQ ISZERO PUSH2 0x2D9B JUMPI DUP1 SWAP2 POP DUP3 PUSH1 0xE PUSH1 0x0 DUP4 DUP2 MSTORE PUSH1 0x20 ADD SWAP1 DUP2 MSTORE PUSH1 0x20 ADD PUSH1 0x0 KECCAK256 DUP2 SWAP1 SSTORE POP PUSH2 0x2DCA JUMP JUMPDEST PUSH1 0xE PUSH1 0x0 DUP3 DUP2 MSTORE PUSH1 0x20 ADD SWAP1 DUP2 MSTORE PUSH1 0x20 ADD PUSH1 0x0 KECCAK256 SLOAD SWAP2 POP DUP3 PUSH1 0xE PUSH1 0x0 DUP4 DUP2 MSTORE PUSH1 0x20 ADD SWAP1 DUP2 MSTORE PUSH1 0x20 ADD PUSH1 0x0 KECCAK256 DUP2 SWAP1 SSTORE POP JUMPDEST PUSH1 0xD PUSH1 0x0 DUP2 SLOAD DUP1 SWAP3 SWAP2 SWAP1 PUSH2 0x2DDD SWAP1 PUSH2 0x5348 JUMP JUMPDEST SWAP2 SWAP1 POP SSTORE POP DUP2 SWAP5 POP POP POP POP POP SWAP1 JUMP JUMPDEST PUSH2 0x2E06 DUP3 DUP3 PUSH1 0x40 MLOAD DUP1 PUSH1 0x20 ADD PUSH1 0x40 MSTORE DUP1 PUSH1 0x0 DUP2 MSTORE POP PUSH2 0x3324 JUMP JUMPDEST POP POP JUMP JUMPDEST PUSH1 0x0 DUP3 DUP3 PUSH1 0x40 MLOAD PUSH1 0x20 ADD PUSH2 0x2E1F SWAP3 SWAP2 SWAP1 PUSH2 0x4A83 JUMP JUMPDEST PUSH1 0x40 MLOAD PUSH1 0x20 DUP2 DUP4 SUB SUB DUP2 MSTORE SWAP1 PUSH1 0x40 MSTORE DUP1 MLOAD SWAP1 PUSH1 0x20 ADD KECCAK256 SWAP1 POP PUSH1 0x0 PUSH1 0xB PUSH1 0x0 DUP4 DUP2 MSTORE PUSH1 0x20 ADD SWAP1 DUP2 MSTORE PUSH1 0x20 ADD PUSH1 0x0 KECCAK256 PUSH1 0x0 ADD PUSH1 0x8 PUSH2 0x100 EXP DUP2 SLOAD DUP2 PUSH1 0xFF MUL NOT AND SWAP1 DUP4 ISZERO ISZERO MUL OR SWAP1 SSTORE POP POP POP POP JUMP JUMPDEST PUSH1 0x0 DUP4 DUP4 PUSH1 0x40 MLOAD PUSH1 0x20 ADD PUSH2 0x2E80 SWAP3 SWAP2 SWAP1 PUSH2 0x4A83 JUMP JUMPDEST PUSH1 0x40 MLOAD PUSH1 0x20 DUP2 DUP4 SUB SUB DUP2 MSTORE SWAP1 PUSH1 0x40 MSTORE DUP1 MLOAD SWAP1 PUSH1 0x20 ADD KECCAK256 SWAP1 POP PUSH1 0x1 PUSH1 0xB PUSH1 0x0 DUP4 DUP2 MSTORE PUSH1 0x20 ADD SWAP1 DUP2 MSTORE PUSH1 0x20 ADD PUSH1 0x0 KECCAK256 PUSH1 0x0 ADD PUSH1 0x8 PUSH2 0x100 EXP DUP2 SLOAD DUP2 PUSH1 0xFF MUL NOT AND SWAP1 DUP4 ISZERO ISZERO MUL OR SWAP1 SSTORE POP DUP2 PUSH1 0xB PUSH1 0x0 DUP4 DUP2 MSTORE PUSH1 0x20 ADD SWAP1 DUP2 MSTORE PUSH1 0x20 ADD PUSH1 0x0 KECCAK256 PUSH1 0x0 ADD PUSH1 0x4 PUSH2 0x100 EXP DUP2 SLOAD DUP2 PUSH4 0xFFFFFFFF MUL NOT AND SWAP1 DUP4 PUSH4 0xFFFFFFFF AND MUL OR SWAP1 SSTORE POP POP POP POP POP JUMP JUMPDEST DUP2 PUSH20 0xFFFFFFFFFFFFFFFFFFFFFFFFFFFFFFFFFFFFFFFF AND DUP4 PUSH20 0xFFFFFFFFFFFFFFFFFFFFFFFFFFFFFFFFFFFFFFFF AND EQ ISZERO PUSH2 0x2F71 JUMPI PUSH1 0x40 MLOAD PUSH32 0x8C379A000000000000000000000000000000000000000000000000000000000 DUP2 MSTORE PUSH1 0x4 ADD PUSH2 0x2F68 SWAP1 PUSH2 0x4CC0 JUMP JUMPDEST PUSH1 0x40 MLOAD DUP1 SWAP2 SUB SWAP1 REVERT JUMPDEST DUP1 PUSH1 0x5 PUSH1 0x0 DUP6 PUSH20 0xFFFFFFFFFFFFFFFFFFFFFFFFFFFFFFFFFFFFFFFF AND PUSH20 0xFFFFFFFFFFFFFFFFFFFFFFFFFFFFFFFFFFFFFFFF AND DUP2 MSTORE PUSH1 0x20 ADD SWAP1 DUP2 MSTORE PUSH1 0x20 ADD PUSH1 0x0 KECCAK256 PUSH1 0x0 DUP5 PUSH20 0xFFFFFFFFFFFFFFFFFFFFFFFFFFFFFFFFFFFFFFFF AND PUSH20 0xFFFFFFFFFFFFFFFFFFFFFFFFFFFFFFFFFFFFFFFF AND DUP2 MSTORE PUSH1 0x20 ADD SWAP1 DUP2 MSTORE PUSH1 0x20 ADD PUSH1 0x0 KECCAK256 PUSH1 0x0 PUSH2 0x100 EXP DUP2 SLOAD DUP2 PUSH1 0xFF MUL NOT AND SWAP1 DUP4 ISZERO ISZERO MUL OR SWAP1 SSTORE POP DUP2 PUSH20 0xFFFFFFFFFFFFFFFFFFFFFFFFFFFFFFFFFFFFFFFF AND DUP4 PUSH20 0xFFFFFFFFFFFFFFFFFFFFFFFFFFFFFFFFFFFFFFFF AND PUSH32 0x17307EAB39AB6107E8899845AD3D59BD9653F200F220920489CA2B5937696C31 DUP4 PUSH1 0x40 MLOAD PUSH2 0x3062 SWAP2 SWAP1 PUSH2 0x4B83 JUMP JUMPDEST PUSH1 0x40 MLOAD DUP1 SWAP2 SUB SWAP1 LOG3 POP POP POP JUMP JUMPDEST PUSH2 0x307A DUP5 DUP5 DUP5 PUSH2 0x2A4C JUMP JUMPDEST PUSH2 0x3086 DUP5 DUP5 DUP5 DUP5 PUSH2 0x337F JUMP JUMPDEST PUSH2 0x30C5 JUMPI PUSH1 0x40 MLOAD PUSH32 0x8C379A000000000000000000000000000000000000000000000000000000000 DUP2 MSTORE PUSH1 0x4 ADD PUSH2 0x30BC SWAP1 PUSH2 0x4C20 JUMP JUMPDEST PUSH1 0x40 MLOAD DUP1 SWAP2 SUB SWAP1 REVERT JUMPDEST POP POP POP POP JUMP JUMPDEST PUSH1 0x60 PUSH2 0x30D6 DUP3 PUSH2 0x27CD JUMP JUMPDEST PUSH2 0x3115 JUMPI PUSH1 0x40 MLOAD PUSH32 0x8C379A000000000000000000000000000000000000000000000000000000000 DUP2 MSTORE PUSH1 0x4 ADD PUSH2 0x310C SWAP1 PUSH2 0x4E60 JUMP JUMPDEST PUSH1 0x40 MLOAD DUP1 SWAP2 SUB SWAP1 REVERT JUMPDEST PUSH1 0x0 PUSH1 0xA PUSH1 0x0 DUP5 DUP2 MSTORE PUSH1 0x20 ADD SWAP1 DUP2 MSTORE PUSH1 0x20 ADD PUSH1 0x0 KECCAK256 DUP1 SLOAD PUSH2 0x3135 SWAP1 PUSH2 0x52E5 JUMP JUMPDEST DUP1 PUSH1 0x1F ADD PUSH1 0x20 DUP1 SWAP2 DIV MUL PUSH1 0x20 ADD PUSH1 0x40 MLOAD SWAP1 DUP2 ADD PUSH1 0x40 MSTORE DUP1 SWAP3 SWAP2 SWAP1 DUP2 DUP2 MSTORE PUSH1 0x20 ADD DUP3 DUP1 SLOAD PUSH2 0x3161 SWAP1 PUSH2 0x52E5 JUMP JUMPDEST DUP1 ISZERO PUSH2 0x31AE JUMPI DUP1 PUSH1 0x1F LT PUSH2 0x3183 JUMPI PUSH2 0x100 DUP1 DUP4 SLOAD DIV MUL DUP4 MSTORE SWAP2 PUSH1 0x20 ADD SWAP2 PUSH2 0x31AE JUMP JUMPDEST DUP3 ADD SWAP2 SWAP1 PUSH1 0x0 MSTORE PUSH1 0x20 PUSH1 0x0 KECCAK256 SWAP1 JUMPDEST DUP2 SLOAD DUP2 MSTORE SWAP1 PUSH1 0x1 ADD SWAP1 PUSH1 0x20 ADD DUP1 DUP4 GT PUSH2 0x3191 JUMPI DUP3 SWAP1 SUB PUSH1 0x1F AND DUP3 ADD SWAP2 JUMPDEST POP POP POP POP POP SWAP1 POP PUSH1 0x0 PUSH2 0x31BF PUSH2 0x3516 JUMP JUMPDEST SWAP1 POP PUSH1 0x0 DUP3 MLOAD EQ ISZERO PUSH2 0x31D5 JUMPI DUP1 SWAP3 POP POP POP PUSH2 0x31DB JUMP JUMPDEST DUP2 SWAP3 POP POP POP JUMPDEST SWAP2 SWAP1 POP JUMP JUMPDEST DUP1 PUSH1 0xC SWAP1 DUP1 MLOAD SWAP1 PUSH1 0x20 ADD SWAP1 PUSH2 0x31F6 SWAP3 SWAP2 SWAP1 PUSH2 0x3D01 JUMP JUMPDEST POP POP JUMP JUMPDEST PUSH1 0x0 PUSH32 0x80AC58CD00000000000000000000000000000000000000000000000000000000 PUSH28 0xFFFFFFFFFFFFFFFFFFFFFFFFFFFFFFFFFFFFFFFFFFFFFFFFFFFFFFFF NOT AND DUP3 PUSH28 0xFFFFFFFFFFFFFFFFFFFFFFFFFFFFFFFFFFFFFFFFFFFFFFFFFFFFFFFF NOT AND EQ DUP1 PUSH2 0x32C5 JUMPI POP PUSH32 0x5B5E139F00000000000000000000000000000000000000000000000000000000 PUSH28 0xFFFFFFFFFFFFFFFFFFFFFFFFFFFFFFFFFFFFFFFFFFFFFFFFFFFFFFFF NOT AND DUP3 PUSH28 0xFFFFFFFFFFFFFFFFFFFFFFFFFFFFFFFFFFFFFFFFFFFFFFFFFFFFFFFF NOT AND EQ JUMPDEST DUP1 PUSH2 0x32D5 JUMPI POP PUSH2 0x32D4 DUP3 PUSH2 0x35A8 JUMP JUMPDEST JUMPDEST SWAP1 POP SWAP2 SWAP1 POP JUMP JUMPDEST PUSH2 0x32E7 DUP4 DUP4 DUP4 PUSH2 0x3612 JUMP JUMPDEST POP POP POP JUMP JUMPDEST POP POP POP JUMP JUMPDEST PUSH1 0x0 DIFFICULTY TIMESTAMP PUSH1 0x40 MLOAD PUSH1 0x20 ADD PUSH2 0x3306 SWAP3 SWAP2 SWAP1 PUSH2 0x4A9C JUMP JUMPDEST PUSH1 0x40 MLOAD PUSH1 0x20 DUP2 DUP4 SUB SUB DUP2 MSTORE SWAP1 PUSH1 0x40 MSTORE DUP1 MLOAD SWAP1 PUSH1 0x20 ADD KECCAK256 PUSH1 0x0 SHR SWAP1 POP SWAP1 JUMP JUMPDEST PUSH2 0x332E DUP4 DUP4 PUSH2 0x3726 JUMP JUMPDEST PUSH2 0x333B PUSH1 0x0 DUP5 DUP5 DUP5 PUSH2 0x337F JUMP JUMPDEST PUSH2 0x337A JUMPI PUSH1 0x40 MLOAD PUSH32 0x8C379A000000000000000000000000000000000000000000000000000000000 DUP2 MSTORE PUSH1 0x4 ADD PUSH2 0x3371 SWAP1 PUSH2 0x4C20 JUMP JUMPDEST PUSH1 0x40 MLOAD DUP1 SWAP2 SUB SWAP1 REVERT JUMPDEST POP POP POP JUMP JUMPDEST PUSH1 0x0 PUSH2 0x33A0 DUP5 PUSH20 0xFFFFFFFFFFFFFFFFFFFFFFFFFFFFFFFFFFFFFFFF AND PUSH2 0x3900 JUMP JUMPDEST ISZERO PUSH2 0x3509 JUMPI DUP4 PUSH20 0xFFFFFFFFFFFFFFFFFFFFFFFFFFFFFFFFFFFFFFFF AND PUSH4 0x150B7A02 PUSH2 0x33C9 PUSH2 0x2839 JUMP JUMPDEST DUP8 DUP7 DUP7 PUSH1 0x40 MLOAD DUP6 PUSH4 0xFFFFFFFF AND PUSH1 0xE0 SHL DUP2 MSTORE PUSH1 0x4 ADD PUSH2 0x33EB SWAP5 SWAP4 SWAP3 SWAP2 SWAP1 PUSH2 0x4AE3 JUMP JUMPDEST PUSH1 0x20 PUSH1 0x40 MLOAD DUP1 DUP4 SUB DUP2 PUSH1 0x0 DUP8 DUP1 EXTCODESIZE ISZERO DUP1 ISZERO PUSH2 0x3405 JUMPI PUSH1 0x0 DUP1 REVERT JUMPDEST POP GAS CALL SWAP3 POP POP POP DUP1 ISZERO PUSH2 0x3436 JUMPI POP PUSH1 0x40 MLOAD RETURNDATASIZE PUSH1 0x1F NOT PUSH1 0x1F DUP3 ADD AND DUP3 ADD DUP1 PUSH1 0x40 MSTORE POP DUP2 ADD SWAP1 PUSH2 0x3433 SWAP2 SWAP1 PUSH2 0x433B JUMP JUMPDEST PUSH1 0x1 JUMPDEST PUSH2 0x34B9 JUMPI RETURNDATASIZE DUP1 PUSH1 0x0 DUP2 EQ PUSH2 0x3466 JUMPI PUSH1 0x40 MLOAD SWAP2 POP PUSH1 0x1F NOT PUSH1 0x3F RETURNDATASIZE ADD AND DUP3 ADD PUSH1 0x40 MSTORE RETURNDATASIZE DUP3 MSTORE RETURNDATASIZE PUSH1 0x0 PUSH1 0x20 DUP5 ADD RETURNDATACOPY PUSH2 0x346B JUMP JUMPDEST PUSH1 0x60 SWAP2 POP JUMPDEST POP PUSH1 0x0 DUP2 MLOAD EQ ISZERO PUSH2 0x34B1 JUMPI PUSH1 0x40 MLOAD PUSH32 0x8C379A000000000000000000000000000000000000000000000000000000000 DUP2 MSTORE PUSH1 0x4 ADD PUSH2 0x34A8 SWAP1 PUSH2 0x4C20 JUMP JUMPDEST PUSH1 0x40 MLOAD DUP1 SWAP2 SUB SWAP1 REVERT JUMPDEST DUP1 MLOAD DUP2 PUSH1 0x20 ADD REVERT JUMPDEST PUSH4 0x150B7A02 PUSH1 0xE0 SHL PUSH28 0xFFFFFFFFFFFFFFFFFFFFFFFFFFFFFFFFFFFFFFFFFFFFFFFFFFFFFFFF NOT AND DUP2 PUSH28 0xFFFFFFFFFFFFFFFFFFFFFFFFFFFFFFFFFFFFFFFFFFFFFFFFFFFFFFFF NOT AND EQ SWAP2 POP POP PUSH2 0x350E JUMP JUMPDEST PUSH1 0x1 SWAP1 POP JUMPDEST SWAP5 SWAP4 POP POP POP POP JUMP JUMPDEST PUSH1 0x60 PUSH1 0x11 DUP1 SLOAD PUSH2 0x3525 SWAP1 PUSH2 0x52E5 JUMP JUMPDEST DUP1 PUSH1 0x1F ADD PUSH1 0x20 DUP1 SWAP2 DIV MUL PUSH1 0x20 ADD PUSH1 0x40 MLOAD SWAP1 DUP2 ADD PUSH1 0x40 MSTORE DUP1 SWAP3 SWAP2 SWAP1 DUP2 DUP2 MSTORE PUSH1 0x20 ADD DUP3 DUP1 SLOAD PUSH2 0x3551 SWAP1 PUSH2 0x52E5 JUMP JUMPDEST DUP1 ISZERO PUSH2 0x359E JUMPI DUP1 PUSH1 0x1F LT PUSH2 0x3573 JUMPI PUSH2 0x100 DUP1 DUP4 SLOAD DIV MUL DUP4 MSTORE SWAP2 PUSH1 0x20 ADD SWAP2 PUSH2 0x359E JUMP JUMPDEST DUP3 ADD SWAP2 SWAP1 PUSH1 0x0 MSTORE PUSH1 0x20 PUSH1 0x0 KECCAK256 SWAP1 JUMPDEST DUP2 SLOAD DUP2 MSTORE SWAP1 PUSH1 0x1 ADD SWAP1 PUSH1 0x20 ADD DUP1 DUP4 GT PUSH2 0x3581 JUMPI DUP3 SWAP1 SUB PUSH1 0x1F AND DUP3 ADD SWAP2 JUMPDEST POP POP POP POP POP SWAP1 POP SWAP1 JUMP JUMPDEST PUSH1 0x0 PUSH32 0x1FFC9A700000000000000000000000000000000000000000000000000000000 PUSH28 0xFFFFFFFFFFFFFFFFFFFFFFFFFFFFFFFFFFFFFFFFFFFFFFFFFFFFFFFF NOT AND DUP3 PUSH28 0xFFFFFFFFFFFFFFFFFFFFFFFFFFFFFFFFFFFFFFFFFFFFFFFFFFFFFFFF NOT AND EQ SWAP1 POP SWAP2 SWAP1 POP JUMP JUMPDEST PUSH2 0x361D DUP4 DUP4 DUP4 PUSH2 0x3923 JUMP JUMPDEST PUSH1 0x0 PUSH20 0xFFFFFFFFFFFFFFFFFFFFFFFFFFFFFFFFFFFFFFFF AND DUP4 PUSH20 0xFFFFFFFFFFFFFFFFFFFFFFFFFFFFFFFFFFFFFFFF AND EQ ISZERO PUSH2 0x3660 JUMPI PUSH2 0x365B DUP2 PUSH2 0x3928 JUMP JUMPDEST PUSH2 0x369F JUMP JUMPDEST DUP2 PUSH20 0xFFFFFFFFFFFFFFFFFFFFFFFFFFFFFFFFFFFFFFFF AND DUP4 PUSH20 0xFFFFFFFFFFFFFFFFFFFFFFFFFFFFFFFFFFFFFFFF AND EQ PUSH2 0x369E JUMPI PUSH2 0x369D DUP4 DUP3 PUSH2 0x3971 JUMP JUMPDEST JUMPDEST JUMPDEST PUSH1 0x0 PUSH20 0xFFFFFFFFFFFFFFFFFFFFFFFFFFFFFFFFFFFFFFFF AND DUP3 PUSH20 0xFFFFFFFFFFFFFFFFFFFFFFFFFFFFFFFFFFFFFFFF AND EQ ISZERO PUSH2 0x36E2 JUMPI PUSH2 0x36DD DUP2 PUSH2 0x3ADE JUMP JUMPDEST PUSH2 0x3721 JUMP JUMPDEST DUP3 PUSH20 0xFFFFFFFFFFFFFFFFFFFFFFFFFFFFFFFFFFFFFFFF AND DUP3 PUSH20 0xFFFFFFFFFFFFFFFFFFFFFFFFFFFFFFFFFFFFFFFF AND EQ PUSH2 0x3720 JUMPI PUSH2 0x371F DUP3 DUP3 PUSH2 0x3BAF JUMP JUMPDEST JUMPDEST JUMPDEST POP POP POP JUMP JUMPDEST PUSH1 0x0 PUSH20 0xFFFFFFFFFFFFFFFFFFFFFFFFFFFFFFFFFFFFFFFF AND DUP3 PUSH20 0xFFFFFFFFFFFFFFFFFFFFFFFFFFFFFFFFFFFFFFFF AND EQ ISZERO PUSH2 0x3796 JUMPI PUSH1 0x40 MLOAD PUSH32 0x8C379A000000000000000000000000000000000000000000000000000000000 DUP2 MSTORE PUSH1 0x4 ADD PUSH2 0x378D SWAP1 PUSH2 0x4E00 JUMP JUMPDEST PUSH1 0x40 MLOAD DUP1 SWAP2 SUB SWAP1 REVERT JUMPDEST PUSH2 0x379F DUP2 PUSH2 0x27CD JUMP JUMPDEST ISZERO PUSH2 0x37DF JUMPI PUSH1 0x40 MLOAD PUSH32 0x8C379A000000000000000000000000000000000000000000000000000000000 DUP2 MSTORE PUSH1 0x4 ADD PUSH2 0x37D6 SWAP1 PUSH2 0x4C80 JUMP JUMPDEST PUSH1 0x40 MLOAD DUP1 SWAP2 SUB SWAP1 REVERT JUMPDEST PUSH2 0x37EB PUSH1 0x0 DUP4 DUP4 PUSH2 0x32DC JUMP JUMPDEST PUSH1 0x1 PUSH1 0x3 PUSH1 0x0 DUP5 PUSH20 0xFFFFFFFFFFFFFFFFFFFFFFFFFFFFFFFFFFFFFFFF AND PUSH20 0xFFFFFFFFFFFFFFFFFFFFFFFFFFFFFFFFFFFFFFFF AND DUP2 MSTORE PUSH1 0x20 ADD SWAP1 DUP2 MSTORE PUSH1 0x20 ADD PUSH1 0x0 KECCAK256 PUSH1 0x0 DUP3 DUP3 SLOAD PUSH2 0x383B SWAP2 SWAP1 PUSH2 0x50C1 JUMP JUMPDEST SWAP3 POP POP DUP2 SWAP1 SSTORE POP DUP2 PUSH1 0x2 PUSH1 0x0 DUP4 DUP2 MSTORE PUSH1 0x20 ADD SWAP1 DUP2 MSTORE PUSH1 0x20 ADD PUSH1 0x0 KECCAK256 PUSH1 0x0 PUSH2 0x100 EXP DUP2 SLOAD DUP2 PUSH20 0xFFFFFFFFFFFFFFFFFFFFFFFFFFFFFFFFFFFFFFFF MUL NOT AND SWAP1 DUP4 PUSH20 0xFFFFFFFFFFFFFFFFFFFFFFFFFFFFFFFFFFFFFFFF AND MUL OR SWAP1 SSTORE POP DUP1 DUP3 PUSH20 0xFFFFFFFFFFFFFFFFFFFFFFFFFFFFFFFFFFFFFFFF AND PUSH1 0x0 PUSH20 0xFFFFFFFFFFFFFFFFFFFFFFFFFFFFFFFFFFFFFFFF AND PUSH32 0xDDF252AD1BE2C89B69C2B068FC378DAA952BA7F163C4A11628F55A4DF523B3EF PUSH1 0x40 MLOAD PUSH1 0x40 MLOAD DUP1 SWAP2 SUB SWAP1 LOG4 PUSH2 0x38FC PUSH1 0x0 DUP4 DUP4 PUSH2 0x32EC JUMP JUMPDEST POP POP JUMP JUMPDEST PUSH1 0x0 DUP1 DUP3 PUSH20 0xFFFFFFFFFFFFFFFFFFFFFFFFFFFFFFFFFFFFFFFF AND EXTCODESIZE GT SWAP1 POP SWAP2 SWAP1 POP JUMP JUMPDEST POP POP POP JUMP JUMPDEST PUSH1 0x8 DUP1 SLOAD SWAP1 POP PUSH1 0x9 PUSH1 0x0 DUP4 DUP2 MSTORE PUSH1 0x20 ADD SWAP1 DUP2 MSTORE PUSH1 0x20 ADD PUSH1 0x0 KECCAK256 DUP2 SWAP1 SSTORE POP PUSH1 0x8 DUP2 SWAP1 DUP1 PUSH1 0x1 DUP2 SLOAD ADD DUP1 DUP3 SSTORE DUP1 SWAP2 POP POP PUSH1 0x1 SWAP1 SUB SWAP1 PUSH1 0x0 MSTORE PUSH1 0x20 PUSH1 0x0 KECCAK256 ADD PUSH1 0x0 SWAP1 SWAP2 SWAP1 SWAP2 SWAP1 SWAP2 POP SSTORE POP JUMP JUMPDEST PUSH1 0x0 PUSH1 0x1 PUSH2 0x397E DUP5 PUSH2 0x1814 JUMP JUMPDEST PUSH2 0x3988 SWAP2 SWAP1 PUSH2 0x51AB JUMP JUMPDEST SWAP1 POP PUSH1 0x0 PUSH1 0x7 PUSH1 0x0 DUP5 DUP2 MSTORE PUSH1 0x20 ADD SWAP1 DUP2 MSTORE PUSH1 0x20 ADD PUSH1 0x0 KECCAK256 SLOAD SWAP1 POP DUP2 DUP2 EQ PUSH2 0x3A6D JUMPI PUSH1 0x0 PUSH1 0x6 PUSH1 0x0 DUP7 PUSH20 0xFFFFFFFFFFFFFFFFFFFFFFFFFFFFFFFFFFFFFFFF AND PUSH20 0xFFFFFFFFFFFFFFFFFFFFFFFFFFFFFFFFFFFFFFFF AND DUP2 MSTORE PUSH1 0x20 ADD SWAP1 DUP2 MSTORE PUSH1 0x20 ADD PUSH1 0x0 KECCAK256 PUSH1 0x0 DUP5 DUP2 MSTORE PUSH1 0x20 ADD SWAP1 DUP2 MSTORE PUSH1 0x20 ADD PUSH1 0x0 KECCAK256 SLOAD SWAP1 POP DUP1 PUSH1 0x6 PUSH1 0x0 DUP8 PUSH20 0xFFFFFFFFFFFFFFFFFFFFFFFFFFFFFFFFFFFFFFFF AND PUSH20 0xFFFFFFFFFFFFFFFFFFFFFFFFFFFFFFFFFFFFFFFF AND DUP2 MSTORE PUSH1 0x20 ADD SWAP1 DUP2 MSTORE PUSH1 0x20 ADD PUSH1 0x0 KECCAK256 PUSH1 0x0 DUP5 DUP2 MSTORE PUSH1 0x20 ADD SWAP1 DUP2 MSTORE PUSH1 0x20 ADD PUSH1 0x0 KECCAK256 DUP2 SWAP1 SSTORE POP DUP2 PUSH1 0x7 PUSH1 0x0 DUP4 DUP2 MSTORE PUSH1 0x20 ADD SWAP1 DUP2 MSTORE PUSH1 0x20 ADD PUSH1 0x0 KECCAK256 DUP2 SWAP1 SSTORE POP POP JUMPDEST PUSH1 0x7 PUSH1 0x0 DUP5 DUP2 MSTORE PUSH1 0x20 ADD SWAP1 DUP2 MSTORE PUSH1 0x20 ADD PUSH1 0x0 KECCAK256 PUSH1 0x0 SWAP1 SSTORE PUSH1 0x6 PUSH1 0x0 DUP6 PUSH20 0xFFFFFFFFFFFFFFFFFFFFFFFFFFFFFFFFFFFFFFFF AND PUSH20 0xFFFFFFFFFFFFFFFFFFFFFFFFFFFFFFFFFFFFFFFF AND DUP2 MSTORE PUSH1 0x20 ADD SWAP1 DUP2 MSTORE PUSH1 0x20 ADD PUSH1 0x0 KECCAK256 PUSH1 0x0 DUP4 DUP2 MSTORE PUSH1 0x20 ADD SWAP1 DUP2 MSTORE PUSH1 0x20 ADD PUSH1 0x0 KECCAK256 PUSH1 0x0 SWAP1 SSTORE POP POP POP POP JUMP JUMPDEST PUSH1 0x0 PUSH1 0x1 PUSH1 0x8 DUP1 SLOAD SWAP1 POP PUSH2 0x3AF2 SWAP2 SWAP1 PUSH2 0x51AB JUMP JUMPDEST SWAP1 POP PUSH1 0x0 PUSH1 0x9 PUSH1 0x0 DUP5 DUP2 MSTORE PUSH1 0x20 ADD SWAP1 DUP2 MSTORE PUSH1 0x20 ADD PUSH1 0x0 KECCAK256 SLOAD SWAP1 POP PUSH1 0x0 PUSH1 0x8 DUP4 DUP2 SLOAD DUP2 LT PUSH2 0x3B22 JUMPI PUSH2 0x3B21 PUSH2 0x5488 JUMP JUMPDEST JUMPDEST SWAP1 PUSH1 0x0 MSTORE PUSH1 0x20 PUSH1 0x0 KECCAK256 ADD SLOAD SWAP1 POP DUP1 PUSH1 0x8 DUP4 DUP2 SLOAD DUP2 LT PUSH2 0x3B44 JUMPI PUSH2 0x3B43 PUSH2 0x5488 JUMP JUMPDEST JUMPDEST SWAP1 PUSH1 0x0 MSTORE PUSH1 0x20 PUSH1 0x0 KECCAK256 ADD DUP2 SWAP1 SSTORE POP DUP2 PUSH1 0x9 PUSH1 0x0 DUP4 DUP2 MSTORE PUSH1 0x20 ADD SWAP1 DUP2 MSTORE PUSH1 0x20 ADD PUSH1 0x0 KECCAK256 DUP2 SWAP1 SSTORE POP PUSH1 0x9 PUSH1 0x0 DUP6 DUP2 MSTORE PUSH1 0x20 ADD SWAP1 DUP2 MSTORE PUSH1 0x20 ADD PUSH1 0x0 KECCAK256 PUSH1 0x0 SWAP1 SSTORE PUSH1 0x8 DUP1 SLOAD DUP1 PUSH2 0x3B93 JUMPI PUSH2 0x3B92 PUSH2 0x5459 JUMP JUMPDEST JUMPDEST PUSH1 0x1 SWAP1 SUB DUP2 DUP2 SWAP1 PUSH1 0x0 MSTORE PUSH1 0x20 PUSH1 0x0 KECCAK256 ADD PUSH1 0x0 SWAP1 SSTORE SWAP1 SSTORE POP POP POP POP JUMP JUMPDEST PUSH1 0x0 PUSH2 0x3BBA DUP4 PUSH2 0x1814 JUMP JUMPDEST SWAP1 POP DUP2 PUSH1 0x6 PUSH1 0x0 DUP6 PUSH20 0xFFFFFFFFFFFFFFFFFFFFFFFFFFFFFFFFFFFFFFFF AND PUSH20 0xFFFFFFFFFFFFFFFFFFFFFFFFFFFFFFFFFFFFFFFF AND DUP2 MSTORE PUSH1 0x20 ADD SWAP1 DUP2 MSTORE PUSH1 0x20 ADD PUSH1 0x0 KECCAK256 PUSH1 0x0 DUP4 DUP2 MSTORE PUSH1 0x20 ADD SWAP1 DUP2 MSTORE PUSH1 0x20 ADD PUSH1 0x0 KECCAK256 DUP2 SWAP1 SSTORE POP DUP1 PUSH1 0x7 PUSH1 0x0 DUP5 DUP2 MSTORE PUSH1 0x20 ADD SWAP1 DUP2 MSTORE PUSH1 0x20 ADD PUSH1 0x0 KECCAK256 DUP2 SWAP1 SSTORE POP POP POP POP JUMP JUMPDEST DUP3 DUP1 SLOAD DUP3 DUP3 SSTORE SWAP1 PUSH1 0x0 MSTORE PUSH1 0x20 PUSH1 0x0 KECCAK256 SWAP1 DUP2 ADD SWAP3 DUP3 ISZERO PUSH2 0x3C6A JUMPI SWAP2 PUSH1 0x20 MUL DUP3 ADD JUMPDEST DUP3 DUP2 GT ISZERO PUSH2 0x3C69 JUMPI DUP3 CALLDATALOAD DUP3 SSTORE SWAP2 PUSH1 0x20 ADD SWAP2 SWAP1 PUSH1 0x1 ADD SWAP1 PUSH2 0x3C4E JUMP JUMPDEST JUMPDEST POP SWAP1 POP PUSH2 0x3C77 SWAP2 SWAP1 PUSH2 0x3D4E JUMP JUMPDEST POP SWAP1 JUMP JUMPDEST DUP3 DUP1 SLOAD PUSH2 0x3C87 SWAP1 PUSH2 0x52E5 JUMP JUMPDEST SWAP1 PUSH1 0x0 MSTORE PUSH1 0x20 PUSH1 0x0 KECCAK256 SWAP1 PUSH1 0x1F ADD PUSH1 0x20 SWAP1 DIV DUP2 ADD SWAP3 DUP3 PUSH2 0x3CA9 JUMPI PUSH1 0x0 DUP6 SSTORE PUSH2 0x3CF0 JUMP JUMPDEST DUP3 PUSH1 0x1F LT PUSH2 0x3CC2 JUMPI DUP1 MLOAD PUSH1 0xFF NOT AND DUP4 DUP1 ADD OR DUP6 SSTORE PUSH2 0x3CF0 JUMP JUMPDEST DUP3 DUP1 ADD PUSH1 0x1 ADD DUP6 SSTORE DUP3 ISZERO PUSH2 0x3CF0 JUMPI SWAP2 DUP3 ADD JUMPDEST DUP3 DUP2 GT ISZERO PUSH2 0x3CEF JUMPI DUP3 MLOAD DUP3 SSTORE SWAP2 PUSH1 0x20 ADD SWAP2 SWAP1 PUSH1 0x1 ADD SWAP1 PUSH2 0x3CD4 JUMP JUMPDEST JUMPDEST POP SWAP1 POP PUSH2 0x3CFD SWAP2 SWAP1 PUSH2 0x3D4E JUMP JUMPDEST POP SWAP1 JUMP JUMPDEST DUP3 DUP1 SLOAD DUP3 DUP3 SSTORE SWAP1 PUSH1 0x0 MSTORE PUSH1 0x20 PUSH1 0x0 KECCAK256 SWAP1 DUP2 ADD SWAP3 DUP3 ISZERO PUSH2 0x3D3D JUMPI SWAP2 PUSH1 0x20 MUL DUP3 ADD JUMPDEST DUP3 DUP2 GT ISZERO PUSH2 0x3D3C JUMPI DUP3 MLOAD DUP3 SSTORE SWAP2 PUSH1 0x20 ADD SWAP2 SWAP1 PUSH1 0x1 ADD SWAP1 PUSH2 0x3D21 JUMP JUMPDEST JUMPDEST POP SWAP1 POP PUSH2 0x3D4A SWAP2 SWAP1 PUSH2 0x3D4E JUMP JUMPDEST POP SWAP1 JUMP JUMPDEST JUMPDEST DUP1 DUP3 GT ISZERO PUSH2 0x3D67 JUMPI PUSH1 0x0 DUP2 PUSH1 0x0 SWAP1 SSTORE POP PUSH1 0x1 ADD PUSH2 0x3D4F JUMP JUMPDEST POP SWAP1 JUMP JUMPDEST PUSH1 0x0 PUSH2 0x3D7E PUSH2 0x3D79 DUP5 PUSH2 0x4FB7 JUMP JUMPDEST PUSH2 0x4F92 JUMP JUMPDEST SWAP1 POP DUP1 DUP4 DUP3 MSTORE PUSH1 0x20 DUP3 ADD SWAP1 POP DUP3 DUP6 PUSH1 0x20 DUP7 MUL DUP3 ADD GT ISZERO PUSH2 0x3DA1 JUMPI PUSH2 0x3DA0 PUSH2 0x54F0 JUMP JUMPDEST JUMPDEST PUSH1 0x0 JUMPDEST DUP6 DUP2 LT ISZERO PUSH2 0x3DD1 JUMPI DUP2 PUSH2 0x3DB7 DUP9 DUP3 PUSH2 0x3FFE JUMP JUMPDEST DUP5 MSTORE PUSH1 0x20 DUP5 ADD SWAP4 POP PUSH1 0x20 DUP4 ADD SWAP3 POP POP PUSH1 0x1 DUP2 ADD SWAP1 POP PUSH2 0x3DA4 JUMP JUMPDEST POP POP POP SWAP4 SWAP3 POP POP POP JUMP JUMPDEST PUSH1 0x0 PUSH2 0x3DEE PUSH2 0x3DE9 DUP5 PUSH2 0x4FE3 JUMP JUMPDEST PUSH2 0x4F92 JUMP JUMPDEST SWAP1 POP DUP3 DUP2 MSTORE PUSH1 0x20 DUP2 ADD DUP5 DUP5 DUP5 ADD GT ISZERO PUSH2 0x3E0A JUMPI PUSH2 0x3E09 PUSH2 0x54F5 JUMP JUMPDEST JUMPDEST PUSH2 0x3E15 DUP5 DUP3 DUP6 PUSH2 0x52A3 JUMP JUMPDEST POP SWAP4 SWAP3 POP POP POP JUMP JUMPDEST PUSH1 0x0 PUSH2 0x3E30 PUSH2 0x3E2B DUP5 PUSH2 0x5014 JUMP JUMPDEST PUSH2 0x4F92 JUMP JUMPDEST SWAP1 POP DUP3 DUP2 MSTORE PUSH1 0x20 DUP2 ADD DUP5 DUP5 DUP5 ADD GT ISZERO PUSH2 0x3E4C JUMPI PUSH2 0x3E4B PUSH2 0x54F5 JUMP JUMPDEST JUMPDEST PUSH2 0x3E57 DUP5 DUP3 DUP6 PUSH2 0x52A3 JUMP JUMPDEST POP SWAP4 SWAP3 POP POP POP JUMP JUMPDEST PUSH1 0x0 DUP2 CALLDATALOAD SWAP1 POP PUSH2 0x3E6E DUP2 PUSH2 0x5C42 JUMP JUMPDEST SWAP3 SWAP2 POP POP JUMP JUMPDEST PUSH1 0x0 DUP1 DUP4 PUSH1 0x1F DUP5 ADD SLT PUSH2 0x3E8A JUMPI PUSH2 0x3E89 PUSH2 0x54EB JUMP JUMPDEST JUMPDEST DUP3 CALLDATALOAD SWAP1 POP PUSH8 0xFFFFFFFFFFFFFFFF DUP2 GT ISZERO PUSH2 0x3EA7 JUMPI PUSH2 0x3EA6 PUSH2 0x54E6 JUMP JUMPDEST JUMPDEST PUSH1 0x20 DUP4 ADD SWAP2 POP DUP4 PUSH1 0x20 DUP3 MUL DUP4 ADD GT ISZERO PUSH2 0x3EC3 JUMPI PUSH2 0x3EC2 PUSH2 0x54F0 JUMP JUMPDEST JUMPDEST SWAP3 POP SWAP3 SWAP1 POP JUMP JUMPDEST PUSH1 0x0 DUP3 PUSH1 0x1F DUP4 ADD SLT PUSH2 0x3EDF JUMPI PUSH2 0x3EDE PUSH2 0x54EB JUMP JUMPDEST JUMPDEST DUP2 CALLDATALOAD PUSH2 0x3EEF DUP5 DUP3 PUSH1 0x20 DUP7 ADD PUSH2 0x3D6B JUMP JUMPDEST SWAP2 POP POP SWAP3 SWAP2 POP POP JUMP JUMPDEST PUSH1 0x0 DUP2 CALLDATALOAD SWAP1 POP PUSH2 0x3F07 DUP2 PUSH2 0x5C59 JUMP JUMPDEST SWAP3 SWAP2 POP POP JUMP JUMPDEST PUSH1 0x0 DUP2 CALLDATALOAD SWAP1 POP PUSH2 0x3F1C DUP2 PUSH2 0x5C70 JUMP JUMPDEST SWAP3 SWAP2 POP POP JUMP JUMPDEST PUSH1 0x0 DUP2 CALLDATALOAD SWAP1 POP PUSH2 0x3F31 DUP2 PUSH2 0x5C87 JUMP JUMPDEST SWAP3 SWAP2 POP POP JUMP JUMPDEST PUSH1 0x0 DUP2 MLOAD SWAP1 POP PUSH2 0x3F46 DUP2 PUSH2 0x5C87 JUMP JUMPDEST SWAP3 SWAP2 POP POP JUMP JUMPDEST PUSH1 0x0 DUP3 PUSH1 0x1F DUP4 ADD SLT PUSH2 0x3F61 JUMPI PUSH2 0x3F60 PUSH2 0x54EB JUMP JUMPDEST JUMPDEST DUP2 CALLDATALOAD PUSH2 0x3F71 DUP5 DUP3 PUSH1 0x20 DUP7 ADD PUSH2 0x3DDB JUMP JUMPDEST SWAP2 POP POP SWAP3 SWAP2 POP POP JUMP JUMPDEST PUSH1 0x0 DUP1 DUP4 PUSH1 0x1F DUP5 ADD SLT PUSH2 0x3F90 JUMPI PUSH2 0x3F8F PUSH2 0x54EB JUMP JUMPDEST JUMPDEST DUP3 CALLDATALOAD SWAP1 POP PUSH8 0xFFFFFFFFFFFFFFFF DUP2 GT ISZERO PUSH2 0x3FAD JUMPI PUSH2 0x3FAC PUSH2 0x54E6 JUMP JUMPDEST JUMPDEST PUSH1 0x20 DUP4 ADD SWAP2 POP DUP4 PUSH1 0x1 DUP3 MUL DUP4 ADD GT ISZERO PUSH2 0x3FC9 JUMPI PUSH2 0x3FC8 PUSH2 0x54F0 JUMP JUMPDEST JUMPDEST SWAP3 POP SWAP3 SWAP1 POP JUMP JUMPDEST PUSH1 0x0 DUP3 PUSH1 0x1F DUP4 ADD SLT PUSH2 0x3FE5 JUMPI PUSH2 0x3FE4 PUSH2 0x54EB JUMP JUMPDEST JUMPDEST DUP2 CALLDATALOAD PUSH2 0x3FF5 DUP5 DUP3 PUSH1 0x20 DUP7 ADD PUSH2 0x3E1D JUMP JUMPDEST SWAP2 POP POP SWAP3 SWAP2 POP POP JUMP JUMPDEST PUSH1 0x0 DUP2 CALLDATALOAD SWAP1 POP PUSH2 0x400D DUP2 PUSH2 0x5C9E JUMP JUMPDEST SWAP3 SWAP2 POP POP JUMP JUMPDEST PUSH1 0x0 DUP2 CALLDATALOAD SWAP1 POP PUSH2 0x4022 DUP2 PUSH2 0x5CB5 JUMP JUMPDEST SWAP3 SWAP2 POP POP JUMP JUMPDEST PUSH1 0x0 PUSH1 0x20 DUP3 DUP5 SUB SLT ISZERO PUSH2 0x403E JUMPI PUSH2 0x403D PUSH2 0x5504 JUMP JUMPDEST JUMPDEST PUSH1 0x0 PUSH2 0x404C DUP5 DUP3 DUP6 ADD PUSH2 0x3E5F JUMP JUMPDEST SWAP2 POP POP SWAP3 SWAP2 POP POP JUMP JUMPDEST PUSH1 0x0 DUP1 PUSH1 0x40 DUP4 DUP6 SUB SLT ISZERO PUSH2 0x406C JUMPI PUSH2 0x406B PUSH2 0x5504 JUMP JUMPDEST JUMPDEST PUSH1 0x0 PUSH2 0x407A DUP6 DUP3 DUP7 ADD PUSH2 0x3E5F JUMP JUMPDEST SWAP3 POP POP PUSH1 0x20 PUSH2 0x408B DUP6 DUP3 DUP7 ADD PUSH2 0x3E5F JUMP JUMPDEST SWAP2 POP POP SWAP3 POP SWAP3 SWAP1 POP JUMP JUMPDEST PUSH1 0x0 DUP1 PUSH1 0x0 PUSH1 0x60 DUP5 DUP7 SUB SLT ISZERO PUSH2 0x40AE JUMPI PUSH2 0x40AD PUSH2 0x5504 JUMP JUMPDEST JUMPDEST PUSH1 0x0 PUSH2 0x40BC DUP7 DUP3 DUP8 ADD PUSH2 0x3E5F JUMP JUMPDEST SWAP4 POP POP PUSH1 0x20 PUSH2 0x40CD DUP7 DUP3 DUP8 ADD PUSH2 0x3E5F JUMP JUMPDEST SWAP3 POP POP PUSH1 0x40 PUSH2 0x40DE DUP7 DUP3 DUP8 ADD PUSH2 0x3FFE JUMP JUMPDEST SWAP2 POP POP SWAP3 POP SWAP3 POP SWAP3 JUMP JUMPDEST PUSH1 0x0 DUP1 PUSH1 0x0 DUP1 PUSH1 0x80 DUP6 DUP8 SUB SLT ISZERO PUSH2 0x4102 JUMPI PUSH2 0x4101 PUSH2 0x5504 JUMP JUMPDEST JUMPDEST PUSH1 0x0 PUSH2 0x4110 DUP8 DUP3 DUP9 ADD PUSH2 0x3E5F JUMP JUMPDEST SWAP5 POP POP PUSH1 0x20 PUSH2 0x4121 DUP8 DUP3 DUP9 ADD PUSH2 0x3E5F JUMP JUMPDEST SWAP4 POP POP PUSH1 0x40 PUSH2 0x4132 DUP8 DUP3 DUP9 ADD PUSH2 0x3FFE JUMP JUMPDEST SWAP3 POP POP PUSH1 0x60 DUP6 ADD CALLDATALOAD PUSH8 0xFFFFFFFFFFFFFFFF DUP2 GT ISZERO PUSH2 0x4153 JUMPI PUSH2 0x4152 PUSH2 0x54FA JUMP JUMPDEST JUMPDEST PUSH2 0x415F DUP8 DUP3 DUP9 ADD PUSH2 0x3F4C JUMP JUMPDEST SWAP2 POP POP SWAP3 SWAP6 SWAP2 SWAP5 POP SWAP3 POP JUMP JUMPDEST PUSH1 0x0 DUP1 PUSH1 0x40 DUP4 DUP6 SUB SLT ISZERO PUSH2 0x4182 JUMPI PUSH2 0x4181 PUSH2 0x5504 JUMP JUMPDEST JUMPDEST PUSH1 0x0 PUSH2 0x4190 DUP6 DUP3 DUP7 ADD PUSH2 0x3E5F JUMP JUMPDEST SWAP3 POP POP PUSH1 0x20 PUSH2 0x41A1 DUP6 DUP3 DUP7 ADD PUSH2 0x3EF8 JUMP JUMPDEST SWAP2 POP POP SWAP3 POP SWAP3 SWAP1 POP JUMP JUMPDEST PUSH1 0x0 DUP1 PUSH1 0x40 DUP4 DUP6 SUB SLT ISZERO PUSH2 0x41C2 JUMPI PUSH2 0x41C1 PUSH2 0x5504 JUMP JUMPDEST JUMPDEST PUSH1 0x0 PUSH2 0x41D0 DUP6 DUP3 DUP7 ADD PUSH2 0x3E5F JUMP JUMPDEST SWAP3 POP POP PUSH1 0x20 PUSH2 0x41E1 DUP6 DUP3 DUP7 ADD PUSH2 0x3FFE JUMP JUMPDEST SWAP2 POP POP SWAP3 POP SWAP3 SWAP1 POP JUMP JUMPDEST PUSH1 0x0 DUP1 PUSH1 0x20 DUP4 DUP6 SUB SLT ISZERO PUSH2 0x4202 JUMPI PUSH2 0x4201 PUSH2 0x5504 JUMP JUMPDEST JUMPDEST PUSH1 0x0 DUP4 ADD CALLDATALOAD PUSH8 0xFFFFFFFFFFFFFFFF DUP2 GT ISZERO PUSH2 0x4220 JUMPI PUSH2 0x421F PUSH2 0x54FA JUMP JUMPDEST JUMPDEST PUSH2 0x422C DUP6 DUP3 DUP7 ADD PUSH2 0x3E74 JUMP JUMPDEST SWAP3 POP SWAP3 POP POP SWAP3 POP SWAP3 SWAP1 POP JUMP JUMPDEST PUSH1 0x0 DUP1 PUSH1 0x0 PUSH1 0x40 DUP5 DUP7 SUB SLT ISZERO PUSH2 0x4251 JUMPI PUSH2 0x4250 PUSH2 0x5504 JUMP JUMPDEST JUMPDEST PUSH1 0x0 DUP5 ADD CALLDATALOAD PUSH8 0xFFFFFFFFFFFFFFFF DUP2 GT ISZERO PUSH2 0x426F JUMPI PUSH2 0x426E PUSH2 0x54FA JUMP JUMPDEST JUMPDEST PUSH2 0x427B DUP7 DUP3 DUP8 ADD PUSH2 0x3E74 JUMP JUMPDEST SWAP4 POP SWAP4 POP POP PUSH1 0x20 PUSH2 0x428E DUP7 DUP3 DUP8 ADD PUSH2 0x4013 JUMP JUMPDEST SWAP2 POP POP SWAP3 POP SWAP3 POP SWAP3 JUMP JUMPDEST PUSH1 0x0 PUSH1 0x20 DUP3 DUP5 SUB SLT ISZERO PUSH2 0x42AE JUMPI PUSH2 0x42AD PUSH2 0x5504 JUMP JUMPDEST JUMPDEST PUSH1 0x0 DUP3 ADD CALLDATALOAD PUSH8 0xFFFFFFFFFFFFFFFF DUP2 GT ISZERO PUSH2 0x42CC JUMPI PUSH2 0x42CB PUSH2 0x54FA JUMP JUMPDEST JUMPDEST PUSH2 0x42D8 DUP5 DUP3 DUP6 ADD PUSH2 0x3ECA JUMP JUMPDEST SWAP2 POP POP SWAP3 SWAP2 POP POP JUMP JUMPDEST PUSH1 0x0 PUSH1 0x20 DUP3 DUP5 SUB SLT ISZERO PUSH2 0x42F7 JUMPI PUSH2 0x42F6 PUSH2 0x5504 JUMP JUMPDEST JUMPDEST PUSH1 0x0 PUSH2 0x4305 DUP5 DUP3 DUP6 ADD PUSH2 0x3F0D JUMP JUMPDEST SWAP2 POP POP SWAP3 SWAP2 POP POP JUMP JUMPDEST PUSH1 0x0 PUSH1 0x20 DUP3 DUP5 SUB SLT ISZERO PUSH2 0x4324 JUMPI PUSH2 0x4323 PUSH2 0x5504 JUMP JUMPDEST JUMPDEST PUSH1 0x0 PUSH2 0x4332 DUP5 DUP3 DUP6 ADD PUSH2 0x3F22 JUMP JUMPDEST SWAP2 POP POP SWAP3 SWAP2 POP POP JUMP JUMPDEST PUSH1 0x0 PUSH1 0x20 DUP3 DUP5 SUB SLT ISZERO PUSH2 0x4351 JUMPI PUSH2 0x4350 PUSH2 0x5504 JUMP JUMPDEST JUMPDEST PUSH1 0x0 PUSH2 0x435F DUP5 DUP3 DUP6 ADD PUSH2 0x3F37 JUMP JUMPDEST SWAP2 POP POP SWAP3 SWAP2 POP POP JUMP JUMPDEST PUSH1 0x0 PUSH1 0x20 DUP3 DUP5 SUB SLT ISZERO PUSH2 0x437E JUMPI PUSH2 0x437D PUSH2 0x5504 JUMP JUMPDEST JUMPDEST PUSH1 0x0 DUP3 ADD CALLDATALOAD PUSH8 0xFFFFFFFFFFFFFFFF DUP2 GT ISZERO PUSH2 0x439C JUMPI PUSH2 0x439B PUSH2 0x54FA JUMP JUMPDEST JUMPDEST PUSH2 0x43A8 DUP5 DUP3 DUP6 ADD PUSH2 0x3FD0 JUMP JUMPDEST SWAP2 POP POP SWAP3 SWAP2 POP POP JUMP JUMPDEST PUSH1 0x0 PUSH1 0x20 DUP3 DUP5 SUB SLT ISZERO PUSH2 0x43C7 JUMPI PUSH2 0x43C6 PUSH2 0x5504 JUMP JUMPDEST JUMPDEST PUSH1 0x0 PUSH2 0x43D5 DUP5 DUP3 DUP6 ADD PUSH2 0x3FFE JUMP JUMPDEST SWAP2 POP POP SWAP3 SWAP2 POP POP JUMP JUMPDEST PUSH1 0x0 DUP1 PUSH1 0x0 PUSH1 0x40 DUP5 DUP7 SUB SLT ISZERO PUSH2 0x43F7 JUMPI PUSH2 0x43F6 PUSH2 0x5504 JUMP JUMPDEST JUMPDEST PUSH1 0x0 PUSH2 0x4405 DUP7 DUP3 DUP8 ADD PUSH2 0x3FFE JUMP JUMPDEST SWAP4 POP POP PUSH1 0x20 DUP5 ADD CALLDATALOAD PUSH8 0xFFFFFFFFFFFFFFFF DUP2 GT ISZERO PUSH2 0x4426 JUMPI PUSH2 0x4425 PUSH2 0x54FA JUMP JUMPDEST JUMPDEST PUSH2 0x4432 DUP7 DUP3 DUP8 ADD PUSH2 0x3E74 JUMP JUMPDEST SWAP3 POP SWAP3 POP POP SWAP3 POP SWAP3 POP SWAP3 JUMP JUMPDEST PUSH1 0x0 DUP1 PUSH1 0x0 PUSH1 0x40 DUP5 DUP7 SUB SLT ISZERO PUSH2 0x4457 JUMPI PUSH2 0x4456 PUSH2 0x5504 JUMP JUMPDEST JUMPDEST PUSH1 0x0 PUSH2 0x4465 DUP7 DUP3 DUP8 ADD PUSH2 0x3FFE JUMP JUMPDEST SWAP4 POP POP PUSH1 0x20 DUP5 ADD CALLDATALOAD PUSH8 0xFFFFFFFFFFFFFFFF DUP2 GT ISZERO PUSH2 0x4486 JUMPI PUSH2 0x4485 PUSH2 0x54FA JUMP JUMPDEST JUMPDEST PUSH2 0x4492 DUP7 DUP3 DUP8 ADD PUSH2 0x3F7A JUMP JUMPDEST SWAP3 POP SWAP3 POP POP SWAP3 POP SWAP3 POP SWAP3 JUMP JUMPDEST PUSH1 0x0 PUSH2 0x44AA DUP4 DUP4 PUSH2 0x4A3F JUMP JUMPDEST PUSH1 0x20 DUP4 ADD SWAP1 POP SWAP3 SWAP2 POP POP JUMP JUMPDEST PUSH2 0x44BF DUP2 PUSH2 0x526D JUMP JUMPDEST DUP3 MSTORE POP POP JUMP JUMPDEST PUSH2 0x44CE DUP2 PUSH2 0x51DF JUMP JUMPDEST DUP3 MSTORE POP POP JUMP JUMPDEST PUSH1 0x0 PUSH2 0x44E0 DUP4 DUP6 PUSH2 0x5083 JUMP JUMPDEST SWAP4 POP PUSH32 0x7FFFFFFFFFFFFFFFFFFFFFFFFFFFFFFFFFFFFFFFFFFFFFFFFFFFFFFFFFFFFFF DUP4 GT ISZERO PUSH2 0x4513 JUMPI PUSH2 0x4512 PUSH2 0x54FF JUMP JUMPDEST JUMPDEST PUSH1 0x20 DUP4 MUL SWAP3 POP PUSH2 0x4524 DUP4 DUP6 DUP5 PUSH2 0x52A3 JUMP JUMPDEST DUP3 DUP5 ADD SWAP1 POP SWAP4 SWAP3 POP POP POP JUMP JUMPDEST PUSH1 0x0 PUSH2 0x453C DUP4 DUP6 PUSH2 0x5094 JUMP JUMPDEST SWAP4 POP PUSH32 0x7FFFFFFFFFFFFFFFFFFFFFFFFFFFFFFFFFFFFFFFFFFFFFFFFFFFFFFFFFFFFFF DUP4 GT ISZERO PUSH2 0x456F JUMPI PUSH2 0x456E PUSH2 0x54FF JUMP JUMPDEST JUMPDEST PUSH1 0x20 DUP4 MUL SWAP3 POP PUSH2 0x4580 DUP4 DUP6 DUP5 PUSH2 0x52A3 JUMP JUMPDEST DUP3 DUP5 ADD SWAP1 POP SWAP4 SWAP3 POP POP POP JUMP JUMPDEST PUSH1 0x0 PUSH2 0x4597 DUP3 PUSH2 0x5055 JUMP JUMPDEST PUSH2 0x45A1 DUP2 DUP6 PUSH2 0x5083 JUMP JUMPDEST SWAP4 POP PUSH2 0x45AC DUP4 PUSH2 0x5045 JUMP JUMPDEST DUP1 PUSH1 0x0 JUMPDEST DUP4 DUP2 LT ISZERO PUSH2 0x45DD JUMPI DUP2 MLOAD PUSH2 0x45C4 DUP9 DUP3 PUSH2 0x449E JUMP JUMPDEST SWAP8 POP PUSH2 0x45CF DUP4 PUSH2 0x5076 JUMP JUMPDEST SWAP3 POP POP PUSH1 0x1 DUP2 ADD SWAP1 POP PUSH2 0x45B0 JUMP JUMPDEST POP DUP6 SWAP4 POP POP POP POP SWAP3 SWAP2 POP POP JUMP JUMPDEST PUSH2 0x45F3 DUP2 PUSH2 0x51F1 JUMP JUMPDEST DUP3 MSTORE POP POP JUMP JUMPDEST PUSH1 0x0 PUSH2 0x4604 DUP3 PUSH2 0x5060 JUMP JUMPDEST PUSH2 0x460E DUP2 DUP6 PUSH2 0x509F JUMP JUMPDEST SWAP4 POP PUSH2 0x461E DUP2 DUP6 PUSH1 0x20 DUP7 ADD PUSH2 0x52B2 JUMP JUMPDEST PUSH2 0x4627 DUP2 PUSH2 0x5509 JUMP JUMPDEST DUP5 ADD SWAP2 POP POP SWAP3 SWAP2 POP POP JUMP JUMPDEST PUSH1 0x0 PUSH2 0x463D DUP3 PUSH2 0x506B JUMP JUMPDEST PUSH2 0x4647 DUP2 DUP6 PUSH2 0x50B0 JUMP JUMPDEST SWAP4 POP PUSH2 0x4657 DUP2 DUP6 PUSH1 0x20 DUP7 ADD PUSH2 0x52B2 JUMP JUMPDEST PUSH2 0x4660 DUP2 PUSH2 0x5509 JUMP JUMPDEST DUP5 ADD SWAP2 POP POP SWAP3 SWAP2 POP POP JUMP JUMPDEST PUSH1 0x0 PUSH2 0x4678 PUSH1 0x39 DUP4 PUSH2 0x50B0 JUMP JUMPDEST SWAP2 POP PUSH2 0x4683 DUP3 PUSH2 0x551A JUMP JUMPDEST PUSH1 0x40 DUP3 ADD SWAP1 POP SWAP2 SWAP1 POP JUMP JUMPDEST PUSH1 0x0 PUSH2 0x469B PUSH1 0x31 DUP4 PUSH2 0x50B0 JUMP JUMPDEST SWAP2 POP PUSH2 0x46A6 DUP3 PUSH2 0x5569 JUMP JUMPDEST PUSH1 0x40 DUP3 ADD SWAP1 POP SWAP2 SWAP1 POP JUMP JUMPDEST PUSH1 0x0 PUSH2 0x46BE PUSH1 0x2B DUP4 PUSH2 0x50B0 JUMP JUMPDEST SWAP2 POP PUSH2 0x46C9 DUP3 PUSH2 0x55B8 JUMP JUMPDEST PUSH1 0x40 DUP3 ADD SWAP1 POP SWAP2 SWAP1 POP JUMP JUMPDEST PUSH1 0x0 PUSH2 0x46E1 PUSH1 0x32 DUP4 PUSH2 0x50B0 JUMP JUMPDEST SWAP2 POP PUSH2 0x46EC DUP3 PUSH2 0x5607 JUMP JUMPDEST PUSH1 0x40 DUP3 ADD SWAP1 POP SWAP2 SWAP1 POP JUMP JUMPDEST PUSH1 0x0 PUSH2 0x4704 PUSH1 0x26 DUP4 PUSH2 0x50B0 JUMP JUMPDEST SWAP2 POP PUSH2 0x470F DUP3 PUSH2 0x5656 JUMP JUMPDEST PUSH1 0x40 DUP3 ADD SWAP1 POP SWAP2 SWAP1 POP JUMP JUMPDEST PUSH1 0x0 PUSH2 0x4727 PUSH1 0x25 DUP4 PUSH2 0x50B0 JUMP JUMPDEST SWAP2 POP PUSH2 0x4732 DUP3 PUSH2 0x56A5 JUMP JUMPDEST PUSH1 0x40 DUP3 ADD SWAP1 POP SWAP2 SWAP1 POP JUMP JUMPDEST PUSH1 0x0 PUSH2 0x474A PUSH1 0x1C DUP4 PUSH2 0x50B0 JUMP JUMPDEST SWAP2 POP PUSH2 0x4755 DUP3 PUSH2 0x56F4 JUMP JUMPDEST PUSH1 0x20 DUP3 ADD SWAP1 POP SWAP2 SWAP1 POP JUMP JUMPDEST PUSH1 0x0 PUSH2 0x476D PUSH1 0x24 DUP4 PUSH2 0x50B0 JUMP JUMPDEST SWAP2 POP PUSH2 0x4778 DUP3 PUSH2 0x571D JUMP JUMPDEST PUSH1 0x40 DUP3 ADD SWAP1 POP SWAP2 SWAP1 POP JUMP JUMPDEST PUSH1 0x0 PUSH2 0x4790 PUSH1 0x19 DUP4 PUSH2 0x50B0 JUMP JUMPDEST SWAP2 POP PUSH2 0x479B DUP3 PUSH2 0x576C JUMP JUMPDEST PUSH1 0x20 DUP3 ADD SWAP1 POP SWAP2 SWAP1 POP JUMP JUMPDEST PUSH1 0x0 PUSH2 0x47B3 PUSH1 0x24 DUP4 PUSH2 0x50B0 JUMP JUMPDEST SWAP2 POP PUSH2 0x47BE DUP3 PUSH2 0x5795 JUMP JUMPDEST PUSH1 0x40 DUP3 ADD SWAP1 POP SWAP2 SWAP1 POP JUMP JUMPDEST PUSH1 0x0 PUSH2 0x47D6 PUSH1 0x11 DUP4 PUSH2 0x50B0 JUMP JUMPDEST SWAP2 POP PUSH2 0x47E1 DUP3 PUSH2 0x57E4 JUMP JUMPDEST PUSH1 0x20 DUP3 ADD SWAP1 POP SWAP2 SWAP1 POP JUMP JUMPDEST PUSH1 0x0 PUSH2 0x47F9 PUSH1 0x2C DUP4 PUSH2 0x50B0 JUMP JUMPDEST SWAP2 POP PUSH2 0x4804 DUP3 PUSH2 0x580D JUMP JUMPDEST PUSH1 0x40 DUP3 ADD SWAP1 POP SWAP2 SWAP1 POP JUMP JUMPDEST PUSH1 0x0 PUSH2 0x481C PUSH1 0x12 DUP4 PUSH2 0x50B0 JUMP JUMPDEST SWAP2 POP PUSH2 0x4827 DUP3 PUSH2 0x585C JUMP JUMPDEST PUSH1 0x20 DUP3 ADD SWAP1 POP SWAP2 SWAP1 POP JUMP JUMPDEST PUSH1 0x0 PUSH2 0x483F PUSH1 0x38 DUP4 PUSH2 0x50B0 JUMP JUMPDEST SWAP2 POP PUSH2 0x484A DUP3 PUSH2 0x5885 JUMP JUMPDEST PUSH1 0x40 DUP3 ADD SWAP1 POP SWAP2 SWAP1 POP JUMP JUMPDEST PUSH1 0x0 PUSH2 0x4862 PUSH1 0x2A DUP4 PUSH2 0x50B0 JUMP JUMPDEST SWAP2 POP PUSH2 0x486D DUP3 PUSH2 0x58D4 JUMP JUMPDEST PUSH1 0x40 DUP3 ADD SWAP1 POP SWAP2 SWAP1 POP JUMP JUMPDEST PUSH1 0x0 PUSH2 0x4885 PUSH1 0x12 DUP4 PUSH2 0x50B0 JUMP JUMPDEST SWAP2 POP PUSH2 0x4890 DUP3 PUSH2 0x5923 JUMP JUMPDEST PUSH1 0x20 DUP3 ADD SWAP1 POP SWAP2 SWAP1 POP JUMP JUMPDEST PUSH1 0x0 PUSH2 0x48A8 PUSH1 0x29 DUP4 PUSH2 0x50B0 JUMP JUMPDEST SWAP2 POP PUSH2 0x48B3 DUP3 PUSH2 0x594C JUMP JUMPDEST PUSH1 0x40 DUP3 ADD SWAP1 POP SWAP2 SWAP1 POP JUMP JUMPDEST PUSH1 0x0 PUSH2 0x48CB PUSH1 0x2E DUP4 PUSH2 0x50B0 JUMP JUMPDEST SWAP2 POP PUSH2 0x48D6 DUP3 PUSH2 0x599B JUMP JUMPDEST PUSH1 0x40 DUP3 ADD SWAP1 POP SWAP2 SWAP1 POP JUMP JUMPDEST PUSH1 0x0 PUSH2 0x48EE PUSH1 0x20 DUP4 PUSH2 0x50B0 JUMP JUMPDEST SWAP2 POP PUSH2 0x48F9 DUP3 PUSH2 0x59EA JUMP JUMPDEST PUSH1 0x20 DUP3 ADD SWAP1 POP SWAP2 SWAP1 POP JUMP JUMPDEST PUSH1 0x0 PUSH2 0x4911 PUSH1 0x20 DUP4 PUSH2 0x50B0 JUMP JUMPDEST SWAP2 POP PUSH2 0x491C DUP3 PUSH2 0x5A13 JUMP JUMPDEST PUSH1 0x20 DUP3 ADD SWAP1 POP SWAP2 SWAP1 POP JUMP JUMPDEST PUSH1 0x0 PUSH2 0x4934 PUSH1 0x17 DUP4 PUSH2 0x50B0 JUMP JUMPDEST SWAP2 POP PUSH2 0x493F DUP3 PUSH2 0x5A3C JUMP JUMPDEST PUSH1 0x20 DUP3 ADD SWAP1 POP SWAP2 SWAP1 POP JUMP JUMPDEST PUSH1 0x0 PUSH2 0x4957 PUSH1 0x31 DUP4 PUSH2 0x50B0 JUMP JUMPDEST SWAP2 POP PUSH2 0x4962 DUP3 PUSH2 0x5A65 JUMP JUMPDEST PUSH1 0x40 DUP3 ADD SWAP1 POP SWAP2 SWAP1 POP JUMP JUMPDEST PUSH1 0x0 PUSH2 0x497A PUSH1 0x2C DUP4 PUSH2 0x50B0 JUMP JUMPDEST SWAP2 POP PUSH2 0x4985 DUP3 PUSH2 0x5AB4 JUMP JUMPDEST PUSH1 0x40 DUP3 ADD SWAP1 POP SWAP2 SWAP1 POP JUMP JUMPDEST PUSH1 0x0 PUSH2 0x499D PUSH1 0x20 DUP4 PUSH2 0x50B0 JUMP JUMPDEST SWAP2 POP PUSH2 0x49A8 DUP3 PUSH2 0x5B03 JUMP JUMPDEST PUSH1 0x20 DUP3 ADD SWAP1 POP SWAP2 SWAP1 POP JUMP JUMPDEST PUSH1 0x0 PUSH2 0x49C0 PUSH1 0x13 DUP4 PUSH2 0x50B0 JUMP JUMPDEST SWAP2 POP PUSH2 0x49CB DUP3 PUSH2 0x5B2C JUMP JUMPDEST PUSH1 0x20 DUP3 ADD SWAP1 POP SWAP2 SWAP1 POP JUMP JUMPDEST PUSH1 0x0 PUSH2 0x49E3 PUSH1 0x21 DUP4 PUSH2 0x50B0 JUMP JUMPDEST SWAP2 POP PUSH2 0x49EE DUP3 PUSH2 0x5B55 JUMP JUMPDEST PUSH1 0x40 DUP3 ADD SWAP1 POP SWAP2 SWAP1 POP JUMP JUMPDEST PUSH1 0x0 PUSH2 0x4A06 PUSH1 0x31 DUP4 PUSH2 0x50B0 JUMP JUMPDEST SWAP2 POP PUSH2 0x4A11 DUP3 PUSH2 0x5BA4 JUMP JUMPDEST PUSH1 0x40 DUP3 ADD SWAP1 POP SWAP2 SWAP1 POP JUMP JUMPDEST PUSH1 0x0 PUSH2 0x4A29 PUSH1 0x2C DUP4 PUSH2 0x50B0 JUMP JUMPDEST SWAP2 POP PUSH2 0x4A34 DUP3 PUSH2 0x5BF3 JUMP JUMPDEST PUSH1 0x40 DUP3 ADD SWAP1 POP SWAP2 SWAP1 POP JUMP JUMPDEST PUSH2 0x4A48 DUP2 PUSH2 0x5253 JUMP JUMPDEST DUP3 MSTORE POP POP JUMP JUMPDEST PUSH2 0x4A57 DUP2 PUSH2 0x5253 JUMP JUMPDEST DUP3 MSTORE POP POP JUMP JUMPDEST PUSH2 0x4A6E PUSH2 0x4A69 DUP3 PUSH2 0x5253 JUMP JUMPDEST PUSH2 0x5391 JUMP JUMPDEST DUP3 MSTORE POP POP JUMP JUMPDEST PUSH2 0x4A7D DUP2 PUSH2 0x525D JUMP JUMPDEST DUP3 MSTORE POP POP JUMP JUMPDEST PUSH1 0x0 PUSH2 0x4A90 DUP3 DUP5 DUP7 PUSH2 0x4530 JUMP JUMPDEST SWAP2 POP DUP2 SWAP1 POP SWAP4 SWAP3 POP POP POP JUMP JUMPDEST PUSH1 0x0 PUSH2 0x4AA8 DUP3 DUP6 PUSH2 0x4A5D JUMP JUMPDEST PUSH1 0x20 DUP3 ADD SWAP2 POP PUSH2 0x4AB8 DUP3 DUP5 PUSH2 0x4A5D JUMP JUMPDEST PUSH1 0x20 DUP3 ADD SWAP2 POP DUP2 SWAP1 POP SWAP4 SWAP3 POP POP POP JUMP JUMPDEST PUSH1 0x0 PUSH1 0x20 DUP3 ADD SWAP1 POP PUSH2 0x4ADD PUSH1 0x0 DUP4 ADD DUP5 PUSH2 0x44C5 JUMP JUMPDEST SWAP3 SWAP2 POP POP JUMP JUMPDEST PUSH1 0x0 PUSH1 0x80 DUP3 ADD SWAP1 POP PUSH2 0x4AF8 PUSH1 0x0 DUP4 ADD DUP8 PUSH2 0x44B6 JUMP JUMPDEST PUSH2 0x4B05 PUSH1 0x20 DUP4 ADD DUP7 PUSH2 0x44C5 JUMP JUMPDEST PUSH2 0x4B12 PUSH1 0x40 DUP4 ADD DUP6 PUSH2 0x4A4E JUMP JUMPDEST DUP2 DUP2 SUB PUSH1 0x60 DUP4 ADD MSTORE PUSH2 0x4B24 DUP2 DUP5 PUSH2 0x45F9 JUMP JUMPDEST SWAP1 POP SWAP6 SWAP5 POP POP POP POP POP JUMP JUMPDEST PUSH1 0x0 PUSH1 0x40 DUP3 ADD SWAP1 POP DUP2 DUP2 SUB PUSH1 0x0 DUP4 ADD MSTORE PUSH2 0x4B4A DUP2 DUP6 DUP8 PUSH2 0x44D4 JUMP JUMPDEST SWAP1 POP PUSH2 0x4B59 PUSH1 0x20 DUP4 ADD DUP5 PUSH2 0x4A4E JUMP JUMPDEST SWAP5 SWAP4 POP POP POP POP JUMP JUMPDEST PUSH1 0x0 PUSH1 0x20 DUP3 ADD SWAP1 POP DUP2 DUP2 SUB PUSH1 0x0 DUP4 ADD MSTORE PUSH2 0x4B7B DUP2 DUP5 PUSH2 0x458C JUMP JUMPDEST SWAP1 POP SWAP3 SWAP2 POP POP JUMP JUMPDEST PUSH1 0x0 PUSH1 0x20 DUP3 ADD SWAP1 POP PUSH2 0x4B98 PUSH1 0x0 DUP4 ADD DUP5 PUSH2 0x45EA JUMP JUMPDEST SWAP3 SWAP2 POP POP JUMP JUMPDEST PUSH1 0x0 PUSH1 0x20 DUP3 ADD SWAP1 POP DUP2 DUP2 SUB PUSH1 0x0 DUP4 ADD MSTORE PUSH2 0x4BB8 DUP2 DUP5 PUSH2 0x4632 JUMP JUMPDEST SWAP1 POP SWAP3 SWAP2 POP POP JUMP JUMPDEST PUSH1 0x0 PUSH1 0x20 DUP3 ADD SWAP1 POP DUP2 DUP2 SUB PUSH1 0x0 DUP4 ADD MSTORE PUSH2 0x4BD9 DUP2 PUSH2 0x466B JUMP JUMPDEST SWAP1 POP SWAP2 SWAP1 POP JUMP JUMPDEST PUSH1 0x0 PUSH1 0x20 DUP3 ADD SWAP1 POP DUP2 DUP2 SUB PUSH1 0x0 DUP4 ADD MSTORE PUSH2 0x4BF9 DUP2 PUSH2 0x468E JUMP JUMPDEST SWAP1 POP SWAP2 SWAP1 POP JUMP JUMPDEST PUSH1 0x0 PUSH1 0x20 DUP3 ADD SWAP1 POP DUP2 DUP2 SUB PUSH1 0x0 DUP4 ADD MSTORE PUSH2 0x4C19 DUP2 PUSH2 0x46B1 JUMP JUMPDEST SWAP1 POP SWAP2 SWAP1 POP JUMP JUMPDEST PUSH1 0x0 PUSH1 0x20 DUP3 ADD SWAP1 POP DUP2 DUP2 SUB PUSH1 0x0 DUP4 ADD MSTORE PUSH2 0x4C39 DUP2 PUSH2 0x46D4 JUMP JUMPDEST SWAP1 POP SWAP2 SWAP1 POP JUMP JUMPDEST PUSH1 0x0 PUSH1 0x20 DUP3 ADD SWAP1 POP DUP2 DUP2 SUB PUSH1 0x0 DUP4 ADD MSTORE PUSH2 0x4C59 DUP2 PUSH2 0x46F7 JUMP JUMPDEST SWAP1 POP SWAP2 SWAP1 POP JUMP JUMPDEST PUSH1 0x0 PUSH1 0x20 DUP3 ADD SWAP1 POP DUP2 DUP2 SUB PUSH1 0x0 DUP4 ADD MSTORE PUSH2 0x4C79 DUP2 PUSH2 0x471A JUMP JUMPDEST SWAP1 POP SWAP2 SWAP1 POP JUMP JUMPDEST PUSH1 0x0 PUSH1 0x20 DUP3 ADD SWAP1 POP DUP2 DUP2 SUB PUSH1 0x0 DUP4 ADD MSTORE PUSH2 0x4C99 DUP2 PUSH2 0x473D JUMP JUMPDEST SWAP1 POP SWAP2 SWAP1 POP JUMP JUMPDEST PUSH1 0x0 PUSH1 0x20 DUP3 ADD SWAP1 POP DUP2 DUP2 SUB PUSH1 0x0 DUP4 ADD MSTORE PUSH2 0x4CB9 DUP2 PUSH2 0x4760 JUMP JUMPDEST SWAP1 POP SWAP2 SWAP1 POP JUMP JUMPDEST PUSH1 0x0 PUSH1 0x20 DUP3 ADD SWAP1 POP DUP2 DUP2 SUB PUSH1 0x0 DUP4 ADD MSTORE PUSH2 0x4CD9 DUP2 PUSH2 0x4783 JUMP JUMPDEST SWAP1 POP SWAP2 SWAP1 POP JUMP JUMPDEST PUSH1 0x0 PUSH1 0x20 DUP3 ADD SWAP1 POP DUP2 DUP2 SUB PUSH1 0x0 DUP4 ADD MSTORE PUSH2 0x4CF9 DUP2 PUSH2 0x47A6 JUMP JUMPDEST SWAP1 POP SWAP2 SWAP1 POP JUMP JUMPDEST PUSH1 0x0 PUSH1 0x20 DUP3 ADD SWAP1 POP DUP2 DUP2 SUB PUSH1 0x0 DUP4 ADD MSTORE PUSH2 0x4D19 DUP2 PUSH2 0x47C9 JUMP JUMPDEST SWAP1 POP SWAP2 SWAP1 POP JUMP JUMPDEST PUSH1 0x0 PUSH1 0x20 DUP3 ADD SWAP1 POP DUP2 DUP2 SUB PUSH1 0x0 DUP4 ADD MSTORE PUSH2 0x4D39 DUP2 PUSH2 0x47EC JUMP JUMPDEST SWAP1 POP SWAP2 SWAP1 POP JUMP JUMPDEST PUSH1 0x0 PUSH1 0x20 DUP3 ADD SWAP1 POP DUP2 DUP2 SUB PUSH1 0x0 DUP4 ADD MSTORE PUSH2 0x4D59 DUP2 PUSH2 0x480F JUMP JUMPDEST SWAP1 POP SWAP2 SWAP1 POP JUMP JUMPDEST PUSH1 0x0 PUSH1 0x20 DUP3 ADD SWAP1 POP DUP2 DUP2 SUB PUSH1 0x0 DUP4 ADD MSTORE PUSH2 0x4D79 DUP2 PUSH2 0x4832 JUMP JUMPDEST SWAP1 POP SWAP2 SWAP1 POP JUMP JUMPDEST PUSH1 0x0 PUSH1 0x20 DUP3 ADD SWAP1 POP DUP2 DUP2 SUB PUSH1 0x0 DUP4 ADD MSTORE PUSH2 0x4D99 DUP2 PUSH2 0x4855 JUMP JUMPDEST SWAP1 POP SWAP2 SWAP1 POP JUMP JUMPDEST PUSH1 0x0 PUSH1 0x20 DUP3 ADD SWAP1 POP DUP2 DUP2 SUB PUSH1 0x0 DUP4 ADD MSTORE PUSH2 0x4DB9 DUP2 PUSH2 0x4878 JUMP JUMPDEST SWAP1 POP SWAP2 SWAP1 POP JUMP JUMPDEST PUSH1 0x0 PUSH1 0x20 DUP3 ADD SWAP1 POP DUP2 DUP2 SUB PUSH1 0x0 DUP4 ADD MSTORE PUSH2 0x4DD9 DUP2 PUSH2 0x489B JUMP JUMPDEST SWAP1 POP SWAP2 SWAP1 POP JUMP JUMPDEST PUSH1 0x0 PUSH1 0x20 DUP3 ADD SWAP1 POP DUP2 DUP2 SUB PUSH1 0x0 DUP4 ADD MSTORE PUSH2 0x4DF9 DUP2 PUSH2 0x48BE JUMP JUMPDEST SWAP1 POP SWAP2 SWAP1 POP JUMP JUMPDEST PUSH1 0x0 PUSH1 0x20 DUP3 ADD SWAP1 POP DUP2 DUP2 SUB PUSH1 0x0 DUP4 ADD MSTORE PUSH2 0x4E19 DUP2 PUSH2 0x48E1 JUMP JUMPDEST SWAP1 POP SWAP2 SWAP1 POP JUMP JUMPDEST PUSH1 0x0 PUSH1 0x20 DUP3 ADD SWAP1 POP DUP2 DUP2 SUB PUSH1 0x0 DUP4 ADD MSTORE PUSH2 0x4E39 DUP2 PUSH2 0x4904 JUMP JUMPDEST SWAP1 POP SWAP2 SWAP1 POP JUMP JUMPDEST PUSH1 0x0 PUSH1 0x20 DUP3 ADD SWAP1 POP DUP2 DUP2 SUB PUSH1 0x0 DUP4 ADD MSTORE PUSH2 0x4E59 DUP2 PUSH2 0x4927 JUMP JUMPDEST SWAP1 POP SWAP2 SWAP1 POP JUMP JUMPDEST PUSH1 0x0 PUSH1 0x20 DUP3 ADD SWAP1 POP DUP2 DUP2 SUB PUSH1 0x0 DUP4 ADD MSTORE PUSH2 0x4E79 DUP2 PUSH2 0x494A JUMP JUMPDEST SWAP1 POP SWAP2 SWAP1 POP JUMP JUMPDEST PUSH1 0x0 PUSH1 0x20 DUP3 ADD SWAP1 POP DUP2 DUP2 SUB PUSH1 0x0 DUP4 ADD MSTORE PUSH2 0x4E99 DUP2 PUSH2 0x496D JUMP JUMPDEST SWAP1 POP SWAP2 SWAP1 POP JUMP JUMPDEST PUSH1 0x0 PUSH1 0x20 DUP3 ADD SWAP1 POP DUP2 DUP2 SUB PUSH1 0x0 DUP4 ADD MSTORE PUSH2 0x4EB9 DUP2 PUSH2 0x4990 JUMP JUMPDEST SWAP1 POP SWAP2 SWAP1 POP JUMP JUMPDEST PUSH1 0x0 PUSH1 0x20 DUP3 ADD SWAP1 POP DUP2 DUP2 SUB PUSH1 0x0 DUP4 ADD MSTORE PUSH2 0x4ED9 DUP2 PUSH2 0x49B3 JUMP JUMPDEST SWAP1 POP SWAP2 SWAP1 POP JUMP JUMPDEST PUSH1 0x0 PUSH1 0x20 DUP3 ADD SWAP1 POP DUP2 DUP2 SUB PUSH1 0x0 DUP4 ADD MSTORE PUSH2 0x4EF9 DUP2 PUSH2 0x49D6 JUMP JUMPDEST SWAP1 POP SWAP2 SWAP1 POP JUMP JUMPDEST PUSH1 0x0 PUSH1 0x20 DUP3 ADD SWAP1 POP DUP2 DUP2 SUB PUSH1 0x0 DUP4 ADD MSTORE PUSH2 0x4F19 DUP2 PUSH2 0x49F9 JUMP JUMPDEST SWAP1 POP SWAP2 SWAP1 POP JUMP JUMPDEST PUSH1 0x0 PUSH1 0x20 DUP3 ADD SWAP1 POP DUP2 DUP2 SUB PUSH1 0x0 DUP4 ADD MSTORE PUSH2 0x4F39 DUP2 PUSH2 0x4A1C JUMP JUMPDEST SWAP1 POP SWAP2 SWAP1 POP JUMP JUMPDEST PUSH1 0x0 PUSH1 0x20 DUP3 ADD SWAP1 POP PUSH2 0x4F55 PUSH1 0x0 DUP4 ADD DUP5 PUSH2 0x4A4E JUMP JUMPDEST SWAP3 SWAP2 POP POP JUMP JUMPDEST PUSH1 0x0 PUSH1 0x60 DUP3 ADD SWAP1 POP PUSH2 0x4F70 PUSH1 0x0 DUP4 ADD DUP7 PUSH2 0x4A74 JUMP JUMPDEST PUSH2 0x4F7D PUSH1 0x20 DUP4 ADD DUP6 PUSH2 0x4A74 JUMP JUMPDEST PUSH2 0x4F8A PUSH1 0x40 DUP4 ADD DUP5 PUSH2 0x45EA JUMP JUMPDEST SWAP5 SWAP4 POP POP POP POP JUMP JUMPDEST PUSH1 0x0 PUSH2 0x4F9C PUSH2 0x4FAD JUMP JUMPDEST SWAP1 POP PUSH2 0x4FA8 DUP3 DUP3 PUSH2 0x5317 JUMP JUMPDEST SWAP2 SWAP1 POP JUMP JUMPDEST PUSH1 0x0 PUSH1 0x40 MLOAD SWAP1 POP SWAP1 JUMP JUMPDEST PUSH1 0x0 PUSH8 0xFFFFFFFFFFFFFFFF DUP3 GT ISZERO PUSH2 0x4FD2 JUMPI PUSH2 0x4FD1 PUSH2 0x54B7 JUMP JUMPDEST JUMPDEST PUSH1 0x20 DUP3 MUL SWAP1 POP PUSH1 0x20 DUP2 ADD SWAP1 POP SWAP2 SWAP1 POP JUMP JUMPDEST PUSH1 0x0 PUSH8 0xFFFFFFFFFFFFFFFF DUP3 GT ISZERO PUSH2 0x4FFE JUMPI PUSH2 0x4FFD PUSH2 0x54B7 JUMP JUMPDEST JUMPDEST PUSH2 0x5007 DUP3 PUSH2 0x5509 JUMP JUMPDEST SWAP1 POP PUSH1 0x20 DUP2 ADD SWAP1 POP SWAP2 SWAP1 POP JUMP JUMPDEST PUSH1 0x0 PUSH8 0xFFFFFFFFFFFFFFFF DUP3 GT ISZERO PUSH2 0x502F JUMPI PUSH2 0x502E PUSH2 0x54B7 JUMP JUMPDEST JUMPDEST PUSH2 0x5038 DUP3 PUSH2 0x5509 JUMP JUMPDEST SWAP1 POP PUSH1 0x20 DUP2 ADD SWAP1 POP SWAP2 SWAP1 POP JUMP JUMPDEST PUSH1 0x0 DUP2 SWAP1 POP PUSH1 0x20 DUP3 ADD SWAP1 POP SWAP2 SWAP1 POP JUMP JUMPDEST PUSH1 0x0 DUP2 MLOAD SWAP1 POP SWAP2 SWAP1 POP JUMP JUMPDEST PUSH1 0x0 DUP2 MLOAD SWAP1 POP SWAP2 SWAP1 POP JUMP JUMPDEST PUSH1 0x0 DUP2 MLOAD SWAP1 POP SWAP2 SWAP1 POP JUMP JUMPDEST PUSH1 0x0 PUSH1 0x20 DUP3 ADD SWAP1 POP SWAP2 SWAP1 POP JUMP JUMPDEST PUSH1 0x0 DUP3 DUP3 MSTORE PUSH1 0x20 DUP3 ADD SWAP1 POP SWAP3 SWAP2 POP POP JUMP JUMPDEST PUSH1 0x0 DUP2 SWAP1 POP SWAP3 SWAP2 POP POP JUMP JUMPDEST PUSH1 0x0 DUP3 DUP3 MSTORE PUSH1 0x20 DUP3 ADD SWAP1 POP SWAP3 SWAP2 POP POP JUMP JUMPDEST PUSH1 0x0 DUP3 DUP3 MSTORE PUSH1 0x20 DUP3 ADD SWAP1 POP SWAP3 SWAP2 POP POP JUMP JUMPDEST PUSH1 0x0 PUSH2 0x50CC DUP3 PUSH2 0x5253 JUMP JUMPDEST SWAP2 POP PUSH2 0x50D7 DUP4 PUSH2 0x5253 JUMP JUMPDEST SWAP3 POP DUP3 PUSH32 0xFFFFFFFFFFFFFFFFFFFFFFFFFFFFFFFFFFFFFFFFFFFFFFFFFFFFFFFFFFFFFFFF SUB DUP3 GT ISZERO PUSH2 0x510C JUMPI PUSH2 0x510B PUSH2 0x53CC JUMP JUMPDEST JUMPDEST DUP3 DUP3 ADD SWAP1 POP SWAP3 SWAP2 POP POP JUMP JUMPDEST PUSH1 0x0 PUSH2 0x5122 DUP3 PUSH2 0x525D JUMP JUMPDEST SWAP2 POP PUSH2 0x512D DUP4 PUSH2 0x525D JUMP JUMPDEST SWAP3 POP DUP3 PUSH4 0xFFFFFFFF SUB DUP3 GT ISZERO PUSH2 0x5146 JUMPI PUSH2 0x5145 PUSH2 0x53CC JUMP JUMPDEST JUMPDEST DUP3 DUP3 ADD SWAP1 POP SWAP3 SWAP2 POP POP JUMP JUMPDEST PUSH1 0x0 PUSH2 0x515C DUP3 PUSH2 0x5253 JUMP JUMPDEST SWAP2 POP PUSH2 0x5167 DUP4 PUSH2 0x5253 JUMP JUMPDEST SWAP3 POP DUP2 PUSH32 0xFFFFFFFFFFFFFFFFFFFFFFFFFFFFFFFFFFFFFFFFFFFFFFFFFFFFFFFFFFFFFFFF DIV DUP4 GT DUP3 ISZERO ISZERO AND ISZERO PUSH2 0x51A0 JUMPI PUSH2 0x519F PUSH2 0x53CC JUMP JUMPDEST JUMPDEST DUP3 DUP3 MUL SWAP1 POP SWAP3 SWAP2 POP POP JUMP JUMPDEST PUSH1 0x0 PUSH2 0x51B6 DUP3 PUSH2 0x5253 JUMP JUMPDEST SWAP2 POP PUSH2 0x51C1 DUP4 PUSH2 0x5253 JUMP JUMPDEST SWAP3 POP DUP3 DUP3 LT ISZERO PUSH2 0x51D4 JUMPI PUSH2 0x51D3 PUSH2 0x53CC JUMP JUMPDEST JUMPDEST DUP3 DUP3 SUB SWAP1 POP SWAP3 SWAP2 POP POP JUMP JUMPDEST PUSH1 0x0 PUSH2 0x51EA DUP3 PUSH2 0x5233 JUMP JUMPDEST SWAP1 POP SWAP2 SWAP1 POP JUMP JUMPDEST PUSH1 0x0 DUP2 ISZERO ISZERO SWAP1 POP SWAP2 SWAP1 POP JUMP JUMPDEST PUSH1 0x0 DUP2 SWAP1 POP SWAP2 SWAP1 POP JUMP JUMPDEST PUSH1 0x0 PUSH32 0xFFFFFFFF00000000000000000000000000000000000000000000000000000000 DUP3 AND SWAP1 POP SWAP2 SWAP1 POP JUMP JUMPDEST PUSH1 0x0 PUSH20 0xFFFFFFFFFFFFFFFFFFFFFFFFFFFFFFFFFFFFFFFF DUP3 AND SWAP1 POP SWAP2 SWAP1 POP JUMP JUMPDEST PUSH1 0x0 DUP2 SWAP1 POP SWAP2 SWAP1 POP JUMP JUMPDEST PUSH1 0x0 PUSH4 0xFFFFFFFF DUP3 AND SWAP1 POP SWAP2 SWAP1 POP JUMP JUMPDEST PUSH1 0x0 PUSH2 0x5278 DUP3 PUSH2 0x527F JUMP JUMPDEST SWAP1 POP SWAP2 SWAP1 POP JUMP JUMPDEST PUSH1 0x0 PUSH2 0x528A DUP3 PUSH2 0x5291 JUMP JUMPDEST SWAP1 POP SWAP2 SWAP1 POP JUMP JUMPDEST PUSH1 0x0 PUSH2 0x529C DUP3 PUSH2 0x5233 JUMP JUMPDEST SWAP1 POP SWAP2 SWAP1 POP JUMP JUMPDEST DUP3 DUP2 DUP4 CALLDATACOPY PUSH1 0x0 DUP4 DUP4 ADD MSTORE POP POP POP JUMP JUMPDEST PUSH1 0x0 JUMPDEST DUP4 DUP2 LT ISZERO PUSH2 0x52D0 JUMPI DUP1 DUP3 ADD MLOAD DUP2 DUP5 ADD MSTORE PUSH1 0x20 DUP2 ADD SWAP1 POP PUSH2 0x52B5 JUMP JUMPDEST DUP4 DUP2 GT ISZERO PUSH2 0x52DF JUMPI PUSH1 0x0 DUP5 DUP5 ADD MSTORE JUMPDEST POP POP POP POP JUMP JUMPDEST PUSH1 0x0 PUSH1 0x2 DUP3 DIV SWAP1 POP PUSH1 0x1 DUP3 AND DUP1 PUSH2 0x52FD JUMPI PUSH1 0x7F DUP3 AND SWAP2 POP JUMPDEST PUSH1 0x20 DUP3 LT DUP2 EQ ISZERO PUSH2 0x5311 JUMPI PUSH2 0x5310 PUSH2 0x542A JUMP JUMPDEST JUMPDEST POP SWAP2 SWAP1 POP JUMP JUMPDEST PUSH2 0x5320 DUP3 PUSH2 0x5509 JUMP JUMPDEST DUP2 ADD DUP2 DUP2 LT PUSH8 0xFFFFFFFFFFFFFFFF DUP3 GT OR ISZERO PUSH2 0x533F JUMPI PUSH2 0x533E PUSH2 0x54B7 JUMP JUMPDEST JUMPDEST DUP1 PUSH1 0x40 MSTORE POP POP POP JUMP JUMPDEST PUSH1 0x0 PUSH2 0x5353 DUP3 PUSH2 0x5253 JUMP JUMPDEST SWAP2 POP PUSH32 0xFFFFFFFFFFFFFFFFFFFFFFFFFFFFFFFFFFFFFFFFFFFFFFFFFFFFFFFFFFFFFFFF DUP3 EQ ISZERO PUSH2 0x5386 JUMPI PUSH2 0x5385 PUSH2 0x53CC JUMP JUMPDEST JUMPDEST PUSH1 0x1 DUP3 ADD SWAP1 POP SWAP2 SWAP1 POP JUMP JUMPDEST PUSH1 0x0 DUP2 SWAP1 POP SWAP2 SWAP1 POP JUMP JUMPDEST PUSH1 0x0 PUSH2 0x53A6 DUP3 PUSH2 0x5253 JUMP JUMPDEST SWAP2 POP PUSH2 0x53B1 DUP4 PUSH2 0x5253 JUMP JUMPDEST SWAP3 POP DUP3 PUSH2 0x53C1 JUMPI PUSH2 0x53C0 PUSH2 0x53FB JUMP JUMPDEST JUMPDEST DUP3 DUP3 MOD SWAP1 POP SWAP3 SWAP2 POP POP JUMP JUMPDEST PUSH32 0x4E487B7100000000000000000000000000000000000000000000000000000000 PUSH1 0x0 MSTORE PUSH1 0x11 PUSH1 0x4 MSTORE PUSH1 0x24 PUSH1 0x0 REVERT JUMPDEST PUSH32 0x4E487B7100000000000000000000000000000000000000000000000000000000 PUSH1 0x0 MSTORE PUSH1 0x12 PUSH1 0x4 MSTORE PUSH1 0x24 PUSH1 0x0 REVERT JUMPDEST PUSH32 0x4E487B7100000000000000000000000000000000000000000000000000000000 PUSH1 0x0 MSTORE PUSH1 0x22 PUSH1 0x4 MSTORE PUSH1 0x24 PUSH1 0x0 REVERT JUMPDEST PUSH32 0x4E487B7100000000000000000000000000000000000000000000000000000000 PUSH1 0x0 MSTORE PUSH1 0x31 PUSH1 0x4 MSTORE PUSH1 0x24 PUSH1 0x0 REVERT JUMPDEST PUSH32 0x4E487B7100000000000000000000000000000000000000000000000000000000 PUSH1 0x0 MSTORE PUSH1 0x32 PUSH1 0x4 MSTORE PUSH1 0x24 PUSH1 0x0 REVERT JUMPDEST PUSH32 0x4E487B7100000000000000000000000000000000000000000000000000000000 PUSH1 0x0 MSTORE PUSH1 0x41 PUSH1 0x4 MSTORE PUSH1 0x24 PUSH1 0x0 REVERT JUMPDEST PUSH1 0x0 DUP1 REVERT JUMPDEST PUSH1 0x0 DUP1 REVERT JUMPDEST PUSH1 0x0 DUP1 REVERT JUMPDEST PUSH1 0x0 DUP1 REVERT JUMPDEST PUSH1 0x0 DUP1 REVERT JUMPDEST PUSH1 0x0 DUP1 REVERT JUMPDEST PUSH1 0x0 DUP1 REVERT JUMPDEST PUSH1 0x0 PUSH1 0x1F NOT PUSH1 0x1F DUP4 ADD AND SWAP1 POP SWAP2 SWAP1 POP JUMP JUMPDEST PUSH32 0x6F6E6C792074686520617574686F72697A6564206275696C646572206F722063 PUSH1 0x0 DUP3 ADD MSTORE PUSH32 0x6F6E7472616374206F776E6572206D6179207365742055524900000000000000 PUSH1 0x20 DUP3 ADD MSTORE POP JUMP JUMPDEST PUSH32 0x74686520737570706C79206F66207468697320636F6D62696E6174696F6E2068 PUSH1 0x0 DUP3 ADD MSTORE PUSH32 0x6173206265656E20657868617573746564000000000000000000000000000000 PUSH1 0x20 DUP3 ADD MSTORE POP JUMP JUMPDEST PUSH32 0x455243373231456E756D657261626C653A206F776E657220696E646578206F75 PUSH1 0x0 DUP3 ADD MSTORE PUSH32 0x74206F6620626F756E6473000000000000000000000000000000000000000000 PUSH1 0x20 DUP3 ADD MSTORE POP JUMP JUMPDEST PUSH32 0x4552433732313A207472616E7366657220746F206E6F6E204552433732315265 PUSH1 0x0 DUP3 ADD MSTORE PUSH32 0x63656976657220696D706C656D656E7465720000000000000000000000000000 PUSH1 0x20 DUP3 ADD MSTORE POP JUMP JUMPDEST PUSH32 0x4F776E61626C653A206E6577206F776E657220697320746865207A65726F2061 PUSH1 0x0 DUP3 ADD MSTORE PUSH32 0x6464726573730000000000000000000000000000000000000000000000000000 PUSH1 0x20 DUP3 ADD MSTORE POP JUMP JUMPDEST PUSH32 0x4552433732313A207472616E736665722066726F6D20696E636F727265637420 PUSH1 0x0 DUP3 ADD MSTORE PUSH32 0x6F776E6572000000000000000000000000000000000000000000000000000000 PUSH1 0x20 DUP3 ADD MSTORE POP JUMP JUMPDEST PUSH32 0x4552433732313A20746F6B656E20616C7265616479206D696E74656400000000 PUSH1 0x0 DUP3 ADD MSTORE POP JUMP JUMPDEST PUSH32 0x4552433732313A207472616E7366657220746F20746865207A65726F20616464 PUSH1 0x0 DUP3 ADD MSTORE PUSH32 0x7265737300000000000000000000000000000000000000000000000000000000 PUSH1 0x20 DUP3 ADD MSTORE POP JUMP JUMPDEST PUSH32 0x4552433732313A20617070726F766520746F2063616C6C657200000000000000 PUSH1 0x0 DUP3 ADD MSTORE POP JUMP JUMPDEST PUSH32 0x496E636F727265637420616D6F756E74206F6620747261697473207370656369 PUSH1 0x0 DUP3 ADD MSTORE PUSH32 0x6669656400000000000000000000000000000000000000000000000000000000 PUSH1 0x20 DUP3 ADD MSTORE POP JUMP JUMPDEST PUSH32 0x6D61785065725478206578636565646564000000000000000000000000000000 PUSH1 0x0 DUP3 ADD MSTORE POP JUMP JUMPDEST PUSH32 0x4552433732313A206F70657261746F7220717565727920666F72206E6F6E6578 PUSH1 0x0 DUP3 ADD MSTORE PUSH32 0x697374656E7420746F6B656E0000000000000000000000000000000000000000 PUSH1 0x20 DUP3 ADD MSTORE POP JUMP JUMPDEST PUSH32 0x45786365656473204D41585F537570706C790000000000000000000000000000 PUSH1 0x0 DUP3 ADD MSTORE POP JUMP JUMPDEST PUSH32 0x4552433732313A20617070726F76652063616C6C6572206973206E6F74206F77 PUSH1 0x0 DUP3 ADD MSTORE PUSH32 0x6E6572206E6F7220617070726F76656420666F7220616C6C0000000000000000 PUSH1 0x20 DUP3 ADD MSTORE POP JUMP JUMPDEST PUSH32 0x4552433732313A2062616C616E636520717565727920666F7220746865207A65 PUSH1 0x0 DUP3 ADD MSTORE PUSH32 0x726F206164647265737300000000000000000000000000000000000000000000 PUSH1 0x20 DUP3 ADD MSTORE POP JUMP JUMPDEST PUSH32 0x4E6F7420656E6F75676820437265646974730000000000000000000000000000 PUSH1 0x0 DUP3 ADD MSTORE POP JUMP JUMPDEST PUSH32 0x4552433732313A206F776E657220717565727920666F72206E6F6E6578697374 PUSH1 0x0 DUP3 ADD MSTORE PUSH32 0x656E7420746F6B656E0000000000000000000000000000000000000000000000 PUSH1 0x20 DUP3 ADD MSTORE POP JUMP JUMPDEST PUSH32 0x45524337323155524953746F726167653A2055524920736574206F66206E6F6E PUSH1 0x0 DUP3 ADD MSTORE PUSH32 0x6578697374656E7420746F6B656E000000000000000000000000000000000000 PUSH1 0x20 DUP3 ADD MSTORE POP JUMP JUMPDEST PUSH32 0x4552433732313A206D696E7420746F20746865207A65726F2061646472657373 PUSH1 0x0 DUP3 ADD MSTORE POP JUMP JUMPDEST PUSH32 0x4D696E74696E67206973206E6F742063757272656E746C7920656E61626C6564 PUSH1 0x0 DUP3 ADD MSTORE POP JUMP JUMPDEST PUSH32 0x6D696E747350657257616C6C6574206578636565646564000000000000000000 PUSH1 0x0 DUP3 ADD MSTORE POP JUMP JUMPDEST PUSH32 0x45524337323155524953746F726167653A2055524920717565727920666F7220 PUSH1 0x0 DUP3 ADD MSTORE PUSH32 0x6E6F6E6578697374656E7420746F6B656E000000000000000000000000000000 PUSH1 0x20 DUP3 ADD MSTORE POP JUMP JUMPDEST PUSH32 0x4552433732313A20617070726F76656420717565727920666F72206E6F6E6578 PUSH1 0x0 DUP3 ADD MSTORE PUSH32 0x697374656E7420746F6B656E0000000000000000000000000000000000000000 PUSH1 0x20 DUP3 ADD MSTORE POP JUMP JUMPDEST PUSH32 0x4F776E61626C653A2063616C6C6572206973206E6F7420746865206F776E6572 PUSH1 0x0 DUP3 ADD MSTORE POP JUMP JUMPDEST PUSH32 0x496E636F7272656374206D73672E76616C756500000000000000000000000000 PUSH1 0x0 DUP3 ADD MSTORE POP JUMP JUMPDEST PUSH32 0x4552433732313A20617070726F76616C20746F2063757272656E74206F776E65 PUSH1 0x0 DUP3 ADD MSTORE PUSH32 0x7200000000000000000000000000000000000000000000000000000000000000 PUSH1 0x20 DUP3 ADD MSTORE POP JUMP JUMPDEST PUSH32 0x4552433732313A207472616E736665722063616C6C6572206973206E6F74206F PUSH1 0x0 DUP3 ADD MSTORE PUSH32 0x776E6572206E6F7220617070726F766564000000000000000000000000000000 PUSH1 0x20 DUP3 ADD MSTORE POP JUMP JUMPDEST PUSH32 0x455243373231456E756D657261626C653A20676C6F62616C20696E646578206F PUSH1 0x0 DUP3 ADD MSTORE PUSH32 0x7574206F6620626F756E64730000000000000000000000000000000000000000 PUSH1 0x20 DUP3 ADD MSTORE POP JUMP JUMPDEST PUSH2 0x5C4B DUP2 PUSH2 0x51DF JUMP JUMPDEST DUP2 EQ PUSH2 0x5C56 JUMPI PUSH1 0x0 DUP1 REVERT JUMPDEST POP JUMP JUMPDEST PUSH2 0x5C62 DUP2 PUSH2 0x51F1 JUMP JUMPDEST DUP2 EQ PUSH2 0x5C6D JUMPI PUSH1 0x0 DUP1 REVERT JUMPDEST POP JUMP JUMPDEST PUSH2 0x5C79 DUP2 PUSH2 0x51FD JUMP JUMPDEST DUP2 EQ PUSH2 0x5C84 JUMPI PUSH1 0x0 DUP1 REVERT JUMPDEST POP JUMP JUMPDEST PUSH2 0x5C90 DUP2 PUSH2 0x5207 JUMP JUMPDEST DUP2 EQ PUSH2 0x5C9B JUMPI PUSH1 0x0 DUP1 REVERT JUMPDEST POP JUMP JUMPDEST PUSH2 0x5CA7 DUP2 PUSH2 0x5253 JUMP JUMPDEST DUP2 EQ PUSH2 0x5CB2 JUMPI PUSH1 0x0 DUP1 REVERT JUMPDEST POP JUMP JUMPDEST PUSH2 0x5CBE DUP2 PUSH2 0x525D JUMP JUMPDEST DUP2 EQ PUSH2 0x5CC9 JUMPI PUSH1 0x0 DUP1 REVERT JUMPDEST POP JUMP INVALID LOG2 PUSH5 0x6970667358 0x22 SLT KECCAK256 0xD2 SWAP13 PUSH2 0xAD8D 0xAD 0xF SWAP1 0xDC NOT SUB 0xB8 0xA5 0xA5 0xA5 0xB9 0xBA 0xC3 GAS RETURN LOG0 0xC4 0xF9 0xE0 CALL DUP15 0xCD 0xF7 0x4E 0xCC 0xB6 0xEF PUSH5 0x736F6C6343 STOP ADDMOD SMOD STOP CALLER "
		},
		"gasEstimates": {
			"creation": {
				"codeDepositCost": "4762000",
				"executionCost": "infinite",
				"totalCost": "infinite"
			},
			"external": {
				"MAX_Supply()": "infinite",
				"_attributeCounts(uint256)": "infinite",
				"_comboIndex(bytes32)": "infinite",
				"_mintedAmount(address)": "2924",
				"addCredit(address,uint256)": "infinite",
				"approve(address,uint256)": "infinite",
				"balanceOf(address)": "2925",
				"balanceOfCredit(address)": "2925",
				"disableCombinationLimit(uint256[])": "infinite",
				"getApproved(uint256)": "5251",
				"hasSaleStarted()": "2583",
				"isApprovedForAll(address,address)": "infinite",
				"maxPerTx()": "infinite",
				"mint(uint256,uint256[])": "infinite",
				"mintCredit(uint256[])": "infinite",
				"mintsPerWallet()": "infinite",
				"name()": "infinite",
				"owner()": "2611",
				"ownerOf(uint256)": "3132",
				"pauseSale()": "26762",
				"price()": "2562",
				"renounceOwnership()": "30400",
				"safeTransferFrom(address,address,uint256)": "infinite",
				"safeTransferFrom(address,address,uint256,bytes)": "infinite",
				"setApprovalForAll(address,bool)": "infinite",
				"setAttributeConstraints(uint256[])": "infinite",
				"setCombinationLimit(uint256[],uint32)": "infinite",
				"setDefaultURI(string)": "infinite",
				"setNftBuilder(address)": "27074",
				"setPriceFtm(uint256)": "infinite",
				"setPriceWei(uint256)": "24849",
				"setTokenURI(uint256,string)": "infinite",
				"startSale()": "26696",
				"supportsInterface(bytes4)": "952",
				"symbol()": "infinite",
				"tokenByIndex(uint256)": "infinite",
				"tokenOfOwnerByIndex(address,uint256)": "infinite",
				"tokenURI(uint256)": "infinite",
				"tokensOfOwner(address)": "infinite",
				"totalSupply()": "2535",
				"transferFrom(address,address,uint256)": "infinite",
				"transferOwnership(address)": "30813",
				"withdrawAll()": "infinite"
			},
			"internal": {
				"_baseURI()": "infinite",
				"_beforeTokenTransfer(address,address,uint256)": "infinite",
				"_burn(uint256)": "infinite"
			}
		},
		"methodIdentifiers": {
			"MAX_Supply()": "0b191314",
			"_attributeCounts(uint256)": "2ac1e552",
			"_comboIndex(bytes32)": "e2084db0",
			"_mintedAmount(address)": "ed64892b",
			"addCredit(address,uint256)": "7d27d66c",
			"approve(address,uint256)": "095ea7b3",
			"balanceOf(address)": "70a08231",
			"balanceOfCredit(address)": "14a1fc35",
			"disableCombinationLimit(uint256[])": "5a743c10",
			"getApproved(uint256)": "081812fc",
			"hasSaleStarted()": "1c8b232d",
			"isApprovedForAll(address,address)": "e985e9c5",
			"maxPerTx()": "f968adbe",
			"mint(uint256,uint256[])": "2d69044f",
			"mintCredit(uint256[])": "87ec11b3",
			"mintsPerWallet()": "40221e20",
			"name()": "06fdde03",
			"owner()": "8da5cb5b",
			"ownerOf(uint256)": "6352211e",
			"pauseSale()": "55367ba9",
			"price()": "a035b1fe",
			"renounceOwnership()": "715018a6",
			"safeTransferFrom(address,address,uint256)": "42842e0e",
			"safeTransferFrom(address,address,uint256,bytes)": "b88d4fde",
			"setApprovalForAll(address,bool)": "a22cb465",
			"setAttributeConstraints(uint256[])": "d13cb5af",
			"setCombinationLimit(uint256[],uint32)": "8bdc8776",
			"setDefaultURI(string)": "da1b9e08",
			"setNftBuilder(address)": "384242be",
			"setPriceFtm(uint256)": "4c1a8642",
			"setPriceWei(uint256)": "c1e4dfda",
			"setTokenURI(uint256,string)": "162094c4",
			"startSale()": "b66a0e5d",
			"supportsInterface(bytes4)": "01ffc9a7",
			"symbol()": "95d89b41",
			"tokenByIndex(uint256)": "4f6ccce7",
			"tokenOfOwnerByIndex(address,uint256)": "2f745c59",
			"tokenURI(uint256)": "c87b56dd",
			"tokensOfOwner(address)": "8462151c",
			"totalSupply()": "18160ddd",
			"transferFrom(address,address,uint256)": "23b872dd",
			"transferOwnership(address)": "f2fde38b",
			"withdrawAll()": "853828b6"
		}
	},
	"abi": [
		{
			"inputs": [
				{
					"internalType": "string",
					"name": "name",
					"type": "string"
				},
				{
					"internalType": "string",
					"name": "symbol",
					"type": "string"
				},
				{
					"internalType": "string",
					"name": "defaultURI",
					"type": "string"
				},
				{
					"internalType": "uint256",
					"name": "priceWei",
					"type": "uint256"
				},
				{
					"internalType": "uint256",
					"name": "supply",
					"type": "uint256"
				},
				{
					"internalType": "uint256",
					"name": "mintsPerTx",
					"type": "uint256"
				},
				{
					"internalType": "uint256",
					"name": "layerCount",
					"type": "uint256"
				},
				{
					"internalType": "uint256",
					"name": "walletAllowance",
					"type": "uint256"
				}
			],
			"stateMutability": "nonpayable",
			"type": "constructor"
		},
		{
			"anonymous": false,
			"inputs": [
				{
					"indexed": true,
					"internalType": "address",
					"name": "owner",
					"type": "address"
				},
				{
					"indexed": true,
					"internalType": "address",
					"name": "approved",
					"type": "address"
				},
				{
					"indexed": true,
					"internalType": "uint256",
					"name": "tokenId",
					"type": "uint256"
				}
			],
			"name": "Approval",
			"type": "event"
		},
		{
			"anonymous": false,
			"inputs": [
				{
					"indexed": true,
					"internalType": "address",
					"name": "owner",
					"type": "address"
				},
				{
					"indexed": true,
					"internalType": "address",
					"name": "operator",
					"type": "address"
				},
				{
					"indexed": false,
					"internalType": "bool",
					"name": "approved",
					"type": "bool"
				}
			],
			"name": "ApprovalForAll",
			"type": "event"
		},
		{
			"anonymous": false,
			"inputs": [
				{
					"indexed": true,
					"internalType": "address",
					"name": "_from",
					"type": "address"
				},
				{
					"indexed": false,
					"internalType": "uint256[]",
					"name": "_traits",
					"type": "uint256[]"
				},
				{
					"indexed": false,
					"internalType": "uint256",
					"name": "_tokenId",
					"type": "uint256"
				}
			],
			"name": "CustomMint",
			"type": "event"
		},
		{
			"anonymous": false,
			"inputs": [
				{
					"indexed": true,
					"internalType": "address",
					"name": "previousOwner",
					"type": "address"
				},
				{
					"indexed": true,
					"internalType": "address",
					"name": "newOwner",
					"type": "address"
				}
			],
			"name": "OwnershipTransferred",
			"type": "event"
		},
		{
			"anonymous": false,
			"inputs": [
				{
					"indexed": true,
					"internalType": "address",
					"name": "from",
					"type": "address"
				},
				{
					"indexed": true,
					"internalType": "address",
					"name": "to",
					"type": "address"
				},
				{
					"indexed": true,
					"internalType": "uint256",
					"name": "tokenId",
					"type": "uint256"
				}
			],
			"name": "Transfer",
			"type": "event"
		},
		{
			"inputs": [],
			"name": "MAX_Supply",
			"outputs": [
				{
					"internalType": "uint256",
					"name": "",
					"type": "uint256"
				}
			],
			"stateMutability": "view",
			"type": "function"
		},
		{
			"inputs": [
				{
					"internalType": "uint256",
					"name": "",
					"type": "uint256"
				}
			],
			"name": "_attributeCounts",
			"outputs": [
				{
					"internalType": "uint256",
					"name": "",
					"type": "uint256"
				}
			],
			"stateMutability": "view",
			"type": "function"
		},
		{
			"inputs": [
				{
					"internalType": "bytes32",
					"name": "",
					"type": "bytes32"
				}
			],
			"name": "_comboIndex",
			"outputs": [
				{
					"internalType": "uint32",
					"name": "count",
					"type": "uint32"
				},
				{
					"internalType": "uint32",
					"name": "maxSupply",
					"type": "uint32"
				},
				{
					"internalType": "bool",
					"name": "limited",
					"type": "bool"
				}
			],
			"stateMutability": "view",
			"type": "function"
		},
		{
			"inputs": [
				{
					"internalType": "address",
					"name": "",
					"type": "address"
				}
			],
			"name": "_mintedAmount",
			"outputs": [
				{
					"internalType": "uint256",
					"name": "",
					"type": "uint256"
				}
			],
			"stateMutability": "view",
			"type": "function"
		},
		{
			"inputs": [
				{
					"internalType": "address",
					"name": "owner",
					"type": "address"
				},
				{
					"internalType": "uint256",
					"name": "credits",
					"type": "uint256"
				}
			],
			"name": "addCredit",
			"outputs": [],
			"stateMutability": "nonpayable",
			"type": "function"
		},
		{
			"inputs": [
				{
					"internalType": "address",
					"name": "to",
					"type": "address"
				},
				{
					"internalType": "uint256",
					"name": "tokenId",
					"type": "uint256"
				}
			],
			"name": "approve",
			"outputs": [],
			"stateMutability": "nonpayable",
			"type": "function"
		},
		{
			"inputs": [
				{
					"internalType": "address",
					"name": "owner",
					"type": "address"
				}
			],
			"name": "balanceOf",
			"outputs": [
				{
					"internalType": "uint256",
					"name": "",
					"type": "uint256"
				}
			],
			"stateMutability": "view",
			"type": "function"
		},
		{
			"inputs": [
				{
					"internalType": "address",
					"name": "owner",
					"type": "address"
				}
			],
			"name": "balanceOfCredit",
			"outputs": [
				{
					"internalType": "uint256",
					"name": "",
					"type": "uint256"
				}
			],
			"stateMutability": "view",
			"type": "function"
		},
		{
			"inputs": [
				{
					"internalType": "uint256[]",
					"name": "chosenTraits",
					"type": "uint256[]"
				}
			],
			"name": "disableCombinationLimit",
			"outputs": [],
			"stateMutability": "nonpayable",
			"type": "function"
		},
		{
			"inputs": [
				{
					"internalType": "uint256",
					"name": "tokenId",
					"type": "uint256"
				}
			],
			"name": "getApproved",
			"outputs": [
				{
					"internalType": "address",
					"name": "",
					"type": "address"
				}
			],
			"stateMutability": "view",
			"type": "function"
		},
		{
			"inputs": [],
			"name": "hasSaleStarted",
			"outputs": [
				{
					"internalType": "bool",
					"name": "",
					"type": "bool"
				}
			],
			"stateMutability": "view",
			"type": "function"
		},
		{
			"inputs": [
				{
					"internalType": "address",
					"name": "owner",
					"type": "address"
				},
				{
					"internalType": "address",
					"name": "operator",
					"type": "address"
				}
			],
			"name": "isApprovedForAll",
			"outputs": [
				{
					"internalType": "bool",
					"name": "",
					"type": "bool"
				}
			],
			"stateMutability": "view",
			"type": "function"
		},
		{
			"inputs": [],
			"name": "maxPerTx",
			"outputs": [
				{
					"internalType": "uint256",
					"name": "",
					"type": "uint256"
				}
			],
			"stateMutability": "view",
			"type": "function"
		},
		{
			"inputs": [
				{
					"internalType": "uint256",
					"name": "mintAmount",
					"type": "uint256"
				},
				{
					"internalType": "uint256[]",
					"name": "chosenTraits",
					"type": "uint256[]"
				}
			],
			"name": "mint",
			"outputs": [],
			"stateMutability": "payable",
			"type": "function"
		},
		{
			"inputs": [
				{
					"internalType": "uint256[]",
					"name": "chosenTraits",
					"type": "uint256[]"
				}
			],
			"name": "mintCredit",
			"outputs": [],
			"stateMutability": "nonpayable",
			"type": "function"
		},
		{
			"inputs": [],
			"name": "mintsPerWallet",
			"outputs": [
				{
					"internalType": "uint256",
					"name": "",
					"type": "uint256"
				}
			],
			"stateMutability": "view",
			"type": "function"
		},
		{
			"inputs": [],
			"name": "name",
			"outputs": [
				{
					"internalType": "string",
					"name": "",
					"type": "string"
				}
			],
			"stateMutability": "view",
			"type": "function"
		},
		{
			"inputs": [],
			"name": "owner",
			"outputs": [
				{
					"internalType": "address",
					"name": "",
					"type": "address"
				}
			],
			"stateMutability": "view",
			"type": "function"
		},
		{
			"inputs": [
				{
					"internalType": "uint256",
					"name": "tokenId",
					"type": "uint256"
				}
			],
			"name": "ownerOf",
			"outputs": [
				{
					"internalType": "address",
					"name": "",
					"type": "address"
				}
			],
			"stateMutability": "view",
			"type": "function"
		},
		{
			"inputs": [],
			"name": "pauseSale",
			"outputs": [],
			"stateMutability": "nonpayable",
			"type": "function"
		},
		{
			"inputs": [],
			"name": "price",
			"outputs": [
				{
					"internalType": "uint256",
					"name": "",
					"type": "uint256"
				}
			],
			"stateMutability": "view",
			"type": "function"
		},
		{
			"inputs": [],
			"name": "renounceOwnership",
			"outputs": [],
			"stateMutability": "nonpayable",
			"type": "function"
		},
		{
			"inputs": [
				{
					"internalType": "address",
					"name": "from",
					"type": "address"
				},
				{
					"internalType": "address",
					"name": "to",
					"type": "address"
				},
				{
					"internalType": "uint256",
					"name": "tokenId",
					"type": "uint256"
				}
			],
			"name": "safeTransferFrom",
			"outputs": [],
			"stateMutability": "nonpayable",
			"type": "function"
		},
		{
			"inputs": [
				{
					"internalType": "address",
					"name": "from",
					"type": "address"
				},
				{
					"internalType": "address",
					"name": "to",
					"type": "address"
				},
				{
					"internalType": "uint256",
					"name": "tokenId",
					"type": "uint256"
				},
				{
					"internalType": "bytes",
					"name": "_data",
					"type": "bytes"
				}
			],
			"name": "safeTransferFrom",
			"outputs": [],
			"stateMutability": "nonpayable",
			"type": "function"
		},
		{
			"inputs": [
				{
					"internalType": "address",
					"name": "operator",
					"type": "address"
				},
				{
					"internalType": "bool",
					"name": "approved",
					"type": "bool"
				}
			],
			"name": "setApprovalForAll",
			"outputs": [],
			"stateMutability": "nonpayable",
			"type": "function"
		},
		{
			"inputs": [
				{
					"internalType": "uint256[]",
					"name": "versionsPerTrait",
					"type": "uint256[]"
				}
			],
			"name": "setAttributeConstraints",
			"outputs": [],
			"stateMutability": "nonpayable",
			"type": "function"
		},
		{
			"inputs": [
				{
					"internalType": "uint256[]",
					"name": "chosenTraits",
					"type": "uint256[]"
				},
				{
					"internalType": "uint32",
					"name": "limit",
					"type": "uint32"
				}
			],
			"name": "setCombinationLimit",
			"outputs": [],
			"stateMutability": "nonpayable",
			"type": "function"
		},
		{
			"inputs": [
				{
					"internalType": "string",
					"name": "defaultURI",
					"type": "string"
				}
			],
			"name": "setDefaultURI",
			"outputs": [],
			"stateMutability": "nonpayable",
			"type": "function"
		},
		{
			"inputs": [
				{
					"internalType": "address",
					"name": "newBuilder",
					"type": "address"
				}
			],
			"name": "setNftBuilder",
			"outputs": [],
			"stateMutability": "nonpayable",
			"type": "function"
		},
		{
			"inputs": [
				{
					"internalType": "uint256",
					"name": "newPrice",
					"type": "uint256"
				}
			],
			"name": "setPriceFtm",
			"outputs": [],
			"stateMutability": "nonpayable",
			"type": "function"
		},
		{
			"inputs": [
				{
					"internalType": "uint256",
					"name": "newPrice",
					"type": "uint256"
				}
			],
			"name": "setPriceWei",
			"outputs": [],
			"stateMutability": "nonpayable",
			"type": "function"
		},
		{
			"inputs": [
				{
					"internalType": "uint256",
					"name": "tokenId",
					"type": "uint256"
				},
				{
					"internalType": "string",
					"name": "URI",
					"type": "string"
				}
			],
			"name": "setTokenURI",
			"outputs": [],
			"stateMutability": "nonpayable",
			"type": "function"
		},
		{
			"inputs": [],
			"name": "startSale",
			"outputs": [],
			"stateMutability": "nonpayable",
			"type": "function"
		},
		{
			"inputs": [
				{
					"internalType": "bytes4",
					"name": "interfaceId",
					"type": "bytes4"
				}
			],
			"name": "supportsInterface",
			"outputs": [
				{
					"internalType": "bool",
					"name": "",
					"type": "bool"
				}
			],
			"stateMutability": "view",
			"type": "function"
		},
		{
			"inputs": [],
			"name": "symbol",
			"outputs": [
				{
					"internalType": "string",
					"name": "",
					"type": "string"
				}
			],
			"stateMutability": "view",
			"type": "function"
		},
		{
			"inputs": [
				{
					"internalType": "uint256",
					"name": "index",
					"type": "uint256"
				}
			],
			"name": "tokenByIndex",
			"outputs": [
				{
					"internalType": "uint256",
					"name": "",
					"type": "uint256"
				}
			],
			"stateMutability": "view",
			"type": "function"
		},
		{
			"inputs": [
				{
					"internalType": "address",
					"name": "owner",
					"type": "address"
				},
				{
					"internalType": "uint256",
					"name": "index",
					"type": "uint256"
				}
			],
			"name": "tokenOfOwnerByIndex",
			"outputs": [
				{
					"internalType": "uint256",
					"name": "",
					"type": "uint256"
				}
			],
			"stateMutability": "view",
			"type": "function"
		},
		{
			"inputs": [
				{
					"internalType": "uint256",
					"name": "tokenId",
					"type": "uint256"
				}
			],
			"name": "tokenURI",
			"outputs": [
				{
					"internalType": "string",
					"name": "",
					"type": "string"
				}
			],
			"stateMutability": "view",
			"type": "function"
		},
		{
			"inputs": [
				{
					"internalType": "address",
					"name": "_owner",
					"type": "address"
				}
			],
			"name": "tokensOfOwner",
			"outputs": [
				{
					"internalType": "uint256[]",
					"name": "",
					"type": "uint256[]"
				}
			],
			"stateMutability": "view",
			"type": "function"
		},
		{
			"inputs": [],
			"name": "totalSupply",
			"outputs": [
				{
					"internalType": "uint256",
					"name": "",
					"type": "uint256"
				}
			],
			"stateMutability": "view",
			"type": "function"
		},
		{
			"inputs": [
				{
					"internalType": "address",
					"name": "from",
					"type": "address"
				},
				{
					"internalType": "address",
					"name": "to",
					"type": "address"
				},
				{
					"internalType": "uint256",
					"name": "tokenId",
					"type": "uint256"
				}
			],
			"name": "transferFrom",
			"outputs": [],
			"stateMutability": "nonpayable",
			"type": "function"
		},
		{
			"inputs": [
				{
					"internalType": "address",
					"name": "newOwner",
					"type": "address"
				}
			],
			"name": "transferOwnership",
			"outputs": [],
			"stateMutability": "nonpayable",
			"type": "function"
		},
		{
			"inputs": [],
			"name": "withdrawAll",
			"outputs": [],
			"stateMutability": "nonpayable",
			"type": "function"
		}
	]
}